0000091001095395302013-09-02367675CE09029804124145520100995130  00000000005739.00MXP000000000RODRIGO VAZQUEZ PULIDO        00000002013/09/02            Y15   0000
0000091001095395302013-09-02323573CE09029804051129520130025135  00000000002000.00MXP000000000RUBEN MELENDEZ JIMENEZ        00000002013/09/02            Y15   0000
0000091001095395302013-09-02283783CE09029804050033620110025480  00000000022000.00MXP000000000OSWLADO ALFREDO DOMINGUEZ E.  00000002013/09/02            Y15   0000
0000091001095395302013-09-02246868CE195069220312322007001ESC95  00000000001708.00MXP000000000570825                        00000002013/09/02            Y15   0000
0000091001095395302013-09-02244106CE09029804070027420060207303  00000000002955.00MXP000000000CIRIACO JUAN MARTINEZ MARTINEZ00000002013/09/02            Y15   0000
0000091001095395302013-09-02241358CE09029801104112220120046865  00000000033878.00MXP000000000ERIC RENE DOMINGUEZ VALLE     00000002013/09/02            Y15   0000
0000091001095395302013-09-02220894CE09029802204179120040207521  00000000000600.00MXP000000000JOSE EDGAR ROMERO RUIZ        00000002013/09/02            Y15   0000
0000091001095395302013-09-02210579CE195069220309072008001ESC95  00000000006500.00MXP000000000571882                        00000002013/09/02            Y15   0000
0000091001095395302013-09-02154528CE09029802204046820080204368  00000000005634.44MXP000000000ABDEL PEREZ LORENZANA         00000002013/09/02            Y15   0000
0000091001095395302013-09-02031828CARGO CHEQUE                  10000000005000.00MXP000000000C000031828ECTIVO              00000002013/09/02            C03   0000
0000091001095395302013-09-02031827CARGO CHEQUE                  10000000001600.00MXP000000000C000031827ECTIVO              00000002013/09/02            C03   0000
0000091001095395302013-09-02031824CARGO CHEQUE                  10000000003682.00MXP000000000C000031824ECTIVO              00000002013/09/02            C03   0000
0000091001095395302013-09-02031814CARGO CHEQUE                  10000000017500.00MXP000000000C000031814                    00000002013/09/02            C03   0000
0000091001095395302013-09-02031813CARGO CHEQUE                  10000000006500.00MXP000000000C000031813ECTIVO              00000002013/09/02            C03   0000
0000091001095395302013-09-02031799CARGO CHEQUE                  10000000006000.00MXP000000000C000031799ECTIVO              00000002013/09/02            C03   0000
0000091001095395302013-09-02031796CARGO CHEQUE                  10000000007975.80MXP000000000C000031796ECTIVO              00000002013/09/02            C03   0000
0000091001095395302013-09-02031783CARGO CHEQUE                  10000000001500.00MXP000000000C000031783ECTIVO              00000002013/09/02            C03   0000
0000091001095395302013-09-02031772CARGO CHEQUE                  10000000000400.00MXP000000000C000031772ECTIVO              00000002013/09/02            C03   0000
0000091001095395302013-09-02031765CARGO CHEQUE                  10000000010000.00MXP000000000C000031765ECTIVO              00000002013/08/31            C03   0000
0000091001095395302013-09-02031758CARGO CHEQUE                  10000000006175.00MXP000000000C000031758ECTIVO              00000002013/09/02            C03   0000
0000091001095395302013-09-02031705CARGO CHEQUE                  10000000044117.96MXP000000000C000031705                    00000002013/09/02            C03   0000
0000091001095395302013-09-02000000INTERESES MES ANTERIOR        00000000000026.11MXP000000000                              00000002013/09/02            C19   0000
0000091001095395302013-09-02000000VENTA FONDOS DE INVERSION     00000003600023.54MXP000000000OPERADO EN CANAL   SUCU       00000002013/09/02            F04   0000
0000091001095395302013-09-02000000SALDO ULTIMA TRANS            20000005687987.02MXP000000000                              00000002013/09/02                  0000
0000091001095399992013-09-02420093CE09027004011026120131015132  00000000015000.00MXP000000000JULIO CESAR FLORES CASTRO     00000002013/09/02            Y15   0000
0000091001095399992013-09-02418725CE09027004011026120131056862  00000000018997.00MXP000000000JULIO CESAR FLORES CASTRO     00000002013/09/02            Y15   0000
0000091001095399992013-09-02417757CE09027004011026120131055484  00000000002200.00MXP000000000JULIO CESAR FLORES CASTRO     00000002013/09/02            Y15   0000
0000091001095399992013-09-02387274CE195085330503132013004ESC95  00000000007000.00MXP000000000577872                        00000002013/09/02            Y15   0000
0000091001095399992013-09-02386151CE195085330503132013005ESC95  00000000000306.90MXP000000000572830                        00000002013/09/02            Y15   0000
0000091001095399992013-09-02363927CE09027004140009720131035481  00000000003069.00MXP000000000NELSON TRINIDAD MARTINEZ      00000002013/09/02            Y15   0000
0000091001095399992013-09-02363275CE09027004140009720131015137  00000000003650.00MXP000000000NELSON TRINIDAD MARTINEZ      00000002013/09/02            Y15   0000
0000091001095399992013-09-02229261CE09027004122024320131050876  00000000009207.00MXP000000000ELFEGO NICOLAS DE JESUS       00000002013/09/02            Y15   0000
0000091001095399992013-09-02228903CE09027004122024320131035489  00000000003069.00MXP000000000ELFEGO NICOLAS DE JESUS       00000002013/09/02            Y15   0000
0000091001095399992013-09-02228628CE09027004122024320131015135  00000000020805.00MXP000000000ELFEGO NICOLAS DE JESUS       00000002013/09/02            Y15   0000
0000091001095399992013-09-02225878CE09027004080024620131010873  00000000002954.00MXP000000000PRISCILIANO GARCIA RUIZ       00000002013/09/02            Y15   0000
0000091001095399992013-09-02225178CE09027004080024620131055480  00000000022200.00MXP000000000PRISCILIANO GARCIA RUIZ       00000002013/09/02            Y15   0000
0000091001095399992013-09-02224693CE09027004080024620131035136  00000000004846.00MXP000000000PRISCILIANO GARCIA RUIZ       00000002013/09/02            Y15   0000
0000091001095399992013-09-02066416SPEI ENVIADO                  10000000005171.17MXP0000000000000071416000832011202 ORD 11800000002013/09/02            T17   0000
0000091001095399992013-09-02057826SPEI ENVIADO                  10000000002613.40MXP0000000000000070330601182011202 ORD 12300000002013/09/02            T17   0000
0000091001095399992013-09-02057825SPEI ENVIADO                  10000000006616.96MXP0000000000000069330804442012203 ORD 12300000002013/09/02            T17   0000
0000091001095399992013-09-02057824SPEI ENVIADO                  10000000006950.00MXP000000000000006833084442012202 ORD 123 00000002013/09/02            T17   0000
0000091001095399992013-09-02057823SPEI ENVIADO                  10000000009922.50MXP0000000000000067330702912011203 ORD 12300000002013/09/02            T17   0000
0000091001095399992013-09-02057822SPEI ENVIADO                  10000000041391.00MXP0000000000000066330702912011202 ORD 12300000002013/09/02            T17   0000
0000091001095399992013-09-02043412CARGO CHEQUE                  10000000023417.90MXP000000000C000043412ECTIVO              00000002013/09/02            C03   0000
0000091001095399992013-09-02043411CARGO CHEQUE                  10000000004618.40MXP000000000C000043411ECTIVO              00000002013/09/02            C03   0000
0000091001095399992013-09-02043410CARGO CHEQUE                  10000000010000.00MXP000000000C000043410ECTIVO              00000002013/09/02            C03   0000
0000091001095399992013-09-02043409CARGO CHEQUE                  10000000008000.00MXP000000000C000043409ECTIVO              00000002013/09/02            C03   0000
0000091001095399992013-09-02043312CARGO CHEQUE                  10000000018420.00MXP000000000C000043312                    00000002013/08/31            C03   0000
0000091001095399992013-09-02000000INTERESES MES ANTERIOR        00000000000032.22MXP000000000                              00000002013/09/02            C19   0000
0000091001095399992013-09-02000000SALDO ULTIMA TRANS            20000002084683.82MXP000000000                              00000002013/09/02                  0000
0000091001095402452013-09-02325493CE09026104090016920122995135  00000000010565.90MXP000000000MARCELO LEON ORTEGA           00000002013/09/02            Y15   0000
0000091001095402452013-09-02315057CE09026104100001420122030870  00000000005908.00MXP000000000JOSE JUAN TAPIA LIMON         00000002013/09/02            Y15   0000
0000091001095402452013-09-02000000INTERESES MES ANTERIOR        00000000000002.36MXP000000000                              00000002013/09/02            C19   0000
0000091001095402452013-09-02000000SALDO ULTIMA TRANS            20000000190419.73MXP000000000                              00000002013/09/02                  0000
0000091001484718432013-09-02012105ABONO MISMA PLAZA VIA CW      00000000199400.00MXP000033695ENVIO1336.19MOVS.OF.1287/13   00050722013/09/02PROCURADURIAW02PTC0000
0000091001484718432013-09-02000000INTERESES MES ANTERIOR        00000000000002.00MXP000000000                              00000002013/09/02            C19   0000
0000091001484718432013-09-02000000SALDO ULTIMA TRANS            20000000299159.25MXP000000000                              00000002013/09/02                  0000
0000091001906790892013-09-02000000SALDO ULTIMA TRANS            2MXP000000000                              00000002013/01/16                  0000
0000091001907543312013-09-02118820SPEI ENVIADO                  10000000003000.00MXP0000000000000902ADQ DE INSUMOS CAFETERI00000002013/09/02            T17   0000
0000091001907543312013-09-02000000INTERESES MES ANTERIOR        00000000000000.05MXP000000000                              00000002013/09/02            C19   0000
0000091001907543312013-09-02000000SALDO ULTIMA TRANS            20000000001815.83MXP000000000                              00000002013/09/02                  0000
0000091001907600642013-09-02000057DEPOSITO EFECTIVO/CHEQUE      00000000000431.00MXP0000000000000573                       00000002013/09/02            C02   0000
0000091001907600642013-09-02000000INTERESES MES ANTERIOR        00000000000020.42MXP000000000                              00000002013/09/02            C19   0000
0000091001907600642013-09-02000000SALDO ULTIMA TRANS            20000001232757.34MXP000000000                              00000002013/09/02                  0000
0000091001919963982013-09-02000000SALDO ULTIMA TRANS            20000000000200.01MXP000000000                              00000002013/02/26                  0000
0000091001921090692013-09-02000000INTERESES MES ANTERIOR        00000000000003.67MXP000000000                              00000002013/09/02            C19   0000
0000091001921090692013-09-02000000SALDO ULTIMA TRANS            20000000431827.51MXP000000000                              00000002013/09/02                  0000
