0000091001095395302013-09-03496465CE09029804090063020130204358  00000000005301.03MXP000000000JOSE FLORENTINO LUNA MORALES  00000002013/09/03            Y15   0000
0000091001095395302013-09-03492659CE195069220215561998001ESC95  00000000000594.00MXP000000000582806                        00000002013/09/03            Y15   0000
0000091001095395302013-09-03227354CE195069220608052001001ESC95  00000000003000.00MXP000000000573816                        00000002013/09/03            Y15   0000
0000091001095395302013-09-03191900CE09029804070114920110125482  00000000004000.00MXP000000000ANSELMO MORALES LOYOLA        00000002013/09/03            Y15   0000
0000091001095395302013-09-03172579CE195069220208672010001ESC95  00000000001000.00MXP000000000581808                        00000002013/09/03            Y15   0000
0000091001095395302013-09-03172551CE195069220114792012001ESC95  00000000004000.00MXP000000000584892                        00000002013/09/03            Y15   0000
0000091001095395302013-09-03169433CE195069220100502009001ESC95  00000000003544.80MXP000000000584850                        00000002013/09/03            Y15   0000
0000091001095395302013-09-03159566CE195069220413522005001ESC95  00000000001908.00MXP000000000586824                        00000002013/09/03            Y15   0000
0000091001095395302013-09-03155687CE195069220109932004001ESC95  00000000001350.00MXP000000000585865                        00000002013/09/03            Y15   0000
0000091001095395302013-09-03155054CE195069220306512005001ESC95  00000000002000.00MXP000000000582811                        00000002013/09/03            Y15   0000
0000091001095395302013-09-03121143CE195069220215662001001ESC95  00000000000500.00MXP000000000585857                        00000002013/09/03            Y15   0000
0000091001095395302013-09-03106245CE195069220611182013001ESC95  00000000002000.00MXP000000000572860                        00000002013/09/03            Y15   0000
0000091001095395302013-09-03099756CE195069220110892010001ESC95  00000000003544.80MXP000000000584830                        00000002013/09/03            Y15   0000
0000091001095395302013-09-03094245CE195069220106162007001ESC95  00000000002723.00MXP000000000580874                        00000002013/09/03            Y15   0000
0000091001095395302013-09-03092633CE195069110109482012001ESC95  00000000003500.00MXP000000000578816                        00000002013/09/03            Y15   0000
0000091001095395302013-09-03089448CE09029804131013020090202492  00000000002000.00MXP000000000RAMON MARIO CARVAJAL RAMOS    00000002013/09/03            Y15   0000
0000091001095395302013-09-03084294CE195069220614012011001ESC95  00000000004000.00MXP000000000584818                        00000002013/09/03            Y15   0000
0000091001095395302013-09-03077246CE195069220105702008001ESC95  00000000005524.20MXP000000000584868                        00000002013/09/03            Y15   0000
