0074068801095395302013-10-31383923CE09029804051087120100209916  00000000005000.00MXP000000000MARCO ANTONIO PRISCI LIANO LOZ00000002013/10/31            Y15   0000
0074068801095395302013-10-31381372CE09029804131147920120203312  00000000000500.00MXP000000000ROMAN FLORES GARCIA           00000002013/10/31            Y15   0000
0074068801095395302013-10-31338717CE09029802204048520080204750  00000000001200.00MXP000000000JOSE OMAR GARCIA PALETA       00000002013/10/31            Y15   0000
0074068801095395302013-10-31338467CE09029802204048520080202788  00000000001200.00MXP000000000JOSE OMAR GARCIA PALETA       00000002013/10/31            Y15   0000
0074068801095395302013-10-31338238CE09029802204048520080209247  00000000001200.00MXP000000000JOSE OMAR GARCIA PALETA       00000002013/10/31            Y15   0000
0074068801095395302013-10-31335275CE09029804051138020130205133  00000000005000.00MXP000000000MARI#O ZENTENO CASTILLO       00000002013/10/31            Y15   0000
0074068801095395302013-10-31032240CARGO CHEQUE                  10000000003000.00MXP000000000C000032240ECTIVO              00000002013/10/31            C03   0000
0074068801095395302013-10-31032238CARGO CHEQUE                  10000000002800.00MXP000000000C000032238ECTIVO              00000002013/10/31            C03   0000
0074068801095395302013-10-31032232CARGO CHEQUE                  10000000003000.00MXP000000000C000032232ECTIVO              00000002013/10/31            C03   0000
0074068801095395302013-10-31032231CARGO CHEQUE                  10000000003000.00MXP000000000C000032231ECTIVO              00000002013/10/31            C03   0000
0074068801095395302013-10-31032224CARGO CHEQUE                  10000000004000.00MXP000000000C000032224ECTIVO              00000002013/10/31            C03   0000
0074068801095395302013-10-31032216CARGO CHEQUE                  10000000008500.00MXP000000000C000032216ECTIVO              00000002013/10/31            C03   0000
0074068801095395302013-10-31032190CARGO CHEQUE                  10000000213595.05MXP000000000C000032190 DE DEPOSITO:SAHV73100000002013/10/31            C03   0000
0074068801095395302013-10-31012078CE09029804010207220110995131  00000000001800.00MXP000000000ANGEL LEZAMA CONTRERAS        00000002013/10/31            Y15   0000
0074068801095395302013-10-31000000SALDO ULTIMA TRANS            20000007989790.22MXP000000000                              00000002013/10/31                  0000
0074068801095395302013-10-30499406CE09029804131013020090208341  00000000002000.00MXP000000000RAMON MARIO CARVAJAL RAMOS    00000002013/10/30            Y15   0000
0074068801095395302013-10-30249977CE09029804111169820040203316  00000000001500.00MXP000000000ANTONIO NAVARRO BA#UELOS      00000002013/10/30            Y15   0000
0074068801095395302013-10-30249489CE09029804111169820040200874  00000000001500.00MXP000000000ANTONIO NAVARRO BA#UELOS      00000002013/10/30            Y15   0000
0074068801095395302013-10-30249065CE09029804111021020130200870  00000000001000.00MXP000000000HUGO ALMEIDA GARCIA           00000002013/10/30            Y15   0000
0074068801095395302013-10-30248597CE09029804111061220110203677  00000000003000.00MXP000000000ROGERIO MALDONADO CORTEZ      00000002013/10/30            Y15   0000
0074068801095395302013-10-30248237CE09029804111061220110207827  00000000003000.00MXP000000000ROGERIO MALDONADO CORTEZ      00000002013/10/30            Y15   0000
0074068801095395302013-10-30247789CE09029804111193820120208060  00000000000600.00MXP000000000MARCOS SANTOS ZAMORA          00000002013/10/30            Y15   0000
0074068801095395302013-10-30247455CE09029804111193820120203533  00000000000600.00MXP000000000MARCOS SANTOS ZAMORA          00000002013/10/30            Y15   0000
0074068801095395302013-10-30247019CE09029804111002020130205773  00000000000800.00MXP000000000GUSTAVO MENDEZ BA#UELOS       00000002013/10/30            Y15   0000
0074068801095395302013-10-30246615CE09029804111002020130206862  00000000000800.00MXP000000000GUSTAVO MENDEZ BA#UELOS       00000002013/10/30            Y15   0000
0074068801095395302013-10-30246165CE09029804111003020110204357  00000000000600.00MXP000000000MIGUEL ANGEL JIMENEZ MENDIETA 00000002013/10/30            Y15   0000
0074068801095395302013-10-30245583CE09029804111156620090200872  00000000001200.00MXP000000000JOSE ROSAS CANO               00000002013/10/30            Y15   0000
0074068801095395302013-10-30245110CE09029804111156620090203314  00000000001200.00MXP000000000JOSE ROSAS CANO               00000002013/10/30            Y15   0000
0074068801095395302013-10-30229260CE09029804120058520110027828  00000000003507.44MXP000000000MARIO BALTAZAR MENDEZ         00000002013/10/30            Y15   0000
0074068801095395302013-10-30032221CARGO CHEQUE                  10000000011048.40MXP000000000C000032221ECTIVO              00000002013/10/30            C03   0000
0074068801095395302013-10-30032220CARGO CHEQUE                  10000000005524.20MXP000000000C000032220ECTIVO              00000002013/10/30            C03   0000
0074068801095395302013-10-30032192CARGO CHEQUE                  10000000390000.00MXP000000000C000032192 DE DEPOSITO:SALL57000000002013/10/30            C03   0000
0074068801095395302013-10-30032178CARGO CHEQUE                  10000000007000.00MXP000000000C000032178ECTIVO              00000002013/10/30            C03   0000
0074068801095395302013-10-30032027CARGO CHEQUE                  10000000005301.03MXP000000000C000032027ECTIVO              00000002013/10/30            C03   0000
0074068801095395302013-10-30030533CE09029804120053720080209449  00000000000500.00MXP000000000LUIS ROBERTO PEREZ CASTILLA   00000002013/10/30            Y15   0000
0074068801095395302013-10-30020387CE09029804050048220130205775  00000000004000.00MXP000000000MARIO ANDRADE SANCHEZ         00000002013/10/30            Y15   0000
0074068801095395302013-10-30003704CE09029804050164920130205133  00000000001200.00MXP000000000FELIPE LOPEZ MONTERO          00000002013/10/30            Y15   0000
0074068801095395302013-10-30000000SALDO ULTIMA TRANS            20000008211785.27MXP000000000                              00000002013/10/30                  0000
0074068801095395302013-10-29437088CE09029804010057720090995481  00000000003000.00MXP000000000JESUS SANCHEZ PEREZ           00000002013/10/29            Y15   0000
0074068801095395302013-10-29333395CE09029804050151020130205137  00000000000700.00MXP000000000JOSE MANUEL ENRIQUE CARRILLO C00000002013/10/29            Y15   0000
0074068801095395302013-10-29318674CE09029804131161520130205132  00000000002000.00MXP000000000MAXIMINO SANCHEZ ARELLANO     00000002013/10/29            Y15   0000
0074068801095395302013-10-29159916CC15173802203108920040993311  00000000019630.48MXP000000000ISSTEP                        00000002013/10/28            Y02   0000
0074068801095395302013-10-29159492CC15173802203013420130994356  00000000003410.63MXP000000000INST. MEXICANO DEL SEGURO SOCI00000002013/10/28            Y02   0000
0074068801095395302013-10-29159082CC15173802203013420130996864  00000000000651.53MXP000000000INST. MEXICANO DEL SEGURO SOCI00000002013/10/28            Y02   0000
0074068801095395302013-10-29157728CC15173802203013420130995775  00000000000664.93MXP000000000INST. MEXICANO DEL SEGURO SOCI00000002013/10/28            Y02   0000
0074068801095395302013-10-29152982CC15173802203023120080993535  00000000014348.24MXP000000000BENTELER DE MEXICO S.A.DE C.V.00000002013/10/28            Y02   0000
0074068801095395302013-10-29152405CC15173801106089620070998714  00000000005000.00MXP000000000INST. MEXICANO DEL SEGURO SOCI00000002013/10/28            Y02   0000
0074068801095395302013-10-29032219CARGO CHEQUE                  10000000001800.00MXP000000000C000032219ECTIVO              00000002013/10/29            C03   0000
0074068801095395302013-10-29032211CARGO CHEQUE                  10000000003069.00MXP000000000C000032211 DE DEPOSITO:RIGB71000000002013/10/29            C03   0000
0074068801095395302013-10-29032209CARGO CHEQUE                  10000000014000.00MXP000000000C000032209ECTIVO              00000002013/10/29            C03   0000
0074068801095395302013-10-29032195CARGO CHEQUE                  10000000000800.00MXP000000000C000032195ECTIVO              00000002013/10/29            C03   0000
0074068801095395302013-10-29032156CARGO CHEQUE                  10000000002080.00MXP000000000C000032156ECTIVO              00000002013/10/29            C03   0000
0074068801095395302013-10-29032126CARGO CHEQUE                  10000000026000.00MXP000000000C000032126                    00000002013/10/29            C03   0000
0074068801095395302013-10-29032044CARGO CHEQUE                  10000000000500.00MXP000000000C000032044ECTIVO              00000002013/10/29            C03   0000
0074068801095395302013-10-29031939CARGO CHEQUE                  10000000001780.75MXP000000000C000031939 DE DEPOSITO:RFC NO 00000002013/10/29            C03   0000
0074068801095395302013-10-29000000SALDO ULTIMA TRANS            20000008603651.46MXP000000000                              00000002013/10/29                  0000
0074068801095395302013-10-28188739CE09029802203047319950998069  00000000313709.56MXP000000000VOLKSWAGEN DE MEXICO S.A. DE C00000002013/10/28            Y05   0000
0074068801095395302013-10-28188239CE09029804051108119980995136  00000000140214.48MXP000000000VOLKSWAGEN DE MEXICO S.A. DE C00000002013/10/28            Y05   0000
0074068801095395302013-10-28187662CE09029802203007819990998175  00000000138359.71MXP000000000VOLKSWAGEN DE MEXICO S.A. DE C00000002013/10/28            Y05   0000
0074068801095395302013-10-28160510CE09029802203069319950990879  00000000011253.24MXP000000000VOLKSWAGEN DE MEXICO S.A. DE C00000002013/10/28            Y05   0000
0074068801095395302013-10-28151274CE09029804051196320100994594  00000000066856.61MXP000000000BBVA BANCOMER S.A.            00000002013/10/28            Y05   0000
0074068801095395302013-10-28123417CE09029804072059620110990876  00000000000800.00MXP000000000JUAN IGNACIO OLAZO SEGURA     00000002013/10/28            Y15   0000
0074068801095395302013-10-28095926CE09029804090014220090206868  00000000006000.00MXP000000000GALDINO GODOS DIAZ            00000002013/10/28            Y15   0000
0074068801095395302013-10-28085187CE09029804081102920100204595  00000000001773.00MXP000000000TOMAS QUIROZ FLORES           00000002013/10/28            Y15   0000
0074068801095395302013-10-28032227CARGO CHEQUE                  10000000049758.00MXP000000000C000032227ECTIVO              00000002013/10/28            C03   0000
0074068801095395302013-10-28032223CARGO CHEQUE                  10000000001408.00MXP000000000C000032223ECTIVO              00000002013/10/28            C03   0000
0074068801095395302013-10-28032222CARGO CHEQUE                  10000000003000.00MXP000000000C000032222ECTIVO              00000002013/10/28            C03   0000
0074068801095395302013-10-28032189CARGO CHEQUE                  10000000023730.00MXP000000000C000032189ECTIVO              00000002013/10/28            C03   0000
0074068801095395302013-10-28032165CARGO CHEQUE                  10000000021719.90MXP000000000C000032165ECTIVO              00000002013/10/28            C03   0000
0074068801095395302013-10-28016763CE09029804070061320130023317  00000000044500.00MXP000000000AURELIO DOMINGUEZ RAMIREZ     00000002013/10/28            Y15   0000
0074068801095395302013-10-28000000SALDO ULTIMA TRANS            20000008604275.40MXP000000000                              00000002013/10/28                  0000
0074068801095395302013-10-25391375CE09029804120002820120200879  00000000001500.00MXP000000000MARGARITO RIVERA MENDEZ       00000002013/10/25            Y15   0000
0074068801095395302013-10-25032218CARGO CHEQUE                  10000000003682.80MXP000000000C000032218ECTIVO              00000002013/10/25            C03   0000
0074068801095395302013-10-25032214CARGO CHEQUE                  10000000005317.20MXP000000000C000032214ECTIVO              00000002013/10/25            C03   0000
0074068801095395302013-10-25032212CARGO CHEQUE                  10000000001981.06MXP000000000C000032212ECTIVO              00000002013/10/25            C03   0000
0074068801095395302013-10-25032199CARGO CHEQUE                  10000000010400.00MXP000000000C000032199ECTIVO              00000002013/10/25            C03   0000
0074068801095395302013-10-25032196CARGO CHEQUE                  10000000006004.00MXP000000000C000032196ECTIVO              00000002013/10/25            C03   0000
0074068801095395302013-10-25032184CARGO CHEQUE                  10000000083762.26MXP000000000C000032184 DE DEPOSITO:TOEM59000000002013/10/25            C03   0000
0074068801095395302013-10-25032177CARGO CHEQUE                  10000000015000.00MXP000000000C000032177ECTIVO              00000002013/10/25            C03   0000
0074068801095395302013-10-25032157CARGO CHEQUE                  10000000003000.00MXP000000000C000032157ECTIVO              00000002013/10/25            C03   0000
0074068801095395302013-10-25032070CARGO CHEQUE                  10000000006004.00MXP000000000C000032070ECTIVO              00000002013/10/25            C03   0000
0074068801095395302013-10-25000000SALDO ULTIMA TRANS            20000007980424.70MXP000000000                              00000002013/10/25                  0000
0074068801095395302013-10-24484009CE09029804121115920110048171  00000000005726.90MXP000000000SANTA BARBARA BENDITA FARMACEU00000002013/10/24            Y15   0000
0074068801095395302013-10-24154165CE09029804120034120120204357  00000000003126.00MXP000000000NOE ENRIQUE ALCAIDE REYES     00000002013/10/24            Y15   0000
0074068801095395302013-10-24104462CE09029804010185920130025134  00000000005000.00MXP000000000ALBA SILVIA GARCIA OLMEDO     00000002013/10/24            Y15   0000
0074068801095395302013-10-24093594CE09029804051056120130205139  00000000003000.00MXP000000000HECTOR REY MORENO CINTORA     00000002013/10/24            Y15   0000
0074068801095395302013-10-24032213CARGO CHEQUE                  10000000006400.00MXP000000000C000032213ECTIVO              00000002013/10/24            C03   0000
0074068801095395302013-10-24032210CARGO CHEQUE                  10000000002500.00MXP000000000C000032210ECTIVO              00000002013/10/24            C03   0000
0074068801095395302013-10-24032208CARGO CHEQUE                  10000000003582.00MXP000000000C000032208 DE DEPOSITO:AAEY63000000002013/10/24            C03   0000
0074068801095395302013-10-24032204CARGO CHEQUE                  10000000001500.00MXP000000000C000032204 DE DEPOSITO:AAEY63000000002013/10/24            C03   0000
0074068801095395302013-10-24032203CARGO CHEQUE                  10000000050284.20MXP000000000C000032203 DE DEPOSITO:CAZ040300000002013/10/24            C03   0000
0074068801095395302013-10-24032194CARGO CHEQUE                  10000002251477.00MXP000000000C000032194                    00000002013/10/24            C03   0000
0074068801095395302013-10-24032174CARGO CHEQUE                  10000000065000.00MXP000000000C000032174ECTIVO              00000002013/10/24            C03   0000
0074068801095395302013-10-24000000SALDO ULTIMA TRANS            20000008114076.02MXP000000000                              00000002013/10/24                  0000
0074068801095395302013-10-23352828CE09029804050113120130205132  00000000001000.00MXP000000000HUMBERTO BERRA ORLANSINO      00000002013/10/23            Y15   0000
0074068801095395302013-10-23271547CE09029804050101320090208712  00000000000600.00MXP000000000ANTONIO TETZOPA SARMIENTO     00000002013/10/23            Y15   0000
0074068801095395302013-10-23255614CE09029804080099520080202945  00000000002000.00MXP000000000CRISTOBAL RAMIREZ GARCIA      00000002013/10/23            Y15   0000
0074068801095395302013-10-23146815CC15173801110077220100990488  00000000002144.00MXP000000000SECRETARIA DE FINANZAS Y ADMIN00000002013/10/22            Y02   0000
0074068801095395302013-10-23145847CC15173801102054420120994353  00000000001000.00MXP000000000BENEMERITA UNIVERSIDAD AUTONOM00000002013/10/22            Y02   0000
0074068801095395302013-10-23145302CC15173801102054420120996861  00000000001000.00MXP000000000BENEMERITA UNIVERSIDAD AUTONOM00000002013/10/22            Y02   0000
0074068801095395302013-10-23144799CC15173804051006320130995777  00000000016124.91MXP000000000AUDITORIA SUPERIOR DE ESTADO D00000002013/10/22            Y02   0000
0074068801095395302013-10-23082280SPEI RECIBIDO    0000001      00000001717215.62MXP000000000REEMB FONDEO CHEQUES CANCELADO00000002013/10/23            T20   0000
0074068801095395302013-10-23032217CARGO CHEQUE                  10000000004214.27MXP000000000C000032217ECTIVO              00000002013/10/23            C03   0000
0074068801095395302013-10-23032206CARGO CHEQUE                  10000000003000.00MXP000000000C000032206ECTIVO              00000002013/10/23            C03   0000
0074068801095395302013-10-23032205CARGO CHEQUE                  10000000009000.00MXP000000000C000032205ECTIVO              00000002013/10/23            C03   0000
0074068801095395302013-10-23032198CARGO CHEQUE                  10000000015946.73MXP000000000C000032198ECTIVO              00000002013/10/23            C03   0000
0074068801095395302013-10-23032197CARGO CHEQUE                  10000000005600.00MXP000000000C000032197ECTIVO              00000002013/10/23            C03   0000
0074068801095395302013-10-23032193CARGO CHEQUE                  10000000006000.00MXP000000000C000032193ECTIVO              00000002013/10/23            C03   0000
0074068801095395302013-10-23032171CARGO CHEQUE                  10000000170619.36MXP000000000C000032171 DE DEPOSITO:RFC NO 00000002013/10/23            C03   0000
0074068801095395302013-10-23032162CARGO CHEQUE                  10000000288172.50MXP000000000C000032162                    00000002013/10/23            C03   0000
0074068801095395302013-10-23032161CARGO CHEQUE                  10000000016597.65MXP000000000C000032161ECTIVO              00000002013/10/23            C03   0000
0074068801095395302013-10-23032019CARGO CHEQUE                  10000000002000.00MXP000000000C000032019ECTIVO              00000002013/10/23            C03   0000
0074068801095395302013-10-23000000SALDO ULTIMA TRANS            20000010477966.32MXP000000000                              00000002013/10/23                  0000
0074068801095395302013-10-22195118CE09029804053036920130020870  00000000030000.00MXP000000000PORFIRIO BAEZ HUITZIL         00000002013/10/22            Y15   0000
0074068801095395302013-10-22146337CE09029804050122320120998063  00000000022487.88MXP000000000BBVA BAMCOMER S.A.            00000002013/10/22            Y05   0000
0074068801095395302013-10-22144346CE09029802202026720130993531  00000000000726.00MXP000000000SERVICIO DE PUEBLA S.A DE C.V.00000002013/10/22            Y05   0000
0074068801095395302013-10-22143890CE09029802202026720130998068  00000000001482.09MXP000000000SERVICIO DE PUEBLA, S.A. DE C.00000002013/10/22            Y05   0000
0074068801095395302013-10-22133133CE09029804121063620130045486  00000000006000.00MXP000000000CIPRIANO VICTORIANO MORALES BA00000002013/10/22            Y15   0000
0074068801095395302013-10-22131608CE09029804081008620120203313  00000000001746.00MXP000000000ALFONSO HERRERA ROMERO        00000002013/10/22            Y15   0000
0074068801095395302013-10-22089500CE09029804120158720120207829  00000000000460.35MXP000000000JESUS PEREZ MITRE ARANGO      00000002013/10/22            Y15   0000
0074068801095395302013-10-22089294CE09029804120158720120208066  00000000000460.35MXP000000000JESUS PEREZ MITRE ARANGO      00000002013/10/22            Y15   0000
0074068801095395302013-10-22081843CE09029804120003220110205773  00000000000500.00MXP000000000GENARO DOMINGUEZ TRUJILLO     00000002013/10/22            Y15   0000
0074068801095395302013-10-22071740CE09029804180058220120025482  00000000006860.00MXP000000000VIRGINIA NERY PACHECO         00000002013/10/22            Y15   0000
0074068801095395302013-10-22054632CE09029804121076220130040879  00000000008000.00MXP000000000ALICIA GONZALEZ MADRID        00000002013/10/22            Y15   0000
0074068801095395302013-10-22032188CARGO CHEQUE                  10000000003500.00MXP000000000C000032188ECTIVO              00000002013/10/22            C03   0000
0074068801095395302013-10-22032187CARGO CHEQUE                  10000000003405.00MXP000000000C000032187ECTIVO              00000002013/10/22            C03   0000
0074068801095395302013-10-22032186CARGO CHEQUE                  10000000003405.00MXP000000000C000032186ECTIVO              00000002013/10/22            C03   0000
0074068801095395302013-10-22032185CARGO CHEQUE                  10000000025159.34MXP000000000C000032185ECTIVO              00000002013/10/22            C03   0000
0074068801095395302013-10-22032181CARGO CHEQUE                  10000000005000.00MXP000000000C000032181ECTIVO              00000002013/10/22            C03   0000
0074068801095395302013-10-22032172CARGO CHEQUE                  10000000003300.00MXP000000000C000032172ECTIVO              00000002013/10/22            C03   0000
0074068801095395302013-10-22032170CARGO CHEQUE                  10000000037961.00MXP000000000C000032170 DE DEPOSITO:VIJJ92000000002013/10/22            C03   0000
0074068801095395302013-10-22032160CARGO CHEQUE                  10000000002000.00MXP000000000C000032160ECTIVO              00000002013/10/22            C03   0000
0074068801095395302013-10-22032133CARGO CHEQUE                  10000000056842.00MXP000000000C000032133ECTIVO              00000002013/10/22            C03   0000
0074068801095395302013-10-22032127CARGO CHEQUE                  10000000006600.00MXP000000000C000032127                    00000002013/10/22            C03   0000
0074068801095395302013-10-22032111CARGO CHEQUE                  10000000015374.10MXP000000000C000032111 DE DEPOSITO:KEBB69000000002013/10/22            C03   0000
0074068801095395302013-10-22032088CARGO CHEQUE                  10000000020000.00MXP000000000C000032088ECTIVO              00000002013/10/22            C03   0000
0074068801095395302013-10-22032073CARGO CHEQUE                  10000000010000.00MXP000000000C000032073 DE DEPOSITO:PACR78100000002013/10/22            C03   0000
0074068801095395302013-10-22032047CARGO CHEQUE                  10000000030000.00MXP000000000C000032047 DE DEPOSITO:PACR78100000002013/10/22            C03   0000
0074068801095395302013-10-22031830CARGO CHEQUE                  10000000010000.00MXP000000000C000031830 DE DEPOSITO:PACR78100000002013/10/22            C03   0000
0074068801095395302013-10-22000000SALDO ULTIMA TRANS            20000009258032.30MXP000000000                              00000002013/10/22                  0000
0074068801095395302013-10-21448927CE09029804070297220090208815  00000000007000.00MXP000000000JACOB GUZMAN LOZANO           00000002013/10/21            Y15   0000
0074068801095395302013-10-21441599CE09029804180055820120047825  00000000017300.98MXP000000000FLOR DE MARIA PAREDES REYES   00000002013/10/21            Y15   0000
0074068801095395302013-10-21402418CE09029804090022220110208811  00000000001400.00MXP000000000MARTIN MARTINEZ LEAL          00000002013/10/21            Y15   0000
0074068801095395302013-10-21399823CE09029804050030720110045133  00000000008000.00MXP000000000MARIA GUADALUPE LOPEZ RIVERA  00000002013/10/21            Y15   0000
0074068801095395302013-10-21322791CE09029804090030820080208715  00000000001000.00MXP000000000FRANCISCO MORALES BONILLA     00000002013/10/21            Y15   0000
0074068801095395302013-10-21315855CE09029801104039620110041687  00000000037100.14MXP000000000FRANCISCO LUCIANO SANTANA GARC00000002013/10/21            Y15   0000
0074068801095395302013-10-21302807CE09029804081125920130020873  00000000001000.00MXP000000000JUAN CARLOS MITZI CUENCA      00000002013/10/21            Y15   0000
0074068801095395302013-10-21230177CE09029804050060920130203539  00000000002000.00MXP000000000JUAN MANUEL CORNEJO VELA      00000002013/10/21            Y15   0000
0074068801095395302013-10-21221555CE09029804090039920090996860  00000000005700.00MXP000000000LEOPOLDO BRAVO ORTEGA         00000002013/10/21            Y15   0000
0074068801095395302013-10-21032180CARGO CHEQUE                  10000000011200.00MXP000000000C000032180ECTIVO              00000002013/10/21            C03   0000
0074068801095395302013-10-21032159CARGO CHEQUE                  10000000003874.66MXP000000000C000032159ECTIVO              00000002013/10/21            C03   0000
0074068801095395302013-10-21032158CARGO CHEQUE                  10000000001450.78MXP000000000C000032158ECTIVO              00000002013/10/21            C03   0000
0074068801095395302013-10-21032147CARGO CHEQUE                  10000000007975.80MXP000000000C000032147ECTIVO              00000002013/10/21            C03   0000
0074068801095395302013-10-21032145CARGO CHEQUE                  10000000004000.00MXP000000000C000032145ECTIVO              00000002013/10/21            C03   0000
0074068801095395302013-10-21000000SALDO ULTIMA TRANS            20000009411856.07MXP000000000                              00000002013/10/21                  0000
0074068801095395302013-10-18476178CE09029804051065120130020875  00000000003000.00MXP000000000HECTOR REY MORENO CINTORA     00000002013/10/18            Y15   0000
0074068801095395302013-10-18040878CE09029804131157720130025136  00000000000200.00MXP000000000HORTENCIA SANDOVAL CABALLERO  00000002013/10/18            Y15   0000
0074068801095395302013-10-18032460CE09029804121093120130205481  00000000001000.00MXP000000000JOSE MANUEL GIL MEDRANO       00000002013/10/18            Y15   0000
0074068801095395302013-10-18032176CARGO CHEQUE                  10000000014731.20MXP000000000C000032176                    00000002013/10/18            C03   0000
0074068801095395302013-10-18032175CARGO CHEQUE                  10000000010000.00MXP000000000C000032175ECTIVO              00000002013/10/18            C03   0000
0074068801095395302013-10-18032169CARGO CHEQUE                  10000000001540.00MXP000000000C000032169ECTIVO              00000002013/10/18            C03   0000
0074068801095395302013-10-18032168CARGO CHEQUE                  10000000001540.00MXP000000000C000032168ECTIVO              00000002013/10/18            C03   0000
0074068801095395302013-10-18032167CARGO CHEQUE                  10000000001000.00MXP000000000C000032167ECTIVO              00000002013/10/18            C03   0000
0074068801095395302013-10-18032149CARGO CHEQUE                  10000000001200.00MXP000000000C000032149ECTIVO              00000002013/10/18            C03   0000
0074068801095395302013-10-18032148CARGO CHEQUE                  10000000005000.00MXP000000000C000032148ECTIVO              00000002013/10/18            C03   0000
0074068801095395302013-10-18032139CARGO CHEQUE                  10000000003360.00MXP000000000C000032139ECTIVO              00000002013/10/18            C03   0000
0074068801095395302013-10-18032131CARGO CHEQUE                  10000000001841.40MXP000000000C000032131ECTIVO              00000002013/10/18            C03   0000
0074068801095395302013-10-18032108CARGO CHEQUE                  10000000001000.00MXP000000000C000032108ECTIVO              00000002013/10/18            C03   0000
0074068801095395302013-10-18032061CARGO CHEQUE                  10000000017928.01MXP000000000C000032061 DE DEPOSITO:GUPZ67000000002013/10/18            C03   0000
0074068801095395302013-10-18027558CE09029804050200520040200210  00000000005000.00MXP000000000ISABEL ISAURA SOFIA MU#OZ PAZ 00000002013/10/18            Y15   0000
0074068801095395302013-10-18015294CE09029804054016920130025772  00000000003300.00MXP000000000VICTOR HUGO ROA ROLDAN        00000002013/10/18            Y15   0000
0074068801095395302013-10-18001810CE09029804090012020130200877  00000000001500.00MXP000000000JAVIER MACIAS SANCHEZ         00000002013/10/18            Y15   0000
0074068801095395302013-10-18000000SALDO ULTIMA TRANS            20000009359856.19MXP000000000                              00000002013/10/18                  0000
0074068801095395302013-10-17283750CE09029804120044020120205131  00000000001870.00MXP000000000LAZARO ARROYO ALTAMIRANO      00000002013/10/17            Y15   0000
0074068801095395302013-10-17196698CE09029804051020720060205778  00000000006000.00MXP000000000VICTOR HUGO CALZADA GODINEZ   00000002013/10/17            Y15   0000
0074068801095395302013-10-17171286CE09029802205016520130205133  00000000003840.00MXP000000000CARLOS ALBERTO TOXQUI ARAUZ   00000002013/10/17            Y15   0000
0074068801095395302013-10-17158769CE09029804120079120130200870  00000000001500.00MXP000000000JESUS FLORES GRANADOS         00000002013/10/17            Y15   0000
0074068801095395302013-10-17135012CE09029804121075220130020872  00000000000600.00MXP000000000JAVIER GALVEZ AGUILAR         00000002013/10/17            Y15   0000
0074068801095395302013-10-17132995CE09029804050145320120025134  00000000002000.00MXP000000000EDUARDO GUTIERREZ DIAZ        00000002013/10/17            Y15   0000
0074068801095395302013-10-17032166CARGO CHEQUE                  10000000008000.00MXP000000000C000032166ECTIVO              00000002013/10/17            C03   0000
0074068801095395302013-10-17032151CARGO CHEQUE                  10000000004000.00MXP000000000C000032151ECTIVO              00000002013/10/17            C03   0000
0074068801095395302013-10-17032144CARGO CHEQUE                  10000000012809.00MXP000000000C000032144ECTIVO              00000002013/10/17            C03   0000
0074068801095395302013-10-17032140CARGO CHEQUE                  10000000002554.00MXP000000000C000032140ECTIVO              00000002013/10/17            C03   0000
0074068801095395302013-10-17032119CARGO CHEQUE                  10000000099000.00MXP000000000C000032119 DE DEPOSITO:CME060300000002013/10/17            C03   0000
0074068801095395302013-10-17032106CARGO CHEQUE                  10000000015000.00MXP000000000C000032106ECTIVO              00000002013/10/17            C03   0000
0074068801095395302013-10-17031992CARGO CHEQUE                  10000000211878.44MXP000000000C000031992 DE DEPOSITO:BNM840500000002013/10/17            C03   0000
0074068801095395302013-10-17000000SALDO ULTIMA TRANS            20000009404996.80MXP000000000                              00000002013/10/17                  0000
0074068801095395302013-10-16454983CE09029804050102720050203679  00000000002000.00MXP000000000JOSE ABRAHAM DE SANTIAGO PALAC00000002013/10/16            Y15   0000
0074068801095395302013-10-16398406CE09029804120128020120200875  00000000001200.00MXP000000000LEONARDO VAZQUEZ LERDO        00000002013/10/16            Y15   0000
0074068801095395302013-10-16387497CE09029804120089820130205484  00000000000700.00MXP000000000JOSE ANTONIO MU#OZ HERNANDEZ  00000002013/10/16            Y15   0000
0074068801095395302013-10-16378710CE09029804090063620130205483  00000000001800.00MXP000000000JESUS ANAYA FLORES            00000002013/10/16            Y15   0000
0074068801095395302013-10-16032150CARGO CHEQUE                  10000000002400.00MXP000000000C000032150ECTIVO              00000002013/10/16            C03   0000
0074068801095395302013-10-16032142CARGO CHEQUE                  10000000002400.00MXP000000000C000032142ECTIVO              00000002013/10/16            C03   0000
0074068801095395302013-10-16032138CARGO CHEQUE                  10000000000500.00MXP000000000C000032138ECTIVO              00000002013/10/16            C03   0000
0074068801095395302013-10-16032137CARGO CHEQUE                  10000000010000.00MXP000000000C000032137ECTIVO              00000002013/10/16            C03   0000
0074068801095395302013-10-16032130CARGO CHEQUE                  10000000003069.00MXP000000000C000032130ECTIVO              00000002013/10/16            C03   0000
0074068801095395302013-10-16032124CARGO CHEQUE                  10000000003000.00MXP000000000C000032124ECTIVO              00000002013/10/16            C03   0000
0074068801095395302013-10-16032116CARGO CHEQUE                  10000000023137.00MXP000000000C000032116                    00000002013/10/16            C03   0000
0074068801095395302013-10-16032115CARGO CHEQUE                  10000000061500.00MXP000000000C000032115                    00000002013/10/16            C03   0000
0074068801095395302013-10-16032112CARGO CHEQUE                  10000000001800.00MXP000000000C000032112ECTIVO              00000002013/10/16            C03   0000
0074068801095395302013-10-16032107CARGO CHEQUE                  10000001113300.00MXP000000000C000032107 DE DEPOSITO:RFC NO 00000002013/10/16            C03   0000
0074068801095395302013-10-16032089CARGO CHEQUE                  10000000195914.63MXP000000000C000032089 DE DEPOSITO:CUDL61000000002013/10/16            C03   0000
0074068801095395302013-10-16032059CARGO CHEQUE                  10000000001500.00MXP000000000C000032059                    00000002013/10/16            C03   0000
0074068801095395302013-10-16032032CARGO CHEQUE                  10000000087282.49MXP000000000C000032032 DE DEPOSITO:GMA671100000002013/10/16            C03   0000
0074068801095395302013-10-16031964CARGO CHEQUE                  10000000008000.00MXP000000000C000031964ECTIVO              00000002013/10/16            C03   0000
0074068801095395302013-10-16000000SALDO ULTIMA TRANS            20000009742428.24MXP000000000                              00000002013/10/16                  0000
0074068801095395302013-10-15494269CE09029804131155320130025137  00000000006400.00MXP000000000ARACELI VARGAS CAMPOS Y OTROS 00000002013/10/15            Y15   0000
0074068801095395302013-10-15319212CC15173801105076820100990874  00000000034371.55MXP000000000SECRETARIA DE FINANZAS Y ADMIN00000002013/10/14            Y02   0000
0074068801095395302013-10-15318497CC15173801110058720090991886  00000000001408.21MXP000000000AUDITORIA SUPERIOR DEL ESTADO 00000002013/10/14            Y02   0000
0074068801095395302013-10-15317885CC15173801109086220040991803  00000000000255.61MXP000000000INST MEXICANO DEL SEGURO SOCIA00000002013/10/14            Y02   0000
0074068801095395302013-10-15317329CC15173802204029320130998813  00000000010838.57MXP000000000COMPA#IA EMBOTELLADORA HERDOMO00000002013/10/14            Y02   0000
0074068801095395302013-10-15316647CC15173801109086220040999640  00000000000255.61MXP000000000INST MEXICANO DEL SEGURO SOCIA00000002013/10/14            Y02   0000
0074068801095395302013-10-15268210CE09029804090042020130203313  00000000016000.00MXP000000000ANGEL DIAZ ZAPATA             00000002013/10/15            Y15   0000
0074068801095395302013-10-15219910CE09029804180039420120205134  00000000000375.00MXP000000000ARCADIO HERNANDEZ CORTES      00000002013/10/15            Y15   0000
0074068801095395302013-10-15190037CE09029804050117720080200821  00000000004000.00MXP000000000LUCIA HERNANDEZ ROMERO        00000002013/10/15            Y15   0000
0074068801095395302013-10-15131739CE09029804050019720130200879  00000000001000.00MXP000000000JUAN CARLOS GONZALEZ MARTINEZ 00000002013/10/15            Y15   0000
0074068801095395302013-10-15112877CE09029804090177820040201803  00000000000600.00MXP000000000JULIO MARTINIANO CUELLAR      00000002013/10/15            Y15   0000
0074068801095395302013-10-15103579CE09029804090012020130205488  00000000001500.00MXP000000000JAVIER MACIAS SANCHEZ         00000002013/10/15            Y15   0000
0074068801095395302013-10-15100417CE09029804081146020110203535  00000000000450.00MXP000000000JESUS ELIAS DOMINGUEZ RAMOS   00000002013/10/15            Y15   0000
0074068801095395302013-10-15083801CE09029804120134720110208398  00000000004000.00MXP000000000GELACIO GUADARRAMA HERNANDEZ  00000002013/10/15            Y15   0000
0074068801095395302013-10-15056903CE09029802205053720080204540  00000000001200.00MXP000000000JOSE ARMANDO LOPEZ MELLADO    00000002013/10/15            Y15   0000
0074068801095395302013-10-15056636CE09029804090112220120203183  00000000001000.00MXP000000000JONATHAN CASTILLA LOPEZ       00000002013/10/15            Y15   0000
0074068801095395302013-10-15055519CE09029804090068620120207932  00000000001500.00MXP000000000JOSE MANUEL VAZQUEZ REYNOSO   00000002013/10/15            Y15   0000
0074068801095395302013-10-15054574CE09029804090001020090201157  00000000001500.00MXP000000000DEMETRIO VAZQUEZ GOMEZ        00000002013/10/15            Y15   0000
0074068801095395302013-10-15043044CE09029804121067820040202674  00000000001000.00MXP000000000SERGIO HUERTA HERNANDEZ       00000002013/10/15            Y15   0000
0074068801095395302013-10-15032143CARGO CHEQUE                  10000000004150.00MXP000000000C000032143ECTIVO              00000002013/10/15            C03   0000
0074068801095395302013-10-15032122CARGO CHEQUE                  10000000012992.00MXP000000000C000032122                    00000002013/10/15            C03   0000
0074068801095395302013-10-15032083CARGO CHEQUE                  10000000004000.00MXP000000000C000032083ECTIVO              00000002013/10/15            C03   0000
0074068801095395302013-10-15032041CARGO CHEQUE                  10000000006000.00MXP000000000C000032041ECTIVO              00000002013/10/15            C03   0000
0074068801095395302013-10-15032015CARGO CHEQUE                  10000000003000.00MXP000000000C000032015ECTIVO              00000002013/10/15            C03   0000
0074068801095395302013-10-15027118CE09029804090006320080207148  00000000002337.75MXP000000000JOSE ALBERTO LIMA PRADO       00000002013/10/15            Y15   0000
0074068801095395302013-10-15014741CE09029804120053720080203400  00000000000500.00MXP000000000LUIS ROBERTO PEREZ CASTILLA   00000002013/10/15            Y15   0000
0074068801095395302013-10-15000000SALDO ULTIMA TRANS            20000011250531.36MXP000000000                              00000002013/10/15                  0000
0074068801095395302013-10-14374934CE09029804070006120110204087  00000000002500.00MXP000000000MARCO ANTONIO BOCANEGRA REYNOS00000002013/10/14            Y15   0000
0074068801095395302013-10-14373474CE09029804070006120110209912  00000000002500.00MXP000000000MARCVO ANTONIO BOCANEGRA REYNO00000002013/10/14            Y15   0000
0074068801095395302013-10-14372877CE09029804070006120110202677  00000000002500.00MXP000000000MARCO ANTONIO BOCANEGRA REYNOS00000002013/10/14            Y15   0000
0074068801095395302013-10-14337366CE09029804010207220110990215  00000000003000.00MXP000000000ANGEL LEZAMA CONTRERAS        00000002013/10/14            Y15   0000
0074068801095395302013-10-14320685CE09029801105134820060995483  00000000005000.00MXP000000000OSCAR HUERTA JUAREZ           00000002013/10/14            Y05   0000
0074068801095395302013-10-14300955CE09029804010131020120047308  00000000006900.00MXP000000000BLANCA CELIA TORRES DELGADO   00000002013/10/14            Y15   0000
0074068801095395302013-10-14292514CE09029804081163020120026866  00000000003500.00MXP000000000GERARDO MARTINEZ ROMAN        00000002013/10/14            Y15   0000
0074068801095395302013-10-14255098CE09029804053020320130205134  00000000020000.00MXP000000000ELIAS RICO GONZALEZ           00000002013/10/14            Y15   0000
0074068801095395302013-10-14232512CE09029804081053220120204355  00000000001000.00MXP000000000JHONY PAUL GALICIA RAMIREZ    00000002013/10/14            Y15   0000
0074068801095395302013-10-14226465CE09029804050129520120203314  00000000015000.00MXP000000000MIGUEL ANGEL ALCOCER FLORES   00000002013/10/14            Y15   0000
0074068801095395302013-10-14226022CE09029804050129520120200872  00000000003000.00MXP000000000MIGUEL ANGEL ALCOCER FLORES   00000002013/10/14            Y15   0000
0074068801095395302013-10-14205344CE09029804050109020120203533  00000000001200.00MXP000000000PABLO ESPINOSA LIMON          00000002013/10/14            Y15   0000
0074068801095395302013-10-14202701CE09029804070185620050205328  00000000001000.00MXP000000000RAFAEL RAMIREZ ESPINOZA       00000002013/10/14            Y15   0000
0074068801095395302013-10-14032132CARGO CHEQUE                  10000000006000.00MXP000000000C000032132ECTIVO              00000002013/10/14            C03   0000
0074068801095395302013-10-14032098CARGO CHEQUE                  10000000002723.00MXP000000000C000032098                    00000002013/10/14            C03   0000
0074068801095395302013-10-14032080CARGO CHEQUE                  10000000164961.00MXP000000000C000032080ECTIVO              00000002013/10/14            C03   0000
0074068801095395302013-10-14031969CARGO CHEQUE                  10000000040200.00MXP000000000C000031969ECTIVO              00000002013/10/14            C03   0000
0074068801095395302013-10-14000000SALDO ULTIMA TRANS            20000011190181.06MXP000000000                              00000002013/10/14                  0000
0074068801095395302013-10-11475216CE09029804050057920050200874  00000000003000.00MXP000000000JOSE RICARDO SENDEROS VALDES  00000002013/10/11            Y15   0000
0074068801095395302013-10-11458404CE09029804070013420130205481  00000000003069.00MXP000000000RODRIGO VILLADA DOMINGUEZ     00000002013/10/11            Y15   0000
0074068801095395302013-10-11455428CE09029802205005020110200215  00000000000300.00MXP000000000MIGUEL TOVAR MONTES           00000002013/10/11            Y15   0000
0074068801095395302013-10-11402385CE09029804050120020110205139  00000000010000.00MXP000000000CARLOS RODOLFO VERGARA MARQUEZ00000002013/10/11            Y15   0000
0074068801095395302013-10-11063632CE09029804140060920130023530  00000000000400.00MXP000000000ANTONIO SERRANO HERNANDEZ     00000002013/10/11            Y15   0000
0074068801095395302013-10-11063183CE09029804140060920130025774  00000000000400.00MXP000000000ANTONIO SERRANO HERNANDEZ     00000002013/10/11            Y15   0000
0074068801095395302013-10-11057744CE09029804050164920130025135  00000000001200.00MXP000000000FELIPE LOPEZ MONTERO          00000002013/10/11            Y15   0000
0074068801095395302013-10-11050859CE09029804072235620100029641  00000000005450.00MXP000000000VICTORIA JOSEFINA LIMON ANDRAD00000002013/10/11            Y15   0000
0074068801095395302013-10-11032136CARGO CHEQUE                  10000000005000.00MXP000000000C000032136ECTIVO              00000002013/10/11            C03   0000
0074068801095395302013-10-11032129CARGO CHEQUE                  10000000028000.00MXP000000000C000032129ECTIVO              00000002013/10/11            C03   0000
0074068801095395302013-10-11032128CARGO CHEQUE                  10000000002253.31MXP000000000C000032128ECTIVO              00000002013/10/11            C03   0000
0074068801095395302013-10-11032120CARGO CHEQUE                  10000000003000.00MXP000000000C000032120ECTIVO              00000002013/10/11            C03   0000
0074068801095395302013-10-11032117CARGO CHEQUE                  10000000001841.40MXP000000000C000032117ECTIVO              00000002013/10/11            C03   0000
0074068801095395302013-10-11032109CARGO CHEQUE                  10000000005050.00MXP000000000C000032109 DE DEPOSITO:RFC NO 00000002013/10/11            C03   0000
0074068801095395302013-10-11032104CARGO CHEQUE                  10000000073500.00MXP000000000C000032104ECTIVO              00000002013/10/11            C03   0000
0074068801095395302013-10-11032086CARGO CHEQUE                  10000000009280.00MXP000000000C000032086                    00000002013/10/11            C03   0000
0074068801095395302013-10-11032085CARGO CHEQUE                  10000000010000.00MXP000000000C000032085ECTIVO              00000002013/10/11            C03   0000
0074068801095395302013-10-11032081CARGO CHEQUE                  10000000015000.00MXP000000000C000032081ECTIVO              00000002013/10/11            C03   0000
0074068801095395302013-10-11032060CARGO CHEQUE                  10000000033878.00MXP000000000C000032060 DE DEPOSITO:CORR57100000002013/10/11            C03   0000
0074068801095395302013-10-11032042CARGO CHEQUE                  10000000001640.00MXP000000000C000032042ECTIVO              00000002013/10/11            C03   0000
0074068801095395302013-10-11031966CARGO CHEQUE                  10000000005753.15MXP000000000C000031966ECTIVO              00000002013/10/11            C03   0000
0074068801095395302013-10-11031942CARGO CHEQUE                  10000000001200.00MXP000000000C000031942ECTIVO              00000002013/10/11            C03   0000
0074068801095395302013-10-11031878CARGO CHEQUE                  10000000003683.00MXP000000000C000031878ECTIVO              00000002013/10/11            C03   0000
0074068801095395302013-10-11031800CARGO CHEQUE                  10000000004000.00MXP000000000C000031800                    00000002013/10/11            C03   0000
0074068801095395302013-10-11000000SALDO ULTIMA TRANS            20000011336965.06MXP000000000                              00000002013/10/11                  0000
0074068801095395302013-10-10244965CE09029804124129820130045132  00000000002000.00MXP000000000VICTOR MIGUEL URIBE DOMINGUEZ 00000002013/10/10            Y15   0000
0074068801095395302013-10-10222647CE09029804131109120120995480  00000000005000.00MXP000000000VICTOR HUGO BARRANCO SANCHEZ  00000002013/10/10            Y15   0000
0074068801095395302013-10-10169702CE09029804131188020120200879  00000000001600.00MXP000000000BERNARDO MARTINEZ RAMIREZ     00000002013/10/10            Y15   0000
0074068801095395302013-10-10156000CE09029804050045320130203318  00000000003000.00MXP000000000ALEJANDRO ULISES GONZALEZ SOSA00000002013/10/10            Y15   0000
0074068801095395302013-10-10032114CARGO CHEQUE                  10000000022210.44MXP000000000C000032114ECTIVO              00000002013/10/10            C03   0000
0074068801095395302013-10-10032113CARGO CHEQUE                  10000000007365.60MXP000000000C000032113ECTIVO              00000002013/10/10            C03   0000
0074068801095395302013-10-10032110CARGO CHEQUE                  10000000003000.00MXP000000000C000032110ECTIVO              00000002013/10/10            C03   0000
0074068801095395302013-10-10032105CARGO CHEQUE                  10000000001181.60MXP000000000C000032105ECTIVO              00000002013/10/10            C03   0000
0074068801095395302013-10-10032103CARGO CHEQUE                  10000000022000.00MXP000000000C000032103ECTIVO              00000002013/10/10            C03   0000
0074068801095395302013-10-10032099CARGO CHEQUE                  10000000010500.00MXP000000000C000032099ECTIVO              00000002013/10/10            C03   0000
0074068801095395302013-10-10032097CARGO CHEQUE                  10000000027910.50MXP000000000C000032097ECTIVO              00000002013/10/10            C03   0000
0074068801095395302013-10-10032084CARGO CHEQUE                  10000000072460.00MXP000000000C000032084 DE DEPOSITO:TETA56000000002013/10/10            C03   0000
0074068801095395302013-10-10032076CARGO CHEQUE                  10000000017531.85MXP000000000C000032076ECTIVO              00000002013/10/10            C03   0000
0074068801095395302013-10-10032071CARGO CHEQUE                  10000000003900.00MXP000000000C000032071 DE DEPOSITO:MOMM71000000002013/10/10            C03   0000
0074068801095395302013-10-10032057CARGO CHEQUE                  10000000003117.00MXP000000000C000032057ECTIVO              00000002013/10/10            C03   0000
0074068801095395302013-10-10031995CARGO CHEQUE                  10000000000450.00MXP000000000C000031995ECTIVO              00000002013/10/10            C03   0000
0074068801095395302013-10-10000000SALDO ULTIMA TRANS            20000011516224.92MXP000000000                              00000002013/10/10                  0000
0074068801095395302013-10-09450291CE09029804120012220130204359  00000000004096.60MXP000000000ARTEMIO RAMOS ZEPEDA          00000002013/10/09            Y15   0000
0074068801095395302013-10-09439997CE09029804051099620120135138  00000000020000.00MXP000000000JOSE ISMAEL MANZINI BAGATELLA 00000002013/10/09            Y15   0000
0074068801095395302013-10-09406997CE09029804053029720130020873  00000000002000.00MXP000000000HUMBERTO FLORES GARCIA        00000002013/10/09            Y15   0000
0074068801095395302013-10-09393012CE09029804180058320120028393  00000000001000.00MXP000000000OLEGARIO MEZA LARA            00000002013/10/09            Y15   0000
0074068801095395302013-10-09392686CE09029804180060920120020211  00000000000500.00MXP000000000BERNARDINO HERNANDEZ MARTINEZ 00000002013/10/09            Y15   0000
0074068801095395302013-10-09392328CE09029804180058120120028066  00000000001000.00MXP000000000ABUNDIO CHAVEZ JIMENEZ        00000002013/10/09            Y15   0000
0074068801095395302013-10-09392006CE09029804180058020120024356  00000000000500.00MXP000000000LUCIA VAQUIER MENDEZ          00000002013/10/09            Y15   0000
0074068801095395302013-10-09391680CE09029804180058620120023314  00000000000500.00MXP000000000SERGIO ESPINOZA CHAVARRIA     00000002013/10/09            Y15   0000
0074068801095395302013-10-09391364CE09029804180058220120025136  00000000000500.00MXP000000000VIRGINIA NERI PACHECO         00000002013/10/09            Y15   0000
0074068801095395302013-10-09391009CE09029804180060620120028178  00000000001500.00MXP000000000TOMAS BAUTISTA MARTINEZ       00000002013/10/09            Y15   0000
0074068801095395302013-10-09390674CE09029804180060420120028819  00000000000500.00MXP000000000JOSE LOPEZ VELASCO            00000002013/10/09            Y15   0000
0074068801095395302013-10-09390232CE09029804180058420120020463  00000000000500.00MXP000000000ALEJANDRO RAMIREZ ESTEFIS     00000002013/10/09            Y15   0000
0074068801095395302013-10-09389942CE09029804180060320120022491  00000000000500.00MXP000000000MARIA ISABEL TOLENTINO VELASCO00000002013/10/09            Y15   0000
0074068801095395302013-10-09236390CC15173802203130720080995487  00000000025159.34MXP000000000BENTELER DE MEXICO S.A.D E C.V00000002013/10/08            Y02   0000
0074068801095395302013-10-09235061CC15173801106089620070994598  00000000004933.80MXP000000000INTS MEXICANO DEL SEGURO SOCIA00000002013/10/08            Y02   0000
0074068801095395302013-10-09234634CC15173801112075420080992318  00000000001200.00MXP000000000INST MEXICANO DEL SEGURO SOCIA00000002013/10/08            Y02   0000
0074068801095395302013-10-09234147CC15173801110058920090995131  00000000001408.21MXP000000000AUDITORIA SUPERIOR DEL ESTADO 00000002013/10/08            Y02   0000
0074068801095395302013-10-09032102CARGO CHEQUE                  10000000001731.90MXP000000000C000032102ECTIVO              00000002013/10/09            C03   0000
0074068801095395302013-10-09032100CARGO CHEQUE                  10000000004396.57MXP000000000C000032100ECTIVO              00000002013/10/09            C03   0000
0074068801095395302013-10-09032095CARGO CHEQUE                  10000000002955.00MXP000000000C000032095ECTIVO              00000002013/10/09            C03   0000
0074068801095395302013-10-09032094CARGO CHEQUE                  10000000004000.00MXP000000000C000032094ECTIVO              00000002013/10/09            C03   0000
0074068801095395302013-10-09032092CARGO CHEQUE                  10000000003168.00MXP000000000C000032092ECTIVO              00000002013/10/09            C03   0000
0074068801095395302013-10-09032082CARGO CHEQUE                  10000000002550.00MXP000000000C000032082ECTIVO              00000002013/10/09            C03   0000
0074068801095395302013-10-09032074CARGO CHEQUE                  10000000124952.05MXP000000000C000032074 DE DEPOSITO:RFC NO 00000002013/10/09            C03   0000
0074068801095395302013-10-09032058CARGO CHEQUE                  10000000100000.00MXP000000000C000032058                    00000002013/10/09            C03   0000
0074068801095395302013-10-09032053CARGO CHEQUE                  10000000006000.00MXP000000000C000032053 DE DEPOSITO:RFC NO 00000002013/10/09            C03   0000
0074068801095395302013-10-09032040CARGO CHEQUE                  10000000011048.40MXP000000000C000032040ECTIVO              00000002013/10/09            C03   0000
0074068801095395302013-10-09025236CE09029804131024820090202310  00000000001300.00MXP000000000ANDRES GARCIA LUNA            00000002013/10/09            Y15   0000
0074068801095395302013-10-09000000SALDO ULTIMA TRANS            20000011696251.91MXP000000000                              00000002013/10/09                  0000
0074068801095395302013-10-08310635CE09029804072063020110028179  00000000008000.00MXP000000000AMERICA PEREZ BONILLA         00000002013/10/08            Y15   0000
0074068801095395302013-10-08296196CE09029804126011920130085488  00000000010000.00MXP000000000JAVIER ALEJABDRO CRUZ         00000002013/10/08            Y15   0000
0074068801095395302013-10-08285742CE09029804120043520090200609  00000000008563.50MXP000000000CESAR ULISES PEREZMITRE CRUZ  00000002013/10/08            Y15   0000
0074068801095395302013-10-08254856CE09029804131100420110208061  00000000005524.20MXP000000000PABLO RENE ORDAZ SANCHEZ      00000002013/10/08            Y15   0000
0074068801095395302013-10-08254530CE09029803304139320050998177  00000000234383.48MXP000000000VOLKSWAGEN DE MEXICO S.A DE C.00000002013/10/08            Y05   0000
0074068801095395302013-10-08254001CE09029802204031720060998715  00000000251836.44MXP000000000VOLKSWAGEN DE MEXICO S.A DE C.00000002013/10/08            Y05   0000
0074068801095395302013-10-08223611CE09029804131032320100200826  00000000001500.00MXP000000000LEONEL HERNANDEZ Y MENDOZA    00000002013/10/08            Y15   0000
0074068801095395302013-10-08192617CE09029804050078320120207824  00000000002000.00MXP000000000FRANCISCO JAVIER DIJARD CERVAN00000002013/10/08            Y15   0000
0074068801095395302013-10-08184134CE09029804070153120010207520  00000000001800.00MXP000000000FRANCISCO DAVILA JUAREZ       00000002013/10/08            Y15   0000
0074068801095395302013-10-08142945CE09029804050053120050200214  00000000001622.80MXP000000000MIGUEL ANGEL LEAL GALEAZZI    00000002013/10/08            Y15   0000
0074068801095395302013-10-08141828CE09029804081113120130025139  00000000001500.00MXP000000000ANGEL CESAR ZU#IGA ZU#IGA     00000002013/10/08            Y15   0000
0074068801095395302013-10-08141802CE09029804050118120100200829  00000000003200.00MXP000000000JOSE ANTONIO CASTA#EDA AGUILAR00000002013/10/08            Y15   0000
0074068801095395302013-10-08032096CARGO CHEQUE                  10000000006000.00MXP000000000C000032096ECTIVO              00000002013/10/08            C03   0000
0074068801095395302013-10-08032075CARGO CHEQUE                  10000000002400.00MXP000000000C000032075ECTIVO              00000002013/10/08            C03   0000
0074068801095395302013-10-08032020CARGO CHEQUE                  10000000037644.81MXP000000000C000032020ECTIVO              00000002013/10/08            C03   0000
0074068801095395302013-10-08032017CARGO CHEQUE                  10000000013000.00MXP000000000C000032017 DE DEPOSITO:SACV57000000002013/10/08            C03   0000
0074068801095395302013-10-08032016CARGO CHEQUE                  10000000090000.00MXP000000000C000032016 DE DEPOSITO:HICR29100000002013/10/08            C03   0000
0074068801095395302013-10-08032010CARGO CHEQUE                  10000000009304.29MXP000000000C000032010                    00000002013/10/08            C03   0000
0074068801095395302013-10-08000000SALDO ULTIMA TRANS            20000011889955.88MXP000000000                              00000002013/10/08                  0000
0074068801095395302013-10-07487069CE09029804051088320110203318  00000000000600.00MXP000000000HUMBERTO TLAXCALTECATL HERNAND00000002013/10/07            Y15   0000
0074068801095395302013-10-07482005CE09029804070145820110995137  00000000004000.00MXP000000000ANSELMO MORALES LOYOLA        00000002013/10/07            Y15   0000
0074068801095395302013-10-07468633CE09029804050033620110020879  00000000066000.00MXP000000000OSWALDO ALFREDO DOMINGUEZ ESCO00000002013/10/07            Y15   0000
0074068801095395302013-10-07440252CE09029804131079920020200394  00000000002970.00MXP000000000MALCO ROMERO PEREZ            00000002013/10/07            Y15   0000
0074068801095395302013-10-07403072CE09029804131108320030208914  00000000000750.00MXP000000000RODRIGO CAMPOS VALLEJO        00000002013/10/07            Y15   0000
0074068801095395302013-10-07032093CARGO CHEQUE                  10000000007189.00MXP000000000C000032093ECTIVO              00000002013/10/07            C03   0000
0074068801095395302013-10-07032091CARGO CHEQUE                  10000000001600.00MXP000000000C000032091ECTIVO              00000002013/10/07            C03   0000
0074068801095395302013-10-07032072CARGO CHEQUE                  10000000088269.36MXP000000000C000032072                    00000002013/10/07            C03   0000
0074068801095395302013-10-07031970CARGO CHEQUE                  10000000004500.00MXP000000000C000031970ECTIVO              00000002013/10/07            C03   0000
0074068801095395302013-10-07031952CARGO CHEQUE                  10000000768500.00MXP000000000C000031952 DE DEPOSITO:MACR68000000002013/10/07            C03   0000
0074068801095395302013-10-07027639CE09029804050008520130025489  00000000003500.00MXP000000000NORMA EDIT ROSARIO JIMENEZ    00000002013/10/07            Y15   0000
0074068801095395302013-10-07000000SALDO ULTIMA TRANS            20000011518374.56MXP000000000                              00000002013/10/07                  0000
0074068801095399992013-10-31498912CE09027004122034320131010878  00000000015000.00MXP000000000MARIA DEL CARMEN RAMIREZ ARMAS00000002013/10/31            Y15   0000
0074068801095399992013-10-31497848CE09027004122034320131034357  00000000012276.00MXP000000000MARIA DEL CARMEN RAMIREZ ARMAS00000002013/10/31            Y15   0000
0074068801095399992013-10-31495202CE09027004122034320131056863  00000000005800.00MXP000000000MARIA DEL CARMEN RAMIREZ ARMAS00000002013/10/31            Y15   0000
0074068801095399992013-10-31470154CE09027004061020920131015482  00000000010000.00MXP000000000ARTURO MELENDEZ GUTIERREZ     00000002013/10/31            Y15   0000
0074068801095399992013-10-31469585CE09027004061020920131055132  00000000002236.50MXP000000000ARTURO MELENDEZ GUTIERREZ     00000002013/10/31            Y15   0000
0074068801095399992013-10-31469123CE09027004090014020131034356  00000000001000.00MXP000000000JUAN VILLANUEVA HERNANDEZ     00000002013/10/31            Y15   0000
0074068801095399992013-10-31468740CE09027004090014020131015132  00000000005500.00MXP000000000JUAN VILLANUEVA HERNANDEZ     00000002013/10/31            Y15   0000
0074068801095399992013-10-31468245CE09027004090014020131055484  00000000003500.00MXP000000000JUAN VILLANUEVA HERNANDEZ     00000002013/10/31            Y15   0000
0074068801095399992013-10-31446306CE09027004061020920131030879  00000000013810.50MXP000000000ARTURO MELENDEZ GUTIERREZ     00000002013/10/31            Y15   0000
0074068801095399992013-10-31431329CE09027004130033220131990877  00000000001500.00MXP000000000TRIBUNAL SUPERIOR DE JUSTICIA 00000002013/10/31            Y15   0000
0074068801095399992013-10-31424564CE09027004130033420131035489  00000000042966.00MXP000000000RAUL AVENDA#OVAZQUEZ          00000002013/10/31            Y15   0000
0074068801095399992013-10-31424149CE09027004130033420131015135  00000000070000.00MXP000000000RAUL AVENDA#O VAZQUEZ         00000002013/10/31            Y15   0000
0074068801095399992013-10-31422262CE09027004130035820121010871  00000000010000.00MXP000000000FRANCISCO JAVIER SANCHEZ JIMEN00000002013/10/31            Y15   0000
0074068801095399992013-10-31364854CE09027004052042520131994356  00000000000700.00MXP000000000TRIBUNAL SUPERIOR DE JUSTICIA 00000002013/10/31            Y15   0000
0074068801095399992013-10-31361987CE09027004110017420061050872  00000000021854.00MXP000000000JULIAN ROJAS LECHUGA          00000002013/10/31            Y15   0000
0074068801095399992013-10-31361436CE09027004110017420061055772  00000000007200.00MXP000000000JULIAN ROJAS LECHUGA          00000002013/10/31            Y15   0000
0074068801095399992013-10-31360775CE09027004110017420061055137  00000000001500.00MXP000000000JULIAN ROJAS LECHUGA          00000002013/10/31            Y15   0000
0074068801095399992013-10-31327294CE09027004190025020081015137  00000000005000.00MXP000000000JOSE ZENON REGULO LIMA TAPIA  00000002013/10/31            Y15   0000
0074068801095399992013-10-31309008CE09027004061030220131054351  00000000006138.00MXP000000000GUADALUPE BOBADILLA ISLAS     00000002013/10/31            Y15   0000
0074068801095399992013-10-31308364CE09027004061030220131030872  00000000001841.40MXP000000000GUADALUPE BOBADILLA ISLAS     00000002013/10/31            Y15   0000
0074068801095399992013-10-31307728CE09027004061030220131015139  00000000005000.00MXP000000000GUADALUPE BOBADILLA ISLAS     00000002013/10/31            Y15   0000
0074068801095399992013-10-31306911CE09027004061030220131055770  00000000006138.00MXP000000000MIRIAM RIVERA BOBADILLA       00000002013/10/31            Y15   0000
0074068801095399992013-10-31306153CE09027004061030220131033314  00000000001841.40MXP000000000MIRIAM RIVERA BOBADILLA       00000002013/10/31            Y15   0000
0074068801095399992013-10-31305118CE09027004061030220131015485  00000000005000.00MXP000000000MIRIAM RIVERA BOBADILLA       00000002013/10/31            Y15   0000
0074068801095399992013-10-31063394CE09027004090012220131015130  00000000002000.00MXP000000000MARIBEL RODRIGUEZ CHACON      00000002013/10/31            Y15   0000
0074068801095399992013-10-31062726CE09027004090012220131050871  00000000001000.00MXP000000000MARIBEL RODRIGUEZ CHACON      00000002013/10/31            Y15   0000
0074068801095399992013-10-31062003CE09027004090012220131035484  00000000000600.00MXP000000000MARIBEL RODRIGUEZ CHACON      00000002013/10/31            Y15   0000
0074068801095399992013-10-31043902CARGO CHEQUE                  10000000024271.50MXP000000000C000043902                    00000002013/10/31            C03   0000
0074068801095399992013-10-31043805CARGO CHEQUE                  10000000006947.47MXP000000000C000043805ECTIVO              00000002013/10/31            C03   0000
0074068801095399992013-10-31043780CARGO CHEQUE                  10000000002367.24MXP000000000C000043780ECTIVO              00000002013/10/31            C03   0000
0074068801095399992013-10-31043756CARGO CHEQUE                  10000000008285.50MXP000000000C000043756ECTIVO              00000002013/10/31            C03   0000
0074068801095399992013-10-31043743CARGO CHEQUE                  10000000010000.00MXP000000000C000043743ECTIVO              00000002013/10/31            C03   0000
0074068801095399992013-10-31028504CE09027004200024120131015133  00000000015000.00MXP000000000GONZALO GARAY SANTANDER       00000002013/10/31            Y15   0000
0074068801095399992013-10-31026263CE09027004180028720131055136  00000000011000.00MXP000000000IVAN JIMENEZ CRUZ             00000002013/10/31            Y15   0000
0074068801095399992013-10-31000000CARGO TRASPASO MISMA PLAZA CW 10000000000103.80MXP000000000400000022010203 287           00000002013/10/31            W41   0000
0074068801095399992013-10-31000000CARGO TRASPASO MISMA PLAZA CW 10000000000346.00MXP000000000413003072011203 292           00000002013/10/31            W41   0000
0074068801095399992013-10-31000000CARGO TRASPASO MISMA PLAZA CW 10000000000613.80MXP000000000330102542013203 289           00000002013/10/31            W41   0000
0074068801095399992013-10-31000000CARGO TRASPASO MISMA PLAZA CW 10000000000622.80MXP000000000400000022010202 286           00000002013/10/31            W41   0000
0074068801095399992013-10-31000000CARGO TRASPASO MISMA PLAZA CW 10000000002250.00MXP000000000330102542013202 288           00000002013/10/31            W41   0000
0074068801095399992013-10-31000000CARGO TRASPASO MISMA PLAZA CW 10000000002493.60MXP000000000330600852010202 290           00000002013/10/31            W41   0000
0074068801095399992013-10-31000000CARGO TRASPASO MISMA PLAZA CW 10000000003940.00MXP000000000413003072011202 291           00000002013/10/31            W41   0000
0074068801095399992013-10-31000000CARGO TRASPASO MISMA PLAZA CW 10000000005106.53MXP000000000405200742012202 285           00000002013/10/31            W41   0000
0074068801095399992013-10-31000000CARGO TRASPASO MISMA PLAZA CW 10000000006398.52MXP000000000413004082012202 293           00000002013/10/31            W41   0000
0074068801095399992013-10-31000000CARGO TRASPASO MISMA PLAZA CW 10000000011000.00MXP000000000402000252012202 295           00000002013/10/31            W41   0000
0074068801095399992013-10-31000000CARGO TRASPASO MISMA PLAZA CW 10000000016601.48MXP000000000413004082012203 294           00000002013/10/31            W41   0000
0074068801095399992013-10-31000000SALDO ULTIMA TRANS            20000024552804.11MXP000000000                              00000002013/10/31                  0000
0074068801095399992013-10-30223984CE09027003501029720131055489  00000000002835.00MXP000000000JOSE PASCUAL FERMIN PEREZ FUEN00000002013/10/30            Y15   0000
0074068801095399992013-10-30222742CE09027003501029720131050878  00000000006000.00MXP000000000JOSE PASCUAL FERMIN PEREZ FUEN00000002013/10/30            Y15   0000
0074068801095399992013-10-30221962CE09027003501029720131055133  00000000005103.00MXP000000000JOSE PASCUAL FERMIN PEREZ FUEN00000002013/10/30            Y15   0000
0074068801095399992013-10-30210214CE09027004110015520111055482  00000000017040.00MXP000000000LEONARDO ARRELLAGA MONTERO    00000002013/10/30            Y15   0000
0074068801095399992013-10-30183113CE09027004061010520131034350  00000000001772.00MXP000000000LAURA CRUZ BARRERA            00000002013/10/30            Y15   0000
0074068801095399992013-10-30182723CE09027004061010520131013313  00000000010000.00MXP000000000LAURA CRUZ BARRERA            00000002013/10/30            Y15   0000
0074068801095399992013-10-30182360CE09027004061010520131050877  00000000011816.00MXP000000000LAURA CRUZ BARRERA            00000002013/10/30            Y15   0000
0074068801095399992013-10-30182047CE09027004061010520131055488  00000000005000.00MXP000000000LAURA CRUZ BARRERA            00000002013/10/30            Y15   0000
0074068801095399992013-10-30181639CE09027004180013420131015480  00000000005000.00MXP000000000DIANA MARTINEZ AGUILAR        00000002013/10/30            Y15   0000
0074068801095399992013-10-30180924CE09027004180013420131030877  00000000000736.50MXP000000000DIANA MARTINEZ AGUILAR        00000002013/10/30            Y15   0000
0074068801095399992013-10-30124486CE09027004125061920131053312  00000000002000.00MXP000000000ESAUL SALAZAR OLIVARES        00000002013/10/30            Y15   0000
0074068801095399992013-10-30123937CE09027004125061920131030872  00000000001227.60MXP000000000ESAUL SALAZAR OLIVARES        00000002013/10/30            Y15   0000
0074068801095399992013-10-30122215CE09027004125061920131015485  00000000003909.15MXP000000000ESAUL SALAZAR OLIVARES        00000002013/10/30            Y15   0000
0074068801095399992013-10-30104045CE09027004061027220131050875  00000000012276.00MXP000000000DANIEL MARQUEZ GARRIDO        00000002013/10/30            Y15   0000
0074068801095399992013-10-30103336CE09027004061027220131035488  00000000007366.00MXP000000000DANIEL MARQUEZ GARRIDO        00000002013/10/30            Y15   0000
0074068801095399992013-10-30102512CE09027004061027220131015134  00000000010000.00MXP000000000DANIEL MARQUEZ GARRIDO        00000002013/10/30            Y15   0000
0074068801095399992013-10-30060576CE09027004122034320131036865  00000000012276.00MXP000000000JUAN CARLOS ZAQUERO JUAREZ    00000002013/10/30            Y15   0000
0074068801095399992013-10-30060020CE09027004122034320131015489  00000000015000.00MXP000000000JUAN CARLOS ZAQUERO JUAREZ    00000002013/10/30            Y15   0000
0074068801095399992013-10-30059481CE09027004122034320131054355  00000000005800.00MXP000000000JUAN CARLOS ZAQUERO JUAREZ    00000002013/10/30            Y15   0000
0074068801095399992013-10-30043903CARGO CHEQUE                  10000000050000.00MXP000000000C000043903ECTIVO              00000002013/10/30            C03   0000
0074068801095399992013-10-30043900CARGO CHEQUE                  10000000024805.27MXP000000000C000043900ECTIVO              00000002013/10/30            C03   0000
0074068801095399992013-10-30043896CARGO CHEQUE                  10000000005195.00MXP000000000C000043896ECTIVO              00000002013/10/30            C03   0000
0074068801095399992013-10-30043886CARGO CHEQUE                  10000000035313.12MXP000000000C000043886ECTIVO              00000002013/10/30            C03   0000
0074068801095399992013-10-30043884CARGO CHEQUE                  10000000021276.00MXP000000000C000043884ECTIVO              00000002013/10/30            C03   0000
0074068801095399992013-10-30043872CARGO CHEQUE                  10000000137846.25MXP000000000C000043872ECTIVO              00000002013/10/30            C03   0000
0074068801095399992013-10-30043849CARGO CHEQUE                  10000000012834.94MXP000000000C000043849ECTIVO              00000002013/10/30            C03   0000
0074068801095399992013-10-30043776CARGO CHEQUE                  10000000025000.00MXP000000000C000043776ECTIVO              00000002013/10/30            C03   0000
0074068801095399992013-10-30043775CARGO CHEQUE                  10000000027235.00MXP000000000C000043775                    00000002013/10/30            C03   0000
0074068801095399992013-10-30043760CARGO CHEQUE                  10000000011000.00MXP000000000C000043760ECTIVO              00000002013/10/30            C03   0000
0074068801095399992013-10-30043726CARGO CHEQUE                  10000000028000.00MXP000000000C000043726 DE DEPOSITO:AIP900400000002013/10/30            C03   0000
0074068801095399992013-10-30043350CARGO CHEQUE                  10000000004000.00MXP000000000C000043350ECTIVO              00000002013/10/30            C03   0000
0074068801095399992013-10-30000000CARGO TRASPASO MISMA PLAZA CW 10000000000762.58MXP000000000415000032012203 284           00000002013/10/30            W41   0000
0074068801095399992013-10-30000000CARGO TRASPASO MISMA PLAZA CW 10000000001358.84MXP000000000330802932012203 281           00000002013/10/30            W41   0000
0074068801095399992013-10-30000000CARGO TRASPASO MISMA PLAZA CW 10000000006080.72MXP000000000415000032012202 283           00000002013/10/30            W41   0000
0074068801095399992013-10-30000000CORRECCION DEPOSITO           10000000007425.41MXP0000000002994783                       00000002013/10/30            B07   0000
0074068801095399992013-10-30000000CARGO TRASPASO MISMA PLAZA CW 10000000009602.62MXP000000000330802552012202 282           00000002013/10/30            W41   0000
0074068801095399992013-10-30000000CARGO TRASPASO MISMA PLAZA CW 10000000019329.34MXP000000000330802932012202 280           00000002013/10/30            W41   0000
0074068801095399992013-10-30000000SALDO ULTIMA TRANS            20000024368750.55MXP000000000                              00000002013/10/30                  0000
0074068801095399992013-10-29325213CE09027003501028220131055770  00000000010390.00MXP000000000DALMACIO DE JESUS MAXIMO      00000002013/10/29            Y15   0000
0074068801095399992013-10-29323866CE09027003501028220131053676  00000000027000.00MXP000000000DALMACIO DE JESUS MAXIMO      00000002013/10/29            Y15   0000
0074068801095399992013-10-29323054CE09027003501028220121050211  00000000000459.25MXP000000000DALMACIO DE JESUS MAXIMO      00000002013/10/29            Y15   0000
0074068801095399992013-10-29319576CE09027004052017320131015133  00000000007000.00MXP000000000JOSE GERSON RINCON GARCIA     00000002013/10/29            Y15   0000
0074068801095399992013-10-29319367CE09027004052017320131035487  00000000006138.00MXP000000000JOSE GERSON RINCON GARCIA     00000002013/10/29            Y15   0000
0074068801095399992013-10-29303451CE09027004061028520121995487  00000000001050.00MXP000000000HONORABLE TRIBUNAL SUPERIOR DE00000002013/10/29            Y15   0000
0074068801095399992013-10-29281127CE09027004190001720131035484  00000000002954.00MXP000000000ERASMO HERRERA MORA           00000002013/10/29            Y15   0000
0074068801095399992013-10-29280065CE09027004190001720131015130  00000000007000.00MXP000000000ERASMO HERRERA MORA           00000002013/10/29            Y15   0000
0074068801095399992013-10-29250239CE09027004125061720131035487  00000000009207.00MXP000000000ANTONIO IVAN VAZQUEZ MARTINEZ 00000002013/10/29            Y15   0000
0074068801095399992013-10-29250066CE09027004125061720131015133  00000000005214.00MXP000000000ANTONIO IVAN VAZQUEZ MARTINEZ 00000002013/10/29            Y15   0000
0074068801095399992013-10-29043895CARGO CHEQUE                  10000000135817.73MXP000000000C000043895ECTIVO              00000002013/10/29            C03   0000
0074068801095399992013-10-29043889CARGO CHEQUE                  10000000008567.00MXP000000000C000043889ECTIVO              00000002013/10/29            C03   0000
0074068801095399992013-10-29043883CARGO CHEQUE                  10000000002380.00MXP000000000C000043883ECTIVO              00000002013/10/29            C03   0000
0074068801095399992013-10-29043882CARGO CHEQUE                  10000000002380.00MXP000000000C000043882ECTIVO              00000002013/10/29            C03   0000
0074068801095399992013-10-29043881CARGO CHEQUE                  10000000003672.00MXP000000000C000043881ECTIVO              00000002013/10/29            C03   0000
0074068801095399992013-10-29043866CARGO CHEQUE                  10000000023962.00MXP000000000C000043866ECTIVO              00000002013/10/29            C03   0000
0074068801095399992013-10-29043855CARGO CHEQUE                  10000000005667.30MXP000000000C000043855 DE DEPOSITO:VAGB84000000002013/10/29            C03   0000
0074068801095399992013-10-29043787CARGO CHEQUE                  10000000134740.00MXP000000000C000043787ECTIVO              00000002013/10/29            C03   0000
0074068801095399992013-10-29043786CARGO CHEQUE                  10000000016341.00MXP000000000C000043786ECTIVO              00000002013/10/29            C03   0000
0074068801095399992013-10-29043698CARGO CHEQUE                  10000000007000.00MXP000000000C000043698ECTIVO              00000002013/10/29            C03   0000
0074068801095399992013-10-29043682CARGO CHEQUE                  10000000022954.00MXP000000000C000043682ECTIVO              00000002013/10/29            C03   0000
0074068801095399992013-10-29000000ABONO TRASPASO MISMA PLAZA CW 00000000000283.50MXP000000000350104642012103 279           00000002013/10/29            W42   0000
0074068801095399992013-10-29000000CARGO TRASPASO MISMA PLAZA CW 10000000000177.24MXP000000000409001792012203 274           00000002013/10/29            W41   0000
0074068801095399992013-10-29000000CARGO TRASPASO MISMA PLAZA CW 10000000000675.00MXP000000000330101652012202 278           00000002013/10/29            W41   0000
0074068801095399992013-10-29000000CARGO TRASPASO MISMA PLAZA CW 10000000000935.10MXP000000000402000672010203 272           00000002013/10/29            W41   0000
0074068801095399992013-10-29000000CARGO TRASPASO MISMA PLAZA CW 10000000002480.10MXP000000000409001792012202 273           00000002013/10/29            W41   0000
0074068801095399992013-10-29000000CARGO TRASPASO MISMA PLAZA CW 10000000002693.82MXP000000000330803032012202 276           00000002013/10/29            W41   0000
0074068801095399992013-10-29000000CARGO TRASPASO MISMA PLAZA CW 10000000003131.24MXP000000000330803032012203 277           00000002013/10/29            W41   0000
0074068801095399992013-10-29000000CARGO TRASPASO MISMA PLAZA CW 10000000004260.00MXP000000000402000672010202 271           00000002013/10/29            W41   0000
0074068801095399992013-10-29000000CARGO TRASPASO MISMA PLAZA CW 10000000004431.00MXP000000000409000662012202 275           00000002013/10/29            W41   0000
0074068801095399992013-10-29000000COMPRA FONDOS INVERSION       10000004999998.29MXP000000000OPERADO EN CANAL:  SUCU       00000002013/10/29            F01   0000
0074068801095399992013-10-29000000SALDO ULTIMA TRANS            20000024660658.39MXP000000000                              00000002013/10/29                  0000
0074068801095399992013-10-28213880CE70982403309028920131039645  00000000000800.00MXP000000000RODOLFO LAZARO SANCHEZ        00000002013/10/28            Y05   0000
0074068801095399992013-10-28213497CE70982403309028820131011802  00000000060290.00MXP000000000LUIS ANTONIO GUTIERREZ ESTUPI#00000002013/10/28            Y05   0000
0074068801095399992013-10-28213023CE70982403309028820131031883  00000000009710.00MXP000000000LUIS ANTONIO GUTIERREZ ESTUPI#00000002013/10/28            Y05   0000
0074068801095399992013-10-28212556CE70982403309030420131034593  00000000001180.00MXP000000000MARIBEL SANCHEZ CORTEZ        00000002013/10/28            Y05   0000
0074068801095399992013-10-28212148CE70982403309030420131018174  00000000018820.00MXP000000000MARIBEL SANCHEZ CORTEZ        00000002013/10/28            Y05   0000
0074068801095399992013-10-28211687CE70982403309030620131018716  00000000006000.00MXP000000000RICARDO LOPEZ MALDONADO       00000002013/10/28            Y05   0000
0074068801095399992013-10-28211251CE70982403309030620131058399  00000000001100.00MXP000000000RICARDO LOPEZ MALDONADO       00000002013/10/28            Y05   0000
0074068801095399992013-10-28210738CE70982403309030620131030828  00000000001500.00MXP000000000RICARDO LOPEZ MALDONADO       00000002013/10/28            Y05   0000
0074068801095399992013-10-28210133CE70982403309030320131012310  00000000014200.00MXP000000000ISMAEL ROLDAN GIL             00000002013/10/28            Y05   0000
0074068801095399992013-10-28209617CE70982403308030920131017821  00000000003000.00MXP000000000MA ELENA REYES CAMPI          00000002013/10/28            Y05   0000
0074068801095399992013-10-28209129CE70982403308029920131058067  00000000001500.00MXP000000000ADRIANA LEON LIMON            00000002013/10/28            Y05   0000
0074068801095399992013-10-28208750CE70982403308028820131013537  00000000015000.00MXP000000000MARIA GUADALUPE GONZALEZ LEON 00000002013/10/28            Y05   0000
0074068801095399992013-10-28208322CE70982403308028720131015773  00000000013000.00MXP000000000RAFAEL ZOLA SANCHEZ           00000002013/10/28            Y05   0000
0074068801095399992013-10-28207887CE70982403308028620131036862  00000000005810.00MXP000000000ANGEL EDUARDO LOPEZ PI#A      00000002013/10/28            Y05   0000
0074068801095399992013-10-28207430CE70982403302034420131010396  00000000010000.00MXP000000000NAZARIO ALVAREZ AGUIRRE       00000002013/10/28            Y05   0000
0074068801095399992013-10-28206978CE70982403308028320131015483  00000000043200.00MXP000000000ALBERTO LOPEZ MORALES         00000002013/10/28            Y05   0000
0074068801095399992013-10-28206602CE70982403308028620131014356  00000000008190.00MXP000000000ANGEL EDUARDO LOPEZ PI#A      00000002013/10/28            Y05   0000
0074068801095399992013-10-28206151CE70982403308028320131033312  00000000003000.00MXP000000000ALBERTO LOPEZ MORALES         00000002013/10/28            Y05   0000
0074068801095399992013-10-28205713CE70982403309030320131030213  00000000001100.00MXP000000000ISMAEL ROLDAN GIL             00000002013/10/28            Y05   0000
0074068801095399992013-10-28205468CE70982403309029120131015138  00000000005000.00MXP000000000NICOLAS HERNANDEZ GUZMAN      00000002013/10/28            Y05   0000
0074068801095399992013-10-28205017CE70982403309028920131018813  00000000002200.00MXP000000000RODOLFO LAZARO SANCHEZ        00000002013/10/28            Y05   0000
0074068801095399992013-10-28204527CE70982403302033120131015160  00000000013500.00MXP000000000MIRIAM KARINA HERNANDEZ SERRAN00000002013/10/28            Y05   0000
0074068801095399992013-10-28204188CE70982403309030120131057301  00000000009200.00MXP000000000RAQUEL FLORES CRUZ            00000002013/10/28            Y05   0000
0074068801095399992013-10-28204044CE70982403302033120131039913  00000000006500.00MXP000000000MIRIAM KARINA HERNANDEZ SERRAN00000002013/10/28            Y05   0000
0074068801095399992013-10-28203680CE70982403309033720131013670  00000000006000.00MXP000000000JOSE MANUEL GONZALEZ RAMIREZ  00000002013/10/28            Y05   0000
0074068801095399992013-10-28203319CE70982403309028620131057825  00000000004500.00MXP000000000CIRO DOMINGUEZ GIL            00000002013/10/28            Y05   0000
0074068801095399992013-10-28203280CE70982403302031620131032679  00000000000647.00MXP000000000TANIA GABRIELA ALVAREZ TITLA  00000002013/10/28            Y05   0000
0074068801095399992013-10-28202826CE70982403302031620131014081  00000000004853.00MXP000000000TANIA GABRIELA ALVAREZ TITLA  00000002013/10/28            Y05   0000
0074068801095399992013-10-28202644CE70982403309028620131038064  00000000000500.00MXP000000000CIRO DOMINGUEZ GIL            00000002013/10/28            Y05   0000
0074068801095399992013-10-28202368CE70982404125026720121050383  00000000000500.00MXP000000000SILVIA CARMEN SANCHEZ ALCANTAR00000002013/10/28            Y05   0000
0074068801095399992013-10-28202225CE70982403309028620131013539  00000000003000.00MXP000000000CIRO DOMINGUEZ GIL            00000002013/10/28            Y05   0000
0074068801095399992013-10-28201895CE70982403309028620131055779  00000000004500.00MXP000000000JOSE MATEOS VALDES            00000002013/10/28            Y05   0000
0074068801095399992013-10-28201881CE70982404125023720121059023  00000000000500.00MXP000000000JOSE LUIS VAZQUEZ CASTILLOI   00000002013/10/28            Y05   0000
0074068801095399992013-10-28201484CE70982403309028620131036860  00000000000500.00MXP000000000JOSE MATEOS VALDES            00000002013/10/28            Y05   0000
0074068801095399992013-10-28201400CE70982403301032520131018341  00000000008000.00MXP000000000PASCUAL MARQUEZ ZEPEDA        00000002013/10/28            Y05   0000
0074068801095399992013-10-28201119CE70982403309028620131014354  00000000003000.00MXP000000000JOSE MATEOS VALDES            00000002013/10/28            Y05   0000
0074068801095399992013-10-28200951CE70982403301032520131032490  00000000002000.00MXP000000000PASCUAL MARQUEZ ZEPEDA        00000002013/10/28            Y05   0000
0074068801095399992013-10-28200724CE70982403309028520131033315  00000000000200.00MXP000000000SERGIO ZAMBRANO BOLA#OS       00000002013/10/28            Y05   0000
0074068801095399992013-10-28200240CE70982403301031820131010467  00000000003000.00MXP000000000MARIA CRISTINA CORTES MACIN   00000002013/10/28            Y05   0000
0074068801095399992013-10-28200105CE70982403309028520131010875  00000000001000.00MXP000000000SERGIO ZAMBRANO BOLA#OS       00000002013/10/28            Y05   0000
0074068801095399992013-10-28199703CE70982403301031820131038815  00000000001000.00MXP000000000MARIA CRISTINA CORTES MACIN   00000002013/10/28            Y05   0000
0074068801095399992013-10-28199682CE70982403308028220131015485  00000000002500.00MXP000000000NORA VERONICA OSI VEGA        00000002013/10/28            Y05   0000
0074068801095399992013-10-28199315CE70982403308028220131035137  00000000000500.00MXP000000000NORA VERONICA OSIO VEGA       00000002013/10/28            Y05   0000
0074068801095399992013-10-28199190CE70982403301031820131019641  00000000003000.00MXP000000000ROSA MARIA RODRIGUEZ JIMENEZ  00000002013/10/28            Y05   0000
0074068801095399992013-10-28198693CE70982403301031820131031802  00000000001000.00MXP000000000ROSA MARIA RODRIGUEZ JIMENEZ  00000002013/10/28            Y05   0000
0074068801095399992013-10-28198282CE70982403301031720131011889  00000000006500.00MXP000000000ABEL GONZALEZ OCA#A           00000002013/10/28            Y05   0000
0074068801095399992013-10-28198085CE70982403305028020131013894  00000000007000.00MXP000000000MARIO CONTRERAS JARAMILLO     00000002013/10/28            Y05   0000
0074068801095399992013-10-28197883CE70982403301031720131034592  00000000002500.00MXP000000000ABEL GONZALEZ OCA#A           00000002013/10/28            Y05   0000
0074068801095399992013-10-28197707CE70982403304032520131014062  00000000003000.00MXP000000000ROBERTO TOCHIHUITL ROBLES     00000002013/10/28            Y05   0000
0074068801095399992013-10-28197511CE70982403301030220131018175  00000000006000.00MXP000000000JAVIER MORALES LIRA           00000002013/10/28            Y05   0000
0074068801095399992013-10-28197270CE70982403304031420131014751  00000000005000.00MXP000000000JUAN JOSE RIVERA BLANCAS      00000002013/10/28            Y05   0000
0074068801095399992013-10-28197040CE70982403301030120131058710  00000000005000.00MXP000000000CLAUDIA GONZALEZ RIVERA       00000002013/10/28            Y05   0000
0074068801095399992013-10-28196810CE70982403304031420131052785  00000000002200.00MXP000000000JUAN JOSE RIVERA BLANCAS      00000002013/10/28            Y05   0000
0074068801095399992013-10-28196485CE70982403301029420131038396  00000000001800.00MXP000000000FIDEL MALDONADO ORTIZ         00000002013/10/28            Y05   0000
0074068801095399992013-10-28196407CE70982403304031420131059244  00000000023000.00MXP000000000JUAN JOSE RIVERA BLANCAS      00000002013/10/28            Y05   0000
0074068801095399992013-10-28196089CE70982403301029420131010825  00000000002200.00MXP000000000FIDEL MALDONADO ORTIZ         00000002013/10/28            Y05   0000
0074068801095399992013-10-28195965CE70982403304030420131012236  00000000007000.00MXP000000000SANDRA FLORES PEREZ           00000002013/10/28            Y05   0000
0074068801095399992013-10-28195619CE70982403301029420131057305  00000000001000.00MXP000000000FIDEL MALDONADO ORTIZ         00000002013/10/28            Y05   0000
0074068801095399992013-10-28195530CE70982403304030320131012949  00000000008000.00MXP000000000JOSE ARMANDO ZANELLA MINUTTI  00000002013/10/28            Y05   0000
0074068801095399992013-10-28195140CE70982403308030920131033679  00000000001000.00MXP000000000MA ELENA REYES CAMPI          00000002013/10/28            Y05   0000
0074068801095399992013-10-28195135CE70982403304030120131015417  00000000007000.00MXP000000000MARIANO ANGEL ARTEMIO MENDEZ S00000002013/10/28            Y05   0000
0074068801095399992013-10-28194722CE70982403304029920131016940  00000000008000.00MXP000000000ALEJANDRO YAHUITL ROLDAN      00000002013/10/28            Y05   0000
0074068801095399992013-10-28194316CE70982403304029920131033184  00000000004000.00MXP000000000ALEJANDRO YAHUITL ROLDAN      00000002013/10/28            Y05   0000
0074068801095399992013-10-28193826CE70982403304029820131010390  00000000002400.00MXP000000000DULCE SANCHEZ JUAREZ          00000002013/10/28            Y05   0000
0074068801095399992013-10-28193420CE70982403304029820131030471  00000000000600.00MXP000000000DULCE SANCHEZ JUAREZ          00000002013/10/28            Y05   0000
0074068801095399992013-10-28193040CE70982403303035220131015164  00000000005000.00MXP000000000MARIA DE LOS ANGELES RANGEL CE00000002013/10/28            Y05   0000
0074068801095399992013-10-28192263CE70982403303035220131039917  00000000010000.00MXP000000000MARIA DE LOS ANGELES RANGEL CE00000002013/10/28            Y05   0000
0074068801095399992013-10-28191875CE70982403303034520131012678  00000000008000.00MXP000000000HECTOR MOLINA DOMINGUEZ       00000002013/10/28            Y05   0000
0074068801095399992013-10-28191413CE70982403303034420131014081  00000000010500.00MXP000000000MARIA GUADALUPE HIGAREDA DELGA00000002013/10/28            Y05   0000
0074068801095399992013-10-28190843CE70982403303034420131030384  00000000001500.00MXP000000000MARIA GUADALUPE HIGAREDA DELGA00000002013/10/28            Y05   0000
0074068801095399992013-10-28190396CE70982403303033720131018870  00000000002500.00MXP000000000GEORGINA SANCHEZ FLORES       00000002013/10/28            Y05   0000
0074068801095399992013-10-28189907CE70982403303033720131034182  00000000000500.00MXP000000000GEORGINA SANCHEZ FLORES       00000002013/10/28            Y05   0000
0074068801095399992013-10-28189541CE70982403303033620131011687  00000000002500.00MXP000000000LAURA DOMINGUEZ VAZQUEZ       00000002013/10/28            Y05   0000
0074068801095399992013-10-28189135CE70982403303033620131030604  00000000000900.00MXP000000000LAURA DOMINGUEZ VAZQUEZ       00000002013/10/28            Y05   0000
0074068801095399992013-10-28186940CE70982403303033220131018343  00000000019000.00MXP000000000MARIA JULIA MAGALLANES CORTES 00000002013/10/28            Y05   0000
0074068801095399992013-10-28186263CE70982403303033220131032492  00000000006000.00MXP000000000MARIA JULIA MAGALLANES CORTES 00000002013/10/28            Y05   0000
0074068801095399992013-10-28185941CE09027004080023220131035482  00000000000613.80MXP000000000LEOCADIA JULIA GARCIA AGUILAR 00000002013/10/28            Y15   0000
0074068801095399992013-10-28185564CE09027004080023220131015138  00000000014386.20MXP000000000LEOCADIA JULIA GARCIA AGUILAR 00000002013/10/28            Y15   0000
0074068801095399992013-10-28185462CE70982403303033120131010466  00000000009000.00MXP000000000MIRIAM KARINA HERNANDEZ SERRAN00000002013/10/28            Y05   0000
0074068801095399992013-10-28185008CE70982403303033120131038814  00000000003000.00MXP000000000MIRIAM KARINA HERNANDEZ SERRAN00000002013/10/28            Y05   0000
0074068801095399992013-10-28184661CE70982403303032920131019644  00000000011500.00MXP000000000JOSE DE JESUS TELLEZ MARTINEZ 00000002013/10/28            Y05   0000
0074068801095399992013-10-28184269CE70982403303032920131031805  00000000006500.00MXP000000000JOSE DE JESUS TELLEZ MARTINEZ 00000002013/10/28            Y05   0000
0074068801095399992013-10-28183866CE70982403303031620131031885  00000000001200.00MXP000000000JAQUELINE TELA CARRERA        00000002013/10/28            Y05   0000
0074068801095399992013-10-28183462CE70982403303031620131054598  00000000001200.00MXP000000000JAQUELINE TELA CARRERA        00000002013/10/28            Y05   0000
0074068801095399992013-10-28182967CE70982403303031620131018171  00000000010600.00MXP000000000JAQUELINE TELIA CARRERA       00000002013/10/28            Y05   0000
0074068801095399992013-10-28182502CE70982403302036020131018718  00000000010000.00MXP000000000FELIPE EVANGELISTA REYES      00000002013/10/28            Y05   0000
0074068801095399992013-10-28175136CE09027004061013520131031684  00000000003376.00MXP000000000REYNA SOTO GAYOSSO            00000002013/10/28            Y15   0000
0074068801095399992013-10-28174746CE09027004061013520131010605  00000000005000.00MXP000000000REYNA SOTO GAYOSSO            00000002013/10/28            Y15   0000
0074068801095399992013-10-28174437CE09027004061013520131058349  00000000003000.00MXP000000000REYNA SOTO GAYOSSO            00000002013/10/28            Y15   0000
0074068801095399992013-10-28174126CE70982403302035920131058393  00000000010000.00MXP000000000MARIA FERNANDA ROMERO MONTES  00000002013/10/28            Y05   0000
0074068801095399992013-10-28174019CE09027004061013520131052490  00000000005000.00MXP000000000REYNA SOTO GAYOSSO            00000002013/10/28            Y15   0000
0074068801095399992013-10-28173705CE09027004061025120131030467  00000000000737.00MXP000000000ARTURO VITE ALVARADO          00000002013/10/28            Y15   0000
0074068801095399992013-10-28173662CE70982403302035920131010824  00000000008000.00MXP000000000MARIA FERNANDA ROMERO MONTES  00000002013/10/28            Y05   0000
0074068801095399992013-10-28173339CE09027004061025120131058815  00000000001200.00MXP000000000ARTURO VITE ALVARADO          00000002013/10/28            Y15   0000
0074068801095399992013-10-28173280CE70982403302033320131012312  00000000010000.00MXP000000000TERESA SALINAS CASTILLO       00000002013/10/28            Y05   0000
0074068801095399992013-10-28172908CE70982403302033320131057309  00000000000272.00MXP000000000TERESA SALINAS CASTILLO       00000002013/10/28            Y05   0000
0074068801095399992013-10-28172483CE70982403302033320131033672  00000000007000.00MXP000000000TERESA SALINAS CASTILLO       00000002013/10/28            Y05   0000
0074068801095399992013-10-28172020CE70982403302033320131017824  00000000010000.00MXP000000000LIZETT RUIZ HERNANDEZ         00000002013/10/28            Y05   0000
0074068801095399992013-10-28170983CE70982403302033320131058067  00000000000272.00MXP000000000LIZETT RUIZ HERNANDEZ         00000002013/10/28            Y05   0000
0074068801095399992013-10-28170196CE70982403302033320131033532  00000000007000.00MXP000000000LIZETT RUIZ HERNANDEZ         00000002013/10/28            Y05   0000
0074068801095399992013-10-28170134CE09027004061031220131010394  00000000025000.00MXP000000000CARLOS NICOLAS SERAFIN        00000002013/10/28            Y15   0000
0074068801095399992013-10-28168513CE70982403305031120131055773  00000000030000.00MXP000000000ALFONSO DE LA TORRE PINTO     00000002013/10/28            Y05   0000
0074068801095399992013-10-28167305CE09027004061018420131034181  00000000001986.25MXP000000000JOSE LUIS FLORES CRUZ         00000002013/10/28            Y15   0000
0074068801095399992013-10-28167212CE70982403305031120131056862  00000000030000.00MXP000000000ALFONSO DE LA TORRE PINTO     00000002013/10/28            Y05   0000
0074068801095399992013-10-28166920CE09027004061018420131039024  00000000001475.50MXP000000000JOSE LUIS FLORES CRUZ         00000002013/10/28            Y15   0000
0074068801095399992013-10-28165826CE70982403305031120131054354  00000000033500.00MXP000000000ALFONSO DE LA TORRE PINTO     00000002013/10/28            Y05   0000
0074068801095399992013-10-28165369CE70982403305031120131053315  00000000004000.00MXP000000000ALFONSO DE LA TORRE PINTO     00000002013/10/28            Y05   0000
0074068801095399992013-10-28165192CE09027004061030620131050475  00000000002000.00MXP000000000LAURA LETICIA MARTINEZ LEON   00000002013/10/28            Y15   0000
0074068801095399992013-10-28164812CE70982403305031120131050873  00000000000132.00MXP000000000ALFONSO DE LA TORRRE PINTO    00000002013/10/28            Y05   0000
0074068801095399992013-10-28164772CE09027004061030620131050616  00000000003000.00MXP000000000LAURA LETICIA MARTINEZ LEON   00000002013/10/28            Y15   0000
0074068801095399992013-10-28164253CE09027004061030620131035161  00000000000613.80MXP000000000LAURA LETICIA MARTINEZ LEON   00000002013/10/28            Y15   0000
0074068801095399992013-10-28163990CE09027004061030620131019918  00000000003000.00MXP000000000LAURA LETICIA MARTINEZ LEON   00000002013/10/28            Y15   0000
0074068801095399992013-10-28163221CE09027004061030620131052679  00000000002000.00MXP000000000EMILIA LEON HERNANDEZ         00000002013/10/28            Y15   0000
0074068801095399992013-10-28163009CE70982403305031120131055484  00000000000800.00MXP000000000ALFONSO DE LA TORRE PINTO     00000002013/10/28            Y05   0000
0074068801095399992013-10-28162847CE09027004061030620131054089  00000000003000.00MXP000000000EMILIA LEON HERNANDEZ         00000002013/10/28            Y15   0000
0074068801095399992013-10-28162384CE09027004061030620131030386  00000000000613.80MXP000000000EMILIA LEON HERNANDEZ         00000002013/10/28            Y15   0000
0074068801095399992013-10-28162142CE09027004061030620131018878  00000000003000.00MXP000000000EMILIA LEON HERNANDEZ         00000002013/10/28            Y15   0000
0074068801095399992013-10-28161251CE70982403305031120131015132  00000000020000.00MXP000000000ALFONSO DE LA TORRE PINTO     00000002013/10/28            Y05   0000
0074068801095399992013-10-28153314CE09027004122037620131053316  00000000007099.00MXP000000000ARMANDO CALIXTO GARCIA        00000002013/10/28            Y15   0000
0074068801095399992013-10-28152989CE09027004122037620131030876  00000000006000.00MXP000000000ARMANDO CALIXTO GARCIA        00000002013/10/28            Y15   0000
0074068801095399992013-10-28152659CE09027004122037620131015489  00000000006901.00MXP000000000ARMANDO CALIXTO GARCIA        00000002013/10/28            Y15   0000
0074068801095399992013-10-28150210CE09027004090005620131995133  00000000022372.89MXP000000000RUBEN PEREZ OCOTLAN           00000002013/10/28            Y15   0000
0074068801095399992013-10-28148488CE09027004052033620131054358  00000002114119.00MXP000000000FERNANDO PATI#O RIVERA        00000002013/10/28            Y01   0000
0074068801095399992013-10-28148007CE09027004052033620131033311  00000000046035.00MXP000000000FERNANDO PATI#O RIVERA        00000002013/10/28            Y01   0000
0074068801095399992013-10-28147470CE09027004052033620131010871  00000000450000.00MXP000000000FERNANDO PATI#O RIVERA        00000002013/10/28            Y01   0000
0074068801095399992013-10-28144801CE09027004122037720131050872  00000000002000.00MXP000000000SALVADOR FLORES ESPINOZA      00000002013/10/28            Y15   0000
0074068801095399992013-10-28144532CE09027004122037720131035485  00000000003000.00MXP000000000SALVADOR FLORES ESPINOZA      00000002013/10/28            Y15   0000
0074068801095399992013-10-28144256CE09027004122037720131015131  00000000006000.00MXP000000000SALVADOR FLORES ESPINOZA      00000002013/10/28            Y15   0000
0074068801095399992013-10-28131165CE09027004090010120131030877  00000000001000.00MXP000000000J. VALENTIN EUSEBIO CORTES LOP00000002013/10/28            Y15   0000
0074068801095399992013-10-28130678CE09027004090010120131015134  00000000007000.00MXP000000000J. VALENTIN EUSEBIO CORTES LOP00000002013/10/28            Y15   0000
0074068801095399992013-10-28129747CE09027004090010120131055486  00000000002000.00MXP000000000J. VALENTIN EUSEBIO CORTES LOP00000002013/10/28            Y15   0000
0074068801095399992013-10-28118995CE09027004125061420131054352  00000000001897.19MXP000000000NORBERTO AMADOR HERNANDEZ     00000002013/10/28            Y15   0000
0074068801095399992013-10-28118448CE09027004125061420131035484  00000000006875.00MXP000000000NORBETO AMADOR HERNANDEZ      00000002013/10/28            Y15   0000
0074068801095399992013-10-28118156CE09027004125061420131015130  00000000003857.00MXP000000000ROBERTO AMADOR HERNANDEZ      00000002013/10/28            Y15   0000
0074068801095399992013-10-28116515CE09027004125002720111053312  00000000008000.00MXP000000000FRANCISCO BRENA ALTAMIRANO    00000002013/10/28            Y15   0000
0074068801095399992013-10-28116187CE09027004125002720111030872  00000000000545.00MXP000000000FRANCISCO BRENA ALTAMIRANO    00000002013/10/28            Y15   0000
0074068801095399992013-10-28115817CE09027004125002720111015139  00000000002571.00MXP000000000FRANCISCO BRENA ALTAMIRANO    00000002013/10/28            Y15   0000
0074068801095399992013-10-28114667CE09027004125031820131035771  00000000000982.00MXP000000000ISABEL PILAR DORANTES         00000002013/10/28            Y15   0000
0074068801095399992013-10-28114267CE09027004125031820131016862  00000000005475.00MXP000000000ISABEL PILAR DORANTES         00000002013/10/28            Y15   0000
0074068801095399992013-10-28096912CE09027004200015720081015487  00000000018250.00MXP000000000OSCAR BATALLA ARIAS           00000002013/10/28            Y15   0000
