0074068801095402452013-09-30485433CE09026103501043920132035132  00000000016010.68MXP000000000BARTOLO MU#OZ TIRZO           00000002013/09/30            Y15   0000
0074068801095402452013-09-30484813CE09026103501043920132025489  00000000010480.00MXP000000000BARTOLO MU#OZ TIRZO           00000002013/09/30            Y15   0000
0074068801095402452013-09-30455172CE09026103501042220132020874  00000000002613.60MXP000000000EVODIO CHANTES FORMACIO       00000002013/09/30            Y15   0000
0074068801095402452013-09-30416034CE09026104011002220132025136  00000000063785.79MXP000000000CARLOS ALAN GONZALEZ MATIAS   00000002013/09/30            Y15   0000
0074068801095402452013-09-30415495CE09026104011002220132035481  00000000005750.10MXP000000000CARLOS ALAN GONZALEZ MATIAS   00000002013/09/30            Y15   0000
0074068801095402452013-09-30408599CE09026104052006320132025134  00000000015603.75MXP000000000VICENTE TOXQUI FLORES         00000002013/09/30            Y15   0000
0074068801095402452013-09-30398729CE09026104052006320132025480  00000000018242.70MXP000000000ALEJANDRO FLORES TOXQUI       00000002013/09/30            Y15   0000
0074068801095402452013-09-30397178CE09026104052006320132020879  00000000015603.75MXP000000000MARCOS TOXQUI XOCHIMITL       00000002013/09/30            Y15   0000
0074068801095402452013-09-30148285SPEI ENVIADO                  10000001066025.88MXP0000000003009138HON ASIM 2DA QNA SEP   00000002013/09/30            T17   0000
0074068801095402452013-09-30147696SPEI ENVIADO                  10000000006693.50MXP0000000003009138PENSION VIUDAS         00000002013/09/30            T17   0000
0074068801095402452013-09-30144862SPEI ENVIADO                  10000000019500.00MXP0000000003009138MED  2DA QNA SEP       00000002013/09/30            T17   0000
0074068801095402452013-09-30133088CE09026104180002020082025133  00000000001601.60MXP000000000ELISEO RORIGUEZ TOLENTINO     00000002013/09/30            Y15   0000
0074068801095402452013-09-30000001IVA COMISION CIE              10000000000049.88MXP00000000000001151738  SICOCO SEP 2013  00000002013/09/30            W06   0000
0074068801095402452013-09-30000001IVA COMISION CIE              10000000000235.04MXP00000000000001197282  SICOCO SEP 2013  00000002013/09/30            W06   0000
0074068801095402452013-09-30000001COMISION CIE                  10000000000311.75MXP00000000000001151738  SICOCO SEP 2013  00000002013/09/30            W05   0000
0074068801095402452013-09-30000001IVA COMISION CIE              10000000000347.36MXP00000000000001198769  SICOCO SEP 2013  00000002013/09/30            W06   0000
0074068801095402452013-09-30000001IVA COMISION CIE              10000000000457.60MXP00000000000001195085  SICOCO SEP 2013  00000002013/09/30            W06   0000
0074068801095402452013-09-30000001COMISION CIE                  10000000001469.00MXP00000000000001197282  SICOCO SEP 2013  00000002013/09/30            W05   0000
0074068801095402452013-09-30000001COMISION CIE                  10000000002171.00MXP00000000000001198769  SICOCO SEP 2013  00000002013/09/30            W05   0000
0074068801095402452013-09-30000001COMISION CIE                  10000000002860.00MXP00000000000001195085  SICOCO SEP 2013  00000002013/09/30            W05   0000
0074068801095402452013-09-30000000VENTA FONDOS DE INVERSION     00000001261471.33MXP000000000OPERADO EN CANAL   SUCU       00000002013/09/30            F04   0000
0074068801095402452013-09-30000000000000709824   ERV.T.I.B.     10000000000032.32MXP000000000SICOCO SEP 2013               00000002013/09/30                  0000
0074068801095402452013-09-30000000IVA COMISION CIE              10000000000001.16MXP00000000000000090289  SICOCO SEP 2013  00000002013/09/30            W06   0000
0074068801095402452013-09-30000000COMISION CIE                  10000000000007.25MXP00000000000000090289  SICOCO SEP 2013  00000002013/09/30            W05   0000
0074068801095402452013-09-30000000IVA COMISION CIE              10000000000103.24MXP00000000000000090261  SICOCO SEP 2013  00000002013/09/30            W06   0000
0074068801095402452013-09-30000000IVA COMISION CIE              10000000000199.52MXP00000000000000090298  SICOCO SEP 2013  00000002013/09/30            W06   0000
0074068801095402452013-09-30000000COM. SERVICIOS T.I.B.         10000000000202.00MXP00000000000000709824  SICOCO SEP 2013  00000002013/09/30            W66   0000
0074068801095402452013-09-30000000IVA COMISION CIE              10000000000395.56MXP00000000000000090270  SICOCO SEP 2013  00000002013/09/30            W06   0000
0074068801095402452013-09-30000000COMISION CIE                  10000000000645.25MXP00000000000000090261  SICOCO SEP 2013  00000002013/09/30            W05   0000
0074068801095402452013-09-30000000COMISION CIE                  10000000001247.00MXP00000000000000090298  SICOCO SEP 2013  00000002013/09/30            W05   0000
0074068801095402452013-09-30000000IVA COM.TRANS.CW              10000000001281.82MXP00000000000000003848  SICOCO SEP 2013  00000002013/09/30            W10   0000
0074068801095402452013-09-30000000COMISION CIE                  10000000002472.25MXP00000000000000090270  SICOCO SEP 2013  00000002013/09/30            W05   0000
0074068801095402452013-09-30000000COM. TRANSACCIONES CW         10000000008011.61MXP00000000000000003848  SICOCO SEP 2013  00000002013/09/30            W09   0000
0074068801095402452013-09-30000000SALDO ULTIMA TRANS            20000002288495.98MXP000000000                              00000002013/09/30                  0000
0074068801095402452013-09-27458985CE09026104040000120132994359  00000000005000.00MXP000000000JUZGADO PENAL DE CHIAUTLA     00000002013/09/27            Y15   0000
0074068801095402452013-09-27088808CE09026104071056420102035482  00000000016340.00MXP000000000ALEJANDRO TEPEPA PEREZ        00000002013/09/27            Y15   0000
0074068801095402452013-09-27000000ABONO TRASPASO MISMA PLAZA CW 00000000000571.20MXP000000000401102012007203 91            00000002013/09/27            W42   0000
0074068801095402452013-09-27000000ABONO TRASPASO MISMA PLAZA CW 00000000000817.05MXP000000000400000892011203 93            00000002013/09/27            W42   0000
0074068801095402452013-09-27000000ABONO TRASPASO MISMA PLAZA CW 00000000002479.50MXP000000000350101322013202 89            00000002013/09/27            W42   0000
0074068801095402452013-09-27000000ABONO TRASPASO MISMA PLAZA CW 00000000002857.25MXP000000000401100962011203 88            00000002013/09/27            W42   0000
0074068801095402452013-09-27000000ABONO TRASPASO MISMA PLAZA CW 00000000003150.00MXP000000000400000892011202 92            00000002013/09/27            W42   0000
0074068801095402452013-09-27000000ABONO TRASPASO MISMA PLAZA CW 00000000003952.80MXP000000000401102012007202 90            00000002013/09/27            W42   0000
0074068801095402452013-09-27000000ABONO TRASPASO MISMA PLAZA CW 00000000004085.25MXP000000000330600060012202 94            00000002013/09/27            W42   0000
0074068801095402452013-09-27000000ABONO TRASPASO MISMA PLAZA CW 00000000004642.75MXP000000000401100962011202 87            00000002013/09/27            W42   0000
0074068801095402452013-09-27000000SALDO ULTIMA TRANS            20000001992052.67MXP000000000                              00000002013/09/27                  0000
0074068801095402452013-09-26360817CE09026104140005720122025131  00000000002877.60MXP000000000ARMANDO MARTINEZ SANCHEZ      00000002013/09/26            Y15   0000
0074068801095402452013-09-26314609CE09026104110017920112993319  00000000011360.00MXP000000000DOMINGO ALBERTO GONZALEZ      00000002013/09/26            Y15   0000
0074068801095402452013-09-26313984CE09026104110017920112030872  00000000017040.00MXP000000000DOMINGO ALBERTO GONZALEZ      00000002013/09/26            Y15   0000
0074068801095402452013-09-26313397CE09026104110017920112025138  00000000016280.00MXP000000000DOMINGO ALBERTO GONZALEZ      00000002013/09/26            Y15   0000
0074068801095402452013-09-26299739CE09026103502038720132025132  00000000008610.00MXP000000000CIRILO LOPEZ SANCHEZ          00000002013/09/26            Y15   0000
0074068801095402452013-09-26226160CE09026103501043320132035481  00000000000051.95MXP000000000JESSICA CHANTEZ MU#OZ         00000002013/09/26            Y15   0000
0074068801095402452013-09-26225436CE09026103501043320132025136  00000000004322.24MXP000000000JESSICA CHANTEZ MU#OZ         00000002013/09/26            Y15   0000
0074068801095402452013-09-26000000ABONO TRASPASO MISMA PLAZA CW 00000000000108.94MXP000000000407101382012203 84            00000002013/09/26            W42   0000
0074068801095402452013-09-26000000ABONO TRASPASO MISMA PLAZA CW 00000000001105.00MXP000000000406100732013203 86            00000002013/09/26            W42   0000
0074068801095402452013-09-26000000ABONO TRASPASO MISMA PLAZA CW 00000000001900.00MXP000000000406100732013202 85            00000002013/09/26            W42   0000
0074068801095402452013-09-26000000ABONO TRASPASO MISMA PLAZA CW 00000000003117.00MXP000000000413000042010203 82            00000002013/09/26            W42   0000
0074068801095402452013-09-26000000ABONO TRASPASO MISMA PLAZA CW 00000000005140.00MXP000000000413000042010202 81            00000002013/09/26            W42   0000
0074068801095402452013-09-26000000ABONO TRASPASO MISMA PLAZA CW 00000000005250.00MXP000000000407101382012202 83            00000002013/09/26            W42   0000
0074068801095402452013-09-26000000SALDO ULTIMA TRANS            20000001948156.87MXP000000000                              00000002013/09/26                  0000
0074068801095402452013-09-25479716CE198769330903632013001ESC95  00000000006138.00MXP000000000818803                        00000002013/09/25            Y15   0000
0074068801095402452013-09-25479424CE198769330903632013002ESC95  00000000008862.00MXP000000000816897                        00000002013/09/25            Y15   0000
0074068801095402452013-09-25000000SALDO ULTIMA TRANS            20000001870994.14MXP000000000                              00000002013/09/25                  0000
0074068801095402452013-09-24410397CE198769330203542013001ESC95  00000000005000.00MXP000000000805860                        00000002013/09/24            Y15   0000
0074068801095402452013-09-24409728CE198769330203542013002ESC95  00000000006138.00MXP000000000808825                        00000002013/09/24            Y15   0000
0074068801095402452013-09-24400688CE198769330903692013001ESC95  00000000008862.00MXP000000000806838                        00000002013/09/24            Y15   0000
0074068801095402452013-09-24400416CE198769330903692013002ESC95  00000000006138.00MXP000000000808887                        00000002013/09/24            Y15   0000
0074068801095402452013-09-24383645CE09026104123011920082025489  00000000005863.50MXP000000000PORFIRIO PAULINO ZARATE       00000002013/09/24            Y15   0000
0074068801095402452013-09-24379577CE09026103501022220132025489  00000000000616.20MXP000000000CANDELARIO NOLASCO FLORES     00000002013/09/24            Y15   0000
0074068801095402452013-09-24297743CE09026103501032120132020878  00000000001725.00MXP000000000RODRIGO ROJAS ISABEL          00000002013/09/24            Y15   0000
0074068801095402452013-09-24288356CE09026103501016320122023318  00000000001620.00MXP000000000TRINIDAD MENEZES CASTILLO     00000002013/09/24            Y15   0000
0074068801095402452013-09-24249600CE198769330603612013002ESC95  00000000006874.56MXP000000000800840                        00000002013/09/24            Y15   0000
0074068801095402452013-09-24248996CE198769330603612013001ESC95  00000000013000.00MXP000000000800817                        00000002013/09/24            Y15   0000
0074068801095402452013-09-24235610CE198769330801612013001ESC95  00000000001412.00MXP000000000792864                        00000002013/09/24            Y15   0000
0074068801095402452013-09-24235155CE198769330801612013003ESC95  00000000004200.00MXP000000000790884                        00000002013/09/24            Y15   0000
0074068801095402452013-09-24234435CE198769330801612013002ESC95  00000000052710.00MXP000000000795829                        00000002013/09/24            Y15   0000
0074068801095402452013-09-24228478CE198769330402702013003ESC95  00000000010000.00MXP000000000797857                        00000002013/09/24            Y15   0000
0074068801095402452013-09-24228007CE198769330402702013004ESC95  00000000019201.00MXP000000000793828                        00000002013/09/24            Y15   0000
0074068801095402452013-09-24226700CE198769330703912013001ESC95  00000000000500.00MXP000000000805847                        00000002013/09/24            Y15   0000
0074068801095402452013-09-24026576SPEI RECIBIDO    0000001      00000000491449.35MXP000000000TRASP MULTAS CONMUTACION Y ERA00000002013/09/24            T20   0000
0074068801095402452013-09-24000000ABONO TRASPASO MISMA PLAZA CW 00000000000011.80MXP000000000H TRIBUNAL SUPERIOR  DE JUSTIC00000002013/09/24            W42   0000
0074068801095402452013-09-24000000ABONO TRASPASO MISMA PLAZA CW 00000000000053.19MXP000000000H TRIBUNAL SUPERIOR  DE JUSTIC00000002013/09/24            W42   0000
0074068801095402452013-09-24000000ABONO TRASPASO MISMA PLAZA CW 00000000000054.47MXP000000000330303822010203 58            00000002013/09/24            W42   0000
0074068801095402452013-09-24000000ABONO TRASPASO MISMA PLAZA CW 00000000000057.89MXP000000000H TRIBUNAL SUPERIOR  DE JUSTIC00000002013/09/24            W42   0000
0074068801095402452013-09-24000000ABONO TRASPASO MISMA PLAZA CW 00000000000086.50MXP000000000H TRIBUNAL SUPERIOR  DE JUSTIC00000002013/09/24            W42   0000
0074068801095402452013-09-24000000ABONO TRASPASO MISMA PLAZA CW 00000000000103.90MXP000000000330601002009203 80            00000002013/09/24            W42   0000
0074068801095402452013-09-24000000ABONO TRASPASO MISMA PLAZA CW 00000000000104.18MXP000000000H TRIBUNAL SUPERIOR  DE JUSTIC00000002013/09/24            W42   0000
0074068801095402452013-09-24000000ABONO TRASPASO MISMA PLAZA CW 00000000000113.40MXP000000000330601322011203 78            00000002013/09/24            W42   0000
0074068801095402452013-09-24000000ABONO TRASPASO MISMA PLAZA CW 00000000000114.00MXP000000000408000032013203 62            00000002013/09/24            W42   0000
0074068801095402452013-09-24000000ABONO TRASPASO MISMA PLAZA CW 00000000000600.00MXP000000000330601322011202 77            00000002013/09/24            W42   0000
0074068801095402452013-09-24000000ABONO TRASPASO MISMA PLAZA CW 00000000000683.00MXP000000000408000032013202 61            00000002013/09/24            W42   0000
0074068801095402452013-09-24000000ABONO TRASPASO MISMA PLAZA CW 00000000000817.05MXP000000000350101262013203 64            00000002013/09/24            W42   0000
0074068801095402452013-09-24000000ABONO TRASPASO MISMA PLAZA CW 00000000001039.00MXP000000000350100582013203 68            00000002013/09/24            W42   0000
0074068801095402452013-09-24000000ABONO TRASPASO MISMA PLAZA CW 00000000001134.00MXP000000000408001592011203 60            00000002013/09/24            W42   0000
0074068801095402452013-09-24000000ABONO TRASPASO MISMA PLAZA CW 00000000001246.80MXP000000000330202962009202 56            00000002013/09/24            W42   0000
0074068801095402452013-09-24000000ABONO TRASPASO MISMA PLAZA CW 00000000001298.75MXP000000000407102862010203 70            00000002013/09/24            W42   0000
0074068801095402452013-09-24000000ABONO TRASPASO MISMA PLAZA CW 00000000001500.00MXP000000000350100232012202 54            00000002013/09/24            W42   0000
0074068801095402452013-09-24000000ABONO TRASPASO MISMA PLAZA CW 00000000001575.00MXP000000000330601002009202 79            00000002013/09/24            W42   0000
0074068801095402452013-09-24000000ABONO TRASPASO MISMA PLAZA CW 00000000001701.00MXP000000000412201202011203 72            00000002013/09/24            W42   0000
0074068801095402452013-09-24000000ABONO TRASPASO MISMA PLAZA CW 00000000001814.40MXP000000000414000042012203 74            00000002013/09/24            W42   0000
0074068801095402452013-09-24000000ABONO TRASPASO MISMA PLAZA CW 00000000001945.53MXP000000000330303822010202 57            00000002013/09/24            W42   0000
0074068801095402452013-09-24000000ABONO TRASPASO MISMA PLAZA CW 00000000001969.60MXP000000000414000042012202 73            00000002013/09/24            W42   0000
0074068801095402452013-09-24000000ABONO TRASPASO MISMA PLAZA CW 00000000002042.00MXP000000000408001592011202 59            00000002013/09/24            W42   0000
0074068801095402452013-09-24000000ABONO TRASPASO MISMA PLAZA CW 00000000003940.00MXP000000000407102862010202 69            00000002013/09/24            W42   0000
0074068801095402452013-09-24000000ABONO TRASPASO MISMA PLAZA CW 00000000005076.54MXP000000000412201202011202 71            00000002013/09/24            W42   0000
0074068801095402452013-09-24000000ABONO TRASPASO MISMA PLAZA CW 00000000005292.54MXP000000000350101262013202 63            00000002013/09/24            W42   0000
0074068801095402452013-09-24000000ABONO TRASPASO MISMA PLAZA CW 00000000006971.44MXP000000000350101572013203 66            00000002013/09/24            W42   0000
0074068801095402452013-09-24000000ABONO TRASPASO MISMA PLAZA CW 00000000007000.00MXP000000000330903322012202 75            00000002013/09/24            W42   0000
0074068801095402452013-09-24000000ABONO TRASPASO MISMA PLAZA CW 00000000007821.53MXP000000000350101572013202 65            00000002013/09/24            W42   0000
0074068801095402452013-09-24000000ABONO TRASPASO MISMA PLAZA CW 00000000008700.00MXP000000000408001322012202 55            00000002013/09/24            W42   0000
0074068801095402452013-09-24000000ABONO TRASPASO MISMA PLAZA CW 00000000010363.65MXP000000000350100582013202 67            00000002013/09/24            W42   0000
0074068801095402452013-09-24000000ABONO TRASPASO MISMA PLAZA CW 00000000131333.77MXP000000000AGOSTO  0148471843            00000002013/09/24            W42   0000
0074068801095402452013-09-24000000ABONO TRASPASO MISMA PLAZA CW 00000000143223.80MXP000000000H TRIBUNAL SUPERIOR  DE JUSTIC00000002013/09/24            W42   0000
0074068801095402452013-09-24000000ABONO TRASPASO MISMA PLAZA CW 00000000310886.98MXP000000000AGOSTO  0109539999            00000002013/09/24            W42   0000
0074068801095402452013-09-24000000CARGO TRASPASO MISMA PLAZA CW 10000000003300.00MXP000000000330400082011101 76            00000002013/09/24            W41   0000
0074068801095402452013-09-24000000COMPRA FONDOS INVERSION       10000000999982.04MXP000000000OPERADO EN CANAL:  SUCU       00000002013/09/24            F01   0000
0074068801095402452013-09-24000000SALDO ULTIMA TRANS            20000001855994.14MXP000000000                              00000002013/09/24                  0000
0074068801095402452013-09-23458315CE09026104171019820102030876  00000000000544.70MXP000000000JOSE LUIS RIVERA DIAZ         00000002013/09/23            Y15   0000
0074068801095402452013-09-23457777CE09026104171019820102025488  00000000003600.00MXP000000000JOSE LUIS RIVERA DIAZ         00000002013/09/23            Y15   0000
0074068801095402452013-09-23161605CE198769330503152013001ESC95  00000000012000.00MXP000000000799830                        00000002013/09/23            Y15   0000
0074068801095402452013-09-23159744CE198769330503152013002ESC95  00000000001800.00MXP000000000795801                        00000002013/09/23            Y15   0000
0074068801095402452013-09-23150809CE198769330800912013007ESC95  00000000000003.00MXP000000000793853                        00000002013/09/23            Y15   0000
0074068801095402452013-09-23150294CE198769330800912013008ESC95  00000000000004.00MXP000000000794889                        00000002013/09/23            Y15   0000
0074068801095402452013-09-23125961CE198769002008302013001ESC95  00000000012989.00MXP000000000791847                        00000002013/09/23            Y15   0000
0074068801095402452013-09-23125453CE198769002008302013002ESC95  00000000000336.00MXP000000000796838                        00000002013/09/23            Y15   0000
0074068801095402452013-09-23121840CE198769330902242011001ESC95  00000000130000.00MXP000000000794857                        00000002013/09/23            Y15   0000
0074068801095402452013-09-23108934CE198769330800912013003ESC95  00000000017942.00MXP000000000791832                        00000002013/09/23            Y15   0000
0074068801095402452013-09-23108654CE198769330800912013004ESC95  00000000001657.00MXP000000000791855                        00000002013/09/23            Y15   0000
0074068801095402452013-09-23108310CE198769330800912013006ESC95  00000000001657.00MXP000000000791804                        00000002013/09/23            Y15   0000
0074068801095402452013-09-23108051CE198769330800912013005ESC95  00000000017946.00MXP000000000795833                        00000002013/09/23            Y15   0000
0074068801095402452013-09-23107705CE198769330800912013002ESC95  00000000001654.00MXP000000000798803                        00000002013/09/23            Y15   0000
0074068801095402452013-09-23107388CE198769330800912013001ESC95  00000000017946.00MXP000000000795838                        00000002013/09/23            Y15   0000
0074068801095402452013-09-23077097CE198769330901412013001ESC95  00000000001125.00MXP000000000793854                        00000002013/09/23            Y15   0000
0074068801095402452013-09-23051345CE198769330803442013001ESC95  00000000021500.00MXP000000000790881                        00000002013/09/23            Y15   0000
0074068801095402452013-09-23049446CE198769330803442013004ESC95  00000000021500.00MXP000000000790853                        00000002013/09/23            Y15   0000
0074068801095402452013-09-23048038CE198769330803442013002ESC95  00000000007500.00MXP000000000792833                        00000002013/09/23            Y15   0000
0074068801095402452013-09-23046756CE198769330803442013003ESC95  00000000000800.00MXP000000000794882                        00000002013/09/23            Y15   0000
0074068801095402452013-09-23045968CE198769330803442013005ESC95  00000000007500.00MXP000000000792805                        00000002013/09/23            Y15   0000
0074068801095402452013-09-23044734CE198769330803442013007ESC95  00000000000800.00MXP000000000794877                        00000002013/09/23            Y15   0000
0074068801095402452013-09-23000000SALDO ULTIMA TRANS            20000001563290.86MXP000000000                              00000002013/09/23                  0000
0074068801095402452013-09-20339305CE198769330402702013002ESC95  00000000019201.00MXP000000000753811                        00000002013/09/20            Y15   0000
0074068801095402452013-09-20339015CE198769330402702013001ESC95  00000000010000.00MXP000000000757840                        00000002013/09/20            Y15   0000
0074068801095402452013-09-20333863CE09026104125043820132034357  00000000004603.50MXP000000000ROMAN ALTAMIRANO ALVARADO     00000002013/09/20            Y15   0000
0074068801095402452013-09-20333463CE09026104125043820132023319  00000000001143.00MXP000000000ROMAN ALTAMIRANO ALVARADO     00000002013/09/20            Y15   0000
0074068801095402452013-09-20230385CE198769330503442013001ESC95  00000000012000.00MXP000000000759897                        00000002013/09/20            Y15   0000
0074068801095402452013-09-20230066CE198769330503442013002ESC95  00000000001534.50MXP000000000756881                        00000002013/09/20            Y15   0000
0074068801095402452013-09-20228706CE198769330503402013001ESC95  00000000015000.00MXP000000000752851                        00000002013/09/20            Y15   0000
0074068801095402452013-09-20228353CE198769330503402013002ESC95  00000000001500.00MXP000000000756829                        00000002013/09/20            Y15   0000
0074068801095402452013-09-20227917CE198769330503402013003ESC95  00000000010127.70MXP000000000752897                        00000002013/09/20            Y15   0000
0074068801095402452013-09-20218124CE198769330602952013001ESC95  00000000006138.00MXP000000000758877                        00000002013/09/20            Y15   0000
0074068801095402452013-09-20215515CE09026104180002820112025130  00000000001782.66MXP000000000EFRAIN GARRIDO MORALES        00000002013/09/20            Y15   0000
0074068801095402452013-09-20197987CE09026104150003820122994350  00000000004000.00MXP000000000MARIANO VILLA GARCIA          00000002013/09/20            Y15   0000
0074068801095402452013-09-20197022CE09026104150003820122035485  00000000000413.56MXP000000000MARTIN VILLA GARCIA           00000002013/09/20            Y15   0000
0074068801095402452013-09-20196150CE09026104150003820122990879  00000000002954.00MXP000000000MARIANO VILLA GARCIA          00000002013/09/20            Y15   0000
0074068801095402452013-09-20195491CE198769330903332013001ESC95  00000000010093.00MXP000000000753833                        00000002013/09/20            Y15   0000
0074068801095402452013-09-20194749CE09026104150003820122025130  00000000001000.00MXP000000000MARIANO VILLA GARCIA          00000002013/09/20            Y15   0000
0074068801095402452013-09-20194149CE198769330903332013002ESC95  00000000009207.00MXP000000000752843                        00000002013/09/20            Y15   0000
0074068801095402452013-09-20193799CE198769330903332013003ESC95  00000000000700.00MXP000000000751853                        00000002013/09/20            Y15   0000
0074068801095402452013-09-20184694CE09026103501031420122030874  00000000001143.87MXP000000000JOSE IGNACIO RODARTE GONZALEZ 00000002013/09/20            Y15   0000
0074068801095402452013-09-20171775CE198769330103622013003ESC95  00000000002000.00MXP000000000752816                        00000002013/09/20            Y15   0000
0074068801095402452013-09-20171400CE198769330103622013002ESC95  00000000000613.80MXP000000000752890                        00000002013/09/20            Y15   0000
0074068801095402452013-09-20171111CE198769330103622013001ESC95  00000000006000.00MXP000000000756822                        00000002013/09/20            Y15   0000
0074068801095402452013-09-20155159CE198769330402872013007ESC95  00000000003069.00MXP000000000754853                        00000002013/09/20            Y15   0000
0074068801095402452013-09-20154574CE198769330402872013008ESC95  00000000003000.00MXP000000000753863                        00000002013/09/20            Y15   0000
0074068801095402452013-09-20153775CE198769330402872013006ESC95  00000000003000.00MXP000000000753817                        00000002013/09/20            Y15   0000
0074068801095402452013-09-20150118CE09026104071007320122035480  00000000003724.04MXP000000000ARMANDO CASTRO MIRON          00000002013/09/20            Y15   0000
0074068801095402452013-09-20149438CE09026104071007320122025135  00000000003317.50MXP000000000ARMANDO CASTRO MIRON          00000002013/09/20            Y15   0000
0074068801095402452013-09-20143672CE198769330202662013001ESC95  00000000019000.00MXP000000000756866                        00000002013/09/20            Y15   0000
0074068801095402452013-09-20143196CE198769330202662013003ESC95  00000000009207.00MXP000000000752860                        00000002013/09/20            Y15   0000
0074068801095402452013-09-20142400CE198769330202662013002ESC95  00000000001227.60MXP000000000756889                        00000002013/09/20            Y15   0000
0074068801095402452013-09-20140869CE198769330402872013005ESC95  00000000005000.00MXP000000000755820                        00000002013/09/20            Y15   0000
0074068801095402452013-09-20139556CE198769330402872013004ESC95  00000000003069.00MXP000000000754881                        00000002013/09/20            Y15   0000
0074068801095402452013-09-20138958CE198769330402872013003ESC95  00000000003000.00MXP000000000753845                        00000002013/09/20            Y15   0000
0074068801095402452013-09-20137757CE198769330402872013002ESC95  00000000003000.00MXP000000000753822                        00000002013/09/20            Y15   0000
0074068801095402452013-09-20136936CE198769330402872013001ESC95  00000000005000.00MXP000000000755825                        00000002013/09/20            Y15   0000
0074068801095402452013-09-20007418DEPOSITO EFECTIVO/CHEQUE      00000000010000.00MXP0000000000074184                       00000002013/09/20            C02   0000
0074068801095402452013-09-20000000ABONO TRASPASO MISMA PLAZA CW 00000000000113.40MXP000000000415000142012203 49            00000002013/09/20            W42   0000
0074068801095402452013-09-20000000ABONO TRASPASO MISMA PLAZA CW 00000000001181.60MXP000000000415000182012203 53            00000002013/09/20            W42   0000
0074068801095402452013-09-20000000ABONO TRASPASO MISMA PLAZA CW 00000000001181.60MXP000000000415000182012203 51            00000002013/09/20            W42   0000
0074068801095402452013-09-20000000ABONO TRASPASO MISMA PLAZA CW 00000000001182.00MXP000000000415000182012202 50            00000002013/09/20            W42   0000
0074068801095402452013-09-20000000ABONO TRASPASO MISMA PLAZA CW 00000000001182.00MXP000000000415000182012202 52            00000002013/09/20            W42   0000
0074068801095402452013-09-20000000ABONO TRASPASO MISMA PLAZA CW 00000000004000.00MXP0000000003305004220121055164 ORD 149   00000002013/09/20            W42   0000
0074068801095402452013-09-20000000ABONO TRASPASO MISMA PLAZA CW 00000000004453.60MXP000000000415000142012202 48            00000002013/09/20            W42   0000
0074068801095402452013-09-20000000SALDO ULTIMA TRANS            20000001282487.16MXP000000000                              00000002013/09/20                  0000
0074068801095402452013-09-19466910CE09026104071035920102025132  00000000014040.00MXP000000000LUISALBERTOVILLANUEVARODRIGUEZ00000002013/09/19            Y15   0000
0074068801095402452013-09-19466355CE09026104071035920102035487  00000000008824.14MXP000000000LUISALBERTOVILLANUEVARODRIGUEZ00000002013/09/19            Y15   0000
0074068801095402452013-09-19461761CE198769330103642013001ESC95  00000000001841.40MXP000000000746831                        00000002013/09/19            Y15   0000
0074068801095402452013-09-19398621CE198769330401932008001ESC95  00000000004785.00MXP000000000746833                        00000002013/09/19            Y15   0000
0074068801095402452013-09-19376674CE198769330902932013003ESC95  00000000004158.60MXP000000000748816                        00000002013/09/19            Y15   0000
0074068801095402452013-09-19376254CE198769330902932013004ESC95  00000000001841.40MXP000000000746813                        00000002013/09/19            Y15   0000
0074068801095402452013-09-19375760CE198769330902932013005ESC95  00000000004158.60MXP000000000748862                        00000002013/09/19            Y15   0000
0074068801095402452013-09-19375306CE198769330902932013006ESC95  00000000001841.40MXP000000000746859                        00000002013/09/19            Y15   0000
0074068801095402452013-09-19374884CE198769330902932013001ESC95  00000000004158.60MXP000000000748867                        00000002013/09/19            Y15   0000
0074068801095402452013-09-19374361CE198769330902932013002ESC95  00000000001841.40MXP000000000746864                        00000002013/09/19            Y15   0000
0074068801095402452013-09-19362708CE198769330403142011001ESC95  00000000005000.00MXP000000000745829                        00000002013/09/19            Y15   0000
0074068801095402452013-09-19362641CE198769330403562013001ESC95  00000000004000.00MXP000000000744847                        00000002013/09/19            Y15   0000
0074068801095402452013-09-19362266CE198769330403562013002ESC95  00000000006138.00MXP000000000748825                        00000002013/09/19            Y15   0000
0074068801095402452013-09-19354001CE198769330703112013008ESC95  00000000001841.40MXP000000000746837                        00000002013/09/19            Y15   0000
0074068801095402452013-09-19353491CE198769330703112013007ESC95  00000000005000.00MXP000000000745801                        00000002013/09/19            Y15   0000
0074068801095402452013-09-19352993CE198769330703112013006ESC95  00000000005000.00MXP000000000745875                        00000002013/09/19            Y15   0000
0074068801095402452013-09-19352437CE198769330703112013005ESC95  00000000015000.00MXP000000000742813                        00000002013/09/19            Y15   0000
0074068801095402452013-09-19338017CE198769617000882013001ESC95  00000000040000.00MXP000000000748892                        00000002013/09/19            Y15   0000
0074068801095402452013-09-19329832CE198769330303842013002ESC95  00000000006200.00MXP000000000742858                        00000002013/09/19            Y15   0000
0074068801095402452013-09-19329335CE198769330303842013001ESC95  00000000008100.00MXP000000000741822                        00000002013/09/19            Y15   0000
0074068801095402452013-09-19321285CE198769330203192010001ESC95  00000000000017.50MXP000000000749810                        00000002013/09/19            Y15   0000
0074068801095402452013-09-19304566CE198769330203772013001ESC95  00000000020000.00MXP000000000744872                        00000002013/09/19            Y15   0000
0074068801095402452013-09-19011310CE198769330703382011001ESC95  00000000001479.25MXP000000000742812                        00000002013/09/19            Y15   0000
0074068801095402452013-09-19005593CE198769330200802011002ESC95  00000000000396.90MXP000000000745840                        00000002013/09/19            Y15   0000
0074068801095402452013-09-19004937CE198769330200802011001ESC95  00000000003923.64MXP000000000743888                        00000002013/09/19            Y15   0000
0074068801095402452013-09-19001940CE198769330200802011004ESC95  00000000000396.90MXP000000000745886                        00000002013/09/19            Y15   0000
0074068801095402452013-09-19001375CE198769330200802011003ESC95  00000000003923.64MXP000000000743837                        00000002013/09/19            Y15   0000
0074068801095402452013-09-19000000ABONO TRASPASO MISMA PLAZA CW 00000000000122.52MXP000000000415000282012202               00000002013/09/19            W42   0000
0074068801095402452013-09-19000000ABONO TRASPASO MISMA PLAZA CW 00000000000296.00MXP000000000408002302012203               00000002013/09/19            W42   0000
0074068801095402452013-09-19000000ABONO TRASPASO MISMA PLAZA CW 00000000000354.48MXP000000000415000112011203               00000002013/09/19            W42   0000
0074068801095402452013-09-19000000ABONO TRASPASO MISMA PLAZA CW 00000000000567.50MXP000000000405300272011203               00000002013/09/19            W42   0000
0074068801095402452013-09-19000000ABONO TRASPASO MISMA PLAZA CW 00000000000645.00MXP000000000414000732009202               00000002013/09/19            W42   0000
0074068801095402452013-09-19000000ABONO TRASPASO MISMA PLAZA CW 00000000000649.88MXP000000000415000282012203               00000002013/09/19            W42   0000
0074068801095402452013-09-19000000ABONO TRASPASO MISMA PLAZA CW 00000000001875.00MXP000000000408002302012202               00000002013/09/19            W42   0000
0074068801095402452013-09-19000000ABONO TRASPASO MISMA PLAZA CW 00000000002268.00MXP000000000330703102011203               00000002013/09/19            W42   0000
0074068801095402452013-09-19000000ABONO TRASPASO MISMA PLAZA CW 00000000002749.60MXP000000000330801112013202               00000002013/09/19            W42   0000
0074068801095402452013-09-19000000ABONO TRASPASO MISMA PLAZA CW 00000000004994.00MXP000000000405300272011202               00000002013/09/19            W42   0000
0074068801095402452013-09-19000000ABONO TRASPASO MISMA PLAZA CW 00000000005150.00MXP000000000330600782010202               00000002013/09/19            W42   0000
0074068801095402452013-09-19000000ABONO TRASPASO MISMA PLAZA CW 00000000005550.00MXP000000000413001582012202               00000002013/09/19            W42   0000
0074068801095402452013-09-19000000ABONO TRASPASO MISMA PLAZA CW 00000000007005.52MXP000000000415000112011202               00000002013/09/19            W42   0000
0074068801095402452013-09-19000000ABONO TRASPASO MISMA PLAZA CW 00000000011548.00MXP000000000407100422011203 NO 2          00000002013/09/19            W42   0000
0074068801095402452013-09-19000000ABONO TRASPASO MISMA PLAZA CW 00000000018250.00MXP000000000330703102011202               00000002013/09/19            W42   0000
0074068801095402452013-09-19000000ABONO TRASPASO MISMA PLAZA CW 00000000021600.00MXP000000000407100422011202 NO 1          00000002013/09/19            W42   0000
0074068801095402452013-09-19000000CARGO TRASPASO MISMA PLAZA CW 10000000000668.00MXP000000000415000312010299               00000002013/09/19            W41   0000
0074068801095402452013-09-19000000CARGO TRASPASO MISMA PLAZA CW 10000000000666.00MXP000000000415000312010299               00000002013/09/19            W41   0000
0074068801095402452013-09-19000000CARGO TRASPASO MISMA PLAZA CW 10000000000666.00MXP000000000415000312010299               00000002013/09/19            W41   0000
0074068801095402452013-09-19000000SALDO ULTIMA TRANS            20000001073423.23MXP000000000                              00000002013/09/19                  0000
0074068801095402452013-09-18240471CE09026104052028220132035485  00000000009513.90MXP000000000JUAN CARLOS BARRAGAN SOULE    00000002013/09/18            Y15   0000
0074068801095402452013-09-18239499CE09026104052028220132025130  00000000023647.68MXP000000000JUAN CARLOS BARRAGAN SOULE    00000002013/09/18            Y15   0000
0074068801095402452013-09-18209401CE198769330602662013001ESC95  00000000000613.80MXP000000000732824                        00000002013/09/18            Y15   0000
0074068801095402452013-09-18178496CE198769330300342013002ESC95  00000000006138.00MXP000000000738874                        00000002013/09/18            Y15   0000
0074068801095402452013-09-18178227CE198769330300342013001ESC95  00000000006624.00MXP000000000732870                        00000002013/09/18            Y15   0000
0074068801095402452013-09-18177791CE198769330300342013003ESC95  00000000001500.00MXP000000000736871                        00000002013/09/18            Y15   0000
0074068801095402452013-09-18165915CE09026103501032620122025134  00000000000450.00MXP000000000JORGE ENRIQUE JUAREZ LUNA     00000002013/09/18            Y15   0000
0074068801095402452013-09-18144344CE198769330403592013001ESC95  00000000005000.00MXP000000000735882                        00000002013/09/18            Y15   0000
0074068801095402452013-09-18144039CE198769330403592013002ESC95  00000000006138.00MXP000000000738847                        00000002013/09/18            Y15   0000
0074068801095402452013-09-18116092CE09026103501020120132035136  00000000000235.25MXP000000000ERIQUE FLORES CORICHE         00000002013/09/18            Y15   0000
0074068801095402452013-09-18063906CE09026104150002020122025138  00000000003863.90MXP000000000SILVESTRE JUAREZ MORA         00000002013/09/18            Y01   0000
0074068801095402452013-09-18000000ABONO TRASPASO MISMA PLAZA CW 00000000000150.00MXP000000000330101952008201 ORD 13 SEP    00000002013/09/18            W42   0000
0074068801095402452013-09-18000000ABONO TRASPASO MISMA PLAZA CW 00000000000392.00MXP000000000330100602013201 ORD 13 SEP    00000002013/09/18            W42   0000
0074068801095402452013-09-18000000ABONO TRASPASO MISMA PLAZA CW 00000000000500.00MXP000000000330101572012201 ORD 13 SEP    00000002013/09/18            W42   0000
0074068801095402452013-09-18000000ABONO TRASPASO MISMA PLAZA CW 00000000000500.00MXP000000000330102092010201 ORD 13 SEP    00000002013/09/18            W42   0000
0074068801095402452013-09-18000000ABONO TRASPASO MISMA PLAZA CW 00000000000500.00MXP000000000330603242012201 ORD 13 SEP    00000002013/09/18            W42   0000
0074068801095402452013-09-18000000ABONO TRASPASO MISMA PLAZA CW 00000000001200.00MXP000000000330302472011201 ORD 13 SEP    00000002013/09/18            W42   0000
0074068801095402452013-09-18000000ABONO TRASPASO MISMA PLAZA CW 00000000001500.00MXP000000000413000572013201 ORD 13 SEP    00000002013/09/18            W42   0000
0074068801095402452013-09-18000000ABONO TRASPASO MISMA PLAZA CW 00000000001700.00MXP000000000330400592011201 ORD 13 SEP    00000002013/09/18            W42   0000
0074068801095402452013-09-18000000ABONO TRASPASO MISMA PLAZA CW 00000000001820.00MXP000000000414000922012201 ORD 13 SEP    00000002013/09/18            W42   0000
0074068801095402452013-09-18000000ABONO TRASPASO MISMA PLAZA CW 00000000002000.00MXP000000000330300472012201 ORD 13 SEP    00000002013/09/18            W42   0000
0074068801095402452013-09-18000000ABONO TRASPASO MISMA PLAZA CW 00000000002000.00MXP000000000330600132012201 ORD 13 SEP    00000002013/09/18            W42   0000
0074068801095402452013-09-18000000ABONO TRASPASO MISMA PLAZA CW 00000000002000.00MXP000000000330604362004201 ORD 13 SEP    00000002013/09/18            W42   0000
0074068801095402452013-09-18000000ABONO TRASPASO MISMA PLAZA CW 00000000002730.00MXP000000000414001302012201 ORD 13 SEP    00000002013/09/18            W42   0000
0074068801095402452013-09-18000000ABONO TRASPASO MISMA PLAZA CW 00000000003000.00MXP000000000330600802010201 ORD 13 SEP    00000002013/09/18            W42   0000
0074068801095402452013-09-18000000ABONO TRASPASO MISMA PLAZA CW 00000000003000.00MXP000000000330101572012201 ORD 13 SEP    00000002013/09/18            W42   0000
0074068801095402452013-09-18000000ABONO TRASPASO MISMA PLAZA CW 00000000003000.00MXP000000000330102092010201 ORD 13 SEP    00000002013/09/18            W42   0000
0074068801095402452013-09-18000000ABONO TRASPASO MISMA PLAZA CW 00000000003000.00MXP000000000330302432012201 ORD 13 SEP    00000002013/09/18            W42   0000
0074068801095402452013-09-18000000ABONO TRASPASO MISMA PLAZA CW 00000000003010.00MXP000000000405400472011201 ORD 13 SEP    00000002013/09/18            W42   0000
0074068801095402452013-09-18000000ABONO TRASPASO MISMA PLAZA CW 00000000003500.00MXP000000000330201302013201 ORD 13 SEP    00000002013/09/18            W42   0000
0074068801095402452013-09-18000000ABONO TRASPASO MISMA PLAZA CW 00000000004000.00MXP000000000330600132012201 ORD 13 SEP    00000002013/09/18            W42   0000
0074068801095402452013-09-18000000ABONO TRASPASO MISMA PLAZA CW 00000000004000.00MXP000000000330603092011201 ORD 13 SEP    00000002013/09/18            W42   0000
0074068801095402452013-09-18000000ABONO TRASPASO MISMA PLAZA CW 00000000005000.00MXP000000000330101952008201 ORD 13 SEP    00000002013/09/18            W42   0000
0074068801095402452013-09-18000000ABONO TRASPASO MISMA PLAZA CW 00000000005000.00MXP000000000330304192012201 ORD 13 SEP    00000002013/09/18            W42   0000
0074068801095402452013-09-18000000ABONO TRASPASO MISMA PLAZA CW 00000000005000.00MXP000000000330702212011201 ORD 13 SEP    00000002013/09/18            W42   0000
0074068801095402452013-09-18000000ABONO TRASPASO MISMA PLAZA CW 00000000005000.00MXP000000000413000572013201 ORD 13 SEP    00000002013/09/18            W42   0000
0074068801095402452013-09-18000000ABONO TRASPASO MISMA PLAZA CW 00000000006000.00MXP000000000412200482008201 ORD 13 SEP    00000002013/09/18            W42   0000
0074068801095402452013-09-18000000ABONO TRASPASO MISMA PLAZA CW 00000000006000.00MXP000000000330903402012201 ORD 13 SEP    00000002013/09/18            W42   0000
0074068801095402452013-09-18000000ABONO TRASPASO MISMA PLAZA CW 00000000006431.30MXP000000000414000892006201 ORD 13 SEP    00000002013/09/18            W42   0000
0074068801095402452013-09-18000000ABONO TRASPASO MISMA PLAZA CW 00000000007818.30MXP000000000405203612011201 ORD 13 SEP    00000002013/09/18            W42   0000
0074068801095402452013-09-18000000ABONO TRASPASO MISMA PLAZA CW 00000000008000.00MXP000000000406100802012201 ORD 13 SEP    00000002013/09/18            W42   0000
0074068801095402452013-09-18000000ABONO TRASPASO MISMA PLAZA CW 00000000008000.00MXP000000000406100802012201 ORD 13 SEP    00000002013/09/18            W42   0000
0074068801095402452013-09-18000000ABONO TRASPASO MISMA PLAZA CW 00000000008000.00MXP000000000413003112011201 ORD 13 SEP    00000002013/09/18            W42   0000
0074068801095402452013-09-18000000ABONO TRASPASO MISMA PLAZA CW 00000000008500.00MXP000000000330702172011201 ORD 13 SEP    00000002013/09/18            W42   0000
0074068801095402452013-09-18000000ABONO TRASPASO MISMA PLAZA CW 00000000008892.00MXP000000000330902392013201 ORD 13 SEP    00000002013/09/18            W42   0000
0074068801095402452013-09-18000000ABONO TRASPASO MISMA PLAZA CW 00000000010000.00MXP000000000330501492013201 ORD 13 SEP    00000002013/09/18            W42   0000
0074068801095402452013-09-18000000ABONO TRASPASO MISMA PLAZA CW 00000000010523.00MXP000000000405201812012201 ORD 13 SEP    00000002013/09/18            W42   0000
0074068801095402452013-09-18000000ABONO TRASPASO MISMA PLAZA CW 00000000012500.00MXP000000000330702172011201 ORD 13 SEP    00000002013/09/18            W42   0000
0074068801095402452013-09-18000000ABONO TRASPASO MISMA PLAZA CW 00000000013707.00MXP000000000405400882013201 ORD 13 SEP    00000002013/09/18            W42   0000
0074068801095402452013-09-18000000ABONO TRASPASO MISMA PLAZA CW 00000000015000.00MXP000000000405200062011201 ORD 13 SEP    00000002013/09/18            W42   0000
0074068801095402452013-09-18000000ABONO TRASPASO MISMA PLAZA CW 00000000017249.90MXP000000000330302232012201 ORD 13 SEP    00000002013/09/18            W42   0000
0074068801095402452013-09-18000000ABONO TRASPASO MISMA PLAZA CW 00000000023000.00MXP000000000405204132011201 ORD 13 SEP    00000002013/09/18            W42   0000
0074068801095402452013-09-18000000ABONO TRASPASO MISMA PLAZA CW 00000000025000.00MXP000000000418001432012201 ORD 13 SEP    00000002013/09/18            W42   0000
0074068801095402452013-09-18000000ABONO TRASPASO MISMA PLAZA CW 00000000028917.00MXP000000000405203792011201 ORD 13 SEP    00000002013/09/18            W42   0000
0074068801095402452013-09-18000000ABONO TRASPASO MISMA PLAZA CW 00000000034499.80MXP000000000330304442012201 ORD 13 SEP    00000002013/09/18            W42   0000
0074068801095402452013-09-18000000SALDO ULTIMA TRANS            20000000817889.96MXP000000000                              00000002013/09/18                  0000
0074068801095402452013-09-17348303CE198769330703332013004ESC95  00000000012276.00MXP000000000720887                        00000002013/09/17            Y15   0000
0074068801095402452013-09-17347508CE198769330703332013002ESC95  00000000012276.00MXP000000000720841                        00000002013/09/17            Y15   0000
0074068801095402452013-09-17346928CE198769330703332013001ESC95  00000000025000.00MXP000000000729838                        00000002013/09/17            Y15   0000
0074068801095402452013-09-17346159CE198769330703332013003ESC95  00000000025000.00MXP000000000729884                        00000002013/09/17            Y15   0000
0074068801095402452013-09-17293828CE198769330704022012001ESC95  00000000008500.00MXP000000000723892                        00000002013/09/17            Y15   0000
0074068801095402452013-09-17209210CE09026104122015620122023316  00000000001351.44MXP000000000JAVIER ESTEBAN MORALES        00000002013/09/17            Y15   0000
0074068801095402452013-09-17173417CE09026104053001420082035134  00000000012520.00MXP000000000ROMAN TORRES CARDOSO          00000002013/09/17            Y15   0000
0074068801095402452013-09-17159250CE09026104071003620102023313  00000000012775.00MXP000000000JOSE GARCIA SUAREZ            00000002013/09/17            Y15   0000
0074068801095402452013-09-17000000ABONO TRASPASO MISMA PLAZA CW 00000000005908.00MXP000000000330100602013201 J JULIAN PALAC00000002013/09/17            W42   0000
0074068801095402452013-09-17000000SALDO ULTIMA TRANS            20000000432625.13MXP000000000                              00000002013/09/17                  0000
0074068801095402452013-09-13452279CE09026104071003620102034351  00000000028052.05MXP000000000JOSE GARCIA SUAREZ            00000002013/09/13            Y15   0000
0074068801095402452013-09-13366977CE09026103502011320132020877  00000000000500.00MXP000000000ANALY LAZARO MERINO           00000002013/09/13            Y15   0000
0074068801095402452013-09-13365935CE09026103502011320132033318  00000000000590.80MXP000000000ANALY LAZARO MERINO           00000002013/09/13            Y15   0000
0074068801095402452013-09-13343205CE09026104122015620122025139  00000000001351.44MXP000000000JUAN ESTEBAN MORALES          00000002013/09/13            Y15   0000
0074068801095402452013-09-13340386CE09026104122015620122024355  00000000001351.44MXP000000000JOSE ESTEBAN MORALES          00000002013/09/13            Y15   0000
0074068801095402452013-09-13331996CE09026104071035620122020879  00000000010928.28MXP000000000EMMANUEL LOPEZ PALOMINO       00000002013/09/13            Y15   0000
0074068801095402452013-09-13331157CE09026104071035620122025480  00000000002550.00MXP000000000JAIME ROJAS DE LUNA           00000002013/09/13            Y15   0000
0074068801095402452013-09-13305013CE09026103501004620132025482  00000000002260.00MXP000000000ANGEL RAUL TELLEZ FONSECA     00000002013/09/13            Y15   0000
0074068801095402452013-09-13294425CE09026103502023320132025138  00000000014860.43MXP000000000DEMETRIO PEREZ MONTES         00000002013/09/13            Y15   0000
0074068801095402452013-09-13155428SPEI ENVIADO                  10000001111130.65MXP00000000000009091RA QNA SEP HON ASIM DP00000002013/09/13            T17   0000
0074068801095402452013-09-13153273SPEI ENVIADO                  10000000006693.50MXP00000000000009081RA QNA VIUDEZ DPRF379/00000002013/09/13            T17   0000
0074068801095402452013-09-13041497CARGO TRASPASO MISMA PLAZA CW 10000000002380.00MXP00007407333092192007202 ORD S/N REVERSO00038482013/09/13H TRIBUNAL SW41TNN0000
0074068801095402452013-09-13041496CARGO TRASPASO MISMA PLAZA CW 10000000002380.00MXP000074072330902192007202 ORD S/N REVERS00038482013/09/13H TRIBUNAL SW41TNN0000
0074068801095402452013-09-13041495CARGO TRASPASO MISMA PLAZA CW 10000000002380.00MXP000074071330902192007202 ORD S/N REVERS00038482013/09/13H TRIBUNAL SW41TNN0000
0074068801095402452013-09-13041494CARGO TRASPASO MISMA PLAZA CW 10000000017500.00MXP000074070330902192007202 ORD S/N REVERS00038482013/09/13H TRIBUNAL SW41TNN0000
0074068801095402452013-09-13041491ABONO TRASPASO MISMA PLAZA CW 00000000000544.70MXP000217751416001162010202 ORD S/N CONMUT00038482013/09/13H TRIBUNAL SW42TNN0000
0074068801095402452013-09-13041490ABONO TRASPASO MISMA PLAZA CW 00000000002233.27MXP000217750350200682013203 ORD S/N MULTA 00038482013/09/13H TRIBUNAL SW42TNN0000
0074068801095402452013-09-13041489ABONO TRASPASO MISMA PLAZA CW 00000000005980.00MXP000217749350200682013202 ORD S/N CONMUT00038482013/09/13H TRIBUNAL SW42TNN0000
0074068801095402452013-09-13041488ABONO TRASPASO MISMA PLAZA CW 00000000013112.62MXP000217748330704052003203 ORD 128 MULTA 00038482013/09/13H TRIBUNAL SW42TNN0000
0074068801095402452013-09-13041487ABONO TRASPASO MISMA PLAZA CW 00000000004500.00MXP000217747330100272012202 ORD 128 CONMUT00038482013/09/13H TRIBUNAL SW42TNN0000
0074068801095402452013-09-13041486ABONO TRASPASO MISMA PLAZA CW 00000000002290.50MXP000217746350201982012203 ORD 136 MULTA 00038482013/09/13H TRIBUNAL SW42TNN0000
0074068801095402452013-09-13041485ABONO TRASPASO MISMA PLAZA CW 00000000020060.40MXP000217745350201982012202 ORD 136 CONMUT00038482013/09/13H TRIBUNAL SW42TNN0000
0074068801095402452013-09-13041484ABONO TRASPASO MISMA PLAZA CW 00000000002364.00MXP000217744411000332012203 ORD 137 MULTA 00038482013/09/13H TRIBUNAL SW42TNN0000
0074068801095402452013-09-13041483ABONO TRASPASO MISMA PLAZA CW 00000000007725.00MXP000217743411000332012202 ORD 137 CONMUT00038482013/09/13H TRIBUNAL SW42TNN0000
0074068801095402452013-09-13041482ABONO TRASPASO MISMA PLAZA CW 00000000000354.50MXP000217742407100722012203 ORD 137 MULTA 00038482013/09/13H TRIBUNAL SW42TNN0000
0074068801095402452013-09-13041481ABONO TRASPASO MISMA PLAZA CW 00000000001440.00MXP000217741407100722012202 ORD 137 CONMUT00038482013/09/13H TRIBUNAL SW42TNN0000
0074068801095402452013-09-13000000VENTA FONDOS DE INVERSION     00000001120004.14MXP000000000OPERADO EN CANAL   SUCU       00000002013/09/13            F04   0000
0074068801095402452013-09-13000000SALDO ULTIMA TRANS            20000000317018.69MXP000000000                              00000002013/09/13                  0000
0074068801095402452013-09-12495535CE09026104061020420122025137  00000000008867.00MXP000000000DAVID ROMERO PATRICIO         00000002013/09/12            Y15   0000
0074068801095402452013-09-12091011CE09026103501027720122025139  00000000019400.00MXP000000000ARMANDO VAZQUEZ MENESES       00000002013/09/12            Y15   0000
0074068801095402452013-09-12066640CE09026103501031420122035139  00000000001143.87MXP000000000OSCAR MANUEL LOPEZ FLORES     00000002013/09/12            Y15   0000
0074068801095402452013-09-12041480ABONO TRASPASO MISMA PLAZA CW 00000000002654.25MXP000000047INTERESES GENERADOS DE INVERSI00038482013/09/12H TRIBUNAL SW42TNN0000
0074068801095402452013-09-12041479ABONO TRASPASO MISMA PLAZA CW 00000000004462.12MXP000028096INTERESES GENERADOS EN INVERSI00038482013/09/12H TRIBUNAL SW42TNN0000
0074068801095402452013-09-12041478ABONO TRASPASO MISMA PLAZA CW 00000000040562.86MXP000217715INTERESES GENERADOS EN INVERSI00038482013/09/12H TRIBUNAL SW42TNN0000
0074068801095402452013-09-12041477ABONO TRASPASO MISMA PLAZA CW 00000000011311.37MXP000104890INTERESES GENERADOS EN INVERSI00038482013/09/12H TRIBUNAL SW42TNN0000
0074068801095402452013-09-12000000VENTA FONDOS DE INVERSION     00000004334008.16MXP000000000OPERADO EN CANAL   SUCU       00000002013/09/12            F04   0000
0074068801095402452013-09-12000000VENTA FONDOS DE INVERSION     00000010002527.16MXP000000000OPERADO EN CANAL   SUCU       00000002013/09/12            F04   0000
0074068801095402452013-09-12000000COMPRA FONDOS INVERSION       10000002334780.22MXP000000000OPERADO EN CANAL:  SUCU       00000002013/09/12            F01   0000
0074068801095402452013-09-12000000COMPRA FONDOS INVERSION       10000012060729.43MXP000000000OPERADO EN CANAL:  SUCU       00000002013/09/12            F01   0000
0074068801095402452013-09-12000000SALDO ULTIMA TRANS            20000000216429.27MXP000000000                              00000002013/09/12                  0000
0074068801095402452013-09-11310836CE09026104180002420112025139  00000000008125.00MXP000000000LUCIANO ORTEGA RAMIREZ        00000002013/09/11            Y15   0000
0074068801095402452013-09-11310152CE09026104180002420112035484  00000000001135.00MXP000000000LUCIANO ORTEGA RAMIREZ        00000002013/09/11            Y15   0000
0074068801095402452013-09-11226841CE09026104052034820112035488  00000000000056.70MXP000000000SUSANA CARMONA RAMOS          00000002013/09/11            Y15   0000
0074068801095402452013-09-11226166CE09026104061000720102025138  00000000000836.15MXP000000000ERICK RIVEROS CARMONA         00000002013/09/11            Y15   0000
0074068801095402452013-09-11226164CE09026104052034820112025489  00000000002460.00MXP000000000SUSANA CARMONA RAMOS          00000002013/09/11            Y15   0000
0074068801095402452013-09-11224664CE09026104110012320122025480  00000000001832.00MXP000000000BENITO MACEDONIO ANDRADE SANCH00000002013/09/11            Y15   0000
0074068801095402452013-09-11057696SPEI RECIBIDO    0000002      00000002220095.15MXP000000000TRASPASO A BANCOMER INVERSION 00000002013/09/11            T20   0000
0074068801095402452013-09-11000000COMPRA FONDOS INVERSION       10000002220082.66MXP000000000OPERADO EN CANAL:  SUCU       00000002013/09/11            F01   0000
0074068801095402452013-09-11000000SALDO ULTIMA TRANS            20000000187002.13MXP000000000                              00000002013/09/11                  0000
0074068801095402452013-09-10480306CE09026103501031420122035485  00000000001143.87MXP000000000JOSE CRUZ RODARTE GONZALEZ    00000002013/09/10            Y15   0000
0074068801095402452013-09-10479829CE09026104180005520132020874  00000000024000.00MXP000000000JUAN VALDERRABANO CABRERA     00000002013/09/10            Y15   0000
0074068801095402452013-09-10420386CE09026104061017520112035486  00000000000340.00MXP000000000ALBINO SALAS GONZALEZ         00000002013/09/10            Y15   0000
0074068801095402452013-09-10420001CE09026104061017520112025131  00000000000860.00MXP000000000ALBINO SALAS GONZALEZ         00000002013/09/10            Y15   0000
0074068801095402452013-09-10403972CE09026104011031020112025139  00000000002200.00MXP000000000GUILLERMO GRANDE GRANDE       00000002013/09/10            Y15   0000
0074068801095402452013-09-10075761CE09026104110012320122025134  00000000008895.00MXP000000000BENITO MACEDONIO ANDRADE SANCH00000002013/09/10            Y15   0000
0074068801095402452013-09-10000000COMPRA FONDOS INVERSION       10000009999999.70MXP000000000OPERADO EN CANAL:  SUCU       00000002013/09/10            F01   0000
0074068801095402452013-09-10000000SALDO ULTIMA TRANS            20000000172544.79MXP000000000                              00000002013/09/10                  0000
0074068801095402452013-09-09318282CE09026104030006920052996861  00000000015417.50MXP000000000LUIS AGUILAR HUERTA           00000002013/09/09            Y15   0000
0074068801095402452013-09-09316678CE09026104030006920052025489  00000000026761.80MXP000000000LUIS AGUILAR HUERTA           00000002013/09/09            Y15   0000
0074068801095402452013-09-09272283CE09026104130040820122025137  00000000009091.48MXP000000000GUILLERMO BAUTISTA SANCHEZ    00000002013/09/09            Y15   0000
0074068801095402452013-09-09218600CE09026103501023320122025132  00000000002475.00MXP000000000JORGE PEREZ HERNANDEZ         00000002013/09/09            Y15   0000
0074068801095402452013-09-09210334CE09026104080012020132025133  00000000002804.00MXP000000000JUAN ALQUEZADA MERINO         00000002013/09/09            Y15   0000
0074068801095402452013-09-09203559CE09026103502029320132020877  00000000021704.76MXP000000000MARGARITA MATIAS CASTILLO     00000002013/09/09            Y15   0000
0074068801095402452013-09-09154777CE09026104123016520102025132  00000000003858.00MXP000000000JUAN RIVERA MORALES           00000002013/09/09            Y15   0000
0074068801095402452013-09-09000000DEPOSITO DE INVERSION         00000011603190.00MXP000000000                              00000002013/09/09            I01   0000
0074068801095402452013-09-09000000COMPRA FONDOS INVERSION       10000001599973.15MXP000000000OPERADO EN CANAL:  SUCU       00000002013/09/09            F01   0000
0074068801095402452013-09-09000000SALDO ULTIMA TRANS            20000010135105.62MXP000000000                              00000002013/09/09                  0000
0074068801095402452013-09-06481141CE09026103502015420122025773  00000000010733.80MXP000000000ARTURO ALVARADO RAMIREZ       00000002013/09/06            Y15   0000
0074068801095402452013-09-06414503CE09026104052027520112025138  00000000061334.95MXP000000000FERNANDO CARRERA LUQUE        00000002013/09/06            Y15   0000
0074068801095402452013-09-06414187CE09026104052027520112035483  00000000001020.78MXP000000000FERNANDO CARRERA LUQUE        00000002013/09/06            Y15   0000
0074068801095402452013-09-06378353CE09026103502037820132025131  00000000013899.20MXP000000000FRANCO TECUANHUEHUE MORENO    00000002013/09/06            Y15   0000
0074068801095402452013-09-06163472SPEI RECIBIDO    0000008      00000004760212.97MXP000000000TRASPASO A BANCOMER INVERSION 00000002013/09/06            T20   0000
0074068801095402452013-09-06153737SPEI RECIBIDO    0000006      00000000238534.10MXP000000000TRASPASO A BANCOMER INVERSION 00000002013/09/06            T20   0000
0074068801095402452013-09-06153617SPEI RECIBIDO    0000007      00000003540291.28MXP000000000TRASPASO A BANCOMER INVERSION 00000002013/09/06            T20   0000
0074068801095402452013-09-06152453SPEI RECIBIDO    0000005      00000002902952.04MXP000000000TRASPASO A BANCOMER INVERSION 00000002013/09/06            T20   0000
0074068801095402452013-09-06041462CARGO TRASPASO MISMA PLAZA CW 10000000005908.00MXP000074005330303142012 ORD 130 REVERSO  00038482013/09/06H TRIBUNAL SW41TNN0000
0074068801095402452013-09-06041461CARGO TRASPASO MISMA PLAZA CW 10000000025097.50MXP000074004418001052009 ORD 130 REVERSO  00038482013/09/06H TRIBUNAL SW41TNN0000
0074068801095402452013-09-06000000COMPRA FONDOS INVERSION       10000000029987.31MXP000000000OPERADO EN CANAL:  SUCU       00000002013/09/06            F01   0000
0074068801095402452013-09-06000000APERTURA DE INVERSION         10000011600000.00MXP000000000                              00000002013/09/06            I02   0000
0074068801095402452013-09-06000000SALDO ULTIMA TRANS            20000000049776.23MXP000000000                              00000002013/09/06                  0000
0074068801095402452013-09-04310232CE09026104130042220122034353  00000000007975.80MXP000000000JOSE FRANCISCO ROSAS ALFARO   00000002013/09/04            Y15   0000
0074068801095402452013-09-04309877CE09026104130042220122020873  00000000009010.40MXP000000000JOSE FRANCISCO ROSAS ALFARO   00000002013/09/04            Y15   0000
0074068801095402452013-09-04000000COMPRA FONDOS INVERSION       10000000049980.45MXP000000000OPERADO EN CANAL:  SUCU       00000002013/09/04            F01   0000
0074068801095402452013-09-04000000SALDO ULTIMA TRANS            20000000163025.48MXP000000000                              00000002013/09/04                  0000
0074068801095402452013-09-03029825CE09026104110004420122025488  00000000005600.00MXP000000000DANIEL SUAREZ MEZA            00000002013/09/03            Y15   0000
0074068801095402452013-09-03000000SALDO ULTIMA TRANS            20000000196019.73MXP000000000                              00000002013/09/03                  0000
0074068801095402452013-09-02325493CE09026104090016920122995135  00000000010565.90MXP000000000MARCELO LEON ORTEGA           00000002013/09/02            Y15   0000
0074068801095402452013-09-02315057CE09026104100001420122030870  00000000005908.00MXP000000000JOSE JUAN TAPIA LIMON         00000002013/09/02            Y15   0000
0074068801095402452013-09-02000000INTERESES MES ANTERIOR        00000000000002.36MXP000000000                              00000002013/09/02            C19   0000
0074068801095402452013-09-02000000SALDO ULTIMA TRANS            20000000190419.73MXP000000000                              00000002013/09/02                  0000
