0074068801095395302013-09-30479236CE09029804053030720110048396  00000000008000.00MXP000000000MARIA GUADALUPE LOPEZ RIVERA  00000002013/09/30            Y15   0000
0074068801095395302013-09-30330556CE09029804131147920120200870  00000000000500.00MXP000000000ROMAN FLORES GARCIA           00000002013/09/30            Y15   0000
0074068801095395302013-09-30302628CE09029804050101320090208399  00000000000600.00MXP000000000ANTONIO TETZOPA SARMIENTO     00000002013/09/30            Y15   0000
0074068801095395302013-09-30107787CE09029804200056620050047141  00000000006496.00MXP000000000RAMON SANCHEZ RANGEL          00000002013/09/30            Y15   0000
0074068801095395302013-09-30098124CC15173801112075420080997309  00000000001200.00MXP000000000INST MEXICANO DEL SEGURO SOCIA00000002013/09/27            Y02   0000
0074068801095395302013-09-30097710CC15173802204080220120995488  00000000001620.05MXP000000000INFRA S.A DE C.V              00000002013/09/27            Y02   0000
0074068801095395302013-09-30097133CC15173802204080220120994358  00000000001788.23MXP000000000INFRA S.A DE C.V              00000002013/09/27            Y02   0000
0074068801095395302013-09-30096573CC15173802204080220120996866  00000000001876.14MXP000000000INFRA S.A DE C.V              00000002013/09/27            Y02   0000
0074068801095395302013-09-30096037CC15173802204080220120995777  00000000002264.35MXP000000000INFRA S.A DE C.V              00000002013/09/27            Y02   0000
0074068801095395302013-09-30095463CC15173802204080220120993533  00000000008569.25MXP000000000INFRA S.A DE C.V              00000002013/09/27            Y02   0000
0074068801095395302013-09-30094982CC15173802204080220120998060  00000000001848.55MXP000000000INFRA S.A DE C.V              00000002013/09/27            Y02   0000
0074068801095395302013-09-30094412CC15173802204080220120997823  00000000001940.48MXP000000000INFRA S.A DE C.V              00000002013/09/27            Y02   0000
0074068801095395302013-09-30094016CE09029804050156320120208066  00000000002400.00MXP000000000JUAN CARLOS COHETERO HERRERA  00000002013/09/30            Y15   0000
0074068801095395302013-09-30093614CC15173802204080220120993673  00000000007831.75MXP000000000INFRA S.A DE C.V              00000002013/09/27            Y02   0000
0074068801095395302013-09-30093150CC15173802204080220120997302  00000000001848.55MXP000000000INFRA S.A DE C.,V             00000002013/09/27            Y02   0000
0074068801095395302013-09-30092481CC15173801109086220040990219  00000000000255.61MXP000000000INST MEXICANO DEL SEGURO SOCIA00000002013/09/27            Y02   0000
0074068801095395302013-09-30092034CC15173801109086220040992314  00000000000255.61MXP000000000INST MEXICANO DEL SEGURO SOCIA00000002013/09/27            Y02   0000
0074068801095395302013-09-30091352CC15173801103051820120995139  00000000235600.55MXP000000000CENTRO SCT OAXACA             00000002013/09/27            Y02   0000
0074068801095395302013-09-30090475CC15173801109168920080995488  00000000013376.20MXP000000000SECRETARIA DE FINANZAS Y ADMIN00000002013/09/27            Y02   0000
0074068801095395302013-09-30089642CC15173802204080220120990877  00000000002050.16MXP000000000INFRA S.A DE.CV               00000002013/09/27            Y02   0000
0074068801095395302013-09-30089145CC15173802204080220120993319  00000000001746.61MXP000000000INFRA S.A DE C.V              00000002013/09/27            Y02   0000
0074068801095395302013-09-30088641CC15173802204080220120990216  00000000003803.88MXP000000000INFRA S.A DE C.V              00000002013/09/27            Y02   0000
0074068801095395302013-09-30088163CC15173802204080220120992311  00000000008912.19MXP000000000INFRA S.A DE C.V              00000002013/09/27            Y02   0000
0074068801095395302013-09-30087653CC15173802204080220120990828  00000000001850.85MXP000000000INFRA S.A DE C.V              00000002013/09/27            Y02   0000
0074068801095395302013-09-30087136CC15173801105069420100998818  00000000001184.32MXP000000000ISSSTEP                       00000002013/09/27            Y02   0000
0074068801095395302013-09-30086604CC15173801107040720080993535  00000000001800.00MXP000000000INST MEXICANO DEL SEGURO SOCIA00000002013/09/27            Y02   0000
0074068801095395302013-09-30032024CARGO CHEQUE                  10000000000500.00MXP000000000C000032024ECTIVO              00000002013/09/30            C03   0000
0074068801095395302013-09-30032013CARGO CHEQUE                  10000000003069.00MXP000000000C000032013ECTIVO              00000002013/09/30            C03   0000
0074068801095395302013-09-30032011CARGO CHEQUE                  10000000003544.80MXP000000000C000032011ECTIVO              00000002013/09/28            C03   0000
0074068801095395302013-09-30032007CARGO CHEQUE                  10000000001700.00MXP000000000C000032007ECTIVO              00000002013/09/30            C03   0000
0074068801095395302013-09-30032001CARGO CHEQUE                  10000000130250.00MXP000000000C000032001ECTIVO              00000002013/09/30            C03   0000
0074068801095395302013-09-30031853CARGO CHEQUE                  10000000013500.00MXP000000000C000031853ECTIVO              00000002013/09/30            C03   0000
0074068801095395302013-09-30028242CE09029804051087120100205161  00000000005000.00MXP000000000MARCO ANTONIO LOZANO VELASCO  00000002013/09/30            Y15   0000
0074068801095395302013-09-30000001IVA COMISION CIE              10000000000328.64MXP00000000000001195069  SICOCO SEP 2013  00000002013/09/30            W06   0000
0074068801095395302013-09-30000001COMISION CIE                  10000000002054.00MXP00000000000001195069  SICOCO SEP 2013  00000002013/09/30            W05   0000
0074068801095395302013-09-30000000SALDO ULTIMA TRANS            20000012834713.27MXP000000000                              00000002013/09/30                  0000
0074068801095399992013-09-30631425SPEI RECIBIDO    0000001      00000000012000.70MXP000000000REVERSO POR DUPLICIDAD ORD 67 00000002013/09/30            T20   0000
0074068801095399992013-09-30479197CE09027004180014520131035484  00000000000613.80MXP000000000CONSTANTINO DE JESUS MUNDO    00000002013/09/30            Y15   0000
0074068801095399992013-09-30478439CE09027004180014520131053313  00000000003069.00MXP000000000CONSTANTINO DE JESUS MUNDO    00000002013/09/30            Y15   0000
0074068801095399992013-09-30477677CE09027004180014520131015486  00000000012000.00MXP000000000CONSTANTINO DE JESUS MUNDO    00000002013/09/30            Y15   0000
0074068801095399992013-09-30456339CE09027003501042220131055483  00000000008000.00MXP000000000EVODIO CHANTES FORMACIO       00000002013/09/30            Y15   0000
0074068801095399992013-09-30455834CE09027003501042220131055137  00000000005000.00MXP000000000EVODIO CHANTES FORMACIO       00000002013/09/30            Y15   0000
0074068801095399992013-09-30425405CE09027004011025720121035486  00000000002164.05MXP000000000EUGENIO PAUL LANGIL GARCIA    00000002013/09/30            Y15   0000
0074068801095399992013-09-30424585CE09027004011025720121015132  00000000015000.00MXP000000000EUGENIO PAUL LANGIL GARCIA    00000002013/09/30            Y15   0000
0074068801095399992013-09-30404007CE09027004130025020131033318  00000000004051.08MXP000000000NICOLAS JIMENEZ SANCHEZ       00000002013/09/30            Y15   0000
0074068801095399992013-09-30403353CE09027004130025020131015489  00000000008000.00MXP000000000NICOLAS JIMENEZ SANCHEZ       00000002013/09/30            Y15   0000
0074068801095399992013-09-30078288CE09027004110016020121010873  00000000015000.00MXP000000000ARTEMIO AURELIANO BAROJAS TORR00000002013/09/30            Y15   0000
0074068801095399992013-09-30077670CE09027004110016020121033313  00000000003000.00MXP000000000ARTEMIO AURELIANO BAROJAS TORR00000002013/09/30            Y15   0000
0074068801095399992013-09-30043625CARGO CHEQUE                  10000000011907.00MXP000000000C000043625ECTIVO              00000002013/09/30            C03   0000
0074068801095399992013-09-30043576CARGO CHEQUE                  10000000095000.00MXP000000000C000043576ECTIVO              00000002013/09/30            C03   0000
0074068801095399992013-09-30043572CARGO CHEQUE                  10000000027235.00MXP000000000C000043572ECTIVO              00000002013/09/30            C03   0000
0074068801095399992013-09-30043569CARGO CHEQUE                  10000000076386.88MXP000000000C000043569 DE DEPOSITO:AASL78000000002013/09/30            C03   0000
0074068801095399992013-09-30043543CARGO CHEQUE                  10000000008205.50MXP000000000C000043543ECTIVO              00000002013/09/30            C03   0000
0074068801095399992013-09-30043470CARGO CHEQUE                  10000000001386.60MXP000000000C000043470ECTIVO              00000002013/09/30            C03   0000
0074068801095399992013-09-30000000VENTA FONDOS DE INVERSION     00000000500025.80MXP000000000OPERADO EN CANAL   SUCU       00000002013/09/30            F04   0000
0074068801095399992013-09-30000000SALDO ULTIMA TRANS            20000030745760.57MXP000000000                              00000002013/09/30                  0000
0074068801095402452013-09-30485433CE09026103501043920132035132  00000000016010.68MXP000000000BARTOLO MU#OZ TIRZO           00000002013/09/30            Y15   0000
0074068801095402452013-09-30484813CE09026103501043920132025489  00000000010480.00MXP000000000BARTOLO MU#OZ TIRZO           00000002013/09/30            Y15   0000
0074068801095402452013-09-30455172CE09026103501042220132020874  00000000002613.60MXP000000000EVODIO CHANTES FORMACIO       00000002013/09/30            Y15   0000
0074068801095402452013-09-30416034CE09026104011002220132025136  00000000063785.79MXP000000000CARLOS ALAN GONZALEZ MATIAS   00000002013/09/30            Y15   0000
0074068801095402452013-09-30415495CE09026104011002220132035481  00000000005750.10MXP000000000CARLOS ALAN GONZALEZ MATIAS   00000002013/09/30            Y15   0000
0074068801095402452013-09-30408599CE09026104052006320132025134  00000000015603.75MXP000000000VICENTE TOXQUI FLORES         00000002013/09/30            Y15   0000
0074068801095402452013-09-30398729CE09026104052006320132025480  00000000018242.70MXP000000000ALEJANDRO FLORES TOXQUI       00000002013/09/30            Y15   0000
0074068801095402452013-09-30397178CE09026104052006320132020879  00000000015603.75MXP000000000MARCOS TOXQUI XOCHIMITL       00000002013/09/30            Y15   0000
0074068801095402452013-09-30148285SPEI ENVIADO                  10000001066025.88MXP0000000003009138HON ASIM 2DA QNA SEP   00000002013/09/30            T17   0000
0074068801095402452013-09-30147696SPEI ENVIADO                  10000000006693.50MXP0000000003009138PENSION VIUDAS         00000002013/09/30            T17   0000
0074068801095402452013-09-30144862SPEI ENVIADO                  10000000019500.00MXP0000000003009138MED  2DA QNA SEP       00000002013/09/30            T17   0000
0074068801095402452013-09-30133088CE09026104180002020082025133  00000000001601.60MXP000000000ELISEO RORIGUEZ TOLENTINO     00000002013/09/30            Y15   0000
0074068801095402452013-09-30000001IVA COMISION CIE              10000000000049.88MXP00000000000001151738  SICOCO SEP 2013  00000002013/09/30            W06   0000
0074068801095402452013-09-30000001IVA COMISION CIE              10000000000235.04MXP00000000000001197282  SICOCO SEP 2013  00000002013/09/30            W06   0000
0074068801095402452013-09-30000001COMISION CIE                  10000000000311.75MXP00000000000001151738  SICOCO SEP 2013  00000002013/09/30            W05   0000
0074068801095402452013-09-30000001IVA COMISION CIE              10000000000347.36MXP00000000000001198769  SICOCO SEP 2013  00000002013/09/30            W06   0000
0074068801095402452013-09-30000001IVA COMISION CIE              10000000000457.60MXP00000000000001195085  SICOCO SEP 2013  00000002013/09/30            W06   0000
0074068801095402452013-09-30000001COMISION CIE                  10000000001469.00MXP00000000000001197282  SICOCO SEP 2013  00000002013/09/30            W05   0000
0074068801095402452013-09-30000001COMISION CIE                  10000000002171.00MXP00000000000001198769  SICOCO SEP 2013  00000002013/09/30            W05   0000
0074068801095402452013-09-30000001COMISION CIE                  10000000002860.00MXP00000000000001195085  SICOCO SEP 2013  00000002013/09/30            W05   0000
0074068801095402452013-09-30000000VENTA FONDOS DE INVERSION     00000001261471.33MXP000000000OPERADO EN CANAL   SUCU       00000002013/09/30            F04   0000
0074068801095402452013-09-30000000000000709824   ERV.T.I.B.     10000000000032.32MXP000000000SICOCO SEP 2013               00000002013/09/30                  0000
0074068801095402452013-09-30000000IVA COMISION CIE              10000000000001.16MXP00000000000000090289  SICOCO SEP 2013  00000002013/09/30            W06   0000
0074068801095402452013-09-30000000COMISION CIE                  10000000000007.25MXP00000000000000090289  SICOCO SEP 2013  00000002013/09/30            W05   0000
0074068801095402452013-09-30000000IVA COMISION CIE              10000000000103.24MXP00000000000000090261  SICOCO SEP 2013  00000002013/09/30            W06   0000
0074068801095402452013-09-30000000IVA COMISION CIE              10000000000199.52MXP00000000000000090298  SICOCO SEP 2013  00000002013/09/30            W06   0000
0074068801095402452013-09-30000000COM. SERVICIOS T.I.B.         10000000000202.00MXP00000000000000709824  SICOCO SEP 2013  00000002013/09/30            W66   0000
0074068801095402452013-09-30000000IVA COMISION CIE              10000000000395.56MXP00000000000000090270  SICOCO SEP 2013  00000002013/09/30            W06   0000
0074068801095402452013-09-30000000COMISION CIE                  10000000000645.25MXP00000000000000090261  SICOCO SEP 2013  00000002013/09/30            W05   0000
0074068801095402452013-09-30000000COMISION CIE                  10000000001247.00MXP00000000000000090298  SICOCO SEP 2013  00000002013/09/30            W05   0000
0074068801095402452013-09-30000000IVA COM.TRANS.CW              10000000001281.82MXP00000000000000003848  SICOCO SEP 2013  00000002013/09/30            W10   0000
0074068801095402452013-09-30000000COMISION CIE                  10000000002472.25MXP00000000000000090270  SICOCO SEP 2013  00000002013/09/30            W05   0000
0074068801095402452013-09-30000000COM. TRANSACCIONES CW         10000000008011.61MXP00000000000000003848  SICOCO SEP 2013  00000002013/09/30            W09   0000
0074068801095402452013-09-30000000SALDO ULTIMA TRANS            20000002288495.98MXP000000000                              00000002013/09/30                  0000
0074068801484718432013-09-30000000VENTA FONDOS DE INVERSION     00000000100026.38MXP000000000OPERADO EN CANAL   SUCU       00000002013/09/30            F04   0000
0074068801484718432013-09-30000000SALDO ULTIMA TRANS            20000000917055.00MXP000000000                              00000002013/09/30                  0000
0074068801906790892013-09-30000000SALDO ULTIMA TRANS            20000000000000.00MXP000000000                              00000002013/01/16                  0000
0074068801907543312013-09-30000000SALDO ULTIMA TRANS            20000000001391.83MXP000000000                              00000002013/09/27                  0000
0074068801907600642013-09-30000061DEPOSITO EFECTIVO/CHEQUE      00000000000284.00MXP0000000000000614                       00000002013/09/30            C02   0000
0074068801907600642013-09-30000000SEP30 20:57 PRAC      5650 FOL00000000003320.00MXP000000000      0064     DEPOSITO EFECTI00000002013/09/30            TIC   0000
0074068801907600642013-09-30000000SALDO ULTIMA TRANS            20000001306166.76MXP000000000                              00000002013/09/30                  0000
0074068801919963982013-09-30000000SALDO ULTIMA TRANS            20000000000200.01MXP000000000                              00000002013/02/26                  0000
0074068801921090692013-09-30150459SPEI ENVIADO                  10000000169224.19MXP0000000003009138TRASP RET ISR SEPT DPRF00000002013/09/30            T17   0000
0074068801921090692013-09-30000029CARGO CHEQUE                  10000000015950.00MXP000000000C000000029 DE DEPOSITO:RFC NO 00000002013/09/30            C03   0000
0074068801921090692013-09-30000028CARGO CHEQUE                  10000000003399.00MXP000000000C000000028 DE DEPOSITO:RFC NO 00000002013/09/30            C03   0000
0074068801921090692013-09-30000027CARGO CHEQUE                  10000000007399.00MXP000000000C000000027 DE DEPOSITO:RFC NO 00000002013/09/30            C03   0000
0074068801921090692013-09-30000026CARGO CHEQUE                  10000000010643.00MXP000000000C000000026                    00000002013/09/30            C03   0000
0074068801921090692013-09-30000000VENTA FONDOS DE INVERSION     00000000200017.39MXP000000000OPERADO EN CANAL   SUCU       00000002013/09/30            F04   0000
0074068801921090692013-09-30000000SALDO ULTIMA TRANS            20000000199146.52MXP000000000                              00000002013/09/30                  0000
0074068801939877442013-09-30473861CE197282110405872010001ESC95  00000000059802.37MXP000000000868834                        00000002013/09/30            Y15   0000
0074068801939877442013-09-30471570CE197282220405462013001ESC95  00000000001200.00MXP000000000827856                        00000002013/09/30            Y15   0000
0074068801939877442013-09-30469851CE197282220406562011002ESC95  00000000002895.00MXP000000000864813                        00000002013/09/30            Y15   0000
0074068801939877442013-09-30464520CE197282110502052013001ESC95  00000000002000.00MXP000000000862890                        00000002013/09/30            Y15   0000
0074068801939877442013-09-30375151CE197282111002762013002ESC95  00000000003200.00MXP000000000869803                        00000002013/09/30            Y15   0000
0074068801939877442013-09-30349087CE197282220218222002001ESC95  00000000005050.00MXP000000000860866                        00000002013/09/30            Y15   0000
0074068801939877442013-09-30348481CE197282220115432012001ESC95  00000000001200.00MXP000000000867858                        00000002013/09/30            Y15   0000
0074068801939877442013-09-30332347CE197282220605192010002ESC95  00000000001700.00MXP000000000862841                        00000002013/09/30            Y15   0000
0074068801939877442013-09-30322144CE197282220506692009001ESC95  00000000004000.00MXP000000000864877                        00000002013/09/30            Y15   0000
0074068801939877442013-09-30129398CE197282220109932004002ESC95  00000000001350.00MXP000000000865814                        00000002013/09/30            Y15   0000
0074068801939877442013-09-30068175CE197282220505142013002ESC95  00000000000500.00MXP000000000865855                        00000002013/09/30            Y15   0000
0074068801939877442013-09-30059104CE197282220511602013002ESC95  00000000000500.00MXP000000000865835                        00000002013/09/30            Y15   0000
0074068801939877442013-09-30008318CE197282220413902007001ESC95  00000000000670.00MXP000000000867868                        00000002013/09/30            Y15   0000
0074068801939877442013-09-30000000SALDO ULTIMA TRANS            20000002570385.32MXP000000000                              00000002013/09/30                  0000
0074068801939888482013-09-30476364CE198769330903612013002ESC95  00000000004000.00MXP000000000864833                        00000002013/09/30            Y15   0000
0074068801939888482013-09-30475707CE198769330903612013001ESC95  00000000006000.00MXP000000000866836                        00000002013/09/30            Y15   0000
0074068801939888482013-09-30473177CE198769330203402013001ESC95  00000000014000.00MXP000000000861841                        00000002013/09/30            Y15   0000
0074068801939888482013-09-30471237CE198769330203402013002ESC95  00000000003682.80MXP000000000863890                        00000002013/09/30            Y15   0000
0074068801939888482013-09-30446463CE198769330303972013002ESC95  00000000021200.00MXP000000000861857                        00000002013/09/30            Y15   0000
0074068801939888482013-09-30445252CE198769330701272013001ESC95  00000000030000.00MXP000000000861818                        00000002013/09/30            Y15   0000
0074068801939888482013-09-30443902CE198769330701272013002ESC95  00000000003069.00MXP000000000864880                        00000002013/09/30            Y15   0000
0074068801939888482013-09-30438795CE198769330602722011001ESC95  00000000023915.00MXP000000000866877                        00000002013/09/30            Y15   0000
0074068801939888482013-09-30437999CE198769330602722011002ESC95  00000000027235.00MXP000000000863861                        00000002013/09/30            Y15   0000
0074068801939888482013-09-30437272CE198769330303972013001ESC95  00000000008800.00MXP000000000862847                        00000002013/09/30            Y15   0000
0074068801939888482013-09-30434419CE198769330301442012001ESC95  00000000001841.40MXP000000000866817                        00000002013/09/30            Y15   0000
0074068801939888482013-09-30431508CE198769330603472013004ESC95  00000000006138.00MXP000000000868845                        00000002013/09/30            Y15   0000
0074068801939888482013-09-30430544CE198769330603472013003ESC95  00000000010000.00MXP000000000867809                        00000002013/09/30            Y15   0000
0074068801939888482013-09-30395750CE198769330102272013001ESC95  00000000003650.00MXP000000000866836                        00000002013/09/30            Y15   0000
0074068801939888482013-09-30395025CE198769330102272013002ESC95  00000000003069.00MXP000000000864833                        00000002013/09/30            Y15   0000
0074068801939888482013-09-30394022CE198769330102272013003ESC95  00000000001000.00MXP000000000861817                        00000002013/09/30            Y15   0000
0074068801939888482013-09-30367859CE198769330800972013001ESC95  00000000007285.00MXP000000000864871                        00000002013/09/30            Y15   0000
0074068801939888482013-09-30367506CE198769330800972013002ESC95  00000000000407.00MXP000000000869862                        00000002013/09/30            Y15   0000
0074068801939888482013-09-30367082CE198769330800972013003ESC95  00000000020000.00MXP000000000864820                        00000002013/09/30            Y15   0000
0074068801939888482013-09-30151332CE198769330603892013002ESC95  00000000006138.00MXP000000000868893                        00000002013/09/30            Y15   0000
0074068801939888482013-09-30150647CE198769330603892013001ESC95  00000000017000.00MXP000000000864818                        00000002013/09/30            Y15   0000
0074068801939888482013-09-30150210CE198769330800542011002ESC95  00000000002010.00MXP000000000799850                        00000002013/09/30            Y15   0000
0074068801939888482013-09-30148002CE198769330602062013001ESC95  00000000000613.80MXP000000000862889                        00000002013/09/30            Y15   0000
0074068801939888482013-09-30092081CE198769330803722012002ESC95  00000000003368.00MXP000000000862809                        00000002013/09/30            Y15   0000
0074068801939888482013-09-30091187CE198769330803722012001ESC95  00000000003725.00MXP000000000863896                        00000002013/09/30            Y15   0000
0074068801939888482013-09-30079836CE198769330703562013002ESC95  00000000001227.00MXP000000000868814                        00000002013/09/30            Y15   0000
0074068801939888482013-09-30078631CE198769330703562013001ESC95  00000000012000.00MXP000000000869804                        00000002013/09/30            Y15   0000
0074068801939888482013-09-30000000SALDO ULTIMA TRANS            20000000801068.72MXP000000000                              00000002013/09/30                  0000
