0074068801939877442013-09-30473861CE197282110405872010001ESC95  00000000059802.37MXP000000000868834                        00000002013/09/30            Y15   0000
0074068801939877442013-09-30471570CE197282220405462013001ESC95  00000000001200.00MXP000000000827856                        00000002013/09/30            Y15   0000
0074068801939877442013-09-30469851CE197282220406562011002ESC95  00000000002895.00MXP000000000864813                        00000002013/09/30            Y15   0000
0074068801939877442013-09-30464520CE197282110502052013001ESC95  00000000002000.00MXP000000000862890                        00000002013/09/30            Y15   0000
0074068801939877442013-09-30375151CE197282111002762013002ESC95  00000000003200.00MXP000000000869803                        00000002013/09/30            Y15   0000
0074068801939877442013-09-30349087CE197282220218222002001ESC95  00000000005050.00MXP000000000860866                        00000002013/09/30            Y15   0000
0074068801939877442013-09-30348481CE197282220115432012001ESC95  00000000001200.00MXP000000000867858                        00000002013/09/30            Y15   0000
0074068801939877442013-09-30332347CE197282220605192010002ESC95  00000000001700.00MXP000000000862841                        00000002013/09/30            Y15   0000
0074068801939877442013-09-30322144CE197282220506692009001ESC95  00000000004000.00MXP000000000864877                        00000002013/09/30            Y15   0000
0074068801939877442013-09-30129398CE197282220109932004002ESC95  00000000001350.00MXP000000000865814                        00000002013/09/30            Y15   0000
0074068801939877442013-09-30068175CE197282220505142013002ESC95  00000000000500.00MXP000000000865855                        00000002013/09/30            Y15   0000
0074068801939877442013-09-30059104CE197282220511602013002ESC95  00000000000500.00MXP000000000865835                        00000002013/09/30            Y15   0000
0074068801939877442013-09-30008318CE197282220413902007001ESC95  00000000000670.00MXP000000000867868                        00000002013/09/30            Y15   0000
0074068801939877442013-09-30000000SALDO ULTIMA TRANS            20000002570385.32MXP000000000                              00000002013/09/30                  0000
0074068801939877442013-09-27492270CE197282111106642012001ESC95  00000000066805.86MXP000000000823855                        00000002013/09/27            Y05   0000
0074068801939877442013-09-27486732CE197282220104282013001ESC95  00000000002289.00MXP000000000833858                        00000002013/09/27            Y15   0000
0074068801939877442013-09-27486077CE197282110700442009001ESC95  00000000004723.00MXP000000000832864                        00000002013/09/27            Y15   0000
0074068801939877442013-09-27476514CE197282220602992010001ESC95  00000000001841.40MXP000000000836801                        00000002013/09/27            Y15   0000
0074068801939877442013-09-27435938CE197282220300582010002ESC95  00000000001181.60MXP000000000839808                        00000002013/09/27            Y15   0000
0074068801939877442013-09-27187242CE197282220613902011001ESC95  00000000000500.00MXP000000000835827                        00000002013/09/27            Y15   0000
0074068801939877442013-09-27064836CE197282220212332004001ESC95  00000000002095.50MXP000000000835830                        00000002013/09/27            Y15   0000
0074068801939877442013-09-27010430CE197282110711152012001ESC95  00000000012175.42MXP000000000792851                        00000002013/09/27            Y05   0000
0074068801939877442013-09-27007812CE197282111104522011002ESC95  00000000450000.00MXP000000000837849                        00000002013/09/27            Y15   0000
0074068801939877442013-09-27003038CE197282220100212013001ESC95  00000000001000.00MXP000000000831859                        00000002013/09/27            Y15   0000
0074068801939877442013-09-27000000SALDO ULTIMA TRANS            20000002486317.95MXP000000000                              00000002013/09/27                  0000
0074068801939877442013-09-26394142CE197282110609582010001ESC95  00000000024552.00MXP000000000820819                        00000002013/09/26            Y15   0000
0074068801939877442013-09-26381239CE197282220116602004002ESC95  00000000002814.00MXP000000000827842                        00000002013/09/26            Y15   0000
0074068801939877442013-09-26354798CE197282111104522011001ESC95  00000000435500.00MXP000000000803820                        00000002013/09/26            Y15   0000
0074068801939877442013-09-26348241CE197282110803052013001ESC95  00000000002708.33MXP000000000811844                        00000002013/09/26            Y15   0000
0074068801939877442013-09-26347043CE197282110702962013001ESC95  00000000002708.33MXP000000000821803                        00000002013/09/26            Y15   0000
0074068801939877442013-09-26318920CE197282220307982005002ESC95  00000000005524.00MXP000000000808817                        00000002013/09/26            Y15   0000
0074068801939877442013-09-26318355CE197282220307982005001ESC95  00000000005524.00MXP000000000808891                        00000002013/09/26            Y15   0000
0074068801939877442013-09-26309470CE197282110400332011001ESC95  00000000011600.00MXP000000000826816                        00000002013/09/26            Y15   0000
0074068801939877442013-09-26304647CE197282111119052011001ESC95  00000000000500.00MXP000000000825855                        00000002013/09/26            Y15   0000
0074068801939877442013-09-26257572CE197282110712592011001ESC95  00000000055349.81MXP000000000817824                        00000002013/09/26            Y05   0000
0074068801939877442013-09-26256346CE197282220201751999001ESC95  00000000000600.00MXP000000000828871                        00000002013/09/26            Y15   0000
0074068801939877442013-09-26231491CE197282110811772012001ESC95  00000000002200.00MXP000000000828871                        00000002013/09/26            Y15   0000
0074068801939877442013-09-26229842CE197282220513972010001ESC95  00000000000800.00MXP000000000794863                        00000002013/09/26            Y15   0000
0074068801939877442013-09-26225639CE197282111002762013001ESC95  00000000003200.00MXP000000000819889                        00000002013/09/26            Y15   0000
0074068801939877442013-09-26191785CE197282220308942003001ESC95  00000000001000.00MXP000000000811847                        00000002013/09/26            Y15   0000
0074068801939877442013-09-26000000SALDO ULTIMA TRANS            20000001943706.17MXP000000000                              00000002013/09/26                  0000
0074068801939877442013-09-25160137CE197282110109502013002ESC95  00000000003693.48MXP000000000805862                        00000002013/09/25            Y15   0000
0074068801939877442013-09-25158540CE197282110109502013001ESC95  00000000661202.34MXP000000000806852                        00000002013/09/25            Y01   0000
0074068801939877442013-09-25136180CE197282220107612012003ESC95  00000000000770.00MXP000000000810848                        00000002013/09/25            Y15   0000
0074068801939877442013-09-25135472CE197282220107612012002ESC95  00000000002530.00MXP000000000818832                        00000002013/09/25            Y15   0000
0074068801939877442013-09-25134895CE197282220604842012001ESC95  00000000001000.00MXP000000000811886                        00000002013/09/25            Y15   0000
0074068801939877442013-09-25079842CE197282220509932013002ESC95  00000000001400.00MXP000000000753895                        00000002013/09/25            Y15   0000
0074068801939877442013-09-25060422CE197282220201902001001ESC95  00000000002526.00MXP000000000817889                        00000002013/09/25            Y15   0000
0074068801939877442013-09-25048658CE197282220212772000001ESC95  00000000001000.00MXP000000000811893                        00000002013/09/25            Y15   0000
0074068801939877442013-09-25045482CE197282220208022012001ESC95  00000000001680.00MXP000000000815808                        00000002013/09/25            Y15   0000
0074068801939877442013-09-25044921CE197282220117132008001ESC95  00000000002259.00MXP000000000812875                        00000002013/09/25            Y15   0000
0074068801939877442013-09-25044778CE197282110702592012001ESC95  00000000002000.00MXP000000000792870                        00000002013/09/25            Y15   0000
0074068801939877442013-09-25037564CE197282110800832011001ESC95  00000000003100.00MXP000000000816831                        00000002013/09/25            Y15   0000
0074068801939877442013-09-25034081CE197282220403821999001ESC95  00000000004910.40MXP000000000800868                        00000002013/09/25            Y15   0000
0074068801939877442013-09-25022638CE197282220107972013001ESC95  00000000000600.00MXP000000000818858                        00000002013/09/25            Y15   0000
0074068801939877442013-09-25000000SALDO ULTIMA TRANS            20000001389125.70MXP000000000                              00000002013/09/25                  0000
0074068801939877442013-09-24419389CE197282220511982009001ESC95  00000000002000.00MXP000000000802812                        00000002013/09/24            Y15   0000
0074068801939877442013-09-24363076CE197282220308542013002ESC95  00000000001500.00MXP000000000806869                        00000002013/09/24            Y15   0000
0074068801939877442013-09-24347067CE197282220412222013001ESC95  00000000001000.00MXP000000000801818                        00000002013/09/24            Y15   0000
0074068801939877442013-09-24333362CE197282220305972013001ESC95  00000000001500.00MXP000000000806896                        00000002013/09/24            Y15   0000
0074068801939877442013-09-24294875CE197282110412432010001ESC95  00000000003000.00MXP000000000803804                        00000002013/09/24            Y15   0000
0074068801939877442013-09-24278112CE197282220401632006002ESC95  00000000001500.00MXP000000000746832                        00000002013/09/24            Y15   0000
0074068801939877442013-09-24277406CE197282220401632006001ESC95  00000000001500.00MXP000000000746809                        00000002013/09/24            Y15   0000
0074068801939877442013-09-24266749CE197282220212842004002ESC95  00000000004506.29MXP000000000804887                        00000002013/09/24            Y15   0000
0074068801939877442013-09-24256286CE197282220204802010001ESC95  00000000001000.00MXP000000000801836                        00000002013/09/24            Y15   0000
0074068801939877442013-09-24253968CE197282220212172013001ESC95  00000000000800.00MXP000000000804883                        00000002013/09/24            Y15   0000
0074068801939877442013-09-24247720CE197282220105802010001ESC95  00000000003000.00MXP000000000793810                        00000002013/09/24            Y15   0000
0074068801939877442013-09-24247209CE197282220507062000001ESC95  00000000003000.00MXP000000000793815                        00000002013/09/24            Y15   0000
0074068801939877442013-09-24237608CE197282220302282013001ESC95  00000000000850.00MXP000000000809869                        00000002013/09/24            Y15   0000
0074068801939877442013-09-24237006CE197282220414492007001ESC95  00000000002500.00MXP000000000757883                        00000002013/09/24            Y15   0000
0074068801939877442013-09-24221901CE197282220210742002002ESC95  00000000000672.00MXP000000000809863                        00000002013/09/24            Y15   0000
0074068801939877442013-09-24221523CE197282220210742002001ESC95  00000000000672.00MXP000000000809840                        00000002013/09/24            Y15   0000
0074068801939877442013-09-24000000SALDO ULTIMA TRANS            20000000700454.48MXP000000000                              00000002013/09/24                  0000
0074068801939877442013-09-23471641CE197282220216982007001ESC95  00000000001800.00MXP000000000795819                        00000002013/09/23            Y15   0000
0074068801939877442013-09-23447313CE197282220101332010002ESC95  00000000001356.00MXP000000000791879                        00000002013/09/23            Y15   0000
0074068801939877442013-09-23442517CE197282220607812013001ESC95  00000000002213.00MXP000000000758867                        00000002013/09/23            Y15   0000
0074068801939877442013-09-23405795CE197282220102562007001ESC95  00000000004297.00MXP000000000750870                        00000002013/09/23            Y15   0000
0074068801939877442013-09-23171805CE197282220501032003001ESC95  00000000003405.00MXP000000000730863                        00000002013/09/23            Y15   0000
0074068801939877442013-09-23171435CE197282220501032003002ESC95  00000000003405.00MXP000000000730886                        00000002013/09/23            Y15   0000
0074068801939877442013-09-23131885CE197282110111592012001ESC95  00000000050000.00MXP000000000795847                        00000002013/09/23            Y15   0000
0074068801939877442013-09-23107662CE197282220316422006002ESC95  00000000002000.00MXP000000000792828                        00000002013/09/23            Y15   0000
0074068801939877442013-09-23027319CE197282220114892012002ESC95  00000000000541.41MXP000000000793891                        00000002013/09/23            Y15   0000
0074068801939877442013-09-23013129CE197282220301942008001ESC95  00000000125654.00MXP000000000799826                        00000002013/09/23            Y05   0000
0074068801939877442013-09-23006643CE197282220507162000001ESC95  00000000003840.00MXP000000000745870                        00000002013/09/23            Y15   0000
0074068801939877442013-09-23000000SALDO ULTIMA TRANS            20000000671454.19MXP000000000                              00000002013/09/23                  0000
0074068801939877442013-09-20224628CE197282220606812013001ESC95  00000000002000.00MXP000000000742850                        00000002013/09/20            Y15   0000
0074068801939877442013-09-20213521CE197282220601312013001ESC95  00000000003000.00MXP000000000753894                        00000002013/09/20            Y15   0000
0074068801939877442013-09-20213094CE197282220311972013001ESC95  00000000000750.00MXP000000000756812                        00000002013/09/20            Y15   0000
0074068801939877442013-09-20158782CE197282220309122008002ESC95  00000000009134.64MXP000000000753887                        00000002013/09/20            Y15   0000
0074068801939877442013-09-20152521CE197282220319662004001ESC95  00000000000400.00MXP000000000732812                        00000002013/09/20            Y15   0000
0074068801939877442013-09-20141771CE197282220105412013001ESC95  00000000002000.00MXP000000000752822                        00000002013/09/20            Y15   0000
0074068801939877442013-09-20135006CE197282220312792005001ESC95  00000000006000.00MXP000000000756838                        00000002013/09/20            Y15   0000
0074068801939877442013-09-20134218CE197282220112462007002ESC95  00000000000500.00MXP000000000755867                        00000002013/09/20            Y15   0000
0074068801939877442013-09-20133781CE197282220112462007001ESC95  00000000000500.00MXP000000000755844                        00000002013/09/20            Y15   0000
0074068801939877442013-09-20118405CE197282220109682010001ESC95  00000000008000.00MXP000000000758856                        00000002013/09/20            Y15   0000
0074068801939877442013-09-20100133CE197282220315912009001ESC95  00000000003900.00MXP000000000740895                        00000002013/09/20            Y15   0000
0074068801939877442013-09-20093979CE197282220100462012002ESC95  00000000008500.00MXP000000000753811                        00000002013/09/20            Y15   0000
0074068801939877442013-09-20086067CE197282110206252007001ESC95  00000000001658.06MXP000000000744892                        00000002013/09/20            Y15   0000
0074068801939877442013-09-20085018CE197282111006222007001ESC95  00000000007376.28MXP000000000733814                        00000002013/09/20            Y15   0000
0074068801939877442013-09-20000000SALDO ULTIMA TRANS            20000000472942.78MXP000000000                              00000002013/09/20                  0000
0074068801939877442013-09-19474547CE197282220211922013001ESC95  00000000002000.00MXP000000000732844                        00000002013/09/19            Y15   0000
0074068801939877442013-09-19440622CE197282220116602004001ESC95  00000000002814.00MXP000000000747834                        00000002013/09/19            Y15   0000
0074068801939877442013-09-19374399CE197282220500062013001ESC95  00000000002000.00MXP000000000742848                        00000002013/09/19            Y15   0000
0074068801939877442013-09-19364048CE197282220300262003001ESC95  00000000001200.00MXP000000000747809                        00000002013/09/19            Y15   0000
0074068801939877442013-09-19362009CE197282110402892012001ESC95  00000000060000.00MXP000000000742803                        00000002013/09/19            Y15   0000
0074068801939877442013-09-19354300CE197282220509272013002ESC95  00000000000500.00MXP000000000735820                        00000002013/09/19            Y15   0000
0074068801939877442013-09-19344006CE197282220503732011002ESC95  00000000017025.00MXP000000000743890                        00000002013/09/19            Y15   0000
0074068801939877442013-09-19339956CE197282220409412006001ESC95  00000000000797.40MXP000000000733845                        00000002013/09/19            Y15   0000
0074068801939877442013-09-19307436CE197282220301602009001ESC95  00000000005000.00MXP000000000745894                        00000002013/09/19            Y15   0000
0074068801939877442013-09-19000000SALDO ULTIMA TRANS            20000000419223.80MXP000000000                              00000002013/09/19                  0000
0074068801939877442013-09-18193880CE197282220412022013001ESC95  00000000000600.00MXP000000000738810                        00000002013/09/18            Y15   0000
0074068801939877442013-09-18160647CE197282110904392011001ESC95  00000000000600.00MXP000000000738855                        00000002013/09/18            Y15   0000
0074068801939877442013-09-18135348CE197282110500922013001ESC95  00000000004000.00MXP000000000734825                        00000002013/09/18            Y15   0000
0074068801939877442013-09-18133715CE197282220204372012001ESC95  00000000001682.40MXP000000000739818                        00000002013/09/18            Y15   0000
0074068801939877442013-09-18127226CE197282220203862012001ESC95  00000000016000.00MXP000000000723873                        00000002013/09/18            Y15   0000
0074068801939877442013-09-18094719CE197282220105072009001ESC95  00000000004000.00MXP000000000734810                        00000002013/09/18            Y15   0000
0074068801939877442013-09-18093024CE197282220606872013001ESC95  00000000002000.00MXP000000000732814                        00000002013/09/18            Y15   0000
0074068801939877442013-09-18090908CE197282110212952009001ESC95  00000000294505.00MXP000000000723848                        00000002013/09/18            Y05   0000
0074068801939877442013-09-18070464CE197282220104812013001ESC95  00000000002000.00MXP000000000732837                        00000002013/09/18            Y15   0000
0074068801939877442013-09-18042915CE197282220311902013001ESC95  00000000001500.00MXP000000000736881                        00000002013/09/18            Y15   0000
0074068801939877442013-09-18036795CE197282220503552013001ESC95  00000000001000.00MXP000000000731850                        00000002013/09/18            Y15   0000
0074068801939877442013-09-18000000SALDO ULTIMA TRANS            20000000327887.40MXP000000000                              00000002013/09/18                  0000
0074068801939877442013-09-17000000SALDO ULTIMA TRANS            20000000000000.00MXP000000000                              00000002013/09/05                  0000
0074068801939877442013-09-13000000SALDO ULTIMA TRANS            20000000000000.00MXP000000000                              00000002013/09/05                  0000
0074068801939877442013-09-12000000SALDO ULTIMA TRANS            20000000000000.00MXP000000000                              00000002013/09/05                  0000
0074068801939877442013-09-11000000SALDO ULTIMA TRANS            20000000000000.00MXP000000000                              00000002013/09/05                  0000
0074068801939877442013-09-10000000SALDO ULTIMA TRANS            20000000000000.00MXP000000000                              00000002013/09/05                  0000
0074068801939877442013-09-09000000SALDO ULTIMA TRANS            20000000000000.00MXP000000000                              00000002013/09/05                  0000
