0074068801939888482013-09-30476364CE198769330903612013002ESC95  00000000004000.00MXP000000000864833                        00000002013/09/30            Y15   0000
0074068801939888482013-09-30475707CE198769330903612013001ESC95  00000000006000.00MXP000000000866836                        00000002013/09/30            Y15   0000
0074068801939888482013-09-30473177CE198769330203402013001ESC95  00000000014000.00MXP000000000861841                        00000002013/09/30            Y15   0000
0074068801939888482013-09-30471237CE198769330203402013002ESC95  00000000003682.80MXP000000000863890                        00000002013/09/30            Y15   0000
0074068801939888482013-09-30446463CE198769330303972013002ESC95  00000000021200.00MXP000000000861857                        00000002013/09/30            Y15   0000
0074068801939888482013-09-30445252CE198769330701272013001ESC95  00000000030000.00MXP000000000861818                        00000002013/09/30            Y15   0000
0074068801939888482013-09-30443902CE198769330701272013002ESC95  00000000003069.00MXP000000000864880                        00000002013/09/30            Y15   0000
0074068801939888482013-09-30438795CE198769330602722011001ESC95  00000000023915.00MXP000000000866877                        00000002013/09/30            Y15   0000
0074068801939888482013-09-30437999CE198769330602722011002ESC95  00000000027235.00MXP000000000863861                        00000002013/09/30            Y15   0000
0074068801939888482013-09-30437272CE198769330303972013001ESC95  00000000008800.00MXP000000000862847                        00000002013/09/30            Y15   0000
0074068801939888482013-09-30434419CE198769330301442012001ESC95  00000000001841.40MXP000000000866817                        00000002013/09/30            Y15   0000
0074068801939888482013-09-30431508CE198769330603472013004ESC95  00000000006138.00MXP000000000868845                        00000002013/09/30            Y15   0000
0074068801939888482013-09-30430544CE198769330603472013003ESC95  00000000010000.00MXP000000000867809                        00000002013/09/30            Y15   0000
0074068801939888482013-09-30395750CE198769330102272013001ESC95  00000000003650.00MXP000000000866836                        00000002013/09/30            Y15   0000
0074068801939888482013-09-30395025CE198769330102272013002ESC95  00000000003069.00MXP000000000864833                        00000002013/09/30            Y15   0000
0074068801939888482013-09-30394022CE198769330102272013003ESC95  00000000001000.00MXP000000000861817                        00000002013/09/30            Y15   0000
0074068801939888482013-09-30367859CE198769330800972013001ESC95  00000000007285.00MXP000000000864871                        00000002013/09/30            Y15   0000
0074068801939888482013-09-30367506CE198769330800972013002ESC95  00000000000407.00MXP000000000869862                        00000002013/09/30            Y15   0000
0074068801939888482013-09-30367082CE198769330800972013003ESC95  00000000020000.00MXP000000000864820                        00000002013/09/30            Y15   0000
0074068801939888482013-09-30151332CE198769330603892013002ESC95  00000000006138.00MXP000000000868893                        00000002013/09/30            Y15   0000
0074068801939888482013-09-30150647CE198769330603892013001ESC95  00000000017000.00MXP000000000864818                        00000002013/09/30            Y15   0000
0074068801939888482013-09-30150210CE198769330800542011002ESC95  00000000002010.00MXP000000000799850                        00000002013/09/30            Y15   0000
0074068801939888482013-09-30148002CE198769330602062013001ESC95  00000000000613.80MXP000000000862889                        00000002013/09/30            Y15   0000
0074068801939888482013-09-30092081CE198769330803722012002ESC95  00000000003368.00MXP000000000862809                        00000002013/09/30            Y15   0000
0074068801939888482013-09-30091187CE198769330803722012001ESC95  00000000003725.00MXP000000000863896                        00000002013/09/30            Y15   0000
0074068801939888482013-09-30079836CE198769330703562013002ESC95  00000000001227.00MXP000000000868814                        00000002013/09/30            Y15   0000
0074068801939888482013-09-30078631CE198769330703562013001ESC95  00000000012000.00MXP000000000869804                        00000002013/09/30            Y15   0000
0074068801939888482013-09-30000000SALDO ULTIMA TRANS            20000000801068.72MXP000000000                              00000002013/09/30                  0000
0074068801939888482013-09-27497110CE198769330701852013003ESC95  00000000007900.00MXP000000000834831                        00000002013/09/27            Y15   0000
0074068801939888482013-09-27496478CE198769330701852013002ESC95  00000000007365.60MXP000000000831866                        00000002013/09/27            Y15   0000
0074068801939888482013-09-27495892CE198769330701852013001ESC95  00000000020000.00MXP000000000834882                        00000002013/09/27            Y15   0000
0074068801939888482013-09-27205931CE198769330103952013002ESC95  00000000080000.00MXP000000000836823                        00000002013/09/27            Y15   0000
0074068801939888482013-09-27205551CE198769330103952013003ESC95  00000000060000.00MXP000000000832891                        00000002013/09/27            Y15   0000
0074068801939888482013-09-27205130CE198769330103952013001ESC95  00000000060000.00MXP000000000832845                        00000002013/09/27            Y15   0000
0074068801939888482013-09-27174089CE198769330303962013002ESC95  00000000000600.00MXP000000000838884                        00000002013/09/27            Y15   0000
0074068801939888482013-09-27173508CE198769330303962013001ESC95  00000000021200.00MXP000000000831867                        00000002013/09/27            Y15   0000
0074068801939888482013-09-27165018CE198769330704522009003ESC95  00000000004989.80MXP000000000830829                        00000002013/09/27            Y15   0000
0074068801939888482013-09-27164447CE198769330704522009004ESC95  00000000000103.90MXP000000000833891                        00000002013/09/27            Y15   0000
0074068801939888482013-09-27162081CE198769330704522009001ESC95  00000000004989.80MXP000000000830880                        00000002013/09/27            Y15   0000
0074068801939888482013-09-27161461CE198769330704522009002ESC95  00000000000103.90MXP000000000833845                        00000002013/09/27            Y15   0000
0074068801939888482013-09-27011922CE198769330403542013002ESC95  00000000006132.00MXP000000000832820                        00000002013/09/27            Y15   0000
0074068801939888482013-09-27011028CE198769330403542013001ESC95  00000000005000.00MXP000000000835836                        00000002013/09/27            Y15   0000
0074068801939888482013-09-27000000SALDO ULTIMA TRANS            20000000559694.72MXP000000000                              00000002013/09/27                  0000
0074068801939888482013-09-26321502CE198769330203872013003ESC95  00000000002148.30MXP000000000820868                        00000002013/09/26            Y15   0000
0074068801939888482013-09-26320816CE198769330203872013002ESC95  00000000002148.30MXP000000000820845                        00000002013/09/26            Y15   0000
0074068801939888482013-09-26320241CE198769330203872013001ESC95  00000000003500.00MXP000000000828829                        00000002013/09/26            Y15   0000
0074068801939888482013-09-26315376CE198769330400162011001ESC95  00000000004550.00MXP000000000824867                        00000002013/09/26            Y15   0000
0074068801939888482013-09-26313122CE198769330903032011001ESC95  00000000001134.00MXP000000000829891                        00000002013/09/26            Y15   0000
0074068801939888482013-09-26304440CE198769330703892013002ESC95  00000000006138.00MXP000000000828836                        00000002013/09/26            Y15   0000
0074068801939888482013-09-26303227CE198769330703892013001ESC95  00000000010000.00MXP000000000827897                        00000002013/09/26            Y15   0000
0074068801939888482013-09-26296963CE198769330503652012001ESC95  00000000002028.82MXP000000000822804                        00000002013/09/26            Y15   0000
0074068801939888482013-09-26224869CE198769330702232012002ESC95  00000000006138.00MXP000000000828814                        00000002013/09/26            Y15   0000
0074068801939888482013-09-26224446CE198769330702232012001ESC95  00000000022550.00MXP000000000826862                        00000002013/09/26            Y15   0000
0074068801939888482013-09-26223850CE198769330702232012003ESC95  00000000030000.00MXP000000000821843                        00000002013/09/26            Y15   0000
0074068801939888482013-09-26000000SALDO ULTIMA TRANS            20000000281309.72MXP000000000                              00000002013/09/26                  0000
0074068801939888482013-09-25142340CE198769330803592013002ESC95  00000000010230.00MXP000000000814824                        00000002013/09/25            Y15   0000
0074068801939888482013-09-25141843CE198769330803592013001ESC95  00000000021855.00MXP000000000819866                        00000002013/09/25            Y15   0000
0074068801939888482013-09-25113547CE198769330103262013001ESC95  00000000010900.00MXP000000000814828                        00000002013/09/25            Y15   0000
0074068801939888482013-09-25113004CE198769330103262013002ESC95  00000000018414.00MXP000000000818806                        00000002013/09/25            Y15   0000
0074068801939888482013-09-25111441CE198769330803022013002ESC95  00000000001920.00MXP000000000812816                        00000002013/09/25            Y15   0000
0074068801939888482013-09-25110880CE198769330803022013003ESC95  00000000012000.00MXP000000000819833                        00000002013/09/25            Y15   0000
0074068801939888482013-09-25110417CE198769330803022013004ESC95  00000000018000.00MXP000000000815804                        00000002013/09/25            Y15   0000
0074068801939888482013-09-25109825CE198769330803022013001ESC95  00000000030000.00MXP000000000811877                        00000002013/09/25            Y15   0000
0074068801939888482013-09-25108802CE198769330903882012001ESC95  00000000012000.00MXP000000000819801                        00000002013/09/25            Y15   0000
0074068801939888482013-09-25088850CE198769330203862013002ESC95  00000000000920.70MXP000000000812841                        00000002013/09/25            Y15   0000
0074068801939888482013-09-25088286CE198769330203862013001ESC95  00000000004000.00MXP000000000814844                        00000002013/09/25            Y15   0000
0074068801939888482013-09-25081284CE198769330701452013001ESC95  00000000010000.00MXP000000000817819                        00000002013/09/25            Y15   0000
0074068801939888482013-09-25080446CE198769330701452013002ESC95  00000000005000.00MXP000000000815816                        00000002013/09/25            Y15   0000
0074068801939888482013-09-25065607CE198769330603302013001ESC95  00000000008000.00MXP000000000818874                        00000002013/09/25            Y15   0000
0074068801939888482013-09-25064824CE198769330603302013002ESC95  00000000006138.00MXP000000000818897                        00000002013/09/25            Y15   0000
0074068801939888482013-09-25050429CE198769330403162013007ESC95  00000000002148.30MXP000000000810833                        00000002013/09/25            Y15   0000
0074068801939888482013-09-25050005CE198769330403162013006ESC95  00000000006000.00MXP000000000816888                        00000002013/09/25            Y15   0000
0074068801939888482013-09-25049583CE198769330403162013005ESC95  00000000005300.00MXP000000000814839                        00000002013/09/25            Y15   0000
0074068801939888482013-09-25049191CE198769330403162013004ESC95  00000000002148.30MXP000000000810861                        00000002013/09/25            Y15   0000
0074068801939888482013-09-25048732CE198769330403162013003ESC95  00000000006000.00MXP000000000816819                        00000002013/09/25            Y15   0000
0074068801939888482013-09-25000000SALDO ULTIMA TRANS            20000000190974.30MXP000000000                              00000002013/09/25                  0000
0074068801939888482013-09-24000000SALDO ULTIMA TRANS            20000000000000.00MXP000000000                              00000002013/09/05                  0000
0074068801939888482013-09-23000000SALDO ULTIMA TRANS            20000000000000.00MXP000000000                              00000002013/09/05                  0000
0074068801939888482013-09-20000000SALDO ULTIMA TRANS            20000000000000.00MXP000000000                              00000002013/09/05                  0000
0074068801939888482013-09-19000000SALDO ULTIMA TRANS            20000000000000.00MXP000000000                              00000002013/09/05                  0000
0074068801939888482013-09-18000000SALDO ULTIMA TRANS            20000000000000.00MXP000000000                              00000002013/09/05                  0000
0074068801939888482013-09-17000000SALDO ULTIMA TRANS            20000000000000.00MXP000000000                              00000002013/09/05                  0000
0074068801939888482013-09-13000000SALDO ULTIMA TRANS            20000000000000.00MXP000000000                              00000002013/09/05                  0000
0074068801939888482013-09-12000000SALDO ULTIMA TRANS            20000000000000.00MXP000000000                              00000002013/09/05                  0000
0074068801939888482013-09-11000000SALDO ULTIMA TRANS            20000000000000.00MXP000000000                              00000002013/09/05                  0000
0074068801939888482013-09-10000000SALDO ULTIMA TRANS            20000000000000.00MXP000000000                              00000002013/09/05                  0000
0074068801939888482013-09-09000000SALDO ULTIMA TRANS            20000000000000.00MXP000000000                              00000002013/09/05                  0000
0074068801939888482013-09-06000000SALDO ULTIMA TRANS            20000000000000.00MXP000000000                              00000002013/09/05                  0000
