0074068801095395302013-09-30479236CE09029804053030720110048396  00000000008000.00MXP000000000MARIA GUADALUPE LOPEZ RIVERA  00000002013/09/30            Y15   0000
0074068801095395302013-09-30330556CE09029804131147920120200870  00000000000500.00MXP000000000ROMAN FLORES GARCIA           00000002013/09/30            Y15   0000
0074068801095395302013-09-30302628CE09029804050101320090208399  00000000000600.00MXP000000000ANTONIO TETZOPA SARMIENTO     00000002013/09/30            Y15   0000
0074068801095395302013-09-30107787CE09029804200056620050047141  00000000006496.00MXP000000000RAMON SANCHEZ RANGEL          00000002013/09/30            Y15   0000
0074068801095395302013-09-30098124CC15173801112075420080997309  00000000001200.00MXP000000000INST MEXICANO DEL SEGURO SOCIA00000002013/09/27            Y02   0000
0074068801095395302013-09-30097710CC15173802204080220120995488  00000000001620.05MXP000000000INFRA S.A DE C.V              00000002013/09/27            Y02   0000
0074068801095395302013-09-30097133CC15173802204080220120994358  00000000001788.23MXP000000000INFRA S.A DE C.V              00000002013/09/27            Y02   0000
0074068801095395302013-09-30096573CC15173802204080220120996866  00000000001876.14MXP000000000INFRA S.A DE C.V              00000002013/09/27            Y02   0000
0074068801095395302013-09-30096037CC15173802204080220120995777  00000000002264.35MXP000000000INFRA S.A DE C.V              00000002013/09/27            Y02   0000
0074068801095395302013-09-30095463CC15173802204080220120993533  00000000008569.25MXP000000000INFRA S.A DE C.V              00000002013/09/27            Y02   0000
0074068801095395302013-09-30094982CC15173802204080220120998060  00000000001848.55MXP000000000INFRA S.A DE C.V              00000002013/09/27            Y02   0000
0074068801095395302013-09-30094412CC15173802204080220120997823  00000000001940.48MXP000000000INFRA S.A DE C.V              00000002013/09/27            Y02   0000
0074068801095395302013-09-30094016CE09029804050156320120208066  00000000002400.00MXP000000000JUAN CARLOS COHETERO HERRERA  00000002013/09/30            Y15   0000
0074068801095395302013-09-30093614CC15173802204080220120993673  00000000007831.75MXP000000000INFRA S.A DE C.V              00000002013/09/27            Y02   0000
0074068801095395302013-09-30093150CC15173802204080220120997302  00000000001848.55MXP000000000INFRA S.A DE C.,V             00000002013/09/27            Y02   0000
0074068801095395302013-09-30092481CC15173801109086220040990219  00000000000255.61MXP000000000INST MEXICANO DEL SEGURO SOCIA00000002013/09/27            Y02   0000
0074068801095395302013-09-30092034CC15173801109086220040992314  00000000000255.61MXP000000000INST MEXICANO DEL SEGURO SOCIA00000002013/09/27            Y02   0000
0074068801095395302013-09-30091352CC15173801103051820120995139  00000000235600.55MXP000000000CENTRO SCT OAXACA             00000002013/09/27            Y02   0000
0074068801095395302013-09-30090475CC15173801109168920080995488  00000000013376.20MXP000000000SECRETARIA DE FINANZAS Y ADMIN00000002013/09/27            Y02   0000
0074068801095395302013-09-30089642CC15173802204080220120990877  00000000002050.16MXP000000000INFRA S.A DE.CV               00000002013/09/27            Y02   0000
0074068801095395302013-09-30089145CC15173802204080220120993319  00000000001746.61MXP000000000INFRA S.A DE C.V              00000002013/09/27            Y02   0000
0074068801095395302013-09-30088641CC15173802204080220120990216  00000000003803.88MXP000000000INFRA S.A DE C.V              00000002013/09/27            Y02   0000
0074068801095395302013-09-30088163CC15173802204080220120992311  00000000008912.19MXP000000000INFRA S.A DE C.V              00000002013/09/27            Y02   0000
0074068801095395302013-09-30087653CC15173802204080220120990828  00000000001850.85MXP000000000INFRA S.A DE C.V              00000002013/09/27            Y02   0000
0074068801095395302013-09-30087136CC15173801105069420100998818  00000000001184.32MXP000000000ISSSTEP                       00000002013/09/27            Y02   0000
0074068801095395302013-09-30086604CC15173801107040720080993535  00000000001800.00MXP000000000INST MEXICANO DEL SEGURO SOCIA00000002013/09/27            Y02   0000
0074068801095395302013-09-30032024CARGO CHEQUE                  10000000000500.00MXP000000000C000032024ECTIVO              00000002013/09/30            C03   0000
0074068801095395302013-09-30032013CARGO CHEQUE                  10000000003069.00MXP000000000C000032013ECTIVO              00000002013/09/30            C03   0000
0074068801095395302013-09-30032011CARGO CHEQUE                  10000000003544.80MXP000000000C000032011ECTIVO              00000002013/09/28            C03   0000
0074068801095395302013-09-30032007CARGO CHEQUE                  10000000001700.00MXP000000000C000032007ECTIVO              00000002013/09/30            C03   0000
0074068801095395302013-09-30032001CARGO CHEQUE                  10000000130250.00MXP000000000C000032001ECTIVO              00000002013/09/30            C03   0000
0074068801095395302013-09-30031853CARGO CHEQUE                  10000000013500.00MXP000000000C000031853ECTIVO              00000002013/09/30            C03   0000
0074068801095395302013-09-30028242CE09029804051087120100205161  00000000005000.00MXP000000000MARCO ANTONIO LOZANO VELASCO  00000002013/09/30            Y15   0000
0074068801095395302013-09-30000001IVA COMISION CIE              10000000000328.64MXP00000000000001195069  SICOCO SEP 2013  00000002013/09/30            W06   0000
0074068801095395302013-09-30000001COMISION CIE                  10000000002054.00MXP00000000000001195069  SICOCO SEP 2013  00000002013/09/30            W05   0000
0074068801095395302013-09-30000000SALDO ULTIMA TRANS            20000012834713.27MXP000000000                              00000002013/09/30                  0000
0074068801095395302013-09-27032014CARGO CHEQUE                  10000000027910.50MXP000000000C000032014ECTIVO              00000002013/09/27            C03   0000
0074068801095395302013-09-27032012CARGO CHEQUE                  10000000003000.00MXP000000000C000032012ECTIVO              00000002013/09/27            C03   0000
0074068801095395302013-09-27032008CARGO CHEQUE                  10000000004800.00MXP000000000C000032008ECTIVO              00000002013/09/27            C03   0000
0074068801095395302013-09-27032006CARGO CHEQUE                  10000000001500.00MXP000000000C000032006ECTIVO              00000002013/09/27            C03   0000
0074068801095395302013-09-27031998CARGO CHEQUE                  10000000002100.00MXP000000000C000031998ECTIVO              00000002013/09/27            C03   0000
0074068801095395302013-09-27031996CARGO CHEQUE                  10000000006000.00MXP000000000C000031996ECTIVO              00000002013/09/27            C03   0000
0074068801095395302013-09-27031990CARGO CHEQUE                  10000000004000.00MXP000000000C000031990ECTIVO              00000002013/09/27            C03   0000
0074068801095395302013-09-27031985CARGO CHEQUE                  10000000004500.00MXP000000000C000031985ECTIVO              00000002013/09/27            C03   0000
0074068801095395302013-09-27031981CARGO CHEQUE                  10000000002363.20MXP000000000C000031981ECTIVO              00000002013/09/27            C03   0000
0074068801095395302013-09-27031975CARGO CHEQUE                  10000000003000.00MXP000000000C000031975ECTIVO              00000002013/09/27            C03   0000
0074068801095395302013-09-27031961CARGO CHEQUE                  10000000024000.00MXP000000000C000031961ECTIVO              00000002013/09/27            C03   0000
0074068801095395302013-09-27031950CARGO CHEQUE                  10000000003000.00MXP000000000C000031950ECTIVO              00000002013/09/27            C03   0000
0074068801095395302013-09-27031928CARGO CHEQUE                  10000000002552.00MXP000000000C000031928                    00000002013/09/27            C03   0000
0074068801095395302013-09-27031892CARGO CHEQUE                  10000000001181.60MXP000000000C000031892ECTIVO              00000002013/09/27            C03   0000
0074068801095395302013-09-27031884CARGO CHEQUE                  10000000012000.00MXP000000000C000031884                    00000002013/09/27            C03   0000
0074068801095395302013-09-27000000SALDO ULTIMA TRANS            20000012665040.38MXP000000000                              00000002013/09/27                  0000
0074068801095395302013-09-26308434CE09029804070179520110205136  00000000000700.00MXP000000000ADAN BARBOSA GARCIA           00000002013/09/26            Y15   0000
0074068801095395302013-09-26283845CE09029804010073020070200774  00000000009207.00MXP000000000PEDRO MARTINEZ DE LA TORRE    00000002013/09/26            Y15   0000
0074068801095395302013-09-26262802CE09029804131100420110203534  00000000005524.20MXP000000000PABLO RENE ORDAZ SANCHEZ      00000002013/09/26            Y15   0000
0074068801095395302013-09-26229802CE09029804121115920110048718  00000000005726.90MXP000000000SANTA BARBARA BENDITA FARMACEU00000002013/09/26            Y15   0000
0074068801095395302013-09-26032005CARGO CHEQUE                  10000000013600.00MXP000000000C000032005ECTIVO              00000002013/09/26            C03   0000
0074068801095395302013-09-26031999CARGO CHEQUE                  10000000002500.00MXP000000000C000031999ECTIVO              00000002013/09/26            C03   0000
0074068801095395302013-09-26031997CARGO CHEQUE                  10000000014655.28MXP000000000C000031997ECTIVO              00000002013/09/26            C03   0000
0074068801095395302013-09-26031994CARGO CHEQUE                  10000000007672.50MXP000000000C000031994 DE DEPOSITO:CAGA49100000002013/09/26            C03   0000
0074068801095395302013-09-26031982CARGO CHEQUE                  10000000007275.00MXP000000000C000031982ECTIVO              00000002013/09/26            C03   0000
0074068801095395302013-09-26031944CARGO CHEQUE                  10000000015000.00MXP000000000C000031944ECTIVO              00000002013/09/26            C03   0000
0074068801095395302013-09-26031943CARGO CHEQUE                  10000000001300.00MXP000000000C000031943ECTIVO              00000002013/09/26            C03   0000
0074068801095395302013-09-26031935CARGO CHEQUE                  10000000009000.00MXP000000000C000031935ECTIVO              00000002013/09/26            C03   0000
0074068801095395302013-09-26031914CARGO CHEQUE                  10000000003000.00MXP000000000C000031914 DE DEPOSITO:FIVW62000000002013/09/26            C03   0000
0074068801095395302013-09-26031913CARGO CHEQUE                  10000000003000.00MXP000000000C000031913 DE DEPOSITO:FIVW62000000002013/09/26            C03   0000
0074068801095395302013-09-26031911CARGO CHEQUE                  10000000003000.00MXP000000000C000031911 DE DEPOSITO:FIVW62000000002013/09/26            C03   0000
0074068801095395302013-09-26031910CARGO CHEQUE                  10000000002000.00MXP000000000C000031910ECTIVO              00000002013/09/26            C03   0000
0074068801095395302013-09-26000000SALDO ULTIMA TRANS            20000012766947.68MXP000000000                              00000002013/09/26                  0000
0074068801095395302013-09-25084685CE09029804070230820110200872  00000000002500.00MXP000000000MERCEDES CECILIA HERNANDEZ    00000002013/09/25            Y15   0000
0074068801095395302013-09-25031993CARGO CHEQUE                  10000000003600.00MXP000000000C000031993ECTIVO              00000002013/09/25            C03   0000
0074068801095395302013-09-25031984CARGO CHEQUE                  10000000140892.66MXP000000000C000031984                    00000002013/09/25            C03   0000
0074068801095395302013-09-25031980CARGO CHEQUE                  10000000017407.74MXP000000000C000031980ECTIVO              00000002013/09/25            C03   0000
0074068801095395302013-09-25031949CARGO CHEQUE                  10000000003544.80MXP000000000C000031949ECTIVO              00000002013/09/25            C03   0000
0074068801095395302013-09-25031945CARGO CHEQUE                  10000000001608.00MXP000000000C000031945ECTIVO              00000002013/09/25            C03   0000
0074068801095395302013-09-25031771CARGO CHEQUE                  10000000003544.80MXP000000000C000031771ECTIVO              00000002013/09/25            C03   0000
0074068801095395302013-09-25029472CE09029804080057920090200873  00000000007500.00MXP000000000MARTIN JAVIER HERNANDEZ       00000002013/09/25            Y15   0000
0074068801095395302013-09-25015488CE09029802205074120130200876  00000000006000.00MXP000000000ARMANDO AGUSTIN PEREZ GAVILAN 00000002013/09/25            Y15   0000
0074068801095395302013-09-25000000SALDO ULTIMA TRANS            20000012827792.36MXP000000000                              00000002013/09/25                  0000
0074068801095395302013-09-24306840CE09029804050007720100025136  00000000001000.00MXP000000000ROGELIO DE JESUS RAMIREZ      00000002013/09/24            Y15   0000
0074068801095395302013-09-24292440CE09029804081059520130205134  00000000002000.00MXP000000000SERAFIN BRITO MOYA            00000002013/09/24            Y15   0000
0074068801095395302013-09-24226499CE09029804050004620130202312  00000000000200.00MXP000000000MIGUEL ANGEL RUGERIO CAPULIN  00000002013/09/24            Y15   0000
0074068801095395302013-09-24221318CE09029804121108920130025133  00000000001200.00MXP000000000HUMBERTO OSORIO RODRIGUEZ     00000002013/09/24            Y15   0000
0074068801095395302013-09-24204396CE09029804131113720110025133  00000000008500.00MXP000000000MARIA YUVANI GOMEZ LAUREANO Y 00000002013/09/24            Y15   0000
0074068801095395302013-09-24202319CE09029804051140520130205138  00000000000700.00MXP000000000ARMANDO JAVIER SANCHEZ LOPEZ  00000002013/09/24            Y15   0000
0074068801095395302013-09-24031977CARGO CHEQUE                  10000000006000.00MXP000000000C000031977 DE DEPOSITO:ZELA58000000002013/09/24            C03   0000
0074068801095395302013-09-24031972CARGO CHEQUE                  10000000095815.66MXP000000000C000031972ECTIVO              00000002013/09/24            C03   0000
0074068801095395302013-09-24031971CARGO CHEQUE                  10000000006000.00MXP000000000C000031971ECTIVO              00000002013/09/24            C03   0000
0074068801095395302013-09-24031967CARGO CHEQUE                  10000000000153.56MXP000000000C000031967ECTIVO              00000002013/09/24            C03   0000
0074068801095395302013-09-24031933CARGO CHEQUE                  10000000015300.00MXP000000000C000031933ECTIVO              00000002013/09/24            C03   0000
0074068801095395302013-09-24031858CARGO CHEQUE                  10000000016000.00MXP000000000C000031858ECTIVO              00000002013/09/24            C03   0000
0074068801095395302013-09-24000000VENTA FONDOS DE INVERSION     00000000143248.40MXP000000000OPERADO EN CANAL   SUCU       00000002013/09/24            F04   0000
0074068801095395302013-09-24000000CARGO TRASPASO MISMA PLAZA CW 10000000000086.50MXP0000000000109540245                    00000002013/09/24            W41   0000
0074068801095395302013-09-24000000CARGO TRASPASO MISMA PLAZA CW 10000000143223.80MXP0000000000109540245                    00000002013/09/24            W41   0000
0074068801095395302013-09-24000000SALDO ULTIMA TRANS            20000012982390.36MXP000000000                              00000002013/09/24                  0000
0074068801095395302013-09-23426527CE09029804040029120090208393  00000000000200.00MXP000000000EDUARDO BENITO VAZQUEZ AVILA  00000002013/09/23            Y15   0000
0074068801095395302013-09-23426148CE09029804040029120090208179  00000000000200.00MXP000000000EDUARDO BENITO VAZQUEZ AVILA  00000002013/09/23            Y15   0000
0074068801095395302013-09-23425668CE09029804040029120090204590  00000000000200.00MXP000000000EDUARDO BENITO VAZQUEZ AVILA  00000002013/09/23            Y15   0000
0074068801095395302013-09-23425399CE09029804040029120090207304  00000000000200.00MXP000000000EDUARDO BENITO VAZQUEZ AVILA  00000002013/09/23            Y15   0000
0074068801095395302013-09-23425043CE09029804040029120090200820  00000000000200.00MXP000000000EDUARDO BENITO VAZQUEZ AVILA  00000002013/09/23            Y15   0000
0074068801095395302013-09-23424608CE09029804040086920110203534  00000000001000.00MXP000000000HONORIO REYES ESCAMILLA       00000002013/09/23            Y15   0000
0074068801095395302013-09-23424291CE09029804040078920110018064  00000000004000.00MXP000000000BERNARDINO CA#ONGO EUMA#A     00000002013/09/23            Y15   0000
0074068801095395302013-09-23423743CE09029804040078920110011887  00000000004000.00MXP000000000FERNANDO VAZQUEZ SALAZAR      00000002013/09/23            Y15   0000
0074068801095395302013-09-23423273CE09029804040022320020207823  00000000001200.00MXP000000000JESUS CASTRO RAMALES          00000002013/09/23            Y15   0000
0074068801095395302013-09-23422957CE09029804040022320020203673  00000000001200.00MXP000000000JESUS CASTRO RAMALES          00000002013/09/23            Y15   0000
0074068801095395302013-09-23422525CE09029804040085420120204359  00000000000500.00MXP000000000OSVALDO MENDEZ DE LA LUZ      00000002013/09/23            Y15   0000
0074068801095395302013-09-23422238CE09029804040085420120206867  00000000000500.00MXP000000000OSVALDO MENDEZ DE LA LUZ      00000002013/09/23            Y15   0000
0074068801095395302013-09-23421072CE09029802204044220030201717  00000000001841.40MXP000000000RODOLFO REYES ZEPEDA          00000002013/09/23            Y15   0000
0074068801095395302013-09-23420740CE09029802204044220030206153  00000000001841.40MXP000000000RODOLFO REYES ZEPEDA          00000002013/09/23            Y15   0000
0074068801095395302013-09-23233735CC15173802205013420080991886  00000000001334.90MXP000000000PRODUCTOS KRAFT, S. DE R.L. DE00000002013/09/20            Y02   0000
0074068801095395302013-09-23232395CC15173802202154920080998175  00000000018089.68MXP000000000BENTELER DE MEXICO S.A. DE C.V00000002013/09/20            Y02   0000
0074068801095395302013-09-23231789CC15173802202118520020998718  00000000002884.86MXP000000000KRUPP PRESTA SERVICIOS DE MEXI00000002013/09/20            Y02   0000
0074068801095395302013-09-23231143CC15173801106089620070998391  00000000005000.00MXP000000000INST. MEXICANO SEL SEGURO SOCI00000002013/09/20            Y02   0000
0074068801095395302013-09-23229490CC15173801108237719940995137  00000000009978.50MXP000000000SECRETARIA DE FINANZAS Y ADMIN00000002013/09/20            Y02   0000
0074068801095395302013-09-23147664CE09029804090057220120203313  00000000001450.00MXP000000000RUBEN MIGUEL DOMINGO          00000002013/09/23            Y15   0000
0074068801095395302013-09-23114160CE09029804072077720120990870  00000000012276.00MXP000000000VICTOR EDGAR LEON RUEDA       00000002013/09/23            Y15   0000
0074068801095395302013-09-23113470CE09029804090014220090204350  00000000002000.00MXP000000000GALDINO GODOS DIAZ            00000002013/09/23            Y15   0000
0074068801095395302013-09-23086202CE09029804050113120130025134  00000000001000.00MXP0000000004050113120130025134           00000002013/09/23            Y15   0000
0074068801095395302013-09-23055622CE09029804050135020100203675  00000000004000.00MXP000000000JORGE ALBERTO ALVARADO HERNAND00000002013/09/23            Y15   0000
0074068801095395302013-09-23054867CE09029804050135020100207825  00000000004000.00MXP000000000JORGE ALBERTO ALVARADO HERNAND00000002013/09/23            Y15   0000
0074068801095395302013-09-23054146CE09029804050135020100207304  00000000004000.00MXP000000000JORGE ALBERTO ALVARADO HERNAND00000002013/09/23            Y15   0000
0074068801095395302013-09-23036731CE09029804050174420110200871  00000000003200.00MXP000000000EDGAR CASTELAM ZOLA           00000002013/09/23            Y15   0000
0074068801095395302013-09-23035214CE09029804054016920130026861  00000000003300.00MXP000000000VICTOR HUGO ROA ROLDAN        00000002013/09/23            Y15   0000
0074068801095395302013-09-23031973CARGO CHEQUE                  10000000002896.36MXP000000000C000031973ECTIVO              00000002013/09/23            C03   0000
0074068801095395302013-09-23031968CARGO CHEQUE                  10000000000850.00MXP000000000C000031968ECTIVO              00000002013/09/23            C03   0000
0074068801095395302013-09-23031947CARGO CHEQUE                  10000000035021.00MXP000000000C000031947 DE DEPOSITO:GOFL69000000002013/09/23            C03   0000
0074068801095395302013-09-23031932CARGO CHEQUE                  10000000015200.00MXP000000000C000031932 DE DEPOSITO:RFC NO 00000002013/09/23            C03   0000
0074068801095395302013-09-23031924CARGO CHEQUE                  10000000007000.00MXP000000000C000031924 DE DEPOSITO:MIMA73100000002013/09/23            C03   0000
0074068801095395302013-09-23031850CARGO CHEQUE                  10000000003268.20MXP000000000C000031850ECTIVO              00000002013/09/21            C03   0000
0074068801095395302013-09-23000000SALDO ULTIMA TRANS            20000013108121.48MXP000000000                              00000002013/09/23                  0000
0074068801095395302013-09-20254518CE09029802205175320070994599  00000000252099.93MXP000000000COLEGIO DE BACHILLERES DEL EST00000002013/09/20            Y05   0000
0074068801095395302013-09-20238680CE09029804120043520090208347  00000000008573.50MXP000000000CESAR ULISES PEREZMITRE CRUZ  00000002013/09/20            Y15   0000
0074068801095395302013-09-20231248CE09029802203149920110205480  00000000001981.06MXP000000000ISMAEL HUERTA CERVANTES       00000002013/09/20            Y15   0000
0074068801095395302013-09-20230535CE09029804050089720100995131  00000000047669.42MXP000000000VOLKSWAGEN DE MEXICO S.A. DE C00000002013/09/20            Y05   0000
0074068801095395302013-09-20216953CE09029804060036620120025138  00000000049758.00MXP000000000JOSE LUIS BARRON SALAS        00000002013/09/20            Y15   0000
0074068801095395302013-09-20211697CE09029804051046420120028340  00000000500000.00MXP000000000MARIA DELIA OAXACA MERCADO    00000002013/09/20            Y15   0000
0074068801095395302013-09-20108068CE09029804081125920130025138  00000000002000.00MXP000000000JUAN CARLOS MITZI CUENCA      00000002013/09/20            Y15   0000
0074068801095395302013-09-20031965CARGO CHEQUE                  10000000006000.00MXP000000000C000031965ECTIVO              00000002013/09/20            C03   0000
0074068801095395302013-09-20031963CARGO CHEQUE                  10000000002010.00MXP000000000C000031963ECTIVO              00000002013/09/20            C03   0000
0074068801095395302013-09-20031962CARGO CHEQUE                  10000000001600.00MXP000000000C000031962ECTIVO              00000002013/09/20            C03   0000
0074068801095395302013-09-20031960CARGO CHEQUE                  10000000001200.00MXP000000000C000031960ECTIVO              00000002013/09/20            C03   0000
0074068801095395302013-09-20031959CARGO CHEQUE                  10000000006000.00MXP000000000C000031959ECTIVO              00000002013/09/20            C03   0000
0074068801095395302013-09-20031958CARGO CHEQUE                  10000000024000.00MXP000000000C000031958ECTIVO              00000002013/09/20            C03   0000
0074068801095395302013-09-20031955CARGO CHEQUE                  10000000012494.41MXP000000000C000031955ECTIVO              00000002013/09/20            C03   0000
0074068801095395302013-09-20031954CARGO CHEQUE                  10000000003544.80MXP000000000C000031954ECTIVO              00000002013/09/20            C03   0000
0074068801095395302013-09-20031953CARGO CHEQUE                  10000000003544.80MXP000000000C000031953ECTIVO              00000002013/09/20            C03   0000
0074068801095395302013-09-20031948CARGO CHEQUE                  10000000008617.28MXP000000000C000031948ECTIVO              00000002013/09/20            C03   0000
0074068801095395302013-09-20031946CARGO CHEQUE                  10000000001500.00MXP000000000C000031946ECTIVO              00000002013/09/20            C03   0000
0074068801095395302013-09-20031938CARGO CHEQUE                  10000000004000.00MXP000000000C000031938ECTIVO              00000002013/09/20            C03   0000
0074068801095395302013-09-20031937CARGO CHEQUE                  10000000433629.28MXP000000000C000031937                    00000002013/09/20            C03   0000
0074068801095395302013-09-20031882CARGO CHEQUE                  10000000011049.00MXP000000000C000031882ECTIVO              00000002013/09/20            C03   0000
0074068801095395302013-09-20031870CARGO CHEQUE                  10000000002000.00MXP000000000C000031870ECTIVO              00000002013/09/20            C03   0000
0074068801095395302013-09-20000000SALDO ULTIMA TRANS            20000013082760.30MXP000000000                              00000002013/09/20                  0000
0074068801095395302013-09-19499951CE09029804111193820120024350  00000000000600.00MXP000000000MARCO ANTONIO SANTOS ZAMORA   00000002013/09/19            Y15   0000
0074068801095395302013-09-19499373CE09029804111169820040207820  00000000001500.00MXP000000000ANTONIO NAVARRO BA#UELOS      00000002013/09/19            Y15   0000
0074068801095395302013-09-19498971CE09029804111196820040208064  00000000001500.00MXP000000000ANTONIO NAVARRO BA#UELOS      00000002013/09/19            Y15   0000
0074068801095395302013-09-19498437CE09029804111003020110207301  00000000000600.00MXP000000000MIGUEL ANGEL JIMENEZ MENDIETA 00000002013/09/19            Y15   0000
0074068801095395302013-09-19497928CE09029804111003020110200215  00000000000600.00MXP000000000MIGUEL ANGEL JIMENEZ MENDIETA 00000002013/09/19            Y15   0000
0074068801095395302013-09-19497469CE09029804111156620090020825  00000000001200.00MXP000000000JOSE ROSAS CANO               00000002013/09/19            Y15   0000
0074068801095395302013-09-19497072CE09029804111156620090022318  00000000001200.00MXP000000000JOSE ROSAS CANO               00000002013/09/19            Y15   0000
0074068801095395302013-09-19496666CE09029804111002020130028399  00000000000800.00MXP000000000GUSTAVO MENDEZ BA#UELOS       00000002013/09/19            Y15   0000
0074068801095395302013-09-19496175CE09029804111014620120201884  00000000000300.00MXP000000000JUAN JIMENEZ BERISTAIN        00000002013/09/19            Y15   0000
0074068801095395302013-09-19495719CE09029804111014620120204599  00000000000300.00MXP000000000JUAN JIMENEZ BERISTAIN        00000002013/09/19            Y15   0000
0074068801095395302013-09-19495258CE09029804111014620120208715  00000000000300.00MXP000000000JUAN JIMENEZ BERISTAIN        00000002013/09/19            Y15   0000
0074068801095395302013-09-19438734CE195069220505732007002ESC95  00000000010000.00MXP000000000727835                        00000002013/09/19            Y15   0000
0074068801095395302013-09-19357428CE09029801104039620110040606  00000000037100.14MXP000000000FRANCISCO LUCIANO SANTANA GARC00000002013/09/19            Y15   0000
0074068801095395302013-09-19346720CE195069110108592013002ESC95  00000000001200.00MXP000000000727807                        00000002013/09/19            Y15   0000
0074068801095395302013-09-19345119CE195069220503732011001ESC95  00000000017025.00MXP000000000723833                        00000002013/09/19            Y15   0000
0074068801095395302013-09-19332126CE09029804080099520080205419  00000000002000.00MXP000000000CRISTOBAL RAMIREZ GARCIA      00000002013/09/19            Y15   0000
0074068801095395302013-09-19322105CE09029804050145020120207308  00000000001200.00MXP000000000RAFAEL IZELO ACA              00000002013/09/19            Y15   0000
0074068801095395302013-09-19031951CARGO CHEQUE                  10000000009000.00MXP000000000C000031951ECTIVO              00000002013/09/19            C03   0000
0074068801095395302013-09-19031934CARGO CHEQUE                  10000000003408.00MXP000000000C000031934ECTIVO              00000002013/09/19            C03   0000
0074068801095395302013-09-19031929CARGO CHEQUE                  10000000095155.50MXP000000000C000031929                    00000002013/09/19            C03   0000
0074068801095395302013-09-19031926CARGO CHEQUE                  10000000062029.00MXP000000000C000031926 DE DEPOSITO:MAEJ39000000002013/09/19            C03   0000
0074068801095395302013-09-19031925CARGO CHEQUE                  10000000002289.00MXP000000000C000031925ECTIVO              00000002013/09/19            C03   0000
0074068801095395302013-09-19031871CARGO CHEQUE                  10000000200000.00MXP000000000C000031871                    00000002013/09/19            C03   0000
0074068801095395302013-09-19001297CE09029804111061420100025482  00000000001200.00MXP000000000RENE ISLAS LUNA               00000002013/09/19            Y15   0000
0074068801095395302013-09-19000872CE09029804111193820120023535  00000000000600.00MXP000000000MARCO ANTONIO SANTOS ZAMORA   00000002013/09/19            Y15   0000
0074068801095395302013-09-19000391CE09029804111193820120026868  00000000000600.00MXP000000000MARCO ANTONIO SANTOS ZAMORA   00000002013/09/19            Y15   0000
0074068801095395302013-09-19000000COMPRA FONDOS INVERSION       10000002499983.42MXP000000000OPERADO EN CANAL:  SUCU       00000002013/09/19            F01   0000
0074068801095395302013-09-19000000SALDO ULTIMA TRANS            20000012741867.96MXP000000000                              00000002013/09/19                  0000
0074068801095395302013-09-18495969CE09029804050118120100202312  00000000003200.00MXP000000000JOSE ANTONIO CASTA#EDA AGUILAR00000002013/09/18            Y15   0000
0074068801095395302013-09-18245452CC15173801112075420080993670  00000000001200.00MXP000000000INST MEXICANO DEL SEGURO SOCIA00000002013/09/17            Y02   0000
0074068801095395302013-09-18243539CC15173801110058720090994591  00000000001408.21MXP000000000AUDITORIA SUPERIOR DEL ESTADO 00000002013/09/17            Y02   0000
0074068801095395302013-09-18242263CC15173802206122020120991809  00000000001105.35MXP000000000PRODUCTOS KRAFT S. DE R,L DE C00000002013/09/17            Y02   0000
0074068801095395302013-09-18223498CE09029804050112720050205136  00000000002000.00MXP000000000JOSE ABRAHAM DE SANTIAGO PALAC00000002013/09/18            Y15   0000
0074068801095395302013-09-18133718CE195069220603942010002ESC95  00000000001540.00MXP000000000674879                        00000002013/09/18            Y15   0000
0074068801095395302013-09-18089122CE09029804050145020120205773  00000000001200.00MXP000000000RAFAEL IZELO ACA              00000002013/09/18            Y15   0000
0074068801095395302013-09-18087729CE09029804050145020120203679  00000000001200.00MXP000000000RAFAEL IZELO ACA              00000002013/09/18            Y15   0000
0074068801095395302013-09-18079901CE09029804072013020130024357  00000000000600.00MXP000000000AGUSTIN RAMOS SANTOS          00000002013/09/18            Y15   0000
0074068801095395302013-09-18078859CE09029804072013020130026865  00000000000600.00MXP000000000AGUSTIN RAMOS SANTOS          00000002013/09/18            Y15   0000
0074068801095395302013-09-18077995CE09029804072095420130025134  00000000002000.00MXP000000000LORENZO ALBERTO HERNANDEZ CHAV00000002013/09/18            Y15   0000
0074068801095395302013-09-18031923CARGO CHEQUE                  10000000004804.50MXP000000000C000031923ECTIVO              00000002013/09/18            C03   0000
0074068801095395302013-09-18031920CARGO CHEQUE                  10000000001072.00MXP000000000C000031920ECTIVO              00000002013/09/18            C03   0000
0074068801095395302013-09-18031917CARGO CHEQUE                  10000000003200.00MXP000000000C000031917ECTIVO              00000002013/09/18            C03   0000
0074068801095395302013-09-18031907CARGO CHEQUE                  10000000022000.00MXP000000000C000031907ECTIVO              00000002013/09/18            C03   0000
0074068801095395302013-09-18031889CARGO CHEQUE                  10000000005000.00MXP000000000C000031889 DE DEPOSITO:RFC NO 00000002013/09/18            C03   0000
0074068801095395302013-09-18031887CARGO CHEQUE                  10000000001680.00MXP000000000C000031887ECTIVO              00000002013/09/18            C03   0000
0074068801095395302013-09-18031869CARGO CHEQUE                  10000000030000.00MXP000000000C000031869 DE DEPOSITO:RAPI58000000002013/09/18            C03   0000
0074068801095395302013-09-18031848CARGO CHEQUE                  10000000001300.00MXP000000000C000031848                    00000002013/09/18            C03   0000
0074068801095395302013-09-18003152CE09029804051138020130025135  00000000005000.00MXP000000000MARI#O ZENTENO CASTILLO       00000002013/09/18            Y15   0000
0074068801095395302013-09-18000000VENTA FONDOS DE INVERSION     00000001200032.89MXP000000000OPERADO EN CANAL   SUCU       00000002013/09/18            F04   0000
0074068801095395302013-09-18000000SALDO ULTIMA TRANS            20000015533907.74MXP000000000                              00000002013/09/18                  0000
0074068801095395302013-09-17409087CE195069220308462011001ESC95  00000000000700.00MXP000000000681854                        00000002013/09/17            Y15   0000
0074068801095395302013-09-17385154CE195069220403652001001ESC95  00000000000400.00MXP000000000662848                        00000002013/09/17            Y15   0000
0074068801095395302013-09-17366814CE09029804180055820120044350  00000000017300.98MXP000000000FLOR DE MARIA PAREDES REYES   00000002013/09/17            Y15   0000
0074068801095395302013-09-17334830CE195069220306082001001ESC95  00000000011000.00MXP000000000728860                        00000002013/09/17            Y15   0000
0074068801095395302013-09-17332816CE09029802204051519980209202  00000000001227.60MXP000000000BENITO OLVERA SUAREZ          00000002013/09/17            Y15   0000
0074068801095395302013-09-17302540CE09029801104047920120997302  00000000137993.02MXP000000000PEGASO PCS S.A DE C.V         00000002013/09/17            Y05   0000
0074068801095395302013-09-17289017CE195069220309122008001ESC95  00000000009134.64MXP000000000723813                        00000002013/09/17            Y15   0000
0074068801095395302013-09-17246513CE09029802202059520110999643  00000000027482.59MXP000000000CAMINOS Y PUENTES FEDERALES DE00000002013/09/17            Y05   0000
0074068801095395302013-09-17243721CE09029804121075220130025483  00000000000600.00MXP000000000JAVIER GALVEZ AGUILAR         00000002013/09/17            Y15   0000
0074068801095395302013-09-17232383CE195069220304262010001ESC95  00000000000500.00MXP000000000725890                        00000002013/09/17            Y15   0000
0074068801095395302013-09-17222492CE195069220501492013001ESC95  00000000001000.00MXP000000000641845                        00000002013/09/17            Y15   0000
0074068801095395302013-09-17194215CE195069220314562000001ESC95  00000000003682.80MXP000000000723822                        00000002013/09/17            Y15   0000
0074068801095395302013-09-17188544CE09029804121067820040204183  00000000001000.00MXP000000000SERGIO HUERTA HERNANDEZ       00000002013/09/17            Y15   0000
0074068801095395302013-09-17143473CE09029804081111220130025485  00000000020000.00MXP000000000TERESA JUANA PLANAS RUIZ      00000002013/09/17            Y15   0000
0074068801095395302013-09-17120579CE195069220200412010001ESC95  00000000001640.00MXP000000000687881                        00000002013/09/17            Y15   0000
0074068801095395302013-09-17031930CARGO CHEQUE                  10000000002000.00MXP000000000C000031930ECTIVO              00000002013/09/17            C03   0000
0074068801095395302013-09-17031922CARGO CHEQUE                  10000000002250.00MXP000000000C000031922ECTIVO              00000002013/09/17            C03   0000
0074068801095395302013-09-17031916CARGO CHEQUE                  10000000009000.00MXP000000000C000031916ECTIVO              00000002013/09/17            C03   0000
0074068801095395302013-09-17031906CARGO CHEQUE                  10000000002880.00MXP000000000C000031906ECTIVO              00000002013/09/17            C03   0000
0074068801095395302013-09-17031885CARGO CHEQUE                  10000000001682.40MXP000000000C000031885ECTIVO              00000002013/09/17            C03   0000
0074068801095395302013-09-17031829CARGO CHEQUE                  10000000003500.00MXP000000000C000031829ECTIVO              00000002013/09/17            C03   0000
0074068801095395302013-09-17000000SALDO ULTIMA TRANS            20000014381877.79MXP000000000                              00000002013/09/17                  0000
0074068801095395302013-09-13435060CE09029804050019720130205480  00000000001000.00MXP000000000JUAN CARLOS GONZALEZ MARTINEZ 00000002013/09/13            Y15   0000
0074068801095395302013-09-13419666CE195069220403122008001ESC95  00000000001000.00MXP000000000671847                        00000002013/09/13            Y15   0000
0074068801095395302013-09-13418667CE195069110304232012001ESC95  00000000061248.00MXP000000000685835                        00000002013/09/13            Y05   0000
0074068801095395302013-09-13377094CE195069220509932013001ESC95  00000000001400.00MXP000000000683807                        00000002013/09/13            Y15   0000
0074068801095395302013-09-13360750CE09029804121039420080208171  00000000011200.00MXP000000000IVAN MU#OZ AVILES             00000002013/09/13            Y15   0000
0074068801095395302013-09-13358100CE195069220111632013001ESC95  00000000000200.00MXP000000000686816                        00000002013/09/13            Y15   0000
0074068801095395302013-09-13332381CE195069220107612012001ESC95  00000000002457.15MXP000000000664804                        00000002013/09/13            Y15   0000
0074068801095395302013-09-13328296CE09029804170068120130045489  00000000024360.00MXP000000000TEODORA MAGDALENA ROSA TOBON G00000002013/09/13            Y15   0000
0074068801095395302013-09-13318363CE09029804010131020120043679  00000000006900.00MXP000000000BLANCA CELIA TORRES DELGADO   00000002013/09/13            Y15   0000
0074068801095395302013-09-13308953CE09029804081053220120203316  00000000001000.00MXP000000000JHONY PAUL GALICIA RAMIREZ    00000002013/09/13            Y15   0000
0074068801095395302013-09-13307552CE195069110305162013001ESC95  00000000032085.20MXP000000000680828                        00000002013/09/13            Y15   0000
0074068801095395302013-09-13300085CE195069220413612012001ESC95  00000000001000.00MXP000000000671859                        00000002013/09/13            Y15   0000
0074068801095395302013-09-13259878CE195069110509422013001ESC95  00000000006150.00MXP000000000684880                        00000002013/09/13            Y15   0000
0074068801095395302013-09-13248635CE195069220215132012001ESC95  00000000005400.00MXP000000000687814                        00000002013/09/13            Y15   0000
0074068801095395302013-09-13232533CE09029804050145320120209647  00000000002000.00MXP000000000EDUARDO GUTIERREZ DIAZ        00000002013/09/13            Y15   0000
0074068801095395302013-09-13228969CE195069220605322012001ESC95  00000000012276.00MXP000000000680862                        00000002013/09/13            Y15   0000
0074068801095395302013-09-13194976CE09029804051026320080201685  00000000002250.00MXP000000000JOSE GILDARDO CRUZ SANDOVAL   00000002013/09/13            Y15   0000
0074068801095395302013-09-13186959CE195069110410371991001ESC95  00000000000405.36MXP000000000668810                        00000002013/09/13            Y15   0000
0074068801095395302013-09-13031921CARGO CHEQUE                  10000000001350.00MXP000000000C000031921ECTIVO              00000002013/09/13            C03   0000
0074068801095395302013-09-13031919CARGO CHEQUE                  10000000002000.00MXP000000000C000031919ECTIVO              00000002013/09/13            C03   0000
0074068801095395302013-09-13031918CARGO CHEQUE                  10000000002000.00MXP000000000C000031918ECTIVO              00000002013/09/13            C03   0000
0074068801095395302013-09-13031915CARGO CHEQUE                  10000000003000.00MXP000000000C000031915ECTIVO              00000002013/09/13            C03   0000
0074068801095395302013-09-13031898CARGO CHEQUE                  10000000153000.00MXP000000000C000031898 DE DEPOSITO:SCR020800000002013/09/13            C03   0000
0074068801095395302013-09-13031897CARGO CHEQUE                  10000000020352.42MXP000000000C000031897ECTIVO              00000002013/09/13            C03   0000
0074068801095395302013-09-13031839CARGO CHEQUE                  10000000017920.07MXP000000000C000031839                    00000002013/09/13            C03   0000
0074068801095395302013-09-13031756CARGO CHEQUE                  10000000010800.00MXP000000000C000031756ECTIVO              00000002013/09/13            C03   0000
0074068801095395302013-09-13031734CARGO CHEQUE                  10000000015000.00MXP000000000C000031734ECTIVO              00000002013/09/13            C03   0000
0074068801095395302013-09-13000000SALDO ULTIMA TRANS            20000014169528.56MXP000000000                              00000002013/09/13                  0000
0074068801095395302013-09-12497540CE195069220101332010001ESC95  00000000001356.00MXP000000000671803                        00000002013/09/12            Y15   0000
0074068801095395302013-09-12481412CE195069220100462012001ESC95  00000000001700.00MXP000000000672887                        00000002013/09/12            Y15   0000
0074068801095395302013-09-12468078CE195069110811362010001ESC95  00000000002000.00MXP000000000592837                        00000002013/09/12            Y15   0000
0074068801095395302013-09-12467124CE09029804010104920110995130  00000000020000.00MXP000000000FABIOLA ROSAS RICO            00000002013/09/12            Y15   0000
0074068801095395302013-09-12452503CE09029804121037920130040872  00000000002550.00MXP000000000CATALINA ALVAREZ ATILANO      00000002013/09/12            Y15   0000
0074068801095395302013-09-12431389CE09029804081102920100208174  00000000001773.00MXP000000000TOMAS QUIROZ FLORES           00000002013/09/12            Y15   0000
0074068801095395302013-09-12431334CE195069220309372013001ESC95  00000000001000.00MXP000000000661869                        00000002013/09/12            Y15   0000
0074068801095395302013-09-12423364CE195069220112392007001ESC95  00000000000250.00MXP000000000671829                        00000002013/09/12            Y15   0000
0074068801095395302013-09-12413938CE09029804050026320070202315  00000000001040.00MXP000000000JUAN VIVEROS MENDEZ           00000002013/09/12            Y15   0000
0074068801095395302013-09-12085858CE195069220304802013001ESC95  00000000002263.98MXP000000000676850                        00000002013/09/12            Y15   0000
0074068801095395302013-09-12075787CE195069220406012013001ESC95  00000000002000.00MXP000000000652884                        00000002013/09/12            Y15   0000
0074068801095395302013-09-12042171CE195069220209822013001ESC95  00000000001500.00MXP000000000676863                        00000002013/09/12            Y15   0000
0074068801095395302013-09-12041477CARGO TRASPASO MISMA PLAZA CW 10000000011311.37MXP000104890INTERESES GENERADOS EN INVERSI00038482013/09/12H TRIBUNAL SW41TNN0000
0074068801095395302013-09-12039133CE09029804072235620100021804  00000000005450.00MXP000000000VICTORIA JOSEFINA LIMON ANDRAD00000002013/09/12            Y15   0000
0074068801095395302013-09-12032470CE195069220506322013001ESC95  00000000002000.00MXP000000000612891                        00000002013/09/12            Y15   0000
0074068801095395302013-09-12031908CARGO CHEQUE                  10000000004000.00MXP000000000C000031908ECTIVO              00000002013/09/12            C03   0000
0074068801095395302013-09-12031902CARGO CHEQUE                  10000000009207.00MXP000000000C000031902ECTIVO              00000002013/09/12            C03   0000
0074068801095395302013-09-12031899CARGO CHEQUE                  10000000002250.00MXP000000000C000031899ECTIVO              00000002013/09/12            C03   0000
0074068801095395302013-09-12031895CARGO CHEQUE                  10000000003168.00MXP000000000C000031895ECTIVO              00000002013/09/12            C03   0000
0074068801095395302013-09-12031876CARGO CHEQUE                  10000000325000.00MXP000000000C000031876 DE DEPOSITO:AAZH80000000002013/09/12            C03   0000
0074068801095395302013-09-12031872CARGO CHEQUE                  10000000024000.00MXP000000000C000031872                    00000002013/09/12            C03   0000
0074068801095395302013-09-12031860CARGO CHEQUE                  10000000009207.00MXP000000000C000031860ECTIVO              00000002013/09/12            C03   0000
0074068801095395302013-09-12031852CARGO CHEQUE                  10000000018750.00MXP000000000C000031852ECTIVO              00000002013/09/12            C03   0000
0074068801095395302013-09-12016528CE09029804070013420130205135  00000000003069.00MXP000000000RODRIGO VILLADA DOMINGUEZ     00000002013/09/12            Y15   0000
0074068801095395302013-09-12014016CE195069220212001999001ESC95  00000000002200.00MXP000000000678873                        00000002013/09/12            Y15   0000
0074068801095395302013-09-12000000VENTA FONDOS DE INVERSION     00000097807817.20MXP000000000OPERADO EN CANAL   SUCU       00000002013/09/12            F04   0000
0074068801095395302013-09-12000000COMPRA FONDOS INVERSION       10000004999993.84MXP000000000OPERADO EN CANAL:  SUCU       00000002013/09/12            F01   0000
0074068801095395302013-09-12000000COMPRA FONDOS INVERSION       10000092796502.39MXP000000000OPERADO EN CANAL:  SUCU       00000002013/09/12            F01   0000
0074068801095395302013-09-12000000SALDO ULTIMA TRANS            20000014222619.34MXP000000000                              00000002013/09/12                  0000
0074068801095395302013-09-11313924CE09029802204016320060214590  00000000001500.00MXP000000000JUAN ARISTEO RAMIREZ VALDES   00000002013/09/11            Y15   0000
0074068801095395302013-09-11313384CE09029802204016320060218179  00000000001500.00MXP000000000JUAN ARISTEO RAMIREZ VALDEZ   00000002013/09/11            Y15   0000
0074068801095395302013-09-11303903CE195069220508612013001ESC95  00000000003000.00MXP000000000663871                        00000002013/09/11            Y15   0000
0074068801095395302013-09-11281051CE09029804081121520130025130  00000000001200.00MXP000000000VICTOR MANUEL CHAMOL RAMOS    00000002013/09/11            Y15   0000
0074068801095395302013-09-11258782CE195069110304332013001ESC95  00000000003707.70MXP000000000662893                        00000002013/09/11            Y15   0000
0074068801095395302013-09-11256182CE09029801101073020090024063  00000000002000.00MXP000000000ANA MARIA DE LOS ANGELES LOPEZ00000002013/09/11            Y15   0000
0074068801095395302013-09-11252009CE09029804070185620050207720  00000000001000.00MXP000000000RAFAEL RAMIREZ ESPINOZA       00000002013/09/11            Y15   0000
0074068801095395302013-09-11231078CE09029804050108320130025137  00000000040000.00MXP000000000RICARDO ROJAS MIHUALTECATL    00000002013/09/11            Y15   0000
0074068801095395302013-09-11228675CE195069110201762012001ESC95  00000000013350.00MXP000000000594876                        00000002013/09/11            Y15   0000
0074068801095395302013-09-11225457CE195069220615552011001ESC95  00000000003168.00MXP000000000656871                        00000002013/09/11            Y15   0000
0074068801095395302013-09-11218402CE09029804070198119940207771  00000000003000.00MXP000000000AMADO CRUZ BAUTISTA           00000002013/09/11            Y15   0000
0074068801095395302013-09-11214112CE09029804070040020130201808  00000000000500.00MXP000000000ARLETE COMPEAN MARTINEZ       00000002013/09/11            Y15   0000
0074068801095395302013-09-11211433CE195069220215572006001ESC95  00000000005317.20MXP000000000664813                        00000002013/09/11            Y15   0000
0074068801095395302013-09-11204637CE195069110310232012001ESC95  00000000012443.17MXP000000000664832                        00000002013/09/11            Y05   0000
0074068801095395302013-09-11203623CE195069110310242012001ESC95  00000000012156.15MXP000000000661806                        00000002013/09/11            Y05   0000
0074068801095395302013-09-11197761CE195069220202362013001ESC95  00000000001200.00MXP000000000667887                        00000002013/09/11            Y15   0000
0074068801095395302013-09-11193638CE09029802204036520010200211  00000000000400.00MXP000000000JESUS ORTIZ GUARNEROS         00000002013/09/11            Y15   0000
0074068801095395302013-09-11189392CE09029801101032020110040396  00000000049433.15MXP000000000MONTE PIO LUZ SAVI#ON I.A.P.  00000002013/09/11            Y05   0000
0074068801095395302013-09-11188373CE195069220415132012002ESC95  00000000003874.66MXP000000000650814                        00000002013/09/11            Y15   0000
0074068801095395302013-09-11176549CE195069220106912007001ESC95  00000000007672.50MXP000000000661863                        00000002013/09/11            Y15   0000
0074068801095395302013-09-11031909CARGO CHEQUE                  10000000004200.00MXP000000000C000031909ECTIVO              00000002013/09/11            C03   0000
0074068801095395302013-09-11031905CARGO CHEQUE                  10000000075840.00MXP000000000C000031905                    00000002013/09/11            C03   0000
0074068801095395302013-09-11031903CARGO CHEQUE                  10000000005000.00MXP000000000C000031903ECTIVO              00000002013/09/11            C03   0000
0074068801095395302013-09-11031890CARGO CHEQUE                  10000000000800.00MXP000000000C000031890ECTIVO              00000002013/09/11            C03   0000
0074068801095395302013-09-11031888CARGO CHEQUE                  10000000006000.00MXP000000000C000031888ECTIVO              00000002013/09/11            C03   0000
0074068801095395302013-09-11031877CARGO CHEQUE                  10000000003544.80MXP000000000C000031877ECTIVO              00000002013/09/11            C03   0000
0074068801095395302013-09-11031873CARGO CHEQUE                  10000000003000.00MXP000000000C000031873ECTIVO              00000002013/09/11            C03   0000
0074068801095395302013-09-11031859CARGO CHEQUE                  10000000009000.00MXP000000000C000031859ECTIVO              00000002013/09/11            C03   0000
0074068801095395302013-09-11031857CARGO CHEQUE                  10000000009000.00MXP000000000C000031857ECTIVO              00000002013/09/11            C03   0000
0074068801095395302013-09-11031835CARGO CHEQUE                  10000000005000.00MXP000000000C000031835                    00000002013/09/11            C03   0000
0074068801095395302013-09-11000000SALDO ULTIMA TRANS            20000014568039.76MXP000000000                              00000002013/09/11                  0000
0074068801095395302013-09-10479459CE09029804072001420120021880  00000000008694.76MXP000000000FERNANDO RIVERA GARCIA        00000002013/09/10            Y15   0000
0074068801095395302013-09-10478208CE195069220111392013001ESC95  00000000001800.00MXP000000000655876                        00000002013/09/10            Y15   0000
0074068801095395302013-09-10461761CE195069220312682009001ESC95  00000000003069.00MXP000000000654831                        00000002013/09/10            Y15   0000
0074068801095395302013-09-10460507CE09029804081146020110205779  00000000001650.00MXP000000000JESUS ELIAS DOMINGUEZ RAMOS   00000002013/09/10            Y15   0000
0074068801095395302013-09-10459059CE195069110713652011001ESC95  00000000003000.00MXP000000000583818                        00000002013/09/10            Y15   0000
0074068801095395302013-09-10444283CE195069220116192006001ESC95  00000000001500.00MXP000000000656885                        00000002013/09/10            Y15   0000
0074068801095395302013-09-10433902CE195069220311532013001ESC95  00000000000500.00MXP000000000655854                        00000002013/09/10            Y15   0000
0074068801095395302013-09-10431018CE195069220104722012001ESC95  00000000001000.00MXP000000000641801                        00000002013/09/10            Y15   0000
0074068801095395302013-09-10422997CE195069110711222009001ESC95  00000000010176.21MXP000000000648806                        00000002013/09/10            Y15   0000
0074068801095395302013-09-10413203CE195069220415132012001ESC95  00000000001450.78MXP000000000645839                        00000002013/09/10            Y15   0000
0074068801095395302013-09-10413119CE09029804180058720120023312  00000000000500.00MXP000000000ISABEL AGUSTIN MENDEZ         00000002013/09/10            Y15   0000
0074068801095395302013-09-10412694CE09029804180060620120026867  00000000001500.00MXP000000000TOMAS BAUTISTA MARTINEZ       00000002013/09/10            Y15   0000
0074068801095395302013-09-10412167CE09029804180058320120025779  00000000001000.00MXP000000000OLEGARIO MEZA LARA            00000002013/09/10            Y15   0000
0074068801095395302013-09-10411648CE09029804180060920120027828  00000000000500.00MXP000000000BERNARDINO HERNANDEZ MARTINEZ 00000002013/09/10            Y15   0000
0074068801095395302013-09-10411152CE09029804180058120120027308  00000000001000.00MXP000000000ABUNDIO CHAVEZ JIMENEZ        00000002013/09/10            Y15   0000
0074068801095395302013-09-10410690CE09029804180058420120022311  00000000000500.00MXP000000000ALEJANDRO RAMIREZ ESTEFIS     00000002013/09/10            Y15   0000
0074068801095395302013-09-10410190CE09029804180058620120020872  00000000000500.00MXP000000000SERGIO ESPINOZA CHAVARRIA     00000002013/09/10            Y15   0000
0074068801095395302013-09-10409313CE195069220609532012001ESC95  00000000003544.80MXP000000000654889                        00000002013/09/10            Y15   0000
0074068801095395302013-09-10101974SPEI RECIBIDO    0000001      00000000072200.00MXP000000000TRASP POR CORRECC SUFICIENCIA 00000002013/09/10            T20   0000
0074068801095395302013-09-10100929SPEI ENVIADO                  10000000004000.00MXP0000000000000905SUFICIENCIA DE FONDOS  00000002013/09/10            T17   0000
0074068801095395302013-09-10098117SPEI RECIBIDO    0000001      00000000333955.24MXP000000000TRASP POR CORRECC SUFICIENCIA 00000002013/09/10            T20   0000
0074068801095395302013-09-10096625SPEI RECIBIDO    0000001      00000000004000.00MXP000000000TRASP POR CORRECC SUFICIENCIA 00000002013/09/10            T20   0000
0074068801095395302013-09-10081871CE195069111207642011001ESC95  00000000006276.68MXP000000000591807                        00000002013/09/10            Y15   0000
0074068801095395302013-09-10081107CE195069111205782011001ESC95  00000000018816.10MXP000000000595890                        00000002013/09/10            Y15   0000
0074068801095395302013-09-10075050CE195069220409002012001ESC95  00000000000800.00MXP000000000654840                        00000002013/09/10            Y15   0000
0074068801095395302013-09-10056378CE195069220513752011001ESC95  00000000005000.00MXP000000000605855                        00000002013/09/10            Y15   0000
0074068801095395302013-09-10045574CE09029804090012020130205132  00000000001500.00MXP000000000JAVIER MACIAS SANCHEZ         00000002013/09/10            Y15   0000
0074068801095395302013-09-10036520CE195069220114892012001ESC95  00000000000541.41MXP000000000653878                        00000002013/09/10            Y15   0000
0074068801095395302013-09-10031900CARGO CHEQUE                  10000000004700.00MXP000000000C000031900ECTIVO              00000002013/09/10            C03   0000
0074068801095395302013-09-10031896CARGO CHEQUE                  10000000001200.00MXP000000000C000031896ECTIVO              00000002013/09/10            C03   0000
0074068801095395302013-09-10031862CARGO CHEQUE                  10000000007365.60MXP000000000C000031862ECTIVO              00000002013/09/10            C03   0000
0074068801095395302013-09-10031711CARGO CHEQUE                  10000000003069.00MXP000000000C000031711 DE DEPOSITO:RIGB71000000002013/09/10            C03   0000
0074068801095395302013-09-10030078CE09029804081059920130205136  00000000001860.00MXP000000000JORGE BAHENA CORIA            00000002013/09/10            Y15   0000
0074068801095395302013-09-10021684CE09029804053020320130025482  00000000020000.00MXP000000000ELIAS RICO GONZALEZ           00000002013/09/10            Y15   0000
0074068801095395302013-09-10014577CE195069220401882011002ESC95  00000000003000.00MXP000000000653824                        00000002013/09/10            Y15   0000
0074068801095395302013-09-10013881CE195069220401882011001ESC95  00000000003000.00MXP000000000653801                        00000002013/09/10            Y15   0000
0074068801095395302013-09-10003640CE195069110506572010001ESC95  00000000038144.35MXP000000000648838                        00000002013/09/10            Y05   0000
0074068801095395302013-09-10000000SALDO ULTIMA TRANS            20000014523002.03MXP000000000                              00000002013/09/10                  0000
0074068801095395302013-09-09406487CC15173801105069420100991805  00000000001184.32MXP000000000ISSSTEP                       00000002013/09/06            Y02   0000
0074068801095395302013-09-09405991CC15173801105069420100999642  00000000001184.32MXP000000000ISSSTEP                       00000002013/09/06            Y02   0000
0074068801095395302013-09-09405460CC15173801105069420100991888  00000000001184.32MXP000000000ISSSTEP                       00000002013/09/06            Y02   0000
0074068801095395302013-09-09343672CE195069220301312001001ESC95  00000000000800.00MXP000000000644882                        00000002013/09/09            Y15   0000
0074068801095395302013-09-09327636CE195069110900362012001ESC95  00000000005000.00MXP000000000645813                        00000002013/09/09            Y15   0000
0074068801095395302013-09-09327428CE195069220410482013001ESC95  00000000001249.25MXP000000000645877                        00000002013/09/09            Y15   0000
0074068801095395302013-09-09294458CE195069110905962012001ESC95  00000000039835.63MXP000000000649868                        00000002013/09/09            Y05   0000
0074068801095395302013-09-09291370CE195069110510422012001ESC95  00000000020450.78MXP000000000648893                        00000002013/09/09            Y05   0000
0074068801095395302013-09-09290188CE195069220414882007001ESC95  00000000000900.00MXP000000000647805                        00000002013/09/09            Y15   0000
0074068801095395302013-09-09280912CE195069220316422006001ESC95  00000000002000.00MXP000000000642895                        00000002013/09/09            Y15   0000
0074068801095395302013-09-09268642CE195069220519072003001ESC95  00000000003360.00MXP000000000644849                        00000002013/09/09            Y15   0000
0074068801095395302013-09-09264850CE09029804050124720080200822  00000000000800.00MXP000000000MARCOS COYOTECATL AZUCENA     00000002013/09/09            Y15   0000
0074068801095395302013-09-09258270CE09029804072077920120020872  00000000048117.36MXP000000000ANDY DE JESUS SANCHEZ GARCIA  00000002013/09/09            Y15   0000
0074068801095395302013-09-09246940CE09029804090177820040201886  00000000000600.00MXP000000000JULIO MARTINIANO CUELLAR      00000002013/09/09            Y15   0000
0074068801095395302013-09-09209181CE09029802204151320120023317  00000000001138.61MXP000000000RUBEN JULIO AQUINO BECERRIL   00000002013/09/09            Y15   0000
0074068801095395302013-09-09207229CE195069110903192009001ESC95  00000000107184.00MXP000000000603881                        00000002013/09/09            Y15   0000
0074068801095395302013-09-09202108CE195069110903192009002ESC95  00000000010718.00MXP000000000603807                        00000002013/09/09            Y15   0000
0074068801095395302013-09-09198137CE195069220311132012001ESC95  00000000003069.00MXP000000000614882                        00000002013/09/09            Y15   0000
0074068801095395302013-09-09180390CE195069220110892011003ESC95  00000000003544.80MXP000000000644827                        00000002013/09/09            Y15   0000
0074068801095395302013-09-09174293CE195069220313242012001ESC95  00000000000320.00MXP000000000643891                        00000002013/09/09            Y15   0000
0074068801095395302013-09-09166113CE195069220502372008001ESC95  00000000004000.00MXP000000000614875                        00000002013/09/09            Y15   0000
0074068801095395302013-09-09153933CE195069220108122010001ESC95  00000000003000.00MXP000000000613813                        00000002013/09/09            Y15   0000
0074068801095395302013-09-09150507CE09029804131188020120205480  00000000001600.00MXP000000000BERNARDO MARTINEZ RAMIREZ     00000002013/09/09            Y15   0000
0074068801095395302013-09-09146873CE09029804050163220110025481  00000000004500.00MXP000000000PIEDAD GONZALEZ PEREZ         00000002013/09/09            Y15   0000
0074068801095395302013-09-09074820CE195069220603942010001ESC95  00000000001540.00MXP000000000594871                        00000002013/09/07            Y15   0000
0074068801095395302013-09-09031875CARGO CHEQUE                  10000000006000.00MXP000000000C000031875ECTIVO              00000002013/09/09            C03   0000
0074068801095395302013-09-09031866CARGO CHEQUE                  10000000004000.00MXP000000000C000031866ECTIVO              00000002013/09/09            C03   0000
0074068801095395302013-09-09031851CARGO CHEQUE                  10000000004000.00MXP000000000C000031851ECTIVO              00000002013/09/09            C03   0000
0074068801095395302013-09-09031843CARGO CHEQUE                  10000000001000.00MXP000000000C000031843ECTIVO              00000002013/09/09            C03   0000
0074068801095395302013-09-09031785CARGO CHEQUE                  10000000005000.00MXP000000000C000031785ECTIVO              00000002013/09/09            C03   0000
0074068801095395302013-09-09000000DEPOSITO DE INVERSION         00000070029973.74MXP000000000                              00000002013/09/09            I01   0000
0074068801095395302013-09-09000000COMPRA FONDOS INVERSION       10000059208308.54MXP000000000OPERADO EN CANAL:  SUCU       00000002013/09/09            F01   0000
0074068801095395302013-09-09000000SALDO ULTIMA TRANS            20000013992357.30MXP000000000                              00000002013/09/09                  0000
0074068801095395302013-09-06479862CE09029804053029720130205482  00000000002000.00MXP000000000HUMBERTO FLORES GARCIA        00000002013/09/06            Y15   0000
0074068801095395302013-09-06479856CE195069220512512006001ESC95  00000000002554.00MXP000000000616846                        00000002013/09/06            Y15   0000
0074068801095395302013-09-06476489CE195069220602052013001ESC95  00000000001000.00MXP000000000611801                        00000002013/09/06            Y15   0000
0074068801095395302013-09-06462437CE09029804050045320130204357  00000000003000.00MXP000000000ALEJANDRO ULISES GONZALES SOSA00000002013/09/06            Y15   0000
0074068801095395302013-09-06446613CE195069220102192011001ESC95  00000000000850.00MXP000000000619885                        00000002013/09/06            Y15   0000
0074068801095395302013-09-06410666CE09029802203038820100995138  00000000194813.50MXP000000000VOLKSWAGEN DE MEXICO S.A DE C.00000002013/09/06            Y05   0000
0074068801095395302013-09-06400880CE195069220610832012001ESC95  00000000001841.40MXP000000000606830                        00000002013/09/06            Y15   0000
0074068801095395302013-09-06394930CE195069110411002012001ESC95  00000000029150.98MXP000000000614801                        00000002013/09/06            Y05   0000
0074068801095395302013-09-06394309CE09029804050060920130206862  00000000008000.00MXP000000000JUAN MANUEL CARNEJO VELA      00000002013/09/06            Y15   0000
0074068801095395302013-09-06394261CE195069111208512012001ESC95  00000000011909.68MXP000000000618858                        00000002013/09/06            Y05   0000
0074068801095395302013-09-06393606CE195069111204932012001ESC95  00000000018910.55MXP000000000619889                        00000002013/09/06            Y05   0000
0074068801095395302013-09-06392750CE195069220110892011002ESC95  00000000003544.80MXP000000000614850                        00000002013/09/06            Y15   0000
0074068801095395302013-09-06391797CE09029804050078320120208061  00000000002000.00MXP000000000FRANCISCO JAVIER DIJARD CERVAN00000002013/09/06            Y15   0000
0074068801095395302013-09-06388003CE09029804120012220130200878  00000000004096.60MXP000000000ARTEMIO RAMOS ZEPEDA          00000002013/09/06            Y15   0000
0074068801095395302013-09-06387216CE09029804120128020120205130  00000000001200.00MXP000000000LEONARDO DELFINO VAZQUEZ LERDO00000002013/09/06            Y15   0000
0074068801095395302013-09-06383738CE09029804051088320110205131  00000000000600.00MXP000000000HUMBERTO TLAXCALTECATL HERNAND00000002013/09/06            Y15   0000
0074068801095395302013-09-06376640CE09029802204139120030209627  00000000002500.00MXP000000000ROBERTO AYERDI AGUILAR        00000002013/09/06            Y15   0000
0074068801095395302013-09-06372531CE195069110109692012001ESC95  00000000005000.00MXP000000000615838                        00000002013/09/06            Y15   0000
0074068801095395302013-09-06366918CE09029804120024820130205482  00000000004000.00MXP000000000L. CARIDAD CARMONA AGUILERA   00000002013/09/06            Y15   0000
0074068801095395302013-09-06349124CE195069220215312002001ESC95  00000000000450.00MXP000000000617878                        00000002013/09/06            Y15   0000
0074068801095395302013-09-06344288CE195069110206362011001ESC95  00000000002480.00MXP000000000600894                        00000002013/09/06            Y15   0000
0074068801095395302013-09-06342310CE09029804090006320080209441  00000000002337.75MXP000000000JOSE ALBERTO LIMA PRADO       00000002013/09/06            Y15   0000
0074068801095395302013-09-06340234CE195069220311462013001ESC95  00000000007300.00MXP000000000616821                        00000002013/09/06            Y15   0000
0074068801095395302013-09-06333150CE09029804050021120020208171  00000000003000.00MXP000000000FELIPE OLIVARES ARROYO        00000002013/09/06            Y15   0000
0074068801095395302013-09-06331017CE09029804070017820130205488  00000000003000.00MXP000000000JAVIER MORATO CASTRO          00000002013/09/06            Y01   0000
0074068801095395302013-09-06328767CE09029804120157120120207823  00000000000600.00MXP000000000MANUEL SANCHEZ BLANCO         00000002013/09/06            Y15   0000
0074068801095395302013-09-06327108CE195069220200342003001ESC95  00000000000800.00MXP000000000614874                        00000002013/09/06            Y15   0000
0074068801095395302013-09-06310823CE195069220605192010001ESC95  00000000001700.00MXP000000000612889                        00000002013/09/06            Y15   0000
0074068801095395302013-09-06305228CE09029804070010920070203183  00000000000100.00MXP000000000JAVIER RIOS DELGADILLO        00000002013/09/06            Y15   0000
0074068801095395302013-09-06301586CE195069110207472013001ESC95  00000000005861.64MXP000000000588810                        00000002013/09/06            Y15   0000
0074068801095395302013-09-06301019CE195069220207042005001ESC95  00000000003683.00MXP000000000610841                        00000002013/09/06            Y15   0000
0074068801095395302013-09-06297400CE195069220317362003001ESC95  00000000001500.00MXP000000000606882                        00000002013/09/06            Y15   0000
0074068801095395302013-09-06158302SPEI RECIBIDO    0000006      00000070008096.21MXP000000000TRASPASO A BANCOMER INVERSION 00000002013/09/06            T20   0000
0074068801095395302013-09-06031868CARGO CHEQUE                  10000000001040.00MXP000000000C000031868ECTIVO              00000002013/09/06            C03   0000
0074068801095395302013-09-06031867CARGO CHEQUE                  10000000005360.00MXP000000000C000031867ECTIVO              00000002013/09/06            C03   0000
0074068801095395302013-09-06031863CARGO CHEQUE                  10000000002650.00MXP000000000C000031863ECTIVO              00000002013/09/06            C03   0000
0074068801095395302013-09-06031861CARGO CHEQUE                  10000000004396.57MXP000000000C000031861ECTIVO              00000002013/09/06            C03   0000
0074068801095395302013-09-06031856CARGO CHEQUE                  10000000001200.00MXP000000000C000031856ECTIVO              00000002013/09/06            C03   0000
0074068801095395302013-09-06031855CARGO CHEQUE                  10000000001400.00MXP000000000C000031855ECTIVO              00000002013/09/06            C03   0000
0074068801095395302013-09-06031841CARGO CHEQUE                  10000000002400.00MXP000000000C000031841ECTIVO              00000002013/09/06            C03   0000
0074068801095395302013-09-06031840CARGO CHEQUE                  10000000003000.00MXP000000000C000031840ECTIVO              00000002013/09/06            C03   0000
0074068801095395302013-09-06031838CARGO CHEQUE                  10000000002000.00MXP000000000C000031838ECTIVO              00000002013/09/06            C03   0000
0074068801095395302013-09-06031837CARGO CHEQUE                  10000000010760.00MXP000000000C000031837ECTIVO              00000002013/09/06            C03   0000
0074068801095395302013-09-06031832CARGO CHEQUE                  10000000001400.00MXP000000000C000031832ECTIVO              00000002013/09/06            C03   0000
0074068801095395302013-09-06031826CARGO CHEQUE                  10000000041044.67MXP000000000C000031826 DE DEPOSITO:MABE62000000002013/09/06            C03   0000
0074068801095395302013-09-06031825CARGO CHEQUE                  10000000002800.00MXP000000000C000031825ECTIVO              00000002013/09/06            C03   0000
0074068801095395302013-09-06031804CARGO CHEQUE                  10000000034400.00MXP000000000C000031804ECTIVO              00000002013/09/06            C03   0000
0074068801095395302013-09-06031803CARGO CHEQUE                  10000000013970.00MXP000000000C000031803ECTIVO              00000002013/09/06            C03   0000
0074068801095395302013-09-06031797CARGO CHEQUE                  10000000002000.00MXP000000000C000031797ECTIVO              00000002013/09/06            C03   0000
0074068801095395302013-09-06031791CARGO CHEQUE                  10000000006624.00MXP000000000C000031791ECTIVO              00000002013/09/06            C03   0000
0074068801095395302013-09-06031770CARGO CHEQUE                  10000000001000.00MXP000000000C000031770ECTIVO              00000002013/09/06            C03   0000
0074068801095395302013-09-06031727CARGO CHEQUE                  10000000003000.00MXP000000000C000031727ECTIVO              00000002013/09/06            C03   0000
0074068801095395302013-09-06010476CE09029804050174420110025138  00000000003200.00MXP000000000JAIME MARGARITO RODRIGUEZ MEZA00000002013/09/06            Y15   0000
0074068801095395302013-09-06000000APERTURA DE INVERSION         10000070008096.21MXP000000000                              00000002013/09/06            I02   0000
0074068801095395302013-09-06000000SALDO ULTIMA TRANS            20000002923411.71MXP000000000                              00000002013/09/06                  0000
0074068801095395302013-09-04494681CE195069110804812012001ESC95  00000000001500.00MXP000000000586863                        00000002013/09/04            Y15   0000
0074068801095395302013-09-04470241CE195069110204212013001ESC95  00000000005800.00MXP000000000599865                        00000002013/09/04            Y15   0000
0074068801095395302013-09-04461245CE195069220403322013001ESC95  00000000003000.00MXP000000000583839                        00000002013/09/04            Y15   0000
0074068801095395302013-09-04450735CE195069110306682013001ESC95  00000000001360.00MXP000000000592885                        00000002013/09/04            Y15   0000
0074068801095395302013-09-04446890CE195069220404942013001ESC95  00000000001200.00MXP000000000587844                        00000002013/09/04            Y15   0000
0074068801095395302013-09-04441769CE195069220308362004001ESC95  00000000002253.31MXP000000000592880                        00000002013/09/04            Y15   0000
0074068801095395302013-09-04407434CE195069110108592013001ESC95  00000000007200.00MXP000000000583893                        00000002013/09/04            Y15   0000
0074068801095395302013-09-04386743CE195069220114062008001ESC95  00000000001000.00MXP000000000591809                        00000002013/09/04            Y15   0000
0074068801095395302013-09-04383387CE195069220213092011001ESC95  00000000010819.23MXP000000000594876                        00000002013/09/04            Y05   0000
0074068801095395302013-09-04369721CE195069220401432013001ESC95  00000000008000.00MXP000000000588896                        00000002013/09/04            Y15   0000
0074068801095395302013-09-04367684CE09029804131131520130020827  00000000003500.00MXP000000000LUIS SOLEDAD SANCHEZ          00000002013/09/04            Y15   0000
0074068801095395302013-09-04361607CE195069220503592009001ESC95  00000000002000.00MXP000000000592868                        00000002013/09/04            Y15   0000
0074068801095395302013-09-04361296CE195069220409122006001ESC95  00000000000238.00MXP000000000595897                        00000002013/09/04            Y15   0000
0074068801095395302013-09-04360799CE195069220106572013001ESC95  00000000004500.00MXP000000000599863                        00000002013/09/04            Y15   0000
0074068801095395302013-09-04358382CE09029804131032320100202319  00000000001500.00MXP000000000LEONEL HERNANDEZ MENDOZA      00000002013/09/04            Y15   0000
0074068801095395302013-09-04351903CE195069220611232010001ESC95  00000000000500.00MXP000000000595834                        00000002013/09/04            Y15   0000
0074068801095395302013-09-04350702CE09029804081102920100208711  00000000001773.00MXP000000000TOMAS QUIROZ FLORES           00000002013/09/04            Y15   0000
0074068801095395302013-09-04349321CE195069220508012013001ESC95  00000000007000.00MXP000000000597853                        00000002013/09/04            Y15   0000
0074068801095395302013-09-04339405CE09029801102059020110042315  00000000004000.00MXP000000000ALEJANDRO ROJAS LUNA          00000002013/09/04            Y15   0000
0074068801095395302013-09-04338721CE195069220216582001001ESC95  00000000004000.00MXP000000000594889                        00000002013/09/04            Y15   0000
0074068801095395302013-09-04337488CE195069220302162010001ESC95  00000000008000.00MXP000000000598858                        00000002013/09/04            Y01   0000
0074068801095395302013-09-04331581CE09029802204168320090205135  00000000001400.00MXP000000000JOSE ALFREDO CARAM GONZALEZ   00000002013/09/04            Y15   0000
0074068801095395302013-09-04330915CE09029801102017620120047302  00000000013350.00MXP000000000DESARROLLO COMERCIAL DE TIERRA00000002013/09/04            Y15   0000
0074068801095395302013-09-04328063CE09029804120066720120200460  00000000000900.00MXP000000000GUADALUPE LILIA SANCHEZ ALCANT00000002013/09/04            Y15   0000
0074068801095395302013-09-04327888CE195069220102501991001ESC95  00000000000300.00MXP000000000589896                        00000002013/09/04            Y15   0000
0074068801095395302013-09-04315133CE09029804140009220120025130  00000000000500.00MXP000000000LUIS DELFINO FLORES VAZQUEZ   00000002013/09/04            Y15   0000
0074068801095395302013-09-04314292CE09029804131108320030207395  00000000000750.00MXP000000000RODRIGO CAMPOS VALLEJO        00000002013/09/04            Y15   0000
0074068801095395302013-09-04308076CE09029804050033520130205486  00000000001200.00MXP000000000FACUNDO EDGAR VELAZQUEZ ALMEID00000002013/09/04            Y15   0000
0074068801095395302013-09-04306175CE09029802203019220110205326  00000000002500.00MXP000000000JOSE ARTURO RAMIREZ GONZALEZ  00000002013/09/04            Y15   0000
0074068801095395302013-09-04302955CE195069220217242000001ESC95  00000000003900.00MXP000000000580816                        00000002013/09/04            Y15   0000
0074068801095395302013-09-04288983CE195069220311262013001ESC95  00000000001000.00MXP000000000591839                        00000002013/09/04            Y15   0000
0074068801095395302013-09-04286350CE195069220300582010001ESC95  00000000001181.60MXP000000000599830                        00000002013/09/04            Y15   0000
0074068801095395302013-09-04284674CE09029802204164020120203316  00000000001000.00MXP000000000HECTOR HUGO VAZQUEZ MARTINEZ  00000002013/09/04            Y15   0000
0074068801095395302013-09-04079575CC15173802203146320090995486  00000000095815.66MXP000000000AUTOTEK INDUSTRIAL DE MEXICO S00000002013/09/03            Y02   0000
0074068801095395302013-09-04078835CC15173801112075420080995774  00000000001200.00MXP000000000INST MEXICANO DEL SEGURO SOCIA00000002013/09/03            Y02   0000
0074068801095395302013-09-04078207CC15173801112075420080997820  00000000001200.00MXP000000000INST MEXICANO DEL SEGURO SOCIA00000002013/09/03            Y02   0000
0074068801095395302013-09-04077357CC15173801112075420080996863  00000000001200.00MXP000000000INST MEXICANO DEL SEGURO SOCIA00000002013/09/03            Y02   0000
0074068801095395302013-09-04075178CC15173801112149520090995482  00000000017928.01MXP000000000SECRETARIA DE FINANZAS Y ADMIN00000002013/09/03            Y02   0000
0074068801095395302013-09-04031847CARGO CHEQUE                  10000000006000.00MXP000000000C000031847ECTIVO              00000002013/09/04            C03   0000
0074068801095395302013-09-04031831CARGO CHEQUE                  10000000005000.00MXP000000000C000031831ECTIVO              00000002013/09/04            C03   0000
0074068801095395302013-09-04031818CARGO CHEQUE                  10000000008169.00MXP000000000C000031818                    00000002013/09/04            C03   0000
0074068801095395302013-09-04031806CARGO CHEQUE                  10000000041700.00MXP000000000C000031806                    00000002013/09/04            C03   0000
0074068801095395302013-09-04031790CARGO CHEQUE                  10000000006000.00MXP000000000C000031790                    00000002013/09/04            C03   0000
0074068801095395302013-09-04031776CARGO CHEQUE                  10000000004587.00MXP000000000C000031776ECTIVO              00000002013/09/04            C03   0000
0074068801095395302013-09-04031759CARGO CHEQUE                  10000000004000.00MXP000000000C000031759ECTIVO              00000002013/09/04            C03   0000
0074068801095395302013-09-04031754CARGO CHEQUE                  10000000056100.00MXP000000000C000031754ECTIVO              00000002013/09/04            C03   0000
0074068801095395302013-09-04000000SALDO ULTIMA TRANS            20000005880278.08MXP000000000                              00000002013/09/04                  0000
0074068801095395302013-09-03496465CE09029804090063020120204358  00000000005301.03MXP000000000JOSE FLORENTINO LUNA MORALES  00000002013/09/03            Y15   0000
0074068801095395302013-09-03492659CE195069220215562007001ESC95  00000000000594.00MXP000000000582806                        00000002013/09/03            Y15   0000
0074068801095395302013-09-03227354CE195069220608052009001ESC95  00000000003000.00MXP000000000573816                        00000002013/09/03            Y15   0000
0074068801095395302013-09-03191900CE09029804070114920110125482  00000000004000.00MXP000000000ANSELMO MORALES LOYOLA        00000002013/09/03            Y15   0000
0074068801095395302013-09-03172579CE195069220208672013001ESC95  00000000001000.00MXP000000000581808                        00000002013/09/03            Y15   0000
0074068801095395302013-09-03172551CE195069220114792008001ESC95  00000000004000.00MXP000000000584892                        00000002013/09/03            Y15   0000
0074068801095395302013-09-03169433CE195069220100502012001ESC95  00000000003544.80MXP000000000584850                        00000002013/09/03            Y15   0000
0074068801095395302013-09-03159566CE195069220413522009001ESC95  00000000001908.00MXP000000000586824                        00000002013/09/03            Y15   0000
0074068801095395302013-09-03155687CE195069220109932004001ESC95  00000000001350.00MXP000000000585865                        00000002013/09/03            Y15   0000
0074068801095395302013-09-03155054CE195069220306512005001ESC95  00000000002000.00MXP000000000582811                        00000002013/09/03            Y15   0000
0074068801095395302013-09-03121143CE195069220215662001001ESC95  00000000000500.00MXP000000000585857                        00000002013/09/03            Y15   0000
0074068801095395302013-09-03106245CE195069220611182013001ESC95  00000000002000.00MXP000000000572860                        00000002013/09/03            Y15   0000
0074068801095395302013-09-03099756CE195069220110892011001ESC95  00000000003544.80MXP000000000584830                        00000002013/09/03            Y15   0000
0074068801095395302013-09-03094245CE195069220106162006001ESC95  00000000002723.00MXP000000000580874                        00000002013/09/03            Y15   0000
0074068801095395302013-09-03092633CE195069110109482012001ESC95  00000000003500.00MXP000000000578816                        00000002013/09/03            Y15   0000
0074068801095395302013-09-03089448CE09029804131013020090202492  00000000002000.00MXP000000000RAMON MARIO CARVAJAL RAMOS    00000002013/09/03            Y15   0000
0074068801095395302013-09-03084294CE195069220614012011001ESC95  00000000004000.00MXP000000000584818                        00000002013/09/03            Y15   0000
0074068801095395302013-09-03077246CE195069220105702008001ESC95  00000000005524.20MXP000000000584868                        00000002013/09/03            Y15   0000
0074068801095395302013-09-03076389CE09029802206028420130995136  00000000005889.13MXP000000000CAMINOS Y PUENTES FEDERALES DE00000002013/09/03            Y05   0000
0074068801095395302013-09-03075797CE09029804050234219960993314  00000000140892.66MXP000000000VOLKSWAGEN DE MEXICO S.A DE C.00000002013/09/03            Y05   0000
0074068801095395302013-09-03073818CE195069220608872010001ESC95  00000000001000.00MXP000000000571818                        00000002013/09/03            Y15   0000
0074068801095395302013-09-03069007CE09029802204072520020203283  00000000000680.00MXP000000000GABRIEL ROJAS MARTINEZ        00000002013/09/03            Y15   0000
0074068801095395302013-09-03065781CE195069220212842004001ESC95  00000000004506.29MXP000000000584846                        00000002013/09/03            Y15   0000
0074068801095395302013-09-03054575CE195069220306492013001ESC95  00000000001500.00MXP000000000586838                        00000002013/09/03            Y15   0000
0074068801095395302013-09-03031846CARGO CHEQUE                  10000000006240.00MXP000000000C000031846ECTIVO              00000002013/09/03            C03   0000
0074068801095395302013-09-03031845CARGO CHEQUE                  10000000002034.00MXP000000000C000031845ECTIVO              00000002013/09/03            C03   0000
0074068801095395302013-09-03031844CARGO CHEQUE                  10000000002712.00MXP000000000C000031844ECTIVO              00000002013/09/03            C03   0000
0074068801095395302013-09-03031834CARGO CHEQUE                  10000000004297.00MXP000000000C000031834ECTIVO              00000002013/09/03            C03   0000
0074068801095395302013-09-03031820CARGO CHEQUE                  10000000003000.00MXP000000000C000031820ECTIVO              00000002013/09/03            C03   0000
0074068801095395302013-09-03031819CARGO CHEQUE                  10000000001400.00MXP000000000C000031819ECTIVO              00000002013/09/03            C03   0000
0074068801095395302013-09-03031817CARGO CHEQUE                  10000000006000.00MXP000000000C000031817 DE DEPOSITO:RFC NO 00000002013/09/03            C03   0000
0074068801095395302013-09-03031812CARGO CHEQUE                  10000000019836.07MXP000000000C000031812                    00000002013/09/03            C03   0000
0074068801095395302013-09-03031807CARGO CHEQUE                  10000000010800.00MXP000000000C000031807ECTIVO              00000002013/09/03            C03   0000
0074068801095395302013-09-03031788CARGO CHEQUE                  10000000060000.00MXP000000000C000031788 DE DEPOSITO:TOBJ94000000002013/09/03            C03   0000
0074068801095395302013-09-03031760CARGO CHEQUE                  10000000005000.00MXP000000000C000031760ECTIVO              00000002013/09/03            C03   0000
0074068801095395302013-09-03031720CARGO CHEQUE                  10000000000850.00MXP000000000C000031720ECTIVO              00000002013/09/03            C03   0000
0074068801095395302013-09-03025104CE195069220308542013001ESC95  00000000000500.00MXP000000000585815                        00000002013/09/03            Y15   0000
0074068801095395302013-09-03023095CE195069220305712008001ESC95  00000000000700.00MXP000000000581864                        00000002013/09/03            Y15   0000
0074068801095395302013-09-03006521CE195069220406562011001ESC95  00000000002895.00MXP000000000584864                        00000002013/09/03            Y15   0000
0074068801095395302013-09-03000400CE195069220608482009001ESC95  00000000012494.41MXP000000000587895                        00000002013/09/03            Y15   0000
0074068801095395302013-09-03000000SALDO ULTIMA TRANS            20000005787365.27MXP000000000                              00000002013/09/03                  0000
0074068801095395302013-09-02367675CE09029804124145520100995130  00000000005739.00MXP000000000RODRIGO VAZQUEZ PULIDO        00000002013/09/02            Y15   0000
0074068801095395302013-09-02323573CE09029804051129520130025135  00000000002000.00MXP000000000RUBEN MELENDEZ JIMENEZ        00000002013/09/02            Y15   0000
0074068801095395302013-09-02283783CE09029804050033620110025480  00000000022000.00MXP000000000OSWLADO ALFREDO DOMINGUEZ E.  00000002013/09/02            Y15   0000
0074068801095395302013-09-02246868CE195069220312322007001ESC95  00000000001708.00MXP000000000570825                        00000002013/09/02            Y15   0000
0074068801095395302013-09-02244106CE09029804070027420060207303  00000000002955.00MXP000000000CIRIACO JUAN MARTINEZ MARTINEZ00000002013/09/02            Y15   0000
0074068801095395302013-09-02241358CE09029801104112220120046865  00000000033878.00MXP000000000ERIC RENE DOMINGUEZ VALLE     00000002013/09/02            Y15   0000
0074068801095395302013-09-02220894CE09029802204179120040207521  00000000000600.00MXP000000000JOSE EDGAR ROMERO RUIZ        00000002013/09/02            Y15   0000
0074068801095395302013-09-02210579CE195069220309072008001ESC95  00000000006500.00MXP000000000571882                        00000002013/09/02            Y15   0000
0074068801095395302013-09-02154528CE09029802204046820080204368  00000000005634.44MXP000000000ABDEL PEREZ LORENZANA         00000002013/09/02            Y15   0000
0074068801095395302013-09-02031828CARGO CHEQUE                  10000000005000.00MXP000000000C000031828ECTIVO              00000002013/09/02            C03   0000
0074068801095395302013-09-02031827CARGO CHEQUE                  10000000001600.00MXP000000000C000031827ECTIVO              00000002013/09/02            C03   0000
0074068801095395302013-09-02031824CARGO CHEQUE                  10000000003682.00MXP000000000C000031824ECTIVO              00000002013/09/02            C03   0000
0074068801095395302013-09-02031814CARGO CHEQUE                  10000000017500.00MXP000000000C000031814                    00000002013/09/02            C03   0000
0074068801095395302013-09-02031813CARGO CHEQUE                  10000000006500.00MXP000000000C000031813ECTIVO              00000002013/09/02            C03   0000
0074068801095395302013-09-02031799CARGO CHEQUE                  10000000006000.00MXP000000000C000031799ECTIVO              00000002013/09/02            C03   0000
0074068801095395302013-09-02031796CARGO CHEQUE                  10000000007975.80MXP000000000C000031796ECTIVO              00000002013/09/02            C03   0000
0074068801095395302013-09-02031783CARGO CHEQUE                  10000000001500.00MXP000000000C000031783ECTIVO              00000002013/09/02            C03   0000
0074068801095395302013-09-02031772CARGO CHEQUE                  10000000000400.00MXP000000000C000031772ECTIVO              00000002013/09/02            C03   0000
0074068801095395302013-09-02031765CARGO CHEQUE                  10000000010000.00MXP000000000C000031765ECTIVO              00000002013/08/31            C03   0000
0074068801095395302013-09-02031758CARGO CHEQUE                  10000000006175.00MXP000000000C000031758ECTIVO              00000002013/09/02            C03   0000
0074068801095395302013-09-02031705CARGO CHEQUE                  10000000044117.96MXP000000000C000031705                    00000002013/09/02            C03   0000
0074068801095395302013-09-02000000INTERESES MES ANTERIOR        00000000000026.11MXP000000000                              00000002013/09/02            C19   0000
0074068801095395302013-09-02000000VENTA FONDOS DE INVERSION     00000003600023.54MXP000000000OPERADO EN CANAL   SUCU       00000002013/09/02            F04   0000
0074068801095395302013-09-02000000SALDO ULTIMA TRANS            20000005687987.02MXP000000000                              00000002013/09/02                  0000
