0074068801095399992013-09-30631425SPEI RECIBIDO    0000001      00000000012000.70MXP000000000REVERSO POR DUPLICIDAD ORD 67 00000002013/09/30            T20   0000
0074068801095399992013-09-30479197CE09027004180014520131035484  00000000000613.80MXP000000000CONSTANTINO DE JESUS MUNDO    00000002013/09/30            Y15   0000
0074068801095399992013-09-30478439CE09027004180014520131053313  00000000003069.00MXP000000000CONSTANTINO DE JESUS MUNDO    00000002013/09/30            Y15   0000
0074068801095399992013-09-30477677CE09027004180014520131015486  00000000012000.00MXP000000000CONSTANTINO DE JESUS MUNDO    00000002013/09/30            Y15   0000
0074068801095399992013-09-30456339CE09027003501042220131055483  00000000008000.00MXP000000000EVODIO CHANTES FORMACIO       00000002013/09/30            Y15   0000
0074068801095399992013-09-30455834CE09027003501042220131055137  00000000005000.00MXP000000000EVODIO CHANTES FORMACIO       00000002013/09/30            Y15   0000
0074068801095399992013-09-30425405CE09027004011025720121035486  00000000002164.05MXP000000000EUGENIO PAUL LANGIL GARCIA    00000002013/09/30            Y15   0000
0074068801095399992013-09-30424585CE09027004011025720121015132  00000000015000.00MXP000000000EUGENIO PAUL LANGIL GARCIA    00000002013/09/30            Y15   0000
0074068801095399992013-09-30404007CE09027004130025020131033318  00000000004051.08MXP000000000NICOLAS JIMENEZ SANCHEZ       00000002013/09/30            Y15   0000
0074068801095399992013-09-30403353CE09027004130025020131015489  00000000008000.00MXP000000000NICOLAS JIMENEZ SANCHEZ       00000002013/09/30            Y15   0000
0074068801095399992013-09-30078288CE09027004110016020121010873  00000000015000.00MXP000000000ARTEMIO AURELIANO BAROJAS TORR00000002013/09/30            Y15   0000
0074068801095399992013-09-30077670CE09027004110016020121033313  00000000003000.00MXP000000000ARTEMIO AURELIANO BAROJAS TORR00000002013/09/30            Y15   0000
0074068801095399992013-09-30043625CARGO CHEQUE                  10000000011907.00MXP000000000C000043625ECTIVO              00000002013/09/30            C03   0000
0074068801095399992013-09-30043576CARGO CHEQUE                  10000000095000.00MXP000000000C000043576ECTIVO              00000002013/09/30            C03   0000
0074068801095399992013-09-30043572CARGO CHEQUE                  10000000027235.00MXP000000000C000043572ECTIVO              00000002013/09/30            C03   0000
0074068801095399992013-09-30043569CARGO CHEQUE                  10000000076386.88MXP000000000C000043569 DE DEPOSITO:AASL78000000002013/09/30            C03   0000
0074068801095399992013-09-30043543CARGO CHEQUE                  10000000008205.50MXP000000000C000043543ECTIVO              00000002013/09/30            C03   0000
0074068801095399992013-09-30043470CARGO CHEQUE                  10000000001386.60MXP000000000C000043470ECTIVO              00000002013/09/30            C03   0000
0074068801095399992013-09-30000000VENTA FONDOS DE INVERSION     00000000500025.80MXP000000000OPERADO EN CANAL   SUCU       00000002013/09/30            F04   0000
0074068801095399992013-09-30000000SALDO ULTIMA TRANS            20000030745760.57MXP000000000                              00000002013/09/30                  0000
0074068801095399992013-09-27162695CE09027004190005220131035481  00000000001182.00MXP000000000LEONARDO VALERIANO CRUZ       00000002013/09/27            Y15   0000
0074068801095399992013-09-27162364CE09027004190005220131015137  00000000006000.00MXP000000000LEONARDO VALERIANO CRUZ       00000002013/09/27            Y15   0000
0074068801095399992013-09-27129125CE09027004073016120131056864  00000000005000.00MXP000000000ANDRES LOPEZ CASTA#EDA        00000002013/09/27            Y15   0000
0074068801095399992013-09-27128522CE09027004073016120131014350  00000000008400.00MXP000000000ANDRES LOPEZ CASTA#EDA        00000002013/09/27            Y15   0000
0074068801095399992013-09-27124844CE09027004073016120131034358  00000000001300.00MXP000000000ANDRES LOPEZ CASTA#EDA        00000002013/09/27            Y15   0000
0074068801095399992013-09-27124497CE09027004073016120131013311  00000000008400.00MXP000000000ANDRES LOPEZ CASTA#EDA        00000002013/09/27            Y15   0000
0074068801095399992013-09-27124227CE09027004073016120131030877  00000000000310.00MXP000000000ANDRES LOPEZ CASTA#EDA        00000002013/09/27            Y15   0000
0074068801095399992013-09-27123872CE09027004073016120131015134  00000000010000.00MXP000000000ANDRES LOPEZ CASTA#EDA        00000002013/09/27            Y15   0000
0074068801095399992013-09-27123590CE09027004073016120131055775  00000000005000.00MXP000000000ANDRES LOPEZ CASTA#EDA        00000002013/09/27            Y15   0000
0074068801095399992013-09-27123245CE09027004073016120131036866  00000000001300.00MXP000000000ANDRES LOPEZ CASTA#EDA        00000002013/09/27            Y15   0000
0074068801095399992013-09-27122871CE09027004073016120131033319  00000000000310.00MXP000000000ANDRES LOPEZ CASTA#EDA        00000002013/09/27            Y15   0000
0074068801095399992013-09-27122523CE09027004073016120131015480  00000000010000.00MXP000000000ANDRES LOPEZ CASTA#EDA        00000002013/09/27            Y15   0000
0074068801095399992013-09-27109440CE09027004122009420111053319  00000000016000.00MXP000000000ARTURO SONNY GARCIA ROJAS     00000002013/09/27            Y15   0000
0074068801095399992013-09-27107852CE09027004122009420111010871  00000000008000.00MXP000000000ARTURO SONNY GARCIA ROJAS     00000002013/09/27            Y15   0000
0074068801095399992013-09-27107122CE09027004122009420111055777  00000000024850.00MXP000000000ARTURO SONNY GARCIA ROJAS     00000002013/09/27            Y15   0000
0074068801095399992013-09-27089466CE09027004071056420101050870  00000000000600.00MXP000000000ALEJANDRO TEPEPA PEREZ        00000002013/09/27            Y15   0000
0074068801095399992013-09-27043655CARGO CHEQUE                  10000000135000.00MXP000000000C000043655ECTIVO              00000002013/09/27            C03   0000
0074068801095399992013-09-27043626CARGO CHEQUE                  10000000001623.50MXP000000000C000043626ECTIVO              00000002013/09/27            C03   0000
0074068801095399992013-09-27043621CARGO CHEQUE                  10000000005670.00MXP000000000C000043621ECTIVO              00000002013/09/27            C03   0000
0074068801095399992013-09-27043564CARGO CHEQUE                  10000000049323.00MXP000000000C000043564                    00000002013/09/27            C03   0000
0074068801095399992013-09-27043563CARGO CHEQUE                  10000000026314.50MXP000000000C000043563ECTIVO              00000002013/09/27            C03   0000
0074068801095399992013-09-27043553CARGO CHEQUE                  10000000007600.00MXP000000000C000043553 DE DEPOSITO:MPU620600000002013/09/27            C03   0000
0074068801095399992013-09-27043518CARGO CHEQUE                  10000000009164.85MXP000000000C000043518ECTIVO              00000002013/09/27            C03   0000
0074068801095399992013-09-27043503CARGO CHEQUE                  10000000017495.50MXP000000000C000043503ECTIVO              00000002013/09/27            C03   0000
0074068801095399992013-09-27043401CARGO CHEQUE                  10000000001426.50MXP000000000C000043401ECTIVO              00000002013/09/27            C03   0000
0074068801095399992013-09-27000000VENTA FONDOS DE INVERSION     00000001000020.27MXP000000000OPERADO EN CANAL   SUCU       00000002013/09/27            F04   0000
0074068801095399992013-09-27000000CARGO TRASPASO MISMA PLAZA CW 10000000000571.20MXP000000000401102012007203 91            00000002013/09/27            W41   0000
0074068801095399992013-09-27000000CARGO TRASPASO MISMA PLAZA CW 10000000000817.05MXP000000000400000892011203 93            00000002013/09/27            W41   0000
0074068801095399992013-09-27000000CARGO TRASPASO MISMA PLAZA CW 10000000002479.50MXP000000000350101322013202 89            00000002013/09/27            W41   0000
0074068801095399992013-09-27000000CARGO TRASPASO MISMA PLAZA CW 10000000002857.25MXP000000000401100962011203 88            00000002013/09/27            W41   0000
0074068801095399992013-09-27000000CARGO TRASPASO MISMA PLAZA CW 10000000003150.00MXP000000000400000892011202 92            00000002013/09/27            W41   0000
0074068801095399992013-09-27000000CARGO TRASPASO MISMA PLAZA CW 10000000003952.80MXP000000000401102012007202 90            00000002013/09/27            W41   0000
0074068801095399992013-09-27000000CARGO TRASPASO MISMA PLAZA CW 10000000004085.25MXP000000000330600060012202 94            00000002013/09/27            W41   0000
0074068801095399992013-09-27000000CARGO TRASPASO MISMA PLAZA CW 10000000004642.75MXP000000000401100962011202 87            00000002013/09/27            W41   0000
0074068801095399992013-09-27000000SALDO ULTIMA TRANS            20000030377957.12MXP000000000                              00000002013/09/27                  0000
0074068801095399992013-09-26365834CE09027004160001720131035131  00000000003000.00MXP000000000EULOGIO HERNANDEZ CONTRERAS   00000002013/09/26            Y15   0000
0074068801095399992013-09-26365116CE09027004160001720131055485  00000000002000.00MXP000000000EULOGIO HERNANDEZ CONTRERAS   00000002013/09/26            Y15   0000
0074068801095399992013-09-26314211CE09027004122009120131035482  00000000008000.00MXP000000000JOSUE MIGUEL MARTINEZ TRUJILLO00000002013/09/26            Y15   0000
0074068801095399992013-09-26313173CE09027004122009120131010873  00000000010000.00MXP000000000JOSUE MIGUEL MARTINEZ TRUJILLO00000002013/09/26            Y15   0000
0074068801095399992013-09-26268753CE09027004090010520131015481  00000000005000.00MXP000000000JUAN MARTINEZ PEREZ           00000002013/09/26            Y15   0000
0074068801095399992013-09-26213595CE09027004030003620131053311  00000000049104.00MXP000000000ROSA MARIA MU#OZ ZARCO        00000002013/09/26            Y15   0000
0074068801095399992013-09-26212380CE09027004030003620131015484  00000000017922.00MXP000000000ROSA MARIA MU#OZ ZARCO        00000002013/09/26            Y15   0000
0074068801095399992013-09-26102460SPEI RECIBIDO    0000001      00000000122162.55MXP000000000REVERSO POR DUPLICIDAD ORDEN 700000002013/09/26            T20   0000
0074068801095399992013-09-26043581CARGO CHEQUE                  10000000050000.00MXP000000000C000043581ECTIVO              00000002013/09/26            C03   0000
0074068801095399992013-09-26043577CARGO CHEQUE                  10000000023390.33MXP000000000C000043577ECTIVO              00000002013/09/26            C03   0000
0074068801095399992013-09-26043570CARGO CHEQUE                  10000001993800.00MXP000000000C000043570                    00000002013/09/26            C03   0000
0074068801095399992013-09-26043568CARGO CHEQUE                  10000000005000.00MXP000000000C000043568ECTIVO              00000002013/09/26            C03   0000
0074068801095399992013-09-26043525CARGO CHEQUE                  10000000004787.50MXP000000000C000043525ECTIVO              00000002013/09/26            C03   0000
0074068801095399992013-09-26000000CARGO TRASPASO MISMA PLAZA CW 10000000000108.94MXP000000000407101382012203 84            00000002013/09/26            W41   0000
0074068801095399992013-09-26000000CARGO TRASPASO MISMA PLAZA CW 10000000001105.00MXP000000000406100732013203 86            00000002013/09/26            W41   0000
0074068801095399992013-09-26000000CARGO TRASPASO MISMA PLAZA CW 10000000001900.00MXP000000000406100732013202 85            00000002013/09/26            W41   0000
0074068801095399992013-09-26000000CARGO TRASPASO MISMA PLAZA CW 10000000003117.00MXP000000000413000042010203 82            00000002013/09/26            W41   0000
0074068801095399992013-09-26000000CARGO TRASPASO MISMA PLAZA CW 10000000005140.00MXP000000000413000042010202 81            00000002013/09/26            W41   0000
0074068801095399992013-09-26000000CARGO TRASPASO MISMA PLAZA CW 10000000005250.00MXP000000000407101382012202 83            00000002013/09/26            W41   0000
0074068801095399992013-09-26000000COMPRA FONDOS INVERSION       10000001499999.64MXP000000000OPERADO EN CANAL:  SUCU       00000002013/09/26            F01   0000
0074068801095399992013-09-26000000SALDO ULTIMA TRANS            20000029547458.50MXP000000000                              00000002013/09/26                  0000
0074068801095399992013-09-25547299CE70982403306036320101050381  00000000003000.00MXP000000000JULIO GOMEZ MENDOZA           00000002013/09/25            Y05   0000
0074068801095399992013-09-25547298CE70982403306036320101058871  00000000004000.00MXP000000000JULIO GOMEZ MENDOZA           00000002013/09/25            Y05   0000
0074068801095399992013-09-25547297CE70982403306036320101054185  00000000008000.00MXP000000000JULIO GOMEZ MENDOZA           00000002013/09/25            Y05   0000
0074068801095399992013-09-25547296CE70982403306026320101059020  00000000010500.00MXP000000000JULIO GOMEZ MENDOZA           00000002013/09/25            Y05   0000
0074068801095399992013-09-25547295CE70982403306036320101011680  00000000003000.00MXP000000000JULIO GOMEZ MENDOZA           00000002013/09/25            Y05   0000
0074068801095399992013-09-25547294CE70982403307054920131010605  00000000010000.00MXP000000000JOSEFA MORA AMBROCIO          00000002013/09/25            Y05   0000
0074068801095399992013-09-25547293CE70982403307054920131038341  00000000005908.00MXP000000000JOSEFA MORA AMBROCIO          00000002013/09/25            Y05   0000
0074068801095399992013-09-25547292CE70982403307028920131052493  00000000015000.00MXP000000000JOSE ROSALES BERNAL           00000002013/09/25            Y05   0000
0074068801095399992013-09-25547291CE70982403307028720131030469  00000000000600.00MXP000000000JORGE BUENO PEREZ             00000002013/09/25            Y05   0000
0074068801095399992013-09-25547290CE70982403307028720131018811  00000000009000.00MXP000000000JORGE BUENO PEREZ             00000002013/09/25            Y05   0000
0074068801095399992013-09-25547289CE70982403307028620131059643  00000000000800.00MXP000000000CLEMENTE LOPEZ PATINO         00000002013/09/25            Y05   0000
0074068801095399992013-09-25547288CE70982403307028320131011807  00000000010000.00MXP000000000VICENTE CRUZ MUNOZ            00000002013/09/25            Y05   0000
0074068801095399992013-09-25547287CE70982403307028020131014591  00000000015000.00MXP000000000HERACLIO GUTIERREZ JAIMES     00000002013/09/25            Y05   0000
0074068801095399992013-09-25547286CE70982403307028020131051882  00000000012000.00MXP000000000HERACLIO GUTIERREZ JAIMES     00000002013/09/25            Y05   0000
0074068801095399992013-09-25547285CE70982403307028020131038715  00000000001181.60MXP000000000HERACLIO GUTIERREZ JAIMES     00000002013/09/25            Y05   0000
0074068801095399992013-09-25547284CE70982403307027820131018398  00000000008000.00MXP000000000PABLO EDGAR CORDERO ALVARADO  00000002013/09/25            Y05   0000
0074068801095399992013-09-25547283CE70982403307026220131010829  00000000005410.00MXP000000000CARLOS JAIME AMEZAGA Y HARFUCH00000002013/09/25            Y05   0000
0074068801095399992013-09-25547282CE70982403307026220131032310  00000000000590.00MXP000000000CARLOS JAIME AMEZAGA Y HARFUCH00000002013/09/25            Y05   0000
0074068801095399992013-09-25547281CE70982403307256220131050214  00000000022500.00MXP000000000JOSE ROSALES BERNAL           00000002013/09/25            Y05   0000
0074068801095399992013-09-25547280CE70982403307025620131017305  00000000005000.00MXP000000000JOSE ROSALES BERNAL           00000002013/09/25            Y05   0000
0074068801095399992013-09-25547279CE70982403307024120131053674  00000000001300.00MXP000000000ERNESTO CRUZ REYES            00000002013/09/25            Y05   0000
0074068801095399992013-09-25547278CE70982403307024120131017828  00000000010000.00MXP000000000ERNESTO CRUZ REYEZ            00000002013/09/25            Y05   0000
0074068801095399992013-09-25547277CE70982403307023520131018067  00000000012000.00MXP000000000RAUL SANCHEZ RAMIREZ          00000002013/09/25            Y05   0000
0074068801095399992013-09-25547276CE70982403307023520131053536  00000000001000.00MXP000000000RAUL SANCHEZ RAMIREZ          00000002013/09/25            Y05   0000
0074068801095399992013-09-25547275CE70982403307023520131035772  00000000003000.00MXP000000000RAUL SANCHEZ RAMIREZ          00000002013/09/25            Y05   0000
0074068801095399992013-09-25547274CE70982403307023520131056869  00000000009000.00MXP000000000RAUL SANCHEZ RAMIREZ          00000002013/09/25            Y05   0000
0074068801095399992013-09-25547273CE70982403307023420131014358  00000000007000.00MXP000000000JUAN PEREZ PEREZ              00000002013/09/25            Y05   0000
0074068801095399992013-09-25547272CE70982403307022220131050878  00000000008000.00MXP000000000ANGEL BARRANCO FLORES         00000002013/09/25            Y05   0000
0074068801095399992013-09-25547271CE70982403307022220131055489  00000000003000.00MXP000000000CLAUDIA GONZALEZ RIVERA       00000002013/09/25            Y05   0000
0074068801095399992013-09-25491149CE09027004130024420131015482  00000000013000.00MXP000000000JOSE FELIPE CASTILLO LUNA     00000002013/09/25            Y15   0000
0074068801095399992013-09-25490082CE09027004130024420131030879  00000000009207.00MXP000000000JOSE FELIPE CASTILLO LUNA     00000002013/09/25            Y15   0000
0074068801095399992013-09-25163216CE09027004090010520131015135  00000000005000.00MXP000000000MARIA LUISA RODRIGUEZ CERON   00000002013/09/25            Y15   0000
0074068801095399992013-09-25162702CE09027004090010520131050876  00000000002000.00MXP000000000MARIA LUISA RODRIGUEZ CERON   00000002013/09/25            Y15   0000
0074068801095399992013-09-25162215CE09027004090010520131035489  00000000001000.00MXP000000000MARIA LUISA RODRIGUEZ CERON   00000002013/09/25            Y15   0000
0074068801095399992013-09-25095899CE09027004122006820121035482  00000000003540.55MXP000000000ADRIANA CRUZ MENDEZ           00000002013/09/25            Y15   0000
0074068801095399992013-09-25095463CE09027004122006820121015138  00000000008000.00MXP000000000ADRIANA CRUZ MENDEZ           00000002013/09/25            Y15   0000
0074068801095399992013-09-25043615CARGO CHEQUE                  10000000011495.00MXP000000000C000043615ECTIVO              00000002013/09/25            C03   0000
0074068801095399992013-09-25043605CARGO CHEQUE                  10000000081705.00MXP000000000C000043605ECTIVO              00000002013/09/25            C03   0000
0074068801095399992013-09-25043603CARGO CHEQUE                  10000000004900.00MXP000000000C000043603ECTIVO              00000002013/09/25            C03   0000
0074068801095399992013-09-25043601CARGO CHEQUE                  10000000010438.00MXP000000000C000043601ECTIVO              00000002013/09/25            C03   0000
0074068801095399992013-09-25043515CARGO CHEQUE                  10000000050000.00MXP000000000C000043515                    00000002013/09/25            C03   0000
0074068801095399992013-09-25043491CARGO CHEQUE                  10000000010000.00MXP000000000C000043491ECTIVO              00000002013/09/25            C03   0000
0074068801095399992013-09-25043375CARGO CHEQUE                  10000000005313.50MXP000000000C000043375 DE DEPOSITO:RORH71000000002013/09/25            C03   0000
0074068801095399992013-09-25043374CARGO CHEQUE                  10000000008217.60MXP000000000C000043374 DE DEPOSITO:RORH71000000002013/09/25            C03   0000
0074068801095399992013-09-25000000COMPRA FONDOS INVERSION       10000001299970.36MXP000000000OPERADO EN CANAL:  SUCU       00000002013/09/25            F01   0000
0074068801095399992013-09-25000000SALDO ULTIMA TRANS            20000032923868.36MXP000000000                              00000002013/09/25                  0000
0074068801095399992013-09-24395494CE09027004122034420131035485  00000000005340.00MXP000000000BERNARDO CORTES ANSELMO       00000002013/09/24            Y15   0000
0074068801095399992013-09-24395199CE09027004122034420131015131  00000000011850.00MXP000000000BERNARDO CORTES ANSELMO       00000002013/09/24            Y15   0000
0074068801095399992013-09-24350287CE09027004180013720131035481  00000000003069.00MXP000000000BETZAIDA ORTIZ CRUZ           00000002013/09/24            Y15   0000
0074068801095399992013-09-24349701CE09027004180013720131050878  00000000003069.00MXP000000000BETZAIDA ORTIZ CRUZ           00000002013/09/24            Y15   0000
0074068801095399992013-09-24348916CE09027004180013720131053310  00000000001351.00MXP000000000BETZAIDA ORTIZ CRUZ           00000002013/09/24            Y15   0000
0074068801095399992013-09-24348204CE09027004180013720131015137  00000000005000.00MXP000000000BETZAIDA ORTIZ CRUZ           00000002013/09/24            Y15   0000
0074068801095399992013-09-24317448CE09027004123007020131050871  00000000005000.00MXP000000000EMILIANO JUAREZ CORDOVA       00000002013/09/24            Y15   0000
0074068801095399992013-09-24317162CE09027004123007020131035484  00000000007385.00MXP000000000EMILIANO JUAREZ CORDOVA       00000002013/09/24            Y15   0000
0074068801095399992013-09-24312136CE09027004123007020131015130  00000000010000.00MXP000000000EMILIANO JUAREZ CORDOVA       00000002013/09/24            Y15   0000
0074068801095399992013-09-24304083CE09027004090018820111033310  00000000000550.00MXP000000000JUAN CARLOS BRETON GOMEZ      00000002013/09/24            Y15   0000
0074068801095399992013-09-24303362CE09027004090018820111054357  00000000001450.00MXP000000000JUAN CARLOS BRETON GOMEZ      00000002013/09/24            Y15   0000
0074068801095399992013-09-24302736CE09027004090018820111015481  00000000004000.00MXP000000000JUAN CARLOS BRETON GOMEZ      00000002013/09/24            Y15   0000
0074068801095399992013-09-24298945CE09027003501032120131055487  00000000023000.00MXP0000000003501032120131055487           00000002013/09/24            Y15   0000
0074068801095399992013-09-24298321CE09027003501032120131055131  00000000000844.80MXP000000000RODRIGO ROJAS ISABEL          00000002013/09/24            Y15   0000
0074068801095399992013-09-24298280CE09027004011029520131995133  00000000000095.00MXP000000000JUZGADO DE LO PENAL ATLIXCO PU00000002013/09/24            Y15   0000
0074068801095399992013-09-24294175CE09027004123026720121050875  00000000005908.00MXP000000000CONSTANTINO MORENO BAILON     00000002013/09/24            Y15   0000
0074068801095399992013-09-24293116CE09027004123026720121035488  00000000005908.00MXP000000000CONSTANTINO MORENO BAILON     00000002013/09/24            Y15   0000
0074068801095399992013-09-24292414CE09027004123026720121015134  00000000015000.00MXP000000000CONSTANTINO MORENO BAILON     00000002013/09/24            Y15   0000
0074068801095399992013-09-24287636CE09027003501016320121050874  00000000010000.00MXP000000000TRINIDAD MENEZES CASTILLO     00000002013/09/24            Y15   0000
0074068801095399992013-09-24286683CE09027003501016320121055139  00000000025000.00MXP000000000TRINIDAD MENEZES CASTILLO     00000002013/09/24            Y15   0000
0074068801095399992013-09-24226258CE09027004130026820131035489  00000000010000.00MXP000000000MISAEL GARCIA MENDEZ          00000002013/09/24            Y15   0000
0074068801095399992013-09-24226019CE09027004130026820131015135  00000000005000.00MXP000000000MISAEL GARCIA MENDEZ          00000002013/09/24            Y15   0000
0074068801095399992013-09-24043620CARGO CHEQUE                  10000000120000.00MXP000000000C000043620                    00000002013/09/24            C03   0000
0074068801095399992013-09-24043604CARGO CHEQUE                  10000000003600.00MXP000000000C000043604ECTIVO              00000002013/09/24            C03   0000
0074068801095399992013-09-24043567CARGO CHEQUE                  10000000009638.03MXP000000000C000043567ECTIVO              00000002013/09/24            C03   0000
0074068801095399992013-09-24043566CARGO CHEQUE                  10000000003994.91MXP000000000C000043566ECTIVO              00000002013/09/24            C03   0000
0074068801095399992013-09-24043550CARGO CHEQUE                  10000000041300.00MXP000000000C000043550ECTIVO              00000002013/09/24            C03   0000
0074068801095399992013-09-24043541CARGO CHEQUE                  10000000020290.00MXP000000000C000043541ECTIVO              00000002013/09/24            C03   0000
0074068801095399992013-09-24043508CARGO CHEQUE                  10000000000450.00MXP000000000C000043508ECTIVO              00000002013/09/24            C03   0000
0074068801095399992013-09-24043507CARGO CHEQUE                  10000000002100.00MXP000000000C000043507ECTIVO              00000002013/09/24            C03   0000
0074068801095399992013-09-24000000ABONO TRASPASO MISMA PLAZA CW 00000000003300.00MXP000000000330400082011101 76            00000002013/09/24            W42   0000
0074068801095399992013-09-24000000VENTA FONDOS DE INVERSION     00000000310919.38MXP000000000OPERADO EN CANAL   SUCU       00000002013/09/24            F04   0000
0074068801095399992013-09-24000000CARGO TRASPASO MISMA PLAZA CW 10000000000054.47MXP000000000330303822010203 58            00000002013/09/24            W41   0000
0074068801095399992013-09-24000000CARGO TRASPASO MISMA PLAZA CW 10000000000103.90MXP000000000330601002009203 80            00000002013/09/24            W41   0000
0074068801095399992013-09-24000000CARGO TRASPASO MISMA PLAZA CW 10000000000104.18MXP0000000000109540245                    00000002013/09/24            W41   0000
0074068801095399992013-09-24000000CARGO TRASPASO MISMA PLAZA CW 10000000000113.40MXP000000000330601322011203 78            00000002013/09/24            W41   0000
0074068801095399992013-09-24000000CARGO TRASPASO MISMA PLAZA CW 10000000000114.00MXP000000000408000032013203 62            00000002013/09/24            W41   0000
0074068801095399992013-09-24000000CARGO TRASPASO MISMA PLAZA CW 10000000000600.00MXP000000000330601322011202 77            00000002013/09/24            W41   0000
0074068801095399992013-09-24000000CARGO TRASPASO MISMA PLAZA CW 10000000000683.00MXP000000000408000032013202 61            00000002013/09/24            W41   0000
0074068801095399992013-09-24000000CARGO TRASPASO MISMA PLAZA CW 10000000000817.05MXP000000000350101262013203 64            00000002013/09/24            W41   0000
0074068801095399992013-09-24000000CARGO TRASPASO MISMA PLAZA CW 10000000001039.00MXP000000000350100582013203 68            00000002013/09/24            W41   0000
0074068801095399992013-09-24000000CARGO TRASPASO MISMA PLAZA CW 10000000001134.00MXP000000000408001592011203 60            00000002013/09/24            W41   0000
0074068801095399992013-09-24000000CARGO TRASPASO MISMA PLAZA CW 10000000001246.80MXP000000000330202962009202 56            00000002013/09/24            W41   0000
0074068801095399992013-09-24000000CARGO TRASPASO MISMA PLAZA CW 10000000001298.75MXP000000000407102862010203 70            00000002013/09/24            W41   0000
0074068801095399992013-09-24000000CARGO TRASPASO MISMA PLAZA CW 10000000001500.00MXP000000000350100232012202 54            00000002013/09/24            W41   0000
0074068801095399992013-09-24000000CARGO TRASPASO MISMA PLAZA CW 10000000001575.00MXP000000000330601002009202 79            00000002013/09/24            W41   0000
0074068801095399992013-09-24000000CARGO TRASPASO MISMA PLAZA CW 10000000001701.00MXP000000000412201202011203 72            00000002013/09/24            W41   0000
0074068801095399992013-09-24000000CARGO TRASPASO MISMA PLAZA CW 10000000001814.40MXP000000000414000042012203 74            00000002013/09/24            W41   0000
0074068801095399992013-09-24000000CARGO TRASPASO MISMA PLAZA CW 10000000001945.53MXP000000000330303822010202 57            00000002013/09/24            W41   0000
0074068801095399992013-09-24000000CARGO TRASPASO MISMA PLAZA CW 10000000001969.60MXP000000000414000042012202 73            00000002013/09/24            W41   0000
0074068801095399992013-09-24000000CARGO TRASPASO MISMA PLAZA CW 10000000002042.00MXP000000000408001592011202 59            00000002013/09/24            W41   0000
0074068801095399992013-09-24000000CARGO TRASPASO MISMA PLAZA CW 10000000003940.00MXP000000000407102862010202 69            00000002013/09/24            W41   0000
0074068801095399992013-09-24000000CARGO TRASPASO MISMA PLAZA CW 10000000005076.54MXP000000000412201202011202 71            00000002013/09/24            W41   0000
0074068801095399992013-09-24000000CARGO TRASPASO MISMA PLAZA CW 10000000005292.54MXP000000000350101262013202 63            00000002013/09/24            W41   0000
0074068801095399992013-09-24000000CARGO TRASPASO MISMA PLAZA CW 10000000006971.44MXP000000000350101572013203 66            00000002013/09/24            W41   0000
0074068801095399992013-09-24000000CARGO TRASPASO MISMA PLAZA CW 10000000007000.00MXP000000000330903322012202 75            00000002013/09/24            W41   0000
0074068801095399992013-09-24000000CARGO TRASPASO MISMA PLAZA CW 10000000007821.53MXP000000000350101572013202 65            00000002013/09/24            W41   0000
0074068801095399992013-09-24000000CARGO TRASPASO MISMA PLAZA CW 10000000008700.00MXP000000000408001322012202 55            00000002013/09/24            W41   0000
0074068801095399992013-09-24000000CARGO TRASPASO MISMA PLAZA CW 10000000010363.65MXP000000000350100582013202 67            00000002013/09/24            W41   0000
0074068801095399992013-09-24000000CARGO TRASPASO MISMA PLAZA CW 10000000310886.98MXP000000000AGOSTO  0109540245            00000002013/09/24            W41   0000
0074068801095399992013-09-24000000SALDO ULTIMA TRANS            20000034160370.67MXP000000000                              00000002013/09/24                  0000
0074068801095399992013-09-23953865CE70982404200002020131010603  00000000025000.00MXP000000000LUCIANO CABRERA GALINDO       00000002013/09/23            Y05   0000
0074068801095399992013-09-23953864CE70982404061009820111018347  00000000001500.00MXP000000000CARLOS ISLAS GAYOSSO          00000002013/09/23            Y05   0000
0074068801095399992013-09-23953863CE70982404061009820111032496  00000000001500.00MXP000000000CARLOS ISLAS GAYOSSO          00000002013/09/23            Y05   0000
0074068801095399992013-09-23953862CE70982403308026120131050460  00000000020000.00MXP000000000NICOLAS HERNANDEZ GUZMAN      00000002013/09/23            Y05   0000
0074068801095399992013-09-23953861CE70982403308025420131019643  00000000001500.00MXP000000000MARIA GUADALUPE PADILLA CUAPA 00000002013/09/23            Y05   0000
0074068801095399992013-09-23953860CE70982403308025420131031804  00000000000500.00MXP000000000MARIA GUADALUPE PADILLA CUAPA 00000002013/09/23            Y05   0000
0074068801095399992013-09-23953859CE70982403308025420131031887  00000000000500.00MXP000000000MARIA GUADALUPE PADILLA CUAPA 00000002013/09/23            Y05   0000
0074068801095399992013-09-23953858CE70982403308025420131034592  00000000001000.00MXP000000000MARIA GUADALUPE PADILLA CUAPA 00000002013/09/23            Y05   0000
0074068801095399992013-09-23953857CE70982403308025420131038171  00000000001000.00MXP000000000MARIA GUADALUPE PADILLA CUAPA 00000002013/09/23            Y05   0000
0074068801095399992013-09-23953856CE70982403308025420131018710  00000000003000.00MXP000000000MARIA GUADALUPE PADILLA CUAPA 00000002013/09/23            Y05   0000
0074068801095399992013-09-23953855CE70982403308025420131018397  00000000003000.00MXP000000000MARIA GUADALUPE PADILLA CUAPA 00000002013/09/23            Y05   0000
0074068801095399992013-09-23953854CE70982403308025420131010824  00000000001500.00MXP000000000MARIA GUADALUPE PADILLA CUAPA 00000002013/09/23            Y05   0000
0074068801095399992013-09-23953853CE70982403308025320131052315  00000000033000.00MXP000000000ERNESTO CRUZ FLORES           00000002013/09/23            Y05   0000
0074068801095399992013-09-23953852CE70982403308025320131010214  00000000005000.00MXP000000000ERNESTO CRUZ FLORES           00000002013/09/23            Y05   0000
0074068801095399992013-09-23953851CE70982403308024920131017308  00000000007000.00MXP000000000RAFAEL ZOLA SANCHEZ           00000002013/09/23            Y05   0000
0074068801095399992013-09-23953850CE70982403308024620131033673  00000000006000.00MXP000000000TERESITA ESPINOZA DUARTE      00000002013/09/23            Y05   0000
0074068801095399992013-09-23953849CE70982403308024620131017825  00000000008850.00MXP000000000TERESITA ESPINOZA DUARTE      00000002013/09/23            Y05   0000
0074068801095399992013-09-23953848CE70982403308024620131058068  00000000000150.00MXP000000000TERESITA ESPINOZA DUARTE      00000002013/09/23            Y05   0000
0074068801095399992013-09-23953847CE70982403308024520131033535  00000000003000.00MXP000000000MARIBEL GUADALUPE MORA NAVARRO00000002013/09/23            Y05   0000
0074068801095399992013-09-23953846CE70982403308024520131015771  00000000009000.00MXP000000000MARIBEL GUADALUPE MORA NAVARRO00000002013/09/23            Y05   0000
0074068801095399992013-09-23953845CE70982403308024220131013310  00000000005000.00MXP000000000ENRIQUE ALMARAZ BARRANCO      00000002013/09/23            Y05   0000
0074068801095399992013-09-23953844CE70982403308024120131010870  00000000010000.00MXP000000000ALEJANDRA PEREZ FLORES        00000002013/09/23            Y05   0000
0074068801095399992013-09-23953843CE70982403308024020131015483  00000000010000.00MXP000000000JOSE ROSALES BERNAL           00000002013/09/23            Y05   0000
0074068801095399992013-09-23953842CE70982403308023820131015131  00000000005750.00MXP000000000ARELI NOYOLA HERNANDEZ        00000002013/09/23            Y05   0000
0074068801095399992013-09-23953841CE70982403308023120131053673  00000000000190.00MXP000000000EDITH CHAVEZ CRUZ             00000002013/09/23            Y05   0000
0074068801095399992013-09-23953840CE70982403308023120131017827  00000000014013.00MXP000000000EDITH CHAVEZ CRUZ             00000002013/09/23            Y05   0000
0074068801095399992013-09-23953839CE70982403308023120131038062  00000000000797.00MXP000000000EDITH CHAVEZ CRUZ             00000002013/09/23            Y05   0000
0074068801095399992013-09-23953838CE70982403308022420131053538  00000000000100.00MXP000000000MARIA ELENA ROLDAN Y FRANCO   00000002013/09/23            Y05   0000
0074068801095399992013-09-23953837CE70982403308021120131015773  00000000005000.00MXP000000000SANDRA TORRES TORRES          00000002013/09/23            Y05   0000
0074068801095399992013-09-23953836CE70982403308021120131056868  00000000000600.00MXP000000000SANDRA TORRES TORRES          00000002013/09/23            Y05   0000
0074068801095399992013-09-23953835CE70982403308021120131054350  00000000000100.00MXP000000000SANDRA TORRES TORRES          00000002013/09/23            Y05   0000
0074068801095399992013-09-23953834CE70982403308021020131013317  00000000005000.00MXP000000000RICARDO VALLADARES TECAYEHUATL00000002013/09/23            Y05   0000
0074068801095399992013-09-23953833CE70982403308021020131050871  00000000035000.00MXP000000000RICARDO VALLADARES TECAYEHUATL00000002013/09/23            Y05   0000
0074068801095399992013-09-23953832CE70982403308020920131054180  00000000047800.00MXP000000000ANGEL BARRANCO FLORES         00000002013/09/23            Y05   0000
0074068801095399992013-09-23953831CE70982403308020920131019027  00000000007000.00MXP000000000RIGOBERTO GARCIA MARTINEZ     00000002013/09/23            Y05   0000
0074068801095399992013-09-23953830CE70982403308020320131011688  00000000007000.00MXP000000000ADRIANNA VIANEY MOYA MARTINEZ 00000002013/09/23            Y05   0000
0074068801095399992013-09-23953829CE70982403308020320131050603  00000000021500.00MXP000000000ADRIANNA VIANEY MOYA MARTINEZ 00000002013/09/23            Y05   0000
0074068801095399992013-09-23953828CE70982403308020220131012498  00000000035000.00MXP000000000ROBERTO ADRIAN PEREZ RIVERA   00000002013/09/23            Y05   0000
0074068801095399992013-09-23953827CE70982403308020220131018347  00000000007000.00MXP000000000ROBERTO ADRIAN PEREZ RIVERA   00000002013/09/23            Y05   0000
0074068801095399992013-09-23953826CE70982403308020120131050466  00000000000500.00MXP000000000PABLO QUINTERO RAMIREZ        00000002013/09/23            Y05   0000
0074068801095399992013-09-23953825CE70982403308020120131038818  00000000002000.00MXP000000000PABLO QUINTERO RAMIREZ        00000002013/09/23            Y05   0000
0074068801095399992013-09-23953824CE70982403308020120131019644  00000000005000.00MXP000000000PABLO QUINTERO RAMIREZ        00000002013/09/23            Y05   0000
0074068801095399992013-09-23953823CE70982403308013120131051802  00000000000088.00MXP000000000EDER RAUL OLARTE OLARTE       00000002013/09/23            Y05   0000
0074068801095399992013-09-23953822CE70982403308013120131031887  00000000002500.00MXP000000000EDER RAUL OLARTE OLARTE       00000002013/09/23            Y05   0000
0074068801095399992013-09-23953821CE70982403308013120131014594  00000000007412.00MXP000000000EDER RAUL OLARTE OLARTE       00000002013/09/23            Y05   0000
0074068801095399992013-09-23953820CE70982403308013120131058179  00000000000088.00MXP000000000CINTHIA ABIGAIL BURGOS MORALES00000002013/09/23            Y05   0000
0074068801095399992013-09-23953819CE70982403308013120131038718  00000000002500.00MXP000000000CINTHIA ABIGAIL BURGOS MORALES00000002013/09/23            Y05   0000
0074068801095399992013-09-23953818CE70982404073008420131057304  00000000005764.00MXP000000000CARLOS ENRIQUE BAUTISTA SANCHE00000002013/09/23            Y05   0000
0074068801095399992013-09-23953817CE70982404073008420131013679  00000000005000.00MXP000000000CARLOS ENRIQUE BAUTISTA SANCHE00000002013/09/23            Y05   0000
0074068801095399992013-09-23953816CE70982404073008420131017829  00000000005000.00MXP000000000JAIME BAUTISTA LARA           00000002013/09/23            Y05   0000
0074068801095399992013-09-23953815CE70982404073008420131058062  00000000005764.00MXP000000000JAIME BAUTISTA LARA           00000002013/09/23            Y05   0000
0074068801095399992013-09-23953814CE70982404073008420131033537  00000000000295.00MXP000000000JAIME BAUTISTA LARA           00000002013/09/23            Y05   0000
0074068801095399992013-09-23953813CE70982403308020720131015771  00000000019100.00MXP000000000JOSE EDUARDO CORTES ORTEGA    00000002013/09/23            Y05   0000
0074068801095399992013-09-23953812CE70982403308020720131036868  00000000005900.00MXP000000000JOSE EDUARDO CORTES ORTEGA    00000002013/09/23            Y05   0000
0074068801095399992013-09-23953811CE70982403308020720131014352  00000000019100.00MXP000000000ADRIANA VIOLETA HUERTA SALOMA 00000002013/09/23            Y05   0000
0074068801095399992013-09-23953810CE70982403308020720131033311  00000000005900.00MXP000000000ADRIANA VIOLETA HUERTA SALOMA 00000002013/09/23            Y05   0000
0074068801095399992013-09-23953809CE70982403308020720131010871  00000000019100.00MXP000000000ALMA DELIA DIAZ FLORES        00000002013/09/23            Y05   0000
0074068801095399992013-09-23953808CE70982403308020720131035480  00000000005900.00MXP000000000ALMA DELIA DIAZ FLORES        00000002013/09/23            Y05   0000
0074068801095399992013-09-23490234CE09027004011029120131030872  00000000002782.35MXP000000000IVAN GONZALEZ GONZALEZ        00000002013/09/23            Y15   0000
0074068801095399992013-09-23489633CE09027004011029120131015485  00000000010000.00MXP000000000IVAN GONZALEZ GONZALEZ        00000002013/09/23            Y15   0000
0074068801095399992013-09-23483786CE09027004110018520121015481  00000000007000.00MXP000000000EUSEBIO MOTA CASTA#EDA        00000002013/09/23            Y15   0000
0074068801095399992013-09-23483268CE09027004110018520121030878  00000000005000.00MXP000000000EUSEBIO MOTA CASTA#EDA        00000002013/09/23            Y15   0000
0074068801095399992013-09-23482895CE09027004110018520121053318  00000000003000.00MXP000000000EUSEBIO MOTA CASTA#EDA        00000002013/09/23            Y15   0000
0074068801095399992013-09-23468711CE09027004180001920131035481  00000000003054.00MXP000000000LUICIA PAREDES VALDERRABANO   00000002013/09/23            Y15   0000
0074068801095399992013-09-23468102CE09027004180001920131053310  00000000003054.00MXP000000000LUCIA PAREDES VALDERRABANO    00000002013/09/23            Y15   0000
0074068801095399992013-09-23467505CE09027004180001920131015137  00000000007500.00MXP000000000LUCIA PAREDES VALDERRABANO    00000002013/09/23            Y15   0000
0074068801095399992013-09-23457409CE09027004171019820101055130  00000000000447.00MXP000000000JOSE LUIS RIVERA DIAZ         00000002013/09/23            Y15   0000
0074068801095399992013-09-23443554CE09027004110009320121030874  00000000029550.00MXP000000000HUMBERTO HERNANDEZ BERNARDO   00000002013/09/23            Y15   0000
0074068801095399992013-09-23443233CE09027004110009320121015487  00000000033800.00MXP000000000HUMBERTO HERNANDEZ BERNARDO   00000002013/09/23            Y15   0000
0074068801095399992013-09-23428469CE09027004040007420131030871  00000000003682.80MXP000000000CALIXTO ROLANDO GIL GARCIA    00000002013/09/23            Y15   0000
0074068801095399992013-09-23427992CE09027004040007420131015138  00000000007000.00MXP000000000CALIXTO ROLANDO GIL GARCIA    00000002013/09/23            Y15   0000
0074068801095399992013-09-23427622CE09027004040007420131055480  00000000003000.00MXP000000000CALIXTO ROLANDO GIL GARCIA    00000002013/09/23            Y15   0000
0074068801095399992013-09-23097136CE09027004040006420131015139  00000000004000.00MXP000000000FEDERICO SALVADOR GUZMAN TAPIA00000002013/09/23            Y15   0000
0074068801095399992013-09-23096598CE09027004040006420131050870  00000000005000.00MXP000000000FEDERICO SALVADOR GUZMAN TAPIA00000002013/09/23            Y15   0000
0074068801095399992013-09-23096018CE09027004040006420131035483  00000000001000.00MXP000000000FEDERICO SALVADOR GUZMAN TAPIA00000002013/09/23            Y15   0000
0074068801095399992013-09-23082099CE09027004122004820131035482  00000000003000.00MXP000000000MARISOL LOPEZ AGUIRRE         00000002013/09/23            Y15   0000
0074068801095399992013-09-23081809CE09027004122004820131015138  00000000005000.00MXP000000000MARISOL LOPEZ AGUIRRE         00000002013/09/23            Y15   0000
0074068801095399992013-09-23079995CE09027004140011820131038067  00000000000613.80MXP000000000CARLOS RAMON BRUNO            00000002013/09/23            Y15   0000
0074068801095399992013-09-23079373CE09027004140011820131013532  00000000002730.00MXP000000000CARLOS RAMON BRUNO            00000002013/09/23            Y15   0000
0074068801095399992013-09-23078333CE09027004140011820131057307  00000000002455.20MXP000000000CARLOS RAMON BRUNO            00000002013/09/23            Y15   0000
0074068801095399992013-09-23077723CE09027004140011820131033670  00000000000613.80MXP000000000CARLOS RAMON BRUNO            00000002013/09/23            Y15   0000
0074068801095399992013-09-23076852CE09027004140011820131017822  00000000002730.00MXP000000000CARLOS RAMON BRUNO            00000002013/09/23            Y15   0000
0074068801095399992013-09-23058775CE09027004140013720131055772  00000000000500.00MXP000000000BULMARO CABRERA AGUILAR       00000002013/09/23            Y15   0000
0074068801095399992013-09-23058181CE09027004140013720131036863  00000000000613.80MXP000000000BULMARO CABRERA AGUILAR       00000002013/09/23            Y15   0000
0074068801095399992013-09-23057617CE09027004140013720131014357  00000000002000.00MXP000000000BULMARO CABRERA AGUILAR       00000002013/09/23            Y15   0000
0074068801095399992013-09-23057010CE09027004140013720131053314  00000000003069.00MXP000000000BULMARO CABRERA AGUILAR       00000002013/09/23            Y15   0000
0074068801095399992013-09-23056479CE09027004140013720131015131  00000000002730.00MXP000000000BULMARO CABRERA AGUILAR       00000002013/09/23            Y15   0000
0074068801095399992013-09-23055552CE09027004140013720131035485  00000000000613.80MXP000000000BULMARO CABRERA AGUILAR       00000002013/09/23            Y15   0000
0074068801095399992013-09-23044056CE09027004130024420131033311  00000000009207.00MXP000000000JUAN BAEZ HERNANDEZ           00000002013/09/23            Y15   0000
0074068801095399992013-09-23043548CARGO CHEQUE                  10000000036089.25MXP000000000C000043548ECTIVO              00000002013/09/23            C03   0000
0074068801095399992013-09-23043546CARGO CHEQUE                  10000000002597.50MXP000000000C000043546ECTIVO              00000002013/09/23            C03   0000
0074068801095399992013-09-23043531CARGO CHEQUE                  10000000000832.00MXP000000000C000043531ECTIVO              00000002013/09/23            C03   0000
0074068801095399992013-09-23043512CARGO CHEQUE                  10000000005150.00MXP000000000C000043512ECTIVO              00000002013/09/23            C03   0000
0074068801095399992013-09-23043510CARGO CHEQUE                  10000000035000.00MXP000000000C000043510ECTIVO              00000002013/09/23            C03   0000
0074068801095399992013-09-23043497CARGO CHEQUE                  10000000001487.38MXP000000000C000043497ECTIVO              00000002013/09/23            C03   0000
0074068801095399992013-09-23043310CARGO CHEQUE                  10000000027639.90MXP000000000C000043310ECTIVO              00000002013/09/23            C03   0000
0074068801095399992013-09-23042686CE09027004130024420131010871  00000000010000.00MXP000000000JUAN BAEZ HERNANDEZ           00000002013/09/23            Y15   0000
0074068801095399992013-09-23041632CE09027004130024420131015136  00000000018500.00MXP000000000ANTONIO PEREZ VELAZQUEZ       00000002013/09/23            Y15   0000
0074068801095399992013-09-23040303CE09027004130024420131035480  00000000009207.00MXP000000000ANTONIO PEREZ VELAZQUEZ       00000002013/09/23            Y15   0000
0074068801095399992013-09-23000000COMPRA FONDOS INVERSION       10000001499968.83MXP000000000OPERADO EN CANAL:  SUCU       00000002013/09/23            F01   0000
0074068801095399992013-09-23000000SALDO ULTIMA TRANS            20000034274613.19MXP000000000                              00000002013/09/23                  0000
0074068801095399992013-09-20344551CE09027004123034620131015134  00000000010000.00MXP000000000MIGUEL ANGEL BARRAGAN JUAREZ  00000002013/09/20            Y15   0000
0074068801095399992013-09-20344243CE09027004123034620131033319  00000000010000.00MXP000000000MIGUEL ANGEL BARRAGAN JUAREZ  00000002013/09/20            Y15   0000
0074068801095399992013-09-20325696CE09027004071027220131015133  00000000011040.00MXP000000000JAVIER CASTA#EDA RODRIGUEZ    00000002013/09/20            Y15   0000
0074068801095399992013-09-20324937CE09027004071027220131035487  00000000002762.10MXP000000000JAVIER CASTA#EDA RODRIGUEZ    00000002013/09/20            Y15   0000
0074068801095399992013-09-20264138CE09027004011018720131030872  00000000001236.60MXP000000000CARLOS HELMUTH RAUCH OLIMAN   00000002013/09/20            Y15   0000
0074068801095399992013-09-20262948CE09027004011018720131015139  00000000150000.00MXP000000000CARLOS HELMUTH RAUCH OLIMAN   00000002013/09/20            Y15   0000
0074068801095399992013-09-20257027CE09027004011018720131055481  00000000200000.00MXP000000000CARLOS HELMUTH RAUCH OLIMAN   00000002013/09/20            Y15   0000
0074068801095399992013-09-20250606CE09027004061026920131015130  00000000020000.00MXP000000000ALFONSO LIRA GAYOSSO          00000002013/09/20            Y15   0000
0074068801095399992013-09-20165736CE09027004130037820101014354  00000000005000.00MXP000000000RAFAEL CASTA#EDA REYES        00000002013/09/20            Y15   0000
0074068801095399992013-09-20165106CE09027004130037820101058062  00000000009175.00MXP000000000RAFAEL CASTA#EDA REYES        00000002013/09/20            Y15   0000
0074068801095399992013-09-20164843CE09027004130037820101035771  00000000001361.75MXP000000000RAFAEL CASTA#EDA REYES        00000002013/09/20            Y15   0000
0074068801095399992013-09-20111898CE09027004110021820131010877  00000000015000.00MXP000000000JAVIER HERNANDEZ FLORES       00000002013/09/20            Y15   0000
0074068801095399992013-09-20043594CARGO CHEQUE                  10000000067235.00MXP000000000C000043594ECTIVO              00000002013/09/20            C03   0000
0074068801095399992013-09-20043588CARGO CHEQUE                  10000000042000.00MXP000000000C000043588ECTIVO              00000002013/09/20            C03   0000
0074068801095399992013-09-20043580CARGO CHEQUE                  10000000004000.00MXP000000000C000043580ECTIVO              00000002013/09/20            C03   0000
0074068801095399992013-09-20043544CARGO CHEQUE                  10000000012594.00MXP000000000C000043544ECTIVO              00000002013/09/20            C03   0000
0074068801095399992013-09-20043529CARGO CHEQUE                  10000000011722.25MXP000000000C000043529ECTIVO              00000002013/09/20            C03   0000
0074068801095399992013-09-20043522CARGO CHEQUE                  10000000006221.84MXP000000000C000043522ECTIVO              00000002013/09/20            C03   0000
0074068801095399992013-09-20043521CARGO CHEQUE                  10000006580838.00MXP000000000C000043521 DE DEPOSITO:KTM970800000002013/09/20            C03   0000
0074068801095399992013-09-20043505CARGO CHEQUE                  10000000013991.70MXP000000000C000043505 DE DEPOSITO:SOCM67000000002013/09/20            C03   0000
0074068801095399992013-09-20043483CARGO CHEQUE                  10000000001913.50MXP000000000C000043483ECTIVO              00000002013/09/20            C03   0000
0074068801095399992013-09-20043466CARGO CHEQUE                  10000000050361.75MXP000000000C000043466ECTIVO              00000002013/09/20            C03   0000
0074068801095399992013-09-20043379CARGO CHEQUE                  10000000014061.90MXP000000000C000043379ECTIVO              00000002013/09/20            C03   0000
0074068801095399992013-09-20000000CARGO TRASPASO MISMA PLAZA CW 10000000000113.40MXP000000000415000142012203 49            00000002013/09/20            W41   0000
0074068801095399992013-09-20000000CARGO TRASPASO MISMA PLAZA CW 10000000001181.60MXP000000000415000182012203 51            00000002013/09/20            W41   0000
0074068801095399992013-09-20000000CARGO TRASPASO MISMA PLAZA CW 10000000001181.60MXP000000000415000182012203 53            00000002013/09/20            W41   0000
0074068801095399992013-09-20000000CARGO TRASPASO MISMA PLAZA CW 10000000001182.00MXP000000000415000182012202 50            00000002013/09/20            W41   0000
0074068801095399992013-09-20000000CARGO TRASPASO MISMA PLAZA CW 10000000001182.00MXP000000000415000182012202 52            00000002013/09/20            W41   0000
0074068801095399992013-09-20000000CARGO TRASPASO MISMA PLAZA CW 10000000004000.00MXP0000000003305004220121055164 ORD 149   00000002013/09/20            W41   0000
0074068801095399992013-09-20000000CARGO TRASPASO MISMA PLAZA CW 10000000004453.60MXP000000000415000142012202 48            00000002013/09/20            W41   0000
0074068801095399992013-09-20000000SALDO ULTIMA TRANS            20000035215163.50MXP000000000                              00000002013/09/20                  0000
0074068801095399992013-09-19489895CE09027004071047020121015481  00000000028834.66MXP000000000DANIEL ALONSO ARANA           00000002013/09/19            Y15   0000
0074068801095399992013-09-19488916CE09027004071047020121030878  00000000003106.00MXP000000000DANIEL ALONSO ARANA           00000002013/09/19            Y15   0000
0074068801095399992013-09-19488223CE09027004071047020121053318  00000000020000.00MXP000000000DANIEL ALONSO ARANA           00000002013/09/19            Y15   0000
0074068801095399992013-09-19487401CE09027004171020120091055134  00000000001000.00MXP000000000JOSE LUIS FELIPE BRIGIDO      00000002013/09/19            Y15   0000
0074068801095399992013-09-19475506CE09027004061000620131015136  00000000003000.00MXP000000000ANALLELY QUINTERO CASTRO      00000002013/09/19            Y15   0000
0074068801095399992013-09-19474719CE09027004061000620131055777  00000000003000.00MXP000000000ANALLELY QUINTERO CASTRO      00000002013/09/19            Y15   0000
0074068801095399992013-09-19474084CE09027004061000620131054358  00000000003500.00MXP000000000ANALLELY QUINTERO CASTRO      00000002013/09/19            Y15   0000
0074068801095399992013-09-19473203CE09027004061000620131030879  00000000001841.40MXP000000000ANALLELY QUINTERO CASTRO      00000002013/09/19            Y15   0000
0074068801095399992013-09-19470598CE09027004052037920131995485  00000000020000.00MXP000000000TRIBUNAL SUPERIOR DE JUSTICIA 00000002013/09/19            Y15   0000
0074068801095399992013-09-19467560CE09027004052036920131015483  00000000020000.00MXP000000000SALVADOR ORTA COBOS           00000002013/09/19            Y15   0000
0074068801095399992013-09-19467147CE09027004052036920131030870  00000000006138.00MXP000000000SALVADOR ORTA COBOS           00000002013/09/19            Y15   0000
0074068801095399992013-09-19465587CE09027004071035920101050875  00000000004250.00MXP000000000LUISALBERTOVILLANUEVARODRIGUEZ00000002013/09/19            Y15   0000
0074068801095399992013-09-19450350CE09027004160006120121054355  00000000002954.00MXP000000000JOSE DE LA CRUZ MARTINEZ      00000002013/09/19            Y15   0000
0074068801095399992013-09-19449592CE09027004160006120121033318  00000000005908.00MXP000000000JOSE DE LA CRUZ MARTINEZ      00000002013/09/19            Y15   0000
0074068801095399992013-09-19448782CE09027004160006120121010878  00000000025874.85MXP000000000JOSE DE LA CRUZ MARTINEZ      00000002013/09/19            Y15   0000
0074068801095399992013-09-19447854CE09027004160009620111035485  00000000002000.00MXP000000000FLORIBERTO GONZALEZ MARTINEZ  00000002013/09/19            Y15   0000
0074068801095399992013-09-19446394CE09027004160009620111015131  00000000046000.00MXP000000000FLORIBERTO GONZALEZ MARTINEZ  00000002013/09/19            Y15   0000
0074068801095399992013-09-19431162CE09027004071054220121030874  00000000002363.20MXP000000000VICENTE OROPEZA RUFINO        00000002013/09/19            Y15   0000
0074068801095399992013-09-19429622CE09027004071054220121053314  00000000002954.00MXP000000000VICENTE OROPEZA RUFINO        00000002013/09/19            Y15   0000
0074068801095399992013-09-19429175CE09027004071054220121055483  00000000002954.00MXP000000000JOSE LUIS VALLES ESPINOZA     00000002013/09/19            Y15   0000
0074068801095399992013-09-19428104CE09027004071054220121035139  00000000002363.20MXP000000000JOSE LUIS VALLES ESPINOZA     00000002013/09/19            Y15   0000
0074068801095399992013-09-19395102CE09027004080024220131010872  00000000008892.00MXP000000000ALFREDO HERNANDEZ ZARATE      00000002013/09/19            Y15   0000
0074068801095399992013-09-19394733CE09027004080024220131055489  00000000005000.00MXP000000000ALFREDO HERNANDEZ ZARATE      00000002013/09/19            Y15   0000
0074068801095399992013-09-19394177CE09027004080024220131035135  00000000006108.00MXP000000000ALFREDO HERNANDEZ ZARATE      00000002013/09/19            Y15   0000
0074068801095399992013-09-19393052CE09027004140013620121053318  00000000002455.20MXP000000000ZACARIAS HERNANDEZ SOTO       00000002013/09/19            Y15   0000
0074068801095399992013-09-19392709CE09027004140013620121030878  00000000000613.80MXP000000000ZACARIAS HERNANDEZ SOTO       00000002013/09/19            Y15   0000
0074068801095399992013-09-19392404CE09027004140013620121015481  00000000002730.00MXP000000000ZACARIAS HERNANDEZ SOTO       00000002013/09/19            Y15   0000
0074068801095399992013-09-19387912CE09027004080024120131054351  00000000005000.00MXP000000000EDWIN MORALES CARRILLO        00000002013/09/19            Y15   0000
0074068801095399992013-09-19387521CE09027004080024220131033312  00000000006108.00MXP000000000EDWIN MORALES CARRILLO        00000002013/09/19            Y15   0000
0074068801095399992013-09-19386834CE09027004080024120131015139  00000000008892.00MXP000000000EDWIN MORALES CARRILLO        00000002013/09/19            Y15   0000
0074068801095399992013-09-19043584CARGO CHEQUE                  10000000025925.00MXP000000000C000043584ECTIVO              00000002013/09/19            C03   0000
0074068801095399992013-09-19043578CARGO CHEQUE                  10000000007200.00MXP000000000C000043578ECTIVO              00000002013/09/19            C03   0000
0074068801095399992013-09-19043534CARGO CHEQUE                  10000000120000.00MXP000000000C000043534                    00000002013/09/19            C03   0000
0074068801095399992013-09-19043532CARGO CHEQUE                  10000000017829.00MXP000000000C000043532ECTIVO              00000002013/09/19            C03   0000
0074068801095399992013-09-19043524CARGO CHEQUE                  10000000031447.00MXP000000000C000043524ECTIVO              00000002013/09/19            C03   0000
0074068801095399992013-09-19043514CARGO CHEQUE                  10000000054675.00MXP000000000C000043514ECTIVO              00000002013/09/19            C03   0000
0074068801095399992013-09-19043504CARGO CHEQUE                  10000000011103.00MXP000000000C000043504ECTIVO              00000002013/09/19            C03   0000
0074068801095399992013-09-19043480CARGO CHEQUE                  10000000041185.00MXP000000000C000043480ECTIVO              00000002013/09/19            C03   0000
0074068801095399992013-09-19000000ABONO TRASPASO MISMA PLAZA CW 00000000000666.00MXP000000000415000312010299               00000002013/09/19            W42   0000
0074068801095399992013-09-19000000ABONO TRASPASO MISMA PLAZA CW 00000000000666.00MXP000000000415000312010299               00000002013/09/19            W42   0000
0074068801095399992013-09-19000000ABONO TRASPASO MISMA PLAZA CW 00000000000668.00MXP000000000415000312010299               00000002013/09/19            W42   0000
0074068801095399992013-09-19000000VENTA FONDOS DE INVERSION     00000006580012.46MXP000000000OPERADO EN CANAL   SUCU       00000002013/09/19            F04   0000
0074068801095399992013-09-19000000CARGO TRASPASO MISMA PLAZA CW 10000000000122.52MXP000000000415000282012202               00000002013/09/19            W41   0000
0074068801095399992013-09-19000000CARGO TRASPASO MISMA PLAZA CW 10000000000296.00MXP000000000408002302012203               00000002013/09/19            W41   0000
0074068801095399992013-09-19000000CARGO TRASPASO MISMA PLAZA CW 10000000000354.48MXP000000000415000112011203               00000002013/09/19            W41   0000
0074068801095399992013-09-19000000CARGO TRASPASO MISMA PLAZA CW 10000000000567.50MXP000000000405300272011203               00000002013/09/19            W41   0000
0074068801095399992013-09-19000000CARGO TRASPASO MISMA PLAZA CW 10000000000645.00MXP000000000414000732009202               00000002013/09/19            W41   0000
0074068801095399992013-09-19000000CARGO TRASPASO MISMA PLAZA CW 10000000000649.88MXP000000000415000282012203               00000002013/09/19            W41   0000
0074068801095399992013-09-19000000CARGO TRASPASO MISMA PLAZA CW 10000000001875.00MXP000000000408002302012202               00000002013/09/19            W41   0000
0074068801095399992013-09-19000000CARGO TRASPASO MISMA PLAZA CW 10000000002268.00MXP000000000330703102011203               00000002013/09/19            W41   0000
0074068801095399992013-09-19000000CARGO TRASPASO MISMA PLAZA CW 10000000002749.60MXP000000000330801112013202               00000002013/09/19            W41   0000
0074068801095399992013-09-19000000CARGO TRASPASO MISMA PLAZA CW 10000000004994.00MXP000000000405300272011202               00000002013/09/19            W41   0000
0074068801095399992013-09-19000000CARGO TRASPASO MISMA PLAZA CW 10000000005150.00MXP000000000330600782010202               00000002013/09/19            W41   0000
0074068801095399992013-09-19000000CARGO TRASPASO MISMA PLAZA CW 10000000005550.00MXP000000000413001582012202               00000002013/09/19            W41   0000
0074068801095399992013-09-19000000CARGO TRASPASO MISMA PLAZA CW 10000000007005.52MXP000000000415000112011202               00000002013/09/19            W41   0000
0074068801095399992013-09-19000000CARGO TRASPASO MISMA PLAZA CW 10000000011548.00MXP000000000407100422011203 NO 2          00000002013/09/19            W41   0000
0074068801095399992013-09-19000000CARGO TRASPASO MISMA PLAZA CW 10000000018250.00MXP000000000330703102011202               00000002013/09/19            W41   0000
0074068801095399992013-09-19000000CARGO TRASPASO MISMA PLAZA CW 10000000021600.00MXP000000000407100422011202 NO 1          00000002013/09/19            W41   0000
0074068801095399992013-09-19000000SALDO ULTIMA TRANS            20000041597822.19MXP000000000                              00000002013/09/19                  0000
0074068801095399992013-09-18152103CE09027004122032320131050876  00000000002500.00MXP000000000ISMAEL ARCE ARCE              00000002013/09/18            Y15   0000
0074068801095399992013-09-18151669CE09027004122032320131035489  00000000002500.00MXP000000000ISMAEL ARCE ARCE              00000002013/09/18            Y15   0000
0074068801095399992013-09-18151312CE09027004122032320131015135  00000000006000.00MXP000000000ISMAEL ARCE ARCE              00000002013/09/18            Y15   0000
0074068801095399992013-09-18146656CE09027004180017520121053312  00000000028000.00MXP000000000ALFREDO CABRERA MERLOS        00000002013/09/18            Y15   0000
0074068801095399992013-09-18145587CE09027004180017520121015139  00000000005000.00MXP000000000ALFREDO CABRERA MERLOS        00000002013/09/18            Y15   0000
0074068801095399992013-09-18095012CE09027004061037520121053534  00000000003000.00MXP000000000EFRAIN JIMENEZ MARTINEZ       00000002013/09/18            Y15   0000
0074068801095399992013-09-18094723CE09027004061037520121035770  00000000001773.00MXP000000000EFRAIN JIMENEZ MARTINEZ       00000002013/09/18            Y15   0000
0074068801095399992013-09-18094220CE09027004061037520121015137  00000000003000.00MXP000000000EFRAIN JIMENEZ MARTINEZ       00000002013/09/18            Y15   0000
0074068801095399992013-09-18093366CE09027004061037520121057824  00000000003000.00MXP000000000EFRAIN JIMENEZ MARTINEZ       00000002013/09/18            Y15   0000
0074068801095399992013-09-18043582CARGO CHEQUE                  10000000089712.00MXP000000000C000043582ECTIVO              00000002013/09/18            C03   0000
0074068801095399992013-09-18043554CARGO CHEQUE                  10000000142773.44MXP000000000C000043554 DE DEPOSITO:AARS91000000002013/09/18            C03   0000
0074068801095399992013-09-18043533CARGO CHEQUE                  10000000006561.00MXP000000000C000043533ECTIVO              00000002013/09/18            C03   0000
0074068801095399992013-09-18043517CARGO CHEQUE                  10000000009450.00MXP000000000C000043517ECTIVO              00000002013/09/18            C03   0000
0074068801095399992013-09-18043516CARGO CHEQUE                  10000000007350.00MXP000000000C000043516ECTIVO              00000002013/09/18            C03   0000
0074068801095399992013-09-18043511CARGO CHEQUE                  10000000018786.35MXP000000000C000043511ECTIVO              00000002013/09/18            C03   0000
0074068801095399992013-09-18043481CARGO CHEQUE                  10000000003402.00MXP000000000C000043481ECTIVO              00000002013/09/18            C03   0000
0074068801095399992013-09-18043402CARGO CHEQUE                  10000000000906.25MXP000000000C000043402ECTIVO              00000002013/09/18            C03   0000
0074068801095399992013-09-18000000CARGO TRASPASO MISMA PLAZA CW 10000000000150.00MXP000000000330101952008201 ORD 13 SEP    00000002013/09/18            W41   0000
0074068801095399992013-09-18000000CARGO TRASPASO MISMA PLAZA CW 10000000000392.00MXP000000000330100602013201 ORD 13 SEP    00000002013/09/18            W41   0000
0074068801095399992013-09-18000000CARGO TRASPASO MISMA PLAZA CW 10000000000500.00MXP000000000330603242012201 ORD 13 SEP    00000002013/09/18            W41   0000
0074068801095399992013-09-18000000CARGO TRASPASO MISMA PLAZA CW 10000000000500.00MXP000000000330101572012201 ORD 13 SEP    00000002013/09/18            W41   0000
0074068801095399992013-09-18000000CARGO TRASPASO MISMA PLAZA CW 10000000000500.00MXP000000000330102092010201 ORD 13 SEP    00000002013/09/18            W41   0000
0074068801095399992013-09-18000000CARGO TRASPASO MISMA PLAZA CW 10000000001200.00MXP000000000330302472011201 ORD 13 SEP    00000002013/09/18            W41   0000
0074068801095399992013-09-18000000CARGO TRASPASO MISMA PLAZA CW 10000000001500.00MXP000000000413000572013201 ORD 13 SEP    00000002013/09/18            W41   0000
0074068801095399992013-09-18000000CARGO TRASPASO MISMA PLAZA CW 10000000001700.00MXP000000000330400592011201 ORD 13 SEP    00000002013/09/18            W41   0000
0074068801095399992013-09-18000000CARGO TRASPASO MISMA PLAZA CW 10000000001820.00MXP000000000414000922012201 ORD 13 SEP    00000002013/09/18            W41   0000
0074068801095399992013-09-18000000CARGO TRASPASO MISMA PLAZA CW 10000000002000.00MXP000000000330600132012201 ORD 13 SEP    00000002013/09/18            W41   0000
0074068801095399992013-09-18000000CARGO TRASPASO MISMA PLAZA CW 10000000002000.00MXP000000000330604362004201 ORD 13 SEP    00000002013/09/18            W41   0000
0074068801095399992013-09-18000000CARGO TRASPASO MISMA PLAZA CW 10000000002000.00MXP000000000330300472012201 ORD 13 SEP    00000002013/09/18            W41   0000
0074068801095399992013-09-18000000CARGO TRASPASO MISMA PLAZA CW 10000000002730.00MXP000000000414001302012201 ORD 13 SEP    00000002013/09/18            W41   0000
0074068801095399992013-09-18000000CARGO TRASPASO MISMA PLAZA CW 10000000003000.00MXP000000000330600802010201 ORD 13 SEP    00000002013/09/18            W41   0000
0074068801095399992013-09-18000000CARGO TRASPASO MISMA PLAZA CW 10000000003000.00MXP000000000330101572012201 ORD 13 SEP    00000002013/09/18            W41   0000
0074068801095399992013-09-18000000CARGO TRASPASO MISMA PLAZA CW 10000000003000.00MXP000000000330302432012201 ORD 13 SEP    00000002013/09/18            W41   0000
0074068801095399992013-09-18000000CARGO TRASPASO MISMA PLAZA CW 10000000003000.00MXP000000000330102092010201 ORD 13 SEP    00000002013/09/18            W41   0000
0074068801095399992013-09-18000000CARGO TRASPASO MISMA PLAZA CW 10000000003010.00MXP000000000405400472011201 ORD 13 SEP    00000002013/09/18            W41   0000
0074068801095399992013-09-18000000CARGO TRASPASO MISMA PLAZA CW 10000000003500.00MXP000000000330201302013201 ORD 13 SEP    00000002013/09/18            W41   0000
0074068801095399992013-09-18000000CARGO TRASPASO MISMA PLAZA CW 10000000004000.00MXP000000000330600132012201 ORD 13 SEP    00000002013/09/18            W41   0000
0074068801095399992013-09-18000000CARGO TRASPASO MISMA PLAZA CW 10000000004000.00MXP000000000330603092011201 ORD 13 SEP    00000002013/09/18            W41   0000
0074068801095399992013-09-18000000CARGO TRASPASO MISMA PLAZA CW 10000000005000.00MXP000000000330702212011201 ORD 13 SEP    00000002013/09/18            W41   0000
0074068801095399992013-09-18000000CARGO TRASPASO MISMA PLAZA CW 10000000005000.00MXP000000000413000572013201 ORD 13 SEP    00000002013/09/18            W41   0000
0074068801095399992013-09-18000000CARGO TRASPASO MISMA PLAZA CW 10000000005000.00MXP000000000330101952008201 ORD 13 SEP    00000002013/09/18            W41   0000
0074068801095399992013-09-18000000CARGO TRASPASO MISMA PLAZA CW 10000000005000.00MXP000000000330304192012201 ORD 13 SEP    00000002013/09/18            W41   0000
0074068801095399992013-09-18000000CARGO TRASPASO MISMA PLAZA CW 10000000006000.00MXP000000000412200482008201 ORD 13 SEP    00000002013/09/18            W41   0000
0074068801095399992013-09-18000000CARGO TRASPASO MISMA PLAZA CW 10000000006000.00MXP000000000330903402012201 ORD 13 SEP    00000002013/09/18            W41   0000
0074068801095399992013-09-18000000CARGO TRASPASO MISMA PLAZA CW 10000000006431.30MXP000000000414000892006201 ORD 13 SEP    00000002013/09/18            W41   0000
0074068801095399992013-09-18000000CARGO TRASPASO MISMA PLAZA CW 10000000007818.30MXP000000000405203612011201 ORD 13 SEP    00000002013/09/18            W41   0000
0074068801095399992013-09-18000000CARGO TRASPASO MISMA PLAZA CW 10000000008000.00MXP000000000413003112011201 ORD 13 SEP    00000002013/09/18            W41   0000
0074068801095399992013-09-18000000CARGO TRASPASO MISMA PLAZA CW 10000000008000.00MXP000000000406100802012201 ORD 13 SEP    00000002013/09/18            W41   0000
0074068801095399992013-09-18000000CARGO TRASPASO MISMA PLAZA CW 10000000008000.00MXP000000000406100802012201 ORD 13 SEP    00000002013/09/18            W41   0000
0074068801095399992013-09-18000000CARGO TRASPASO MISMA PLAZA CW 10000000008500.00MXP000000000330702172011201 ORD 13 SEP    00000002013/09/18            W41   0000
0074068801095399992013-09-18000000CARGO TRASPASO MISMA PLAZA CW 10000000008892.00MXP000000000330902392013201 ORD 13 SEP    00000002013/09/18            W41   0000
0074068801095399992013-09-18000000CARGO TRASPASO MISMA PLAZA CW 10000000010000.00MXP000000000330501492013201 ORD 13 SEP    00000002013/09/18            W41   0000
0074068801095399992013-09-18000000CARGO TRASPASO MISMA PLAZA CW 10000000010523.00MXP000000000405201812012201 ORD 13 SEP    00000002013/09/18            W41   0000
0074068801095399992013-09-18000000CARGO TRASPASO MISMA PLAZA CW 10000000012500.00MXP000000000330702172011201 ORD 13 SEP    00000002013/09/18            W41   0000
0074068801095399992013-09-18000000CARGO TRASPASO MISMA PLAZA CW 10000000013707.00MXP000000000405400882013201 ORD 13 SEP    00000002013/09/18            W41   0000
0074068801095399992013-09-18000000CARGO TRASPASO MISMA PLAZA CW 10000000015000.00MXP000000000405200062011201 ORD 13 SEP    00000002013/09/18            W41   0000
0074068801095399992013-09-18000000CARGO TRASPASO MISMA PLAZA CW 10000000017249.90MXP000000000330302232012201 ORD 13 SEP    00000002013/09/18            W41   0000
0074068801095399992013-09-18000000CARGO TRASPASO MISMA PLAZA CW 10000000023000.00MXP000000000405204132011201 ORD 13 SEP    00000002013/09/18            W41   0000
0074068801095399992013-09-18000000CARGO TRASPASO MISMA PLAZA CW 10000000025000.00MXP000000000418001432012201 ORD 13 SEP    00000002013/09/18            W41   0000
0074068801095399992013-09-18000000CARGO TRASPASO MISMA PLAZA CW 10000000028917.00MXP000000000405203792011201 ORD 13 SEP    00000002013/09/18            W41   0000
0074068801095399992013-09-18000000CARGO TRASPASO MISMA PLAZA CW 10000000034499.80MXP000000000330304442012201 ORD 13 SEP    00000002013/09/18            W41   0000
0074068801095399992013-09-18000000SALDO ULTIMA TRANS            20000035154958.92MXP000000000                              00000002013/09/18                  0000
0074068801095399992013-09-17750265CE70982404071013820121010477  00000000015000.00MXP000000000GUILLERMO TLAXCA MOTA         00000002013/09/17            Y05   0000
0074068801095399992013-09-17750264CE70982404071013820121050614  00000000000200.00MXP000000000GUILLERMO TLAXCA MOTA         00000002013/09/17            Y05   0000
0074068801095399992013-09-17750263CE70982404071013820121035169  00000000002835.00MXP000000000GUILLERMO TLAXCA MOTA         00000002013/09/17            Y05   0000
0074068801095399992013-09-17750262CE70982404071013820121032679  00000000001134.00MXP000000000GUILLERMO TLAXCA MOTA         00000002013/09/17            Y05   0000
0074068801095399992013-09-17750261CE70982404071013820121034089  00000000000567.00MXP000000000GUILLERMO TLAXCA MOTA         00000002013/09/17            Y05   0000
0074068801095399992013-09-17750260CE70982404071013820121030384  00000000000170.00MXP000000000GUILLERMO TLAXCA MOTA         00000002013/09/17            Y05   0000
0074068801095399992013-09-17750259CE70982403307021320131018874  00000000008000.00MXP000000000RAFAEL ALVAREZ GARITA         00000002013/09/17            Y05   0000
0074068801095399992013-09-17750258CE70982403307021320131054184  00000000001500.00MXP000000000RAFAEL ALVAREZ GARITA         00000002013/09/17            Y05   0000
0074068801095399992013-09-17750257CE70982403307021320131059027  00000000001000.00MXP000000000RAFAEL ALVAREZ GARITA         00000002013/09/17            Y05   0000
0074068801095399992013-09-17750256CE70982403307021320131051685  00000000003000.00MXP000000000RAFAEL ALVAREZ GARITA         00000002013/09/17            Y05   0000
0074068801095399992013-09-17750255CE70982403307021320131030606  00000000002750.00MXP000000000RAFAEL ALVAREZ GARITA         00000002013/09/17            Y05   0000
0074068801095399992013-09-17750254CE70982403307021320131038344  00000000002750.00MXP000000000RAFAEL ALVAREZ GARITA         00000002013/09/17            Y05   0000
0074068801095399992013-09-17750253CE70982403307021020131032491  00000000001720.00MXP000000000OMAR JESUS FERNANDEZ PEREZ    00000002013/09/17            Y05   0000
0074068801095399992013-09-17750252CE70982403307021020131050469  00000000001280.00MXP000000000OMAR JESUS FERNANDEZ PEREZ    00000002013/09/17            Y05   0000
0074068801095399992013-09-17750251CE70982403307021020131018813  00000000005000.00MXP000000000OMAR JESUS FERNANDEZ PEREZ    00000002013/09/17            Y05   0000
0074068801095399992013-09-17750250CE70982403307020920131019649  00000000005000.00MXP000000000RAUL MONARCA CHINA            00000002013/09/17            Y05   0000
0074068801095399992013-09-17750249CE70982403307020120131011809  00000000021500.00MXP000000000FERNANDO GONZALEZ MARINO      00000002013/09/17            Y05   0000
0074068801095399992013-09-17750248CE70982403307020120131031880  00000000000500.00MXP000000000FERNANDO GONZALEZ MARINO      00000002013/09/17            Y05   0000
0074068801095399992013-09-17750247CE70982404110006620101054593  00000000011520.00MXP000000000GRACIELA ESPINDOLA SANCHEZ    00000002013/09/17            Y05   0000
0074068801095399992013-09-17750246CE70982404110006620101058172  00000000011520.00MXP000000000GRACIELA ESPINDOLA SANCHEZ    00000002013/09/17            Y05   0000
0074068801095399992013-09-17750245CE70982404110006620101038711  00000000000500.00MXP000000000GRACIELA ESPINDOLA SANCHEZ    00000002013/09/17            Y05   0000
0074068801095399992013-09-17750244CE70982404110006620101038398  00000000000500.00MXP000000000GRACIELA ESPINDOLA SANCHEZ    00000002013/09/17            Y05   0000
0074068801095399992013-09-17750243CE70982404110006620101010827  00000000004500.00MXP000000000GRACIELA ESPINDOLA SANCHEZ    00000002013/09/17            Y05   0000
0074068801095399992013-09-17750242CE70982404110006620101010215  00000000004500.00MXP000000000GRACIELA ESPINDOLA SANCHEZ    00000002013/09/17            Y05   0000
0074068801095399992013-09-17750241CE70982404110006620101017301  00000000003500.00MXP000000000GRACIELA ESPINDOLA SANCHEZ    00000002013/09/17            Y05   0000
0074068801095399992013-09-17750240CE70982404110006620101013672  00000000003500.00MXP000000000GRACIELA ESPINDOLA SANCHEZ    00000002013/09/17            Y05   0000
0074068801095399992013-09-17750239CE70982404110006620101037820  00000000000600.00MXP000000000GRACIELA ESPINDOLA SANCHEZ    00000002013/09/17            Y05   0000
0074068801095399992013-09-17750238CE70982404110006620101038067  00000000000600.00MXP000000000GRACIELA ESPINDOLA SANCHEZ    00000002013/09/17            Y05   0000
0074068801095399992013-09-17750237CE70982403306028220131013534  00000000010600.00MXP000000000AMPARO ARTEAGA TLACUAHUAC     00000002013/09/17            Y05   0000
0074068801095399992013-09-17750236CE70982403306028220131035776  00000000005900.00MXP000000000AMPARO ARTEAGA TLACUAHUAC     00000002013/09/17            Y05   0000
0074068801095399992013-09-17750235CE70982403306028120131036867  00000000003000.00MXP000000000JONATHAN CASTILLO TLELO       00000002013/09/17            Y05   0000
0074068801095399992013-09-17750234CE70982403306028120131014351  00000000009000.00MXP000000000JONATHAN CASTILLO TLELO       00000002013/09/17            Y05   0000
0074068801095399992013-09-17750233CE70982403306027520131013314  00000000005000.00MXP000000000ROSENDO DE JESUS SOSA LOPEZ   00000002013/09/17            Y05   0000
0074068801095399992013-09-17750232CE70982403306027420131010875  00000000010000.00MXP000000000JOSE LUIS SANCHEZ SILVA       00000002013/09/17            Y05   0000
0074068801095399992013-09-17750231CE70982403306027120131015482  00000000015000.00MXP000000000MARIA DEL CARMEN SUSNAVAR RODR00000002013/09/17            Y05   0000
0074068801095399992013-09-17750230CE70982403306027020131055134  00000000035000.00MXP000000000MANUEL TORIZ CHAVARRIA        00000002013/09/17            Y05   0000
0074068801095399992013-09-17328625CE09027004110021720131038060  00000000001228.00MXP000000000JULIO ARROYO HUERTA           00000002013/09/17            Y15   0000
0074068801095399992013-09-17327963CE09027004110021720131013535  00000000007300.00MXP000000000JULIO ARROYO HUERTA           00000002013/09/17            Y15   0000
0074068801095399992013-09-17327181CE09027004110021720131030216  00000000001228.00MXP000000000EPIFANIO PASTRANA ALVAREZ     00000002013/09/17            Y15   0000
0074068801095399992013-09-17326226CE09027004110021720131017304  00000000007300.00MXP000000000EPIFANIO PASTRANA ALVAREZ     00000002013/09/17            Y15   0000
0074068801095399992013-09-17325127CE09027004110021720131014350  00000000007300.00MXP000000000GENARA PASTRANA ALVAREZ       00000002013/09/17            Y15   0000
0074068801095399992013-09-17324084CE09027004110021720131035777  00000000001228.00MXP000000000GENARA PASTRANA ALVAREZ       00000002013/09/17            Y15   0000
0074068801095399992013-09-17322839CE09027004110021720131015134  00000000007300.00MXP000000000MARIA DEL ROSARIO ARROYO PASTR00000002013/09/17            Y15   0000
0074068801095399992013-09-17321988CE09027004110021720131033319  00000000001228.00MXP000000000MARIA DEL ROSARIO ARROYO PASTR00000002013/09/17            Y15   0000
0074068801095399992013-09-17321038CE09027004110021720131033673  00000000001228.00MXP000000000CAROLINA PASTRANA ALVAREZ     00000002013/09/17            Y15   0000
0074068801095399992013-09-17320186CE09027004110021720131017825  00000000007300.00MXP000000000CAROLINA PASTRANA ALVAREZ     00000002013/09/17            Y15   0000
0074068801095399992013-09-17268089CE09027004125050720131035480  00000000000430.00MXP000000000JOSE CARLOS SERRANO LARA      00000002013/09/17            Y15   0000
0074068801095399992013-09-17267726CE09027004125050720131015136  00000000006750.00MXP000000000JOSE CARLOS SERRANO LARA      00000002013/09/17            Y15   0000
0074068801095399992013-09-17265110CE09027004125052820131016866  00000000002608.00MXP000000000LUCIANO CRISPIN ALVARADO BRAVO00000002013/09/17            Y15   0000
0074068801095399992013-09-17264601CE09027004125052820131054354  00000000020000.00MXP000000000LUCIANO CRISPIN ALVARADO BRAVO00000002013/09/17            Y15   0000
0074068801095399992013-09-17262654CE09027004125043820131030877  00000000009207.00MXP000000000PEDRO RAMIREZ REYES           00000002013/09/17            Y15   0000
0074068801095399992013-09-17262266CE09027004125043820131015480  00000000003857.00MXP000000000PEDRO RAMIREZ REYES           00000002013/09/17            Y15   0000
0074068801095399992013-09-17260892CE09027004125044320131035777  00000000004000.00MXP000000000JOSE IGNACIO MIRAFUENTES MENDE00000002013/09/17            Y15   0000
0074068801095399992013-09-17260439CE09027004125044320131056864  00000000001228.00MXP000000000JOSE IGNACIO MIRAFUENTES MENDE00000002013/09/17            Y15   0000
0074068801095399992013-09-17259051CE09027004125044320131010879  00000000006518.00MXP000000000JOSE IGNACIO MIRAFUENTES MENDE00000002013/09/17            Y15   0000
0074068801095399992013-09-17257665CE09027004125048220131015777  00000000003909.00MXP000000000ROBERTO RONZON RAMOS          00000002013/09/17            Y15   0000
0074068801095399992013-09-17254156CE09027004140012420121010876  00000000005475.00MXP000000000RAFAEL DIAZ HERRERA           00000002013/09/17            Y15   0000
0074068801095399992013-09-17253096CE09027004140012420121033316  00000000003069.00MXP000000000RAFAEL DIAZ HERRERA           00000002013/09/17            Y15   0000
0074068801095399992013-09-17250972CE09027004140012420121054353  00000000003069.00MXP000000000RAFAEL DIAZ HERRERA           00000002013/09/17            Y15   0000
0074068801095399992013-09-17233049CE195085330103592013001ESC95  00000000006138.00MXP000000000728871                        00000002013/09/17            Y15   0000
0074068801095399992013-09-17232745CE195085330103592013002ESC95  00000000004419.00MXP000000000722816                        00000002013/09/17            Y15   0000
0074068801095399992013-09-17219801CE195085330703712013004ESC95  00000000009207.00MXP000000000722858                        00000002013/09/17            Y15   0000
0074068801095399992013-09-17219218CE195085330703712013003ESC95  00000000015000.00MXP000000000722835                        00000002013/09/17            Y15   0000
0074068801095399992013-09-17216545CE09027004122012620131035775  00000000002500.00MXP000000000AMBROCIO MONTALVO ANSELMO     00000002013/09/17            Y15   0000
0074068801095399992013-09-17215568CE09027004122012620131016866  00000000005000.00MXP000000000AMBROCIO MONTALVO ANSELMO     00000002013/09/17            Y15   0000
0074068801095399992013-09-17215256CE195085330103632013001ESC95  00000000006138.00MXP000000000728810                        00000002013/09/17            Y15   0000
0074068801095399992013-09-17214571CE195085330103632013002ESC95  00000000004419.00MXP000000000722852                        00000002013/09/17            Y15   0000
0074068801095399992013-09-17212334CE195085330303382013002ESC95  00000000009207.00MXP000000000722888                        00000002013/09/17            Y15   0000
0074068801095399992013-09-17211793CE195085330303382013003ESC95  00000000001500.00MXP000000000726866                        00000002013/09/17            Y15   0000
0074068801095399992013-09-17211490CE195085330303382013001ESC95  00000000015000.00MXP000000000722865                        00000002013/09/17            Y15   0000
0074068801095399992013-09-17183405CE09027004180012620131035484  00000000000613.80MXP000000000CESAR VERA GARCIA             00000002013/09/17            Y15   0000
0074068801095399992013-09-17182544CE09027004180012620131015130  00000000010000.00MXP000000000CESAR VERA GARCIA             00000002013/09/17            Y15   0000
0074068801095399992013-09-17167111CE195085330703722013001ESC95  00000000009207.00MXP000000000722802                        00000002013/09/17            Y15   0000
0074068801095399992013-09-17166779CE195085330703722013002ESC95  00000000010000.00MXP000000000727890                        00000002013/09/17            Y15   0000
0074068801095399992013-09-17160712CE195085330102342013003ESC95  00000000002000.00MXP000000000722818                        00000002013/09/17            Y15   0000
0074068801095399992013-09-17160414CE195085330102342013002ESC95  00000000003069.00MXP000000000724821                        00000002013/09/17            Y15   0000
0074068801095399992013-09-17160160CE195085330102342013001ESC95  00000000013625.00MXP000000000727837                        00000002013/09/17            Y15   0000
0074068801095399992013-09-17126547CE09027004110021620131015482  00000000010000.00MXP000000000ISAAC GALEANA VILLEGAS        00000002013/09/17            Y15   0000
0074068801095399992013-09-17125686CE09027004110021620131050877  00000000030000.00MXP000000000ISAAC GALEANA VILLEGAS        00000002013/09/17            Y15   0000
0074068801095399992013-09-17124733CE09027004110021620131055132  00000000010000.00MXP000000000ISAAC GALEANA VILLEGAS        00000002013/09/17            Y15   0000
0074068801095399992013-09-17117428CE195085330904192012001ESC95  00000000004498.84MXP000000000729809                        00000002013/09/17            Y15   0000
0074068801095399992013-09-17043539CARGO CHEQUE                  10000000030401.50MXP000000000C000043539ECTIVO              00000002013/09/17            C03   0000
0074068801095399992013-09-17043535CARGO CHEQUE                  10000000006000.00MXP000000000C000043535ECTIVO              00000002013/09/14            C03   0000
0074068801095399992013-09-17043509CARGO CHEQUE                  10000000001250.40MXP000000000C000043509ECTIVO              00000002013/09/17            C03   0000
0074068801095399992013-09-17043506CARGO CHEQUE                  10000000067283.20MXP000000000C000043506ECTIVO              00000002013/09/17            C03   0000
0074068801095399992013-09-17043502CARGO CHEQUE                  10000000012357.00MXP000000000C000043502ECTIVO              00000002013/09/17            C03   0000
0074068801095399992013-09-17043476CARGO CHEQUE                  10000000007475.00MXP000000000C000043476ECTIVO              00000002013/09/17            C03   0000
0074068801095399992013-09-17016032CE09027004150002620131010870  00000000004000.00MXP000000000ARTURO LOBATO ATENO           00000002013/09/14            Y15   0000
0074068801095399992013-09-17015798CE09027004150002620131033310  00000000013810.50MXP000000000ARTURO LOBATO ATENO           00000002013/09/14            Y15   0000
0074068801095399992013-09-17015723CE09027004150002620131054357  00000000010000.00MXP000000000ARTURO LOBATO ATENO           00000002013/09/14            Y15   0000
0074068801095399992013-09-17000000CARGO TRASPASO MISMA PLAZA CW 10000000005908.00MXP000000000330100602013201 J JULIAN PALAC00000002013/09/17            W41   0000
0074068801095399992013-09-17000000SALDO ULTIMA TRANS            20000035700667.26MXP000000000                              00000002013/09/17                  0000
0074068801095399992013-09-13476741CE195085330703532013005ESC95  00000000002000.00MXP000000000682859                        00000002013/09/13            Y15   0000
0074068801095399992013-09-13476161CE195085330703532013001ESC95  00000000020000.00MXP000000000684890                        00000002013/09/13            Y15   0000
0074068801095399992013-09-13475825CE195085330703532013002ESC95  00000000005000.00MXP000000000685829                        00000002013/09/13            Y15   0000
0074068801095399992013-09-13475451CE195085330703532013003ESC95  00000000005000.00MXP000000000685852                        00000002013/09/13            Y15   0000
0074068801095399992013-09-13475126CE195085330703532013004ESC95  00000000002000.00MXP000000000682836                        00000002013/09/13            Y15   0000
0074068801095399992013-09-13474704CE195085330703532013007ESC95  00000000017900.00MXP000000000681892                        00000002013/09/13            Y15   0000
0074068801095399992013-09-13474277CE195085330703532013006ESC95  00000000049900.00MXP000000000684811                        00000002013/09/13            Y15   0000
0074068801095399992013-09-13445680CE195085330201872013001ESC95  00000000007662.50MXP000000000684803                        00000002013/09/13            Y15   0000
0074068801095399992013-09-13444118CE195085330703712013002ESC95  00000000009207.00MXP000000000682895                        00000002013/09/13            Y15   0000
0074068801095399992013-09-13443166CE195085330703712013001ESC95  00000000015000.00MXP000000000682872                        00000002013/09/13            Y15   0000
0074068801095399992013-09-13429167CE195085330503252013002ESC95  00000000004296.60MXP000000000687808                        00000002013/09/13            Y15   0000
0074068801095399992013-09-13428350CE195085330503252013001ESC95  00000000007000.00MXP000000000687882                        00000002013/09/13            Y15   0000
0074068801095399992013-09-13418445CE09027004052036920131033312  00000000006138.00MXP000000000ALEJANDRO CASTILLO MONTES     00000002013/09/13            Y15   0000
0074068801095399992013-09-13417629CE09027004052036920131010872  00000000020000.00MXP000000000ALEJANDRO CASTILLO MONTES     00000002013/09/13            Y15   0000
0074068801095399992013-09-13416938CE09027004052036920131035481  00000000006138.00MXP000000000CARLOS ALBERTO COTA PAYAN     00000002013/09/13            Y15   0000
0074068801095399992013-09-13416235CE09027004052036920131015137  00000000020000.00MXP000000000CARLOS ALBERTO COTA PAYAN     00000002013/09/13            Y15   0000
0074068801095399992013-09-13367795CE09027003502011320131054356  00000000002688.00MXP000000000ANALY LAZARO MERINO           00000002013/09/13            Y15   0000
0074068801095399992013-09-13330368CE09027004073015620121030879  00000000005980.00MXP000000000JUAN CASTILLO AMBROSIO        00000002013/09/13            Y15   0000
0074068801095399992013-09-13330048CE09027004073015620121015482  00000000003020.00MXP000000000JUAN CASTILLO AMBROSIO        00000002013/09/13            Y15   0000
0074068801095399992013-09-13329655CE09027004073017820131035136  00000000001300.00MXP000000000ENRIQUE CARMONA GALINDO       00000002013/09/13            Y15   0000
0074068801095399992013-09-13325479CE195085330603482012003ESC95  00000000023500.00MXP000000000682833                        00000002013/09/13            Y15   0000
0074068801095399992013-09-13325084CE195085330603482012001ESC95  00000000008000.00MXP000000000688865                        00000002013/09/13            Y15   0000
0074068801095399992013-09-13324762CE195085330603482012002ESC95  00000000001595.16MXP000000000689804                        00000002013/09/13            Y15   0000
0074068801095399992013-09-13320848CE09027004061022620131015486  00000000003000.00MXP000000000ALEJANDRA VERGARA IBARRA      00000002013/09/13            Y15   0000
0074068801095399992013-09-13320269CE09027004061022620131033315  00000000000675.00MXP000000000ALEJANDRA VERGARA IBARRA      00000002013/09/13            Y15   0000
0074068801095399992013-09-13319469CE09027004061022620131036862  00000000000736.56MXP000000000ALEJANDRA VERGARA IBARRA      00000002013/09/13            Y15   0000
0074068801095399992013-09-13310164CE09027004171006720131035489  00000000003050.00MXP000000000ALFREDO AGUILAR HERNANDEZ     00000002013/09/13            Y15   0000
0074068801095399992013-09-13309016CE09027004171006720131015135  00000000007000.00MXP000000000ALFREDO AGUILAR HERNANDEZ     00000002013/09/13            Y15   0000
0074068801095399992013-09-13306416CE195085330703752013003ESC95  00000000000683.00MXP000000000687841                        00000002013/09/13            Y15   0000
0074068801095399992013-09-13305923CE195085330703752013002ESC95  00000000009207.00MXP000000000682850                        00000002013/09/13            Y15   0000
0074068801095399992013-09-13305675CE195085330502552013004ESC95  00000000002946.24MXP000000000687886                        00000002013/09/13            Y15   0000
0074068801095399992013-09-13305012CE195085330703752013001ESC95  00000000012000.00MXP000000000689821                        00000002013/09/13            Y15   0000
0074068801095399992013-09-13304742CE195085330502552013003ESC95  00000000004500.00MXP000000000689889                        00000002013/09/13            Y15   0000
0074068801095399992013-09-13304262CE09027003501004620131055134  00000000028350.00MXP000000000ANGEL RAUL TELLEZ FONSECA     00000002013/09/13            Y15   0000
0074068801095399992013-09-13304067CE195085330603622013001ESC95  00000000007000.00MXP000000000687825                        00000002013/09/13            Y15   0000
0074068801095399992013-09-13304009CE195085330502552013002ESC95  00000000006138.00MXP000000000688853                        00000002013/09/13            Y15   0000
0074068801095399992013-09-13303470CE195085330603622013002ESC95  00000000003069.00MXP000000000684809                        00000002013/09/13            Y15   0000
0074068801095399992013-09-13303013CE195085330502552013001ESC95  00000000007000.00MXP000000000687817                        00000002013/09/13            Y15   0000
0074068801095399992013-09-13302783CE195085330603622013003ESC95  00000000001500.00MXP000000000686858                        00000002013/09/13            Y15   0000
0074068801095399992013-09-13302298CE195085330900072013002ESC95  00000000001534.50MXP000000000686871                        00000002013/09/13            Y15   0000
0074068801095399992013-09-13301865CE195085330900072013001ESC95  00000000003105.00MXP000000000681880                        00000002013/09/13            Y15   0000
0074068801095399992013-09-13297847CE195085330100362012001ESC95  00000000002399.70MXP000000000684852                        00000002013/09/13            Y15   0000
0074068801095399992013-09-13293286CE09027004130025320131015137  00000000020000.00MXP000000000VICTOR IGNACIO HERNANDEZ FELIP00000002013/09/13            Y15   0000
0074068801095399992013-09-13273556CE195085330703732013004ESC95  00000000000600.00MXP000000000688851                        00000002013/09/13            Y15   0000
0074068801095399992013-09-13273219CE195085330703732013002ESC95  00000000012276.00MXP000000000680895                        00000002013/09/13            Y15   0000
0074068801095399992013-09-13272808CE195085330703732013003ESC95  00000000000300.00MXP000000000689841                        00000002013/09/13            Y15   0000
0074068801095399992013-09-13272343CE195085330703732013005ESC95  00000000002300.00MXP000000000681880                        00000002013/09/13            Y15   0000
0074068801095399992013-09-13271120CE195085330703732013001ESC95  00000000018000.00MXP000000000685840                        00000002013/09/13            Y15   0000
0074068801095399992013-09-13236451CE09027004100005620103315770  00000000003000.00MXP000000000RIGOBERTO SERRANO OLIVARES    00000002013/09/13            Y15   0000
0074068801095399992013-09-13235733CE09027004100005620131057824  00000000001000.00MXP000000000RIGOBERTO SERRANO OLIVARES    00000002013/09/13            Y15   0000
0074068801095399992013-09-13234392CE09027004100005620131013314  00000000004000.00MXP000000000RIGOBERTO SERRANO OLIVARES    00000002013/09/13            Y15   0000
0074068801095399992013-09-13209122CE09027004073015120131035489  00000000002000.00MXP000000000LUZ DEL CARMEN RODRIGUEZ VELA 00000002013/09/13            Y15   0000
0074068801095399992013-09-13207258CE09027004011028820131030878  00000000000618.30MXP000000000FELIX VAZQUEZ GOMEZ           00000002013/09/13            Y15   0000
0074068801095399992013-09-13206798CE09027004011028820131055487  00000000004000.00MXP000000000FELIX VAZQUEZ GOMEZ           00000002013/09/13            Y15   0000
0074068801095399992013-09-13206324CE09027004011028820131015135  00000000005000.00MXP000000000FELIX VAZQUEZ GOMEZ           00000002013/09/13            Y15   0000
0074068801095399992013-09-13175368CE09027004040005320131035486  00000000000736.56MXP000000000PABLO MAURO GASPAR CONDE      00000002013/09/13            Y15   0000
0074068801095399992013-09-13175000CE09027004040005320131050873  00000000003069.00MXP000000000PABLO MAURO GASPAR CONDE      00000002013/09/13            Y15   0000
0074068801095399992013-09-13174623CE09027004040005320131015132  00000000005229.15MXP000000000PABLO MAURO GASPAR CONDE      00000002013/09/13            Y15   0000
0074068801095399992013-09-13043557CARGO CHEQUE                  10000000011883.83MXP000000000C000043557ECTIVO              00000002013/09/13            C03   0000
0074068801095399992013-09-13043523CARGO CHEQUE                  10000000226872.00MXP000000000C000043523 DE DEPOSITO:SCA801200000002013/09/13            C03   0000
0074068801095399992013-09-13043501CARGO CHEQUE                  10000000008500.00MXP000000000C000043501ECTIVO              00000002013/09/13            C03   0000
0074068801095399992013-09-13043492CARGO CHEQUE                  10000000021830.00MXP000000000C000043492ECTIVO              00000002013/09/13            C03   0000
0074068801095399992013-09-13043487CARGO CHEQUE                  10000000105150.00MXP000000000C000043487 DE DEPOSITO:PEVR79000000002013/09/13            C03   0000
0074068801095399992013-09-13043486CARGO CHEQUE                  10000000046751.80MXP000000000C000043486ECTIVO              00000002013/09/13            C03   0000
0074068801095399992013-09-13043482CARGO CHEQUE                  10000000055808.90MXP000000000C000043482ECTIVO              00000002013/09/13            C03   0000
0074068801095399992013-09-13043471CARGO CHEQUE                  10000000020000.00MXP000000000C000043471ECTIVO              00000002013/09/13            C03   0000
0074068801095399992013-09-13043462CARGO CHEQUE                  10000000002265.60MXP000000000C000043462ECTIVO              00000002013/09/13            C03   0000
0074068801095399992013-09-13043455CARGO CHEQUE                  10000000026478.40MXP000000000C000043455ECTIVO              00000002013/09/13            C03   0000
0074068801095399992013-09-13043444CARGO CHEQUE                  10000000000635.50MXP000000000C000043444ECTIVO              00000002013/09/13            C03   0000
0074068801095399992013-09-13043414CARGO CHEQUE                  10000000006158.08MXP000000000C000043414ECTIVO              00000002013/09/13            C03   0000
0074068801095399992013-09-13043399CARGO CHEQUE                  10000000010894.00MXP000000000C000043399ECTIVO              00000002013/09/13            C03   0000
0074068801095399992013-09-13041497ABONO TRASPASO MISMA PLAZA CW 00000000002380.00MXP00007407333092192007202 ORD S/N REVERSO00038482013/09/13H TRIBUNAL SW42TNN0000
0074068801095399992013-09-13041496ABONO TRASPASO MISMA PLAZA CW 00000000002380.00MXP000074072330902192007202 ORD S/N REVERS00038482013/09/13H TRIBUNAL SW42TNN0000
0074068801095399992013-09-13041495ABONO TRASPASO MISMA PLAZA CW 00000000002380.00MXP000074071330902192007202 ORD S/N REVERS00038482013/09/13H TRIBUNAL SW42TNN0000
0074068801095399992013-09-13041494ABONO TRASPASO MISMA PLAZA CW 00000000017500.00MXP000074070330902192007202 ORD S/N REVERS00038482013/09/13H TRIBUNAL SW42TNN0000
0074068801095399992013-09-13041491CARGO TRASPASO MISMA PLAZA CW 10000000000544.70MXP000217751416001162010202 ORD S/N CONMUT00038482013/09/13H TRIBUNAL SW41TNN0000
0074068801095399992013-09-13041490CARGO TRASPASO MISMA PLAZA CW 10000000002233.27MXP000217750350200682013203 ORD S/N MULTA 00038482013/09/13H TRIBUNAL SW41TNN0000
0074068801095399992013-09-13041489CARGO TRASPASO MISMA PLAZA CW 10000000005980.00MXP000217749350200682013202 ORD S/N CONMUT00038482013/09/13H TRIBUNAL SW41TNN0000
0074068801095399992013-09-13041488CARGO TRASPASO MISMA PLAZA CW 10000000013112.62MXP000217748330704052003203 ORD 128 MULTA 00038482013/09/13H TRIBUNAL SW41TNN0000
0074068801095399992013-09-13041487CARGO TRASPASO MISMA PLAZA CW 10000000004500.00MXP000217747330100272012202 ORD 128 CONMUT00038482013/09/13H TRIBUNAL SW41TNN0000
0074068801095399992013-09-13041486CARGO TRASPASO MISMA PLAZA CW 10000000002290.50MXP000217746350201982012203 ORD 136 MULTA 00038482013/09/13H TRIBUNAL SW41TNN0000
