0074068801095395302014-01-31436635CE09029804060080720120020215  00000000020000.00MXP000000000JAIR ALBERTO OLVERA GARRIDO   00000002014/01/31            Y15   0000
0074068801095395302014-01-31429570CC15173801106089620070990463  00000000005000.00MXP000000000INSTITUTO MEXICANO DEL SEGURO 00000002014/01/30            Y02   0000
0074068801095395302014-01-31429031CC15173801106089620070998813  00000000005000.00MXP000000000INSTITUTO MEXICANO DEL SEGURO 00000002014/01/30            Y02   0000
0074068801095395302014-01-31428452CC15173801106089620070991883  00000000005000.00MXP000000000INSTITUTO MEXICANO DEL SEGURO 00000002014/01/30            Y02   0000
0074068801095395302014-01-31366612CE09029804051039620090995480  00000000001800.00MXP000000000ESPERANZA HERNANDEZ RIVERA    00000002014/01/31            Y15   0000
0074068801095395302014-01-31101356CE09029804051087120100200477  00000000005000.00MXP000000000MARCO ANTONIO PRISCI LIANO LOZ00000002014/01/31            Y01   0000
0074068801095395302014-01-31032584CARGO CHEQUE                  10000000002400.00MXP000000000C000032584ECTIVO              00000002014/01/31            C03   0000
0074068801095395302014-01-31032580CARGO CHEQUE                  10000000001040.00MXP000000000C000032580ECTIVO              00000002014/01/31            C03   0000
0074068801095395302014-01-31032579CARGO CHEQUE                  10000000012174.08MXP000000000C000032579ECTIVO              00000002014/01/31            C03   0000
0074068801095395302014-01-31032577CARGO CHEQUE                  10000000007312.00MXP000000000C000032577ECTIVO              00000002014/01/31            C03   0000
0074068801095395302014-01-31032576CARGO CHEQUE                  10000000002000.00MXP000000000C000032576ECTIVO              00000002014/01/31            C03   0000
0074068801095395302014-01-31032529CARGO CHEQUE                  10000000002500.00MXP000000000C000032529ECTIVO              00000002014/01/31            C03   0000
0074068801095395302014-01-31024190CE09029804120058520110020823  00000000003507.44MXP000000000MARIO BALTAZAR MENDEZ         00000002014/01/31            Y15   0000
0074068801095395302014-01-31000000COMPRA FONDOS INVERSION       10000001154995.71MXP000000000OPERADO EN CANAL:  SUCU       00000002014/01/31            F01   0000
0074068801095395302014-01-31000000SALDO ULTIMA TRANS            20000002114318.68MXP000000000                              00000002014/01/31                  0000
0074068801095395302014-01-30494695CE09029804200042520130085136  00000000018000.00MXP000000000MARIADELOSANGELESESCOBEDOCRUZ 00000002014/01/30            Y15   0000
0074068801095395302014-01-30451024CE09029804051065120130205138  00000000009000.00MXP000000000HECTOR REY MORENO CINTORA     00000002014/01/30            Y15   0000
0074068801095395302014-01-30176953CE09029804030065020080095485  00000000072518.00MXP000000000JOSE HIPOLITO NAVA RUANO      00000002014/01/30            Y15   0000
0074068801095395302014-01-30134725CE09029804120132620130205139  00000000010000.00MXP000000000ARTURO NICOLAS PARES          00000002014/01/30            Y15   0000
0074068801095395302014-01-30120087CE09029804072089920120205131  00000000005000.00MXP000000000ROBERTO JUAREZ ORTEGA         00000002014/01/30            Y15   0000
0074068801095395302014-01-30064381CE09029804121115920110020824  00000000006127.78MXP000000000SANTA BARBARA  BENDITA FARMACE00000002014/01/30            Y15   0000
0074068801095395302014-01-30032586CARGO CHEQUE                  10000000007000.00MXP000000000C000032586ECTIVO              00000002014/01/30            C03   0000
0074068801095395302014-01-30032574CARGO CHEQUE                  10000000017300.98MXP000000000C000032574                    00000002014/01/30            C03   0000
0074068801095395302014-01-30032572CARGO CHEQUE                  10000000009292.00MXP000000000C000032572ECTIVO              00000002014/01/30            C03   0000
0074068801095395302014-01-30032553CARGO CHEQUE                  10000000003000.00MXP000000000C000032553ECTIVO              00000002014/01/30            C03   0000
0074068801095395302014-01-30032437CARGO CHEQUE                  10000000004600.00MXP000000000C000032437ECTIVO              00000002014/01/30            C03   0000
0074068801095395302014-01-30000000SALDO ULTIMA TRANS            20000003251433.03MXP000000000                              00000002014/01/30                  0000
0074068801095395302014-01-29376226CE09029804050113120130205488  00000000001000.00MXP000000000HUMBERTO BERRA ORLANSINO      00000002014/01/29            Y15   0000
0074068801095395302014-01-29229058CE09029804120002820120205779  00000000001500.00MXP000000000MARGARITO RIVERA MENDEZ       00000002014/01/29            Y15   0000
0074068801095395302014-01-29180893CE09029804010185920130040877  00000000005000.00MXP000000000ALBA SILVIA GARCIA OLMEDO     00000002014/01/29            Y15   0000
0074068801095395302014-01-29074364CE09029804131013020090209026  00000000002000.00MXP000000000RAMON MARIO CARVAJAL RAMOS    00000002014/01/29            Y15   0000
0074068801095395302014-01-29032569CARGO CHEQUE                  10000000024000.00MXP000000000C000032569ECTIVO              00000002014/01/29            C03   0000
0074068801095395302014-01-29032568CARGO CHEQUE                  10000000003268.00MXP000000000C000032568ECTIVO              00000002014/01/29            C03   0000
0074068801095395302014-01-29032567CARGO CHEQUE                  10000000003069.00MXP000000000C000032567ECTIVO              00000002014/01/29            C03   0000
0074068801095395302014-01-29032563CARGO CHEQUE                  10000000143941.45MXP000000000C000032563 DE DEPOSITO:RAMR78100000002014/01/29            C03   0000
0074068801095395302014-01-29032394CARGO CHEQUE                  10000000008000.00MXP000000000C000032394ECTIVO              00000002014/01/29            C03   0000
0074068801095395302014-01-29000000VENTA FONDOS DE INVERSION     00000001000001.70MXP000000000OPERADO EN CANAL   SUCU       00000002014/01/29            F04   0000
0074068801095395302014-01-29000000SALDO ULTIMA TRANS            20000003171980.23MXP000000000                              00000002014/01/29                  0000
0074068801095395302014-01-28480497CE09029804050157320130200870  00000000001500.00MXP000000000MARIO ARMANDO CARRO LOYOLA    00000002014/01/28            Y15   0000
0074068801095395302014-01-28366988CE09029804131100420110207303  00000000005739.30MXP000000000PABLO RENE ORDAZ SANCHEZ      00000002014/01/28            Y15   0000
0074068801095395302014-01-28348632CE09029804120119420130209489  00000000001000.00MXP000000000JAVIER SIRENA GUZMAN          00000002014/01/28            Y15   0000
0074068801095395302014-01-28026326CE09029804072013020130027822  00000000000600.00MXP000000000AGUSTIN RAMOS SANTOS          00000002014/01/28            Y15   0000
0074068801095395302014-01-28000000COMPRA FONDOS INVERSION       10000000149984.69MXP000000000OPERADO EN CANAL:  SUCU       00000002014/01/28            F01   0000
0074068801095395302014-01-28000000SALDO ULTIMA TRANS            20000002344756.98MXP000000000                              00000002014/01/28                  0000
0074068801095395302014-01-27447340CE09029804121076220130043311  00000000004000.00MXP000000000ALICIA GONZALEZ MADRID        00000002014/01/27            Y15   0000
0074068801095395302014-01-27443175CE09029802204177020020205168  00000000002800.00MXP000000000MANUEL LLERANDI COLONNIER     00000002014/01/27            Y15   0000
0074068801095395302014-01-27413784CE09029804072043620130995136  00000000002500.00MXP000000000JOSE JUAN AGUILAR HERNANDEZ   00000002014/01/27            Y15   0000
0074068801095395302014-01-27193773CC15173801112075420080998174  00000000001200.00MXP000000000IMSS                          00000002014/01/24            Y02   0000
0074068801095395302014-01-27193171CC15173801112075420080998398  00000000001200.00MXP000000000IMSS                          00000002014/01/24            Y02   0000
0074068801095395302014-01-27192508CC15173801112075420080994595  00000000001200.00MXP000000000IMSS                          00000002014/01/24            Y02   0000
0074068801095395302014-01-27191821CC15173801112075420080991880  00000000001200.00MXP000000000IMSS                          00000002014/01/24            Y02   0000
0074068801095395302014-01-27032547CARGO CHEQUE                  10000000052662.87MXP000000000C000032547ECTIVO              00000002014/01/27            C03   0000
0074068801095395302014-01-27032544CARGO CHEQUE                  10000000001552.50MXP000000000C000032544ECTIVO              00000002014/01/27            C03   0000
0074068801095395302014-01-27014581CE09029804050101320090201881  00000000000600.00MXP000000000ANTONIO TETZOPA SARMIENTO     00000002014/01/27            Y15   0000
0074068801095395302014-01-27000000SALDO ULTIMA TRANS            20000002485902.37MXP000000000                              00000002014/01/27                  0000
0074068801095395302014-01-24278732CE09029804050267919940025489  00000000286000.00MXP000000000HERMILA TLAQUE XICOTENCATL    00000002014/01/24            Y15   0000
0074068801095395302014-01-24218358CE09029804121063620130044356  00000000006000.00MXP000000000CIPRIANI VICTORIANO MORALES BA00000002014/01/24            Y15   0000
0074068801095395302014-01-24179674CE09029804072033420120023318  00000000003000.00MXP000000000HIRAM CALDERON PEREA          00000002014/01/24            Y15   0000
0074068801095395302014-01-24178802CE09029804072001420120028810  00000000008694.76MXP000000000FERNANDO RIVERA GARCIA        00000002014/01/24            Y15   0000
0074068801095395302014-01-24172540CE09029804050048820120028812  00000000003500.00MXP000000000ERICK OMAR BAUTISTA MARTINEZ  00000002014/01/24            Y15   0000
0074068801095395302014-01-24140770CE09029804050129220100025486  00000000003500.00MXP000000000PACIANO DIAZ RODRIGUEZ        00000002014/01/24            Y15   0000
0074068801095395302014-01-24122452CE09029804120105320120204357  00000000003353.90MXP000000000JOSE IGNACIO SANCHEZ SOLA     00000002014/01/24            Y15   0000
0074068801095395302014-01-24118463CE09029804072071220120025138  00000000001500.00MXP000000000RICARDO HERNANDEZ MONTES      00000002014/01/24            Y15   0000
0074068801095395302014-01-24032556CARGO CHEQUE                  10000000002500.00MXP000000000C000032556ECTIVO              00000002014/01/24            C03   0000
0074068801095395302014-01-24032545CARGO CHEQUE                  10000000014933.80MXP000000000C000032545ECTIVO              00000002014/01/24            C03   0000
0074068801095395302014-01-24032507CARGO CHEQUE                  10000000001600.00MXP000000000C000032507ECTIVO              00000002014/01/24            C03   0000
0074068801095395302014-01-24000000VENTA FONDOS DE INVERSION     00000001315010.94MXP000000000OPERADO EN CANAL   SUCU       00000002014/01/24            F04   0000
0074068801095395302014-01-24000000SALDO ULTIMA TRANS            20000002525417.74MXP000000000                              00000002014/01/24                  0000
0074068801095395302014-01-23379879CE09029804072020320130025136  00000000002000.00MXP000000000JORGE QUIROZ GARAY            00000002014/01/23            Y15   0000
0074068801095395302014-01-23357710CE09029804090012020130205777  00000000002500.00MXP000000000JAVIER MACIAS SANCHEZ         00000002014/01/23            Y15   0000
0074068801095395302014-01-23278693CE09029804121107120130205139  00000000001200.00MXP000000000LUIS MIGUEL SANCHEZ VAZQUEZ   00000002014/01/23            Y15   0000
0074068801095395302014-01-23197569CE09029804120090820120995133  00000000002000.00MXP000000000PEDRO ALFREDO MARTINEZ CORTES 00000002014/01/23            Y15   0000
0074068801095395302014-01-23032558CARGO CHEQUE                  10000000000719.99MXP000000000C000032558ECTIVO              00000002014/01/23            C03   0000
0074068801095395302014-01-23032551CARGO CHEQUE                  10000000000800.00MXP000000000C000032551ECTIVO              00000002014/01/23            C03   0000
0074068801095395302014-01-23032550CARGO CHEQUE                  10000000012500.00MXP000000000C000032550ECTIVO              00000002014/01/23            C03   0000
0074068801095395302014-01-23032540CARGO CHEQUE                  10000000001500.00MXP000000000C000032540ECTIVO              00000002014/01/23            C03   0000
0074068801095395302014-01-23032479CARGO CHEQUE                  10000000003000.00MXP000000000C000032479ECTIVO              00000002014/01/23            C03   0000
0074068801095395302014-01-23000000SALDO ULTIMA TRANS            20000000913891.94MXP000000000                              00000002014/01/23                  0000
0074068801095395302014-01-22466117CE09029804120116420130203311  00000000003500.00MXP000000000GILBERTO MARTINEZ MENDEZ      00000002014/01/22            Y15   0000
0074068801095395302014-01-22464476CE09029804050145020120202317  00000000002400.00MXP000000000RAFAEL IZELO ACA              00000002014/01/22            Y15   0000
0074068801095395302014-01-22418478CE09029804131008220140025136  00000000015400.00MXP000000000PAULA PEREZ HERNANDEZ         00000002014/01/22            Y15   0000
0074068801095395302014-01-22372377CE09029804120152920130025486  00000000002000.00MXP000000000FRANCISCO CRUZ RODRIGUEZ      00000002014/01/22            Y15   0000
0074068801095395302014-01-22249931CC15173802206011120130995487  00000000002730.41MXP000000000JOSE ISIDRO MORALES ZEPEDA    00000002014/01/21            Y02   0000
0074068801095395302014-01-22249369CC15173802204085420010990871  00000000097810.16MXP000000000INSTITUTO MEXICANO DEL SEGURO 00000002014/01/21            Y02   0000
0074068801095395302014-01-22232397DEVOL.CHQ 0232397 044         10000000097810.16MXP000000000CIE1151738 CD24        SUC068800000002014/01/22            C13   0000
0074068801095395302014-01-22137450CE09029804121093120130025483  00000000001000.00MXP000000000JOSE MANUEL GIL MEDRANO       00000002014/01/22            Y15   0000
0074068801095395302014-01-22111279CE09029804070004720140205137  00000000001200.00MXP000000000CRISTHIAN LUNA PEREZ          00000002014/01/22            Y15   0000
0074068801095395302014-01-22074403CE09029804180073120130025137  00000000002000.00MXP000000000CARLOS ALFREDO GARCIA MARTINEZ00000002014/01/22            Y15   0000
0074068801095395302014-01-22042826CE09029804120053720080207930  00000000000500.00MXP000000000LUIS ROBERTO PEREZ CASTILLA   00000002014/01/22            Y15   0000
0074068801095395302014-01-22032552CARGO CHEQUE                  10000000220698.25MXP000000000C000032552ECTIVO              00000002014/01/22            C03   0000
0074068801095395302014-01-22032548CARGO CHEQUE                  10000000006000.00MXP000000000C000032548ECTIVO              00000002014/01/22            C03   0000
0074068801095395302014-01-22032542CARGO CHEQUE                  10000000001200.00MXP000000000C000032542ECTIVO              00000002014/01/22            C03   0000
0074068801095395302014-01-22032539CARGO CHEQUE                  10000000001200.00MXP000000000C000032539ECTIVO              00000002014/01/22            C03   0000
0074068801095395302014-01-22032537CARGO CHEQUE                  10000000006400.00MXP000000000C000032537ECTIVO              00000002014/01/22            C03   0000
0074068801095395302014-01-22032532CARGO CHEQUE                  10000000001200.00MXP000000000C000032532ECTIVO              00000002014/01/22            C03   0000
0074068801095395302014-01-22032504CARGO CHEQUE                  10000000003000.00MXP000000000C000032504 DE DEPOSITO:FIVW62000000002014/01/22            C03   0000
0074068801095395302014-01-22031753CE09029804120129420130200874  00000000002100.00MXP000000000VICENTE SANCHEZ FLORES        00000002014/01/22            Y15   0000
0074068801095395302014-01-22000000VENTA FONDOS DE INVERSION     00000000677006.06MXP000000000OPERADO EN CANAL   SUCU       00000002014/01/22            F04   0000
0074068801095395302014-01-22000000SALDO ULTIMA TRANS            20000000924711.93MXP000000000                              00000002014/01/22                  0000
0074068801095395302014-01-21248190CE09029802205143020120995138  00000000003798.62MXP000000000SERVICIOS REFRESQUEROS DEL GOL00000002014/01/21            Y05   0000
0074068801095395302014-01-21104598CE09029804050004620130207824  00000000001000.00MXP000000000MIGUEL ANGEL RUGERIO CAPULIN  00000002014/01/21            Y15   0000
0074068801095395302014-01-21057357CE09029804050102720050202317  00000000002000.00MXP000000000JOSE ABRAHAM DE SANTIAGO PALAC00000002014/01/21            Y15   0000
0074068801095395302014-01-21041545CE09029804070185620050205450  00000000001000.00MXP000000000RAFAEL RAMIREZ ESPINOZA       00000002014/01/21            Y15   0000
0074068801095395302014-01-21032543CARGO CHEQUE                  10000000002500.00MXP000000000C000032543ECTIVO              00000002014/01/21            C03   0000
0074068801095395302014-01-21032538CARGO CHEQUE                  10000000003405.00MXP000000000C000032538ECTIVO              00000002014/01/21            C03   0000
0074068801095395302014-01-21032536CARGO CHEQUE                  10000000001040.00MXP000000000C000032536ECTIVO              00000002014/01/21            C03   0000
0074068801095395302014-01-21032535CARGO CHEQUE                  10000000014000.00MXP000000000C000032535ECTIVO              00000002014/01/21            C03   0000
0074068801095395302014-01-21029177CE09029804072000320130023317  00000000003600.00MXP000000000ARTURO CERVANTES ESCALONA     00000002014/01/21            Y15   0000
0074068801095395302014-01-21028349CE09029804072127520130025133  00000000001000.00MXP000000000RICARDO MENA TEXCUCANO        00000002014/01/21            Y15   0000
0074068801095395302014-01-21000000SALDO ULTIMA TRANS            20000000454573.71MXP000000000                              00000002014/01/21                  0000
0074068801095395302014-01-20381168CE09029804053030720110027309  00000000008000.00MXP000000000MARIA GUADALUPE LOPEZ RIVERA  00000002014/01/20            Y15   0000
0074068801095395302014-01-20363727CE09029804180055820120048062  00000000017300.98MXP000000000FLOR DE MARIA PAREDES REYES   00000002014/01/20            Y15   0000
0074068801095395302014-01-20342853CE09029804051011820130990879  00000000002250.00MXP000000000ROBERTO REYES AGUILAR         00000002014/01/20            Y15   0000
0074068801095395302014-01-20333935CE09029804051145420040203189  00000000004200.00MXP000000000FERNANDO JUAREZ CHINO         00000002014/01/20            Y15   0000
0074068801095395302014-01-20270657CE09029804090004720140025137  00000000007000.00MXP000000000GABINA FUENTES LOZANO         00000002014/01/20            Y15   0000
0074068801095395302014-01-20224089CE09029804080099520080209247  00000000002000.00MXP000000000CRISTOBAL RAMIREZ GARCIA      00000002014/01/20            Y15   0000
0074068801095395302014-01-20181665CE09029804131109120120025130  00000000002500.00MXP000000000FLORENCIA SANTIAGO ROMANO     00000002014/01/20            Y15   0000
0074068801095395302014-01-20171081CE09029801104039620110048872  00000000037100.14MXP000000000FRANCISCO LUCIANO SANTANA GARC00000002014/01/20            Y15   0000
0074068801095395302014-01-20095233SPEI RECIBIDO    0000001      00000000006400.00MXP000000000SUFICIENCIA FDOS ORD F11 FOLIO00000002014/01/20            T20   0000
0074068801095395302014-01-20091286CE09029804072063020110021885  00000000004000.00MXP000000000AMERICA PEREZ BONILLA         00000002014/01/20            Y15   0000
0074068801095395302014-01-20032528CARGO CHEQUE                  10000000002845.00MXP000000000C000032528ECTIVO              00000002014/01/20            C03   0000
0074068801095395302014-01-20032527CARGO CHEQUE                  10000000001040.00MXP000000000C000032527ECTIVO              00000002014/01/20            C03   0000
0074068801095395302014-01-20032523CARGO CHEQUE                  10000000002955.00MXP000000000C000032523ECTIVO              00000002014/01/20            C03   0000
0074068801095395302014-01-20032264CARGO CHEQUE                  10000000004727.09MXP000000000C000032264ECTIVO              00000002014/01/20            C03   0000
0074068801095395302014-01-20000000COMPRA FONDOS INVERSION       10000000384986.58MXP000000000OPERADO EN CANAL:  SUCU       00000002014/01/20            F01   0000
0074068801095395302014-01-20000000SALDO ULTIMA TRANS            20000000463120.09MXP000000000                              00000002014/01/20                  0000
0074068801095395302014-01-17391361CE09029804131006520140025131  00000000002000.00MXP000000000DIEGO BERNARDO ROBLES PARADA  00000002014/01/17            Y15   0000
0074068801095395302014-01-17374609CE09029804081146020110203675  00000000000450.00MXP000000000JESUS ELIAS DOMINGUEZ RAMOS   00000002014/01/17            Y15   0000
0074068801095395302014-01-17337125CE09029804081093120120203310  00000000001200.00MXP000000000ISAAC RODRIGO MARTINEZ PACHECO00000002014/01/17            Y15   0000
0074068801095395302014-01-17290978CE09029804072001420120029644  00000000008694.76MXP000000000FERNANDO RIVERA GARCIA        00000002014/01/17            Y15   0000
0074068801095395302014-01-17265283CE09029804050037420130025131  00000000003000.00MXP000000000JOSE C TLAKSANI HERNANDEZ     00000002014/01/17            Y15   0000
0074068801095395302014-01-17258905CE09029804070300920090208716  00000000007800.00MXP000000000JOSE PAZ HUGO RUIZ LOZADA     00000002014/01/17            Y15   0000
0074068801095395302014-01-17225858CE09029804050021120020201887  00000000002000.00MXP000000000FELIPE OLIVARES ARROYO        00000002014/01/17            Y15   0000
0074068801095395302014-01-17225671CE09029804081055520130025130  00000000003500.00MXP000000000JORGE LOPEZ RAMIREZ           00000002014/01/17            Y15   0000
0074068801095395302014-01-17223318CE09029804121004620140995136  00000000003378.00MXP000000000MARTIN BETANZO GINEZ          00000002014/01/17            Y15   0000
0074068801095395302014-01-17175976CE09029804050118120100204599  00000000003200.00MXP000000000JOSE ANTONIO CASTA#EDA AGUILAR00000002014/01/17            Y15   0000
0074068801095395302014-01-17173314CE09029804050118120100208178  00000000003200.00MXP000000000JOSE ANTONIO CASTA#EDA AGUILAR00000002014/01/17            Y15   0000
0074068801095395302014-01-17032524CARGO CHEQUE                  10000000001500.00MXP000000000C000032524ECTIVO              00000002014/01/17            C03   0000
0074068801095395302014-01-17032515CARGO CHEQUE                  10000000002500.00MXP000000000C000032515ECTIVO              00000002014/01/17            C03   0000
0074068801095395302014-01-17032514CARGO CHEQUE                  10000000010000.00MXP000000000C000032514ECTIVO              00000002014/01/17            C03   0000
0074068801095395302014-01-17032497CARGO CHEQUE                  10000000007000.00MXP000000000C000032497UE BBV              00000002014/01/17            C03   0000
0074068801095395302014-01-17032471CARGO CHEQUE                  10000000011306.92MXP000000000C000032471ECTIVO              00000002014/01/17            C03   0000
0074068801095395302014-01-17007441CC15173801109086220040997826  00000000000255.61MXP000000000INSTITUTO MEXICANO DEL SEGURO 00000002014/01/16            Y02   0000
0074068801095395302014-01-17005784CC15173801110058720090992496  00000000001408.21MXP000000000AUDITORIA SUPERIOR DEL ESTADO 00000002014/01/16            Y02   0000
0074068801095395302014-01-17004890CC15173801110058720090998345  00000000001408.21MXP000000000AUDITORIA SUPERIOR DEL ESTADO 00000002014/01/16            Y02   0000
0074068801095395302014-01-17000000SALDO ULTIMA TRANS            20000000768922.64MXP000000000                              00000002014/01/17                  0000
0074068801095395302014-01-16454168CE09029804090081820120200878  00000000002400.00MXP000000000LEONEL AGUILAR HERNANDEZ      00000002014/01/16            Y15   0000
0074068801095395302014-01-16446197CE09029804120097120120205135  00000000000040.00MXP000000000ENRIQUE LYIONS LOPEZ          00000002014/01/16            Y15   0000
0074068801095395302014-01-16429472CE09029804121075220130200870  00000000000600.00MXP000000000JAVIER GALVEZ AGUILAR         00000002014/01/16            Y15   0000
0074068801095395302014-01-16406111CE09029804121021320110207302  00000000006000.00MXP000000000ADRIAN CUEVAS VILLAGOMEZ      00000002014/01/16            Y15   0000
0074068801095395302014-01-16337335CE09029804081125920130025773  00000000002000.00MXP000000000JUAN CARLOS MITZI CUENCA      00000002014/01/16            Y15   0000
0074068801095395302014-01-16324370CE09029804053022720110025485  00000000007200.00MXP000000000PABLO LEZAMA CASTILLO         00000002014/01/16            Y15   0000
0074068801095395302014-01-16316997CE09029804050157320130205481  00000000001500.00MXP000000000MARIO ARMANDO CARRO LOYOLA    00000002014/01/16            Y15   0000
0074068801095395302014-01-16315073CE09029804051005920140025134  00000000003500.00MXP000000000ERICK PEREZ MELCHOR           00000002014/01/16            Y15   0000
0074068801095395302014-01-16032525CARGO CHEQUE                  10000000004396.57MXP000000000C000032525ECTIVO              00000002014/01/16            C03   0000
0074068801095395302014-01-16032512CARGO CHEQUE                  10000000005000.00MXP000000000C000032512 DE DEPOSITO:ZELA58000000002014/01/16            C03   0000
0074068801095395302014-01-16020023CE09029804050018320130205134  00000000012000.00MXP000000000GILBERTO GALLEGOS SOLIS       00000002014/01/16            Y15   0000
0074068801095395302014-01-16006799CE09029804051021320130993674  00000000004471.70MXP000000000VOLWAGEN DE MEXICO S.A.DE C.V.00000002014/01/16            Y05   0000
0074068801095395302014-01-16004063CE09029803304039020100995139  00000000194813.50MXP000000000VOLKSWAGEN DE MEXICO S.A.DE C.00000002014/01/16            Y05   0000
0074068801095395302014-01-16001169CE09029804120017620130203183  00000000001200.00MXP000000000MIGUEL LEOPOLDO RINCON MENDOZA00000002014/01/16            Y15   0000
0074068801095395302014-01-16000569CE09029804120017620130201310  00000000001200.00MXP000000000MIGUEL LEOPOLDO RINCON MENDOZA00000002014/01/16            Y15   0000
0074068801095395302014-01-16000000COMPRA FONDOS INVERSION       10000000499999.57MXP000000000OPERADO EN CANAL:  SUCU       00000002014/01/16            F01   0000
0074068801095395302014-01-16000000SALDO ULTIMA TRANS            20000000759734.77MXP000000000                              00000002014/01/16                  0000
0074068801095395302014-01-15473961CE09029804121004320140025139  00000000001000.00MXP000000000JUAN DANIEL ALENCASTER REYES  00000002014/01/15            Y15   0000
0074068801095395302014-01-15468431CE09029804050019720130206868  00000000001000.00MXP000000000JUAN CARLOS GONZALEZ MARTINEZ 00000002014/01/15            Y15   0000
0074068801095395302014-01-15468128CE09029804081005920140025131  00000000001117.00MXP000000000VICTOR BALDERAS MIRANDA       00000002014/01/15            Y15   0000
0074068801095395302014-01-15452883CE09029804121067820040209919  00000000001000.00MXP000000000SERGIO HUERTA HERNANDEZ       00000002014/01/15            Y15   0000
0074068801095395302014-01-15437202CE09029804010131020120042317  00000000006900.00MXP000000000BLANCA CELIA TORRES DELGADO   00000002014/01/15            Y15   0000
0074068801095395302014-01-15391961CE09029804131188020120206868  00000000001600.00MXP000000000BERNARDO MARTINEZ RAMIREZ     00000002014/01/15            Y15   0000
0074068801095395302014-01-15382132CE09029804051026320080200380  00000000002250.00MXP000000000JOSE GILDARDO CRUZ SANDOVAL   00000002014/01/15            Y15   0000
0074068801095395302014-01-15032517CARGO CHEQUE                  10000000103912.89MXP000000000C000032517ECTIVO              00000002014/01/15            C03   0000
0074068801095395302014-01-15032482CARGO CHEQUE                  10000000010000.00MXP000000000C000032482ECTIVO              00000002014/01/15            C03   0000
0074068801095395302014-01-15032476CARGO CHEQUE                  10000000003506.37MXP000000000C000032476ECTIVO              00000002014/01/15            C03   0000
0074068801095395302014-01-15031716CE09029804090030820080209648  00000000001000.00MXP000000000FRANCISCO MORALES BONILLA     00000002014/01/15            Y15   0000
0074068801095395302014-01-15026560CE09029804090039920090043671  00000000005700.00MXP000000000LEOPOLDO BRAVO ORTEGA         00000002014/01/15            Y15   0000
0074068801095395302014-01-15025277CE09029804120128020120204356  00000000001200.00MXP000000000LEONARDO DELFINO VAZQUEZ LERDO00000002014/01/15            Y15   0000
0074068801095395302014-01-15022655CE09029804120158720120203679  00000000000460.35MXP000000000JESUS PEREZ MITRE ARANGO      00000002014/01/15            Y15   0000
0074068801095395302014-01-15021116CE09029804070230820110203314  00000000002000.00MXP000000000MERCEDES CECILIA HERNANDEZ    00000002014/01/15            Y15   0000
0074068801095395302014-01-15006970CE09029804040029120090205480  00000000000200.00MXP000000000EDUARDO BENITO VAZQUEZ AVILA  00000002014/01/15            Y15   0000
0074068801095395302014-01-15005676CE09029804040029120090200879  00000000000200.00MXP000000000EDUARDO BENITO VAZQUEZ AVILA  00000002014/01/15            Y15   0000
0074068801095395302014-01-15004071CE09029804040000720120200873  00000000002800.00MXP000000000LUCINO MERINO MARTINEZ        00000002014/01/15            Y15   0000
0074068801095395302014-01-15002458CE09029804040000720120205484  00000000002800.00MXP000000000LUCINO MERINO MARTINEZ        00000002014/01/15            Y15   0000
0074068801095395302014-01-15000000SALDO ULTIMA TRANS            20000001032205.71MXP000000000                              00000002014/01/15                  0000
0074068801095395302014-01-14496457CE09029804050026320070208395  00000000001040.00MXP000000000JUAN VIVEROS MENDEZ           00000002014/01/14            Y15   0000
0074068801095395302014-01-14486555CE09029804131079920020206946  00000000002970.00MXP000000000MALCON ROMERO PEREZ           00000002014/01/14            Y15   0000
0074068801095395302014-01-14301221CE09029804072013020130028069  00000000000600.00MXP000000000AGUSTIN RAMOS SANTOS          00000002014/01/14            Y15   0000
0074068801095395302014-01-14277834CE09029804120012220130203534  00000000003667.20MXP000000000ARTEMIO RAMOS ZEPEDA          00000002014/01/14            Y15   0000
0074068801095395302014-01-14109031CE09029804090029820080204188  00000000001200.00MXP000000000FRANCISCO REYNOSO NATIVITAS   00000002014/01/14            Y15   0000
0074068801095395302014-01-14107296CE09029804050078320120200217  00000000002000.00MXP000000000FRANCISCO JAVIER DIJARD CERVAN00000002014/01/14            Y15   0000
0074068801095395302014-01-14036455CE09029804081053220120208067  00000000001000.00MXP000000000JHONY PAUL GALICIA RAMIREZ    00000002014/01/14            Y15   0000
0074068801095395302014-01-14032519CARGO CHEQUE                  10000000035000.00MXP000000000C000032519 DE DEPOSITO:JIRL86000000002014/01/14            C03   0000
0074068801095395302014-01-14032511CARGO CHEQUE                  10000000001500.00MXP000000000C000032511ECTIVO              00000002014/01/14            C03   0000
0074068801095395302014-01-14032510CARGO CHEQUE                  10000000001500.00MXP000000000C000032510ECTIVO              00000002014/01/14            C03   0000
0074068801095395302014-01-14032495CARGO CHEQUE                  10000000004000.00MXP000000000C000032495ECTIVO              00000002014/01/14            C03   0000
0074068801095395302014-01-14032372CARGO CHEQUE                  10000000011200.00MXP000000000C000032372ECTIVO              00000002014/01/14            C03   0000
0074068801095395302014-01-14000000VENTA FONDOS DE INVERSION     00000009772135.60MXP000000000OPERADO EN CANAL   SUCU       00000002014/01/14            F04   0000
0074068801095395302014-01-14000000VENTA FONDOS DE INVERSION     00000093963993.51MXP000000000OPERADO EN CANAL   SUCU       00000002014/01/14            F04   0000
0074068801095395302014-01-14000000CARGO TRASPASO MISMA PLAZA CW 10000001174305.21MXP000000000TRASP INTERE SEP DIC          00000002014/01/14            W41   0000
0074068801095395302014-01-14000000COMPRA FONDOS INVERSION       10000104348198.93MXP000000000OPERADO EN CANAL:  SUCU       00000002014/01/14            F01   0000
0074068801095395302014-01-14000000SALDO ULTIMA TRANS            20000001118397.62MXP000000000                              00000002014/01/14                  0000
0074068801095395302014-01-13397471CE09029804090177820040200466  00000000000600.00MXP000000000JULIO MARTINIANO CUELLAR      00000002014/01/13            Y15   0000
0074068801095395302014-01-13355374CE09029804053029720130204352  00000000002000.00MXP000000000HUMBERTO FLORES GARCIA        00000002014/01/13            Y15   0000
0074068801095395302014-01-13342399CE09029804050008520130020878  00000000003500.00MXP000000000NORMA EDIT ROSARIO JIMENEZ    00000002014/01/13            Y15   0000
0074068801095395302014-01-13298307CE09029804090039920090047821  00000000007400.00MXP000000000ELIAS LOPEZ CABRERA           00000002014/01/13            Y15   0000
0074068801095395302014-01-13280399CE09029804124024820130044354  00000000002000.00MXP000000000LUZ DE LACARIDADCARMONAAGUILER00000002014/01/13            Y15   0000
0074068801095395302014-01-13237272CE09029804072035520130025134  00000000000300.00MXP000000000EDUARDO PEREZ PEREZ           00000002014/01/13            Y15   0000
0074068801095395302014-01-13236443CE09029804072035520130025480  00000000002100.00MXP000000000EDUARDO PEREZ PEREZ           00000002014/01/13            Y15   0000
0074068801095395302014-01-13189228CE09029804090006320080201315  00000000002337.75MXP000000000JOSE ALBERTO LIMA PRADO       00000002014/01/13            Y15   0000
0074068801095395302014-01-13160802CE09029804050151020130203538  00000000003000.00MXP000000000JOSE MANUEL ENRIQUE CARRILLO  00000002014/01/13            Y15   0000
0074068801095395302014-01-13141638CE09029804080099520080202234  00000000002000.00MXP000000000CRISTOBAL RAMIREZ GARCIA      00000002014/01/13            Y15   0000
0074068801095395302014-01-13032520CARGO CHEQUE                  10000000000700.00MXP000000000C000032520ECTIVO              00000002014/01/13            C03   0000
0074068801095395302014-01-13032516CARGO CHEQUE                  10000000005634.44MXP000000000C000032516ECTIVO              00000002014/01/13            C03   0000
0074068801095395302014-01-13032513CARGO CHEQUE                  10000000008000.00MXP000000000C000032513                    00000002014/01/13            C03   0000
0074068801095395302014-01-13032506CARGO CHEQUE                  10000000030000.00MXP000000000C000032506ECTIVO              00000002014/01/13            C03   0000
0074068801095395302014-01-13032502CARGO CHEQUE                  10000000020000.00MXP000000000C000032502ECTIVO              00000002014/01/13            C03   0000
0074068801095395302014-01-13032501CARGO CHEQUE                  10000000229605.00MXP000000000C000032501 DE DEPOSITO:MODP50000000002014/01/13            C03   0000
0074068801095395302014-01-13032490CARGO CHEQUE                  10000000005200.00MXP000000000C000032490ECTIVO              00000002014/01/13            C03   0000
0074068801095395302014-01-13000000VENTA FONDOS DE INVERSION     00000000870005.83MXP000000000OPERADO EN CANAL   SUCU       00000002014/01/13            F04   0000
0074068801095395302014-01-13000000SALDO ULTIMA TRANS            20000002945495.45MXP000000000                              00000002014/01/13                  0000
0074068801095395302014-01-10412733CE09029804131032320100208175  00000000001500.00MXP000000000LEONEL HERNANDEZ Y MENDOZA    00000002014/01/10            Y15   0000
0074068801095395302014-01-10366910CE09029804120128020120203317  00000000001200.00MXP000000000LEONARDO DELFINO VAZQUEZ LERDO00000002014/01/10            Y15   0000
0074068801095395302014-01-10352079CE09029804131100420110203674  00000000005524.20MXP000000000PABLO RENE ORDAZ SANCHEZ      00000002014/01/10            Y15   0000
0074068801095395302014-01-10333285CE09029804120044020120208069  00000000000911.57MXP000000000LAZARO ARROYO ALTAMIRANO      00000002014/01/10            Y15   0000
0074068801095395302014-01-10327970CE09029804121006120120205778  00000000010000.00MXP000000000JOSE EUTIMIO VAZQUEZ JUAREZ   00000002014/01/10            Y15   0000
0074068801095395302014-01-10262391CE09029804051087120100206946  00000000005000.00MXP000000000MARCO ANTONIO PRICI LIANO     00000002014/01/10            Y01   0000
0074068801095395302014-01-10032498CARGO CHEQUE                  10000000015440.00MXP000000000C000032498ECTIVO              00000002014/01/10            C03   0000
0074068801095395302014-01-10032463CARGO CHEQUE                  10000000005000.00MXP000000000C000032463ECTIVO              00000002014/01/10            C03   0000
0074068801095395302014-01-10032413CARGO CHEQUE                  10000000002000.00MXP000000000C000032413ECTIVO              00000002014/01/10            C03   0000
0074068801095395302014-01-10000000SALDO ULTIMA TRANS            20000002349391.31MXP000000000                              00000002014/01/10                  0000
0074068801095395302014-01-09455544CE09029804070027420060202312  00000000002955.00MXP000000000CIRIACO JUAN MARTINEZ MARTINEZ00000002014/01/09            Y15   0000
0074068801095395302014-01-09180927CE09029804050113120130200877  00000000001000.00MXP000000000HUMBERTO BERRA ORLANSINO      00000002014/01/09            Y15   0000
0074068801095395302014-01-09106451CE09029804120043520090208875  00000000008563.50MXP000000000CESAR ULISES PEREZMITRE CRUZ  00000002014/01/09            Y15   0000
0074068801095395302014-01-09032508CARGO CHEQUE                  10000000006000.00MXP000000000C000032508ECTIVO              00000002014/01/09            C03   0000
0074068801095395302014-01-09032505CARGO CHEQUE                  10000000004179.00MXP000000000C000032505ECTIVO              00000002014/01/09            C03   0000
0074068801095395302014-01-09032503CARGO CHEQUE                  10000000224870.00MXP000000000C000032503                    00000002014/01/09            C03   0000
0074068801095395302014-01-09032499CARGO CHEQUE                  10000000002000.00MXP000000000C000032499ECTIVO              00000002014/01/09            C03   0000
0074068801095395302014-01-09032473CARGO CHEQUE                  10000000002000.00MXP000000000C000032473ECTIVO              00000002014/01/09            C03   0000
0074068801095395302014-01-09003268CE09029804050033620110024350  00000000066000.00MXP000000000OSWALDOALFREDODOMINGUEZESCOBAR00000002014/01/09            Y15   0000
0074068801095395302014-01-09000000COMPRA FONDOS INVERSION       10000001999992.64MXP000000000OPERADO EN CANAL:  SUCU       00000002014/01/09            F01   0000
0074068801095395302014-01-09000000SALDO ULTIMA TRANS            20000002347695.54MXP000000000                              00000002014/01/09                  0000
0074068801095395302014-01-08458691CC15173801112149520090994352  00000000012584.72MXP000000000SECRETARIA DE FINANZAS Y ADMIN00000002014/01/07            Y02   0000
0074068801095395302014-01-08373786CE09029804070006120110205167  00000000005000.00MXP000000000MARCO ANTONIO BOCANEGRA REYNOS00000002014/01/08            Y15   0000
0074068801095395302014-01-08330931CE09029804050001520140205136  00000000000600.00MXP000000000JOSE ENRIQUE BONET LOPEZ      00000002014/01/08            Y15   0000
0074068801095395302014-01-08269096CE09029804124002420140995137  00000000028267.00MXP000000000JUAN SANDOVAL MARTINEZ        00000002014/01/08            Y15   0000
0074068801095395302014-01-08170034CE09029804050045320130203532  00000000003000.00MXP000000000ALEJANDRO ULISES GONZALEZ SOSA00000002014/01/08            Y15   0000
0074068801095395302014-01-08151553CE09029804060035420120030878  00000000050000.00MXP000000000LAZARO LUNA GARRIDO           00000002014/01/08            Y15   0000
0074068801095395302014-01-08143219CE09029804050101320090204596  00000000000600.00MXP000000000ANTONIO TETZOPA SARMIENTO     00000002014/01/08            Y15   0000
0074068801095395302014-01-08105440CE09029804051145820070205485  00000000005000.00MXP000000000VICTOR MANUEL MENDEZ SALGADO  00000002014/01/08            Y15   0000
0074068801095395302014-01-08101858CE09029804180058320120027304  00000000001480.00MXP000000000OLEGARIO MEZA LARA            00000002014/01/08            Y15   0000
0074068801095395302014-01-08101233CE09029804180058620120026861  00000000000500.00MXP000000000SERGIO ESPINOZA CHAVARRIA     00000002014/01/08            Y15   0000
0074068801095395302014-01-08100635CE09029804180058420120028060  00000000000500.00MXP000000000ALEJANDRO RAMIREZ ESTEFIS     00000002014/01/08            Y15   0000
0074068801095395302014-01-08100046CE09029804180060720120027822  00000000002500.00MXP000000000BENITO MENDOZA FLORES         00000002014/01/08            Y15   0000
0074068801095395302014-01-08099419CE09029804180060620120023674  00000000002220.00MXP000000000TOMAS BAUTISTA MARTINEZ       00000002014/01/08            Y15   0000
0074068801095395302014-01-08032496CARGO CHEQUE                  10000000003200.00MXP000000000C000032496ECTIVO              00000002014/01/08            C03   0000
0074068801095395302014-01-08032487CARGO CHEQUE                  10000000003192.10MXP000000000C000032487ECTIVO              00000002014/01/08            C03   0000
0074068801095395302014-01-08000000COMPRA FONDOS INVERSION       10000002409969.38MXP000000000OPERADO EN CANAL:  SUCU       00000002014/01/08            F01   0000
0074068801095395302014-01-08000000SALDO ULTIMA TRANS            20000004508218.68MXP000000000                              00000002014/01/08                  0000
0074068801095395302014-01-07481993CE09029804131024820090208176  00000000001300.00MXP000000000ANDRES GARCIA LUNA            00000002014/01/07            Y15   0000
0074068801095395302014-01-07468345CE09029804120034120120206865  00000000003126.00MXP000000000NOE ENRIQUE ALCAIDE REYES     00000002014/01/07            Y15   0000
0074068801095395302014-01-07460612CE09029804090068620120207296  00000000001500.00MXP000000000JOSE MANUEL VAZQUEZ REYNOSO   00000002014/01/07            Y15   0000
0074068801095395302014-01-07459775CE09029804200024720040993310  00000000216476.47MXP000000000BBVA BANCOMER SA              00000002014/01/07            Y05   0000
0074068801095395302014-01-07459266CE09029804090001020090205455  00000000001500.00MXP000000000DEMETRIO VAZQUEZ GOMEZ        00000002014/01/07            Y15   0000
0074068801095395302014-01-07457666CE09029804200024720040990878  00000001028008.63MXP000000000BBVA BANCOMER SA              00000002014/01/07            Y05   0000
0074068801095395302014-01-07457379CE09029804090077020010203316  00000000002000.00MXP000000000JOEL VACA APARICIO            00000002014/01/07            Y15   0000
0074068801095395302014-01-07451192CE09029804050275519950200871  00000000000481.64MXP000000000JOSE MIGUEL COYOTL MENDIETA   00000002014/01/07            Y15   0000
0074068801095395302014-01-07423515CE09029804050019720130204350  00000000001000.00MXP000000000JUAN CARLOS GONZALEZ MARTINEZ 00000002014/01/07            Y15   0000
0074068801095395302014-01-07399850CE09029804050157320130205135  00000000001500.00MXP000000000MARIO ARMANDO CARRO LOYOLA    00000002014/01/07            Y15   0000
0074068801095395302014-01-07363349CE09029804120119420130207939  00000000001000.00MXP000000000JAVIER SIRENIA GUZMAN         00000002014/01/07            Y15   0000
0074068801095395302014-01-07362358CE09029804120053720080201156  00000000000500.00MXP000000000LUIS ROBERTO PEREZ CASTILLA   00000002014/01/07            Y15   0000
0074068801095395302014-01-07357037CE09029804010000220140025486  00000000004000.00MXP000000000LUIS RAUL OVIEDO ROSAS        00000002014/01/07            Y15   0000
0074068801095395302014-01-07346901CE09029804120058520110022316  00000000003507.44MXP000000000MARIO BALTAZAR MENDEZ         00000002014/01/07            Y15   0000
0074068801095395302014-01-07313898CE09029804050120020110205485  00000000015000.00MXP000000000CARLOS RODOLFO VERGARA MARQUEZ00000002014/01/07            Y15   0000
0074068801095395302014-01-07289274CE09029804010162020100995130  00000000001750.00MXP000000000PERFECTA RAMIREZ PEREZ        00000002014/01/07            Y15   0000
0074068801095395302014-01-07272871CE09029804131010320130206864  00000000003000.00MXP000000000JOSE RENE BAUTISTA ROSSAINZ   00000002014/01/07            Y15   0000
0074068801095395302014-01-07272846CE09029804131013020090201684  00000000002000.00MXP000000000RAMON MARIO CARVAJAL RAMOS    00000002014/01/07            Y15   0000
0074068801095395302014-01-07032472CARGO CHEQUE                  10000000001186.62MXP000000000C000032472ECTIVO              00000002014/01/07            C03   0000
0074068801095395302014-01-07032382CARGO CHEQUE                  10000000039480.00MXP000000000C000032382ECTIVO              00000002014/01/07            C03   0000
0074068801095395302014-01-07000000SALDO ULTIMA TRANS            20000006812328.44MXP000000000                              00000002014/01/07                  0000
0074068801095395302014-01-06000000SALDO ULTIMA TRANS            20000005565344.88MXP000000000                              00000002014/01/02                  0000
0074068801095395302014-01-03000000SALDO ULTIMA TRANS            20000005565344.88MXP000000000                              00000002014/01/02                  0000
0074068801095395302014-01-02000000INTERESES MES ANTERIOR        00000000004027.34MXP000000000                              00000002014/01/02            C19   0000
0074068801095395302014-01-02000000SALDO ULTIMA TRANS            20000005565344.88MXP000000000                              00000002014/01/02                  0000
0074068801095399992014-01-31497882CE09027004080001220141010877  00000000012000.00MXP000000000MARICARMEN PEREZ MORANTE      00000002014/01/31            Y15   0000
0074068801095399992014-01-31497369CE09027004080001220141035486  00000000010000.00MXP000000000MARICARMEN PEREZ MORANTE      00000002014/01/31            Y15   0000
0074068801095399992014-01-31496882CE09027004080001220141055138  00000000003000.00MXP000000000MARICARMEN PEREZ MORANTE      00000002014/01/31            Y15   0000
0074068801095399992014-01-31483302CE09027004061030120131033316  00000000003376.00MXP000000000GUILLERMO VARGAS VARGAS       00000002014/01/31            Y15   0000
0074068801095399992014-01-31482845CE09027004061030120131010876  00000000005000.00MXP000000000GUILLERMO VARGAS VARGAS       00000002014/01/31            Y15   0000
0074068801095399992014-01-31379632CE09027004071051920131015137  00000000002000.00MXP000000000ARTURO RAMIREZ JUAREZ         00000002014/01/31            Y15   0000
0074068801095399992014-01-31379219CE09027004071051920131053310  00000000001000.00MXP000000000ARTURO RAMIREZ JUAREZ         00000002014/01/31            Y15   0000
0074068801095399992014-01-31378862CE09027004071051920131054359  00000000001000.00MXP000000000ARTURO RAMIREZ JUAREZ         00000002014/01/31            Y15   0000
0074068801095399992014-01-31378445CE09027004071051920131056867  00000000005500.00MXP000000000ARTURO RAMIREZ JUAREZ         00000002014/01/31            Y15   0000
0074068801095399992014-01-31377945CE09027004071051920131030870  00000000000613.00MXP000000000ARTURO RAMIREZ JUAREZ         00000002014/01/31            Y15   0000
0074068801095399992014-01-31360220CE09027004122034020131015485  00000000012000.00MXP000000000MARIA JOSE ARROYO HERNANDEZ   00000002014/01/31            Y15   0000
0074068801095399992014-01-31357339CE09027004122034020131030872  00000000011035.80MXP000000000MARIA JOSE ARROYO HERNANDEZ   00000002014/01/31            Y15   0000
0074068801095399992014-01-31339343CE09027004122003620111056867  00000000004085.25MXP000000000MARTIN SANCHEZ COELLO         00000002014/01/31            Y15   0000
0074068801095399992014-01-31308499CE09027004125043020131055137  00000000010000.00MXP000000000SAMUEL CRUZ VARGAS            00000002014/01/31            Y15   0000
0074068801095399992014-01-31179276CE09027004040001320141030877  00000000005908.00MXP000000000MARIA CAROLINA TORRES TAPIA   00000002014/01/31            Y15   0000
0074068801095399992014-01-31178315CE09027004040001320141015134  00000000020700.00MXP000000000MARIA CAROLINA TORRES TAPIA   00000002014/01/31            Y15   0000
0074068801095399992014-01-31176475CE09027004040001320141013311  00000000020700.00MXP000000000MARIA CAROLINA TORRES TAPIA   00000002014/01/31            Y15   0000
0074068801095399992014-01-31174621CE09027004040001320141034358  00000000005908.00MXP000000000MARIA CAROLINA TORRES TAPIA   00000002014/01/31            Y15   0000
0074068801095399992014-01-31061995CE09027004160017220121030871  00000000000650.00MXP000000000JOSE CLAUDIO HERNANDEZ        00000002014/01/31            Y15   0000
0074068801095399992014-01-31060192CE09027004160017220121015138  00000000005984.00MXP000000000JOSE CLAUDIO HERNANDEZ        00000002014/01/31            Y15   0000
0074068801095399992014-01-31044434CARGO CHEQUE                  10000000009927.80MXP000000000C000044434ECTIVO              00000002014/01/31            C03   0000
0074068801095399992014-01-31044431CARGO CHEQUE                  10000000021931.44MXP000000000C000044431ECTIVO              00000002014/01/31            C03   0000
0074068801095399992014-01-31044412CARGO CHEQUE                  10000000008878.50MXP000000000C000044412ECTIVO              00000002014/01/31            C03   0000
0074068801095399992014-01-31044407CARGO CHEQUE                  10000000129917.00MXP000000000C000044407                    00000002014/01/31            C03   0000
0074068801095399992014-01-31044373CARGO CHEQUE                  10000000008306.90MXP000000000C000044373ECTIVO              00000002014/01/31            C03   0000
0074068801095399992014-01-31043941CARGO CHEQUE                  10000000002597.50MXP000000000C000043941ECTIVO              00000002014/01/31            C03   0000
0074068801095399992014-01-31041284CE09027003501056620131055487  00000000014175.00MXP000000000ALEJANDRA MELENDEZ URRUTIA    00000002014/01/31            Y15   0000
0074068801095399992014-01-31000000ABONO TRASPASO MISMA PLAZA CW 00000000008505.00MXP000000000350202802011299 99970         00000002014/01/31            W42   0000
0074068801095399992014-01-31000000CARGO TRASPASO MISMA PLAZA CW 10000000000800.00MXP000000000411001922013201 99953         00000002014/01/31            W41   0000
0074068801095399992014-01-31000000CARGO TRASPASO MISMA PLAZA CW 10000000000963.60MXP000000000350205712013203 99967         00000002014/01/31            W41   0000
0074068801095399992014-01-31000000CARGO TRASPASO MISMA PLAZA CW 10000000001000.00MXP000000000330103852010201 99964         00000002014/01/31            W41   0000
0074068801095399992014-01-31000000CARGO TRASPASO MISMA PLAZA CW 10000000001000.00MXP000000000330103852010201 99965         00000002014/01/31            W41   0000
0074068801095399992014-01-31000000CARGO TRASPASO MISMA PLAZA CW 10000000002173.72MXP000000000414000522011202 99972         00000002014/01/31            W41   0000
0074068801095399992014-01-31000000CARGO TRASPASO MISMA PLAZA CW 10000000002280.00MXP000000000414000322012202 99977         00000002014/01/31            W41   0000
0074068801095399992014-01-31000000CARGO TRASPASO MISMA PLAZA CW 10000000002480.00MXP000000000330103852010201 99962         00000002014/01/31            W41   0000
0074068801095399992014-01-31000000CARGO TRASPASO MISMA PLAZA CW 10000000002480.00MXP000000000330103852010201 99963         00000002014/01/31            W41   0000
0074068801095399992014-01-31000000CARGO TRASPASO MISMA PLAZA CW 10000000002700.72MXP000000000414001252013203 99974         00000002014/01/31            W41   0000
0074068801095399992014-01-31000000CARGO TRASPASO MISMA PLAZA CW 10000000003000.00MXP000000000330404252012201 99959         00000002014/01/31            W41   0000
0074068801095399992014-01-31000000CARGO TRASPASO MISMA PLAZA CW 10000000003000.00MXP000000000330800042012201 99955         00000002014/01/31            W41   0000
0074068801095399992014-01-31000000CARGO TRASPASO MISMA PLAZA CW 10000000003039.12MXP000000000350103902012202 99975         00000002014/01/31            W41   0000
0074068801095399992014-01-31000000CARGO TRASPASO MISMA PLAZA CW 10000000004000.00MXP000000000405401132012201 99954         00000002014/01/31            W41   0000
0074068801095399992014-01-31000000CARGO TRASPASO MISMA PLAZA CW 10000000004490.00MXP000000000414001252013202 99973         00000002014/01/31            W41   0000
0074068801095399992014-01-31000000CARGO TRASPASO MISMA PLAZA CW 10000000005000.00MXP000000000330903432010201 99956         00000002014/01/31            W41   0000
0074068801095399992014-01-31000000CARGO TRASPASO MISMA PLAZA CW 10000000005000.00MXP000000000330903432010201 99957         00000002014/01/31            W41   0000
0074068801095399992014-01-31000000CARGO TRASPASO MISMA PLAZA CW 10000000005954.76MXP000000000330200572013202 99976         00000002014/01/31            W41   0000
0074068801095399992014-01-31000000CARGO TRASPASO MISMA PLAZA CW 10000000007438.40MXP000000000350205712013202 99966         00000002014/01/31            W41   0000
0074068801095399992014-01-31000000CARGO TRASPASO MISMA PLAZA CW 10000000009020.00MXP000000000330103852010201 99960         00000002014/01/31            W41   0000
0074068801095399992014-01-31000000CARGO TRASPASO MISMA PLAZA CW 10000000009020.00MXP000000000330103852010201 99961         00000002014/01/31            W41   0000
0074068801095399992014-01-31000000CARGO TRASPASO MISMA PLAZA CW 10000000015000.00MXP000000000418001062012201 99958         00000002014/01/31            W41   0000
0074068801095399992014-01-31000000CARGO TRASPASO MISMA PLAZA CW 10000000015000.00MXP000000000350202312013202 99968         00000002014/01/31            W41   0000
0074068801095399992014-01-31000000CARGO TRASPASO MISMA PLAZA CW 10000000015908.00MXP000000000412300522012202 99971         00000002014/01/31            W41   0000
0074068801095399992014-01-31000000CARGO TRASPASO MISMA PLAZA CW 10000000025247.70MXP000000000330100422009202 99969         00000002014/01/31            W41   0000
0074068801095399992014-01-31000000COMPRA FONDOS INVERSION       10000000299997.19MXP000000000OPERADO EN CANAL:  SUCU       00000002014/01/31            F01   0000
0074068801095399992014-01-31000000SALDO ULTIMA TRANS            20000002564597.90MXP000000000                              00000002014/01/31                  0000
0074068801095399992014-01-30485452CE09027004123001020141050875  00000000150000.00MXP000000000MARIA GUADALUPE PEREZ HERRERA 00000002014/01/30            Y15   0000
0074068801095399992014-01-30483506CE09027004123001020141015480  00000000030000.00MXP000000000MARIA GUADALUPE PEREZ HERRERA 00000002014/01/30            Y15   0000
0074068801095399992014-01-30477967CE09027004058000120131015133  00000000027375.00MXP000000000BONIFACIO TECAYEHUATL VALDEZ  00000002014/01/30            Y15   0000
0074068801095399992014-01-30476966CE09027004058000120131031882  00000000001000.00MXP000000000BONIFACIO TECAYEHUATL VALDEZ  00000002014/01/30            Y15   0000
0074068801095399992014-01-30475955CE09027004058000120131051807  00000000002000.00MXP000000000BONIFACIO TECAYEHUATL VALDEZ  00000002014/01/30            Y15   0000
0074068801095399992014-01-30474981CE09027004058000120131059644  00000000005813.00MXP000000000BONIFACIO TECAYEHUATL VALDEZ  00000002014/01/30            Y15   0000
0074068801095399992014-01-30456941CE09027004160011320101055488  00000000002723.50MXP000000000HILARIO JULIAN ANDRES         00000002014/01/30            Y15   0000
0074068801095399992014-01-30190493CE09027004011042720131015139  00000000025000.00MXP000000000EUSTAQUIO HERNANDEZ DE JESUS  00000002014/01/30            Y15   0000
0074068801095399992014-01-30189619CE09027004011042720131035483  00000000001669.41MXP000000000EUSTAQUIO HERNANDEZ DE JESUS  00000002014/01/30            Y15   0000
0074068801095399992014-01-30182584CE09027004180025420131015130  00000000010000.00MXP000000000RAFAELA MARQUEZ ORTIZ         00000002014/01/30            Y15   0000
0074068801095399992014-01-30181884CE09027004180025420131013317  00000000010000.00MXP000000000GUADALUPE ORTIZ HERNANDEZ     00000002014/01/30            Y15   0000
0074068801095399992014-01-30181233CE09027004180025420131035484  00000000000613.80MXP000000000RAFAELA MARQUEZ ORTIZ         00000002014/01/30            Y15   0000
0074068801095399992014-01-30180375CE09027004180025420131050871  00000000003069.00MXP000000000RAFAELA MARQUEZ ORTIZ         00000002014/01/30            Y15   0000
0074068801095399992014-01-30179359CE09027004180025420131034354  00000000000613.80MXP000000000GUADALUPE ORTIZ HERNANDEZ     00000002014/01/30            Y15   0000
0074068801095399992014-01-30171612CE09027004071046120131035486  00000000000169.41MXP000000000LUIS MIGUEL SANCHEZ GONZALEZ  00000002014/01/30            Y15   0000
0074068801095399992014-01-30170363CE09027004071046120131015132  00000000008000.00MXP000000000LUIS MIGUEL SANCHEZ GONZALEZ  00000002014/01/30            Y15   0000
0074068801095399992014-01-30141278CE09027004140000220141035489  00000000000613.80MXP000000000CECILIA TECUAUTZIN TOXTLE     00000002014/01/30            Y15   0000
0074068801095399992014-01-30140130CE09027004140000220141015135  00000000002737.50MXP000000000CECILIA TECUAUTZIN TOXTLE     00000002014/01/30            Y15   0000
0074068801095399992014-01-30139216CE09027004140000220141050876  00000000003069.00MXP000000000CECILIA TECUAUTZIN TOXTLE     00000002014/01/30            Y15   0000
0074068801095399992014-01-30044427CARGO CHEQUE                  10000000014151.39MXP000000000C000044427ECTIVO              00000002014/01/30            C03   0000
0074068801095399992014-01-30044426CARGO CHEQUE                  10000000049887.67MXP000000000C000044426ECTIVO              00000002014/01/30            C03   0000
0074068801095399992014-01-30044425CARGO CHEQUE                  10000000017000.00MXP000000000C000044425ECTIVO              00000002014/01/30            C03   0000
0074068801095399992014-01-30044422CARGO CHEQUE                  10000000042000.00MXP000000000C000044422ECTIVO              00000002014/01/30            C03   0000
0074068801095399992014-01-30044421CARGO CHEQUE                  10000000001413.20MXP000000000C000044421ECTIVO              00000002014/01/30            C03   0000
0074068801095399992014-01-30044420CARGO CHEQUE                  10000000006325.00MXP000000000C000044420ECTIVO              00000002014/01/30            C03   0000
0074068801095399992014-01-30044415CARGO CHEQUE                  10000000051927.00MXP000000000C000044415ECTIVO              00000002014/01/30            C03   0000
0074068801095399992014-01-30044406CARGO CHEQUE                  10000000015000.00MXP000000000C000044406ECTIVO              00000002014/01/30            C03   0000
0074068801095399992014-01-30044388CARGO CHEQUE                  10000000003032.00MXP000000000C000044388ECTIVO              00000002014/01/30            C03   0000
0074068801095399992014-01-30044387CARGO CHEQUE                  10000000014500.00MXP000000000C000044387                    00000002014/01/30            C03   0000
0074068801095399992014-01-30044385CARGO CHEQUE                  10000000146591.00MXP000000000C000044385 DE DEPOSITO:PEAB90000000002014/01/30            C03   0000
0074068801095399992014-01-30044375CARGO CHEQUE                  10000000003043.30MXP000000000C000044375ECTIVO              00000002014/01/30            C03   0000
0074068801095399992014-01-30044360CARGO CHEQUE                  10000000060000.00MXP000000000C000044360                    00000002014/01/30            C03   0000
0074068801095399992014-01-30044359CARGO CHEQUE                  10000000121569.38MXP000000000C000044359                    00000002014/01/30            C03   0000
0074068801095399992014-01-30044309CARGO CHEQUE                  10000000004760.00MXP000000000C000044309ECTIVO              00000002014/01/30            C03   0000
0074068801095399992014-01-30044247CARGO CHEQUE                  10000000105000.00MXP000000000C000044247ECTIVO              00000002014/01/30            C03   0000
0074068801095399992014-01-30044107CARGO CHEQUE                  10000000015000.00MXP000000000C000044107ECTIVO              00000002014/01/30            C03   0000
0074068801095399992014-01-30043804CARGO CHEQUE                  10000000006947.47MXP000000000C000043804ECTIVO              00000002014/01/30            C03   0000
0074068801095399992014-01-30043803CARGO CHEQUE                  10000000006947.47MXP000000000C000043803ECTIVO              00000002014/01/30            C03   0000
0074068801095399992014-01-30043801CARGO CHEQUE                  10000000035000.00MXP000000000C000043801ECTIVO              00000002014/01/30            C03   0000
0074068801095399992014-01-30025001CE09027004071012520111015483  00000000025000.00MXP000000000JUAN ALFONSO SANCHEZ BONILLA  00000002014/01/30            Y15   0000
0074068801095399992014-01-30000000ABONO TRASPASO MISMA PLAZA CW 00000000002500.00MXP000000000411000342012202 99952         00000002014/01/30            W42   0000
0074068801095399992014-01-30000000SALDO ULTIMA TRANS            20000003029010.20MXP000000000                              00000002014/01/30                  0000
0074068801095399992014-01-29370572CE09027004123024920131015130  00000000010000.00MXP000000000ASUNCION ROMERO MONTALVO      00000002014/01/29            Y15   0000
0074068801095399992014-01-29370263CE09027004123024920131035484  00000000001841.50MXP000000000ASUNCION ROMERO MONTALVO      00000002014/01/29            Y15   0000
0074068801095399992014-01-29369952CE09027004123024920131050871  00000000015000.00MXP000000000ASUNCION ROMERO MONTALVO      00000002014/01/29            Y15   0000
0074068801095399992014-01-29369607CE09027004123024920131013317  00000000010000.00MXP000000000FRANCISCA JAVIER ROMERO MONTAL00000002014/01/29            Y15   0000
0074068801095399992014-01-29369165CE09027004123024920131034354  00000000001841.50MXP000000000FRANCISCA JAVIER ROMERO MONTAL00000002014/01/29            Y15   0000
0074068801095399992014-01-29368708CE09027004123024920131056860  00000000015000.00MXP000000000FRANCISCA JAVIER ROMERO MONTAL00000002014/01/29            Y15   0000
0074068801095399992014-01-29338455CE09027004080030120131010876  00000000009330.00MXP000000000SUSANA RUIZ ALVAREZ           00000002014/01/29            Y15   0000
0074068801095399992014-01-29337970CE09027004080030120131055483  00000000005000.00MXP000000000SUSANA RUIZ ALVAREZ           00000002014/01/29            Y15   0000
0074068801095399992014-01-29337560CE09027004080030120131035139  00000000005670.00MXP000000000SUSANA RUIZ ALVAREZ           00000002014/01/29            Y15   0000
0074068801095399992014-01-29330710CE09027004130001920141035484  00000000001594.25MXP000000000JUAN DIEGO FUENTES BARRANCO   00000002014/01/29            Y15   0000
0074068801095399992014-01-29330074CE09027004130001920141015130  00000000007300.00MXP000000000JUAN DIEGO FUENTES BARRANCO   00000002014/01/29            Y15   0000
0074068801095399992014-01-29318690CE09027004061036220131050874  00000000003069.00MXP000000000NADIA GAYOSSO RAMIREZ         00000002014/01/29            Y15   0000
0074068801095399992014-01-29318149CE09027004061036220131015133  00000000003000.00MXP000000000NADIA GAYOSSO RAMIREZ         00000002014/01/29            Y15   0000
0074068801095399992014-01-29303963CE09027004061007720141015135  00000000015000.00MXP000000000MIGUEL FLORES FLORES          00000002014/01/29            Y15   0000
0074068801095399992014-01-29270537CE09027004122034920131050871  00000000001800.00MXP000000000ALBERTO RAMOS SANCHEZ         00000002014/01/29            Y15   0000
0074068801095399992014-01-29269715CE09027004122034920131015486  00000000003200.00MXP000000000ALBERTO RAMOS SANCHEZ         00000002014/01/29            Y15   0000
0074068801095399992014-01-29268461CE09027004122034920131015130  00000000010000.00MXP000000000ALBERTO RAMOS SANCHEZ         00000002014/01/29            Y15   0000
0074068801095399992014-01-29125812CE09027004052001920141036868  00000000003953.74MXP000000000CESAR RENE ONTIVEROS HERNANDEZ00000002014/01/29            Y15   0000
0074068801095399992014-01-29125366CE09027004052001920141014352  00000000018000.00MXP000000000CESAR RENE ONTIVEROS HERNANDEZ00000002014/01/29            Y15   0000
0074068801095399992014-01-29124507CE09027004052001920141033311  00000000003953.74MXP000000000WENDY CONCEPCION FRANCO ESPINO00000002014/01/29            Y15   0000
0074068801095399992014-01-29123681CE09027004052001920141010871  00000000018000.00MXP000000000WENDY CONCEPCION FRANCO ESPINO00000002014/01/29            Y15   0000
0074068801095399992014-01-29121505CE09027004052000920141995130  00000000001000.00MXP000000000TRIBUNAL SUPERIOR DE JUSTICIA 00000002014/01/29            Y15   0000
0074068801095399992014-01-29044432CARGO CHEQUE                  10000000016158.33MXP000000000C000044432ECTIVO              00000002014/01/29            C03   0000
0074068801095399992014-01-29044418CARGO CHEQUE                  10000000029021.00MXP000000000C000044418ECTIVO              00000002014/01/29            C03   0000
0074068801095399992014-01-29044278CARGO CHEQUE                  10000000006258.50MXP000000000C000044278ECTIVO              00000002014/01/29            C03   0000
0074068801095399992014-01-29000000COMPRA FONDOS INVERSION       10000001399998.65MXP000000000OPERADO EN CANAL:  SUCU       00000002014/01/29            F01   0000
0074068801095399992014-01-29000000SALDO ULTIMA TRANS            20000003437137.86MXP000000000                              00000002014/01/29                  0000
0074068801095399992014-01-28493554CE09027004071003120141035485  00000000031885.00MXP000000000DAVID GRANADOS RUBIO          00000002014/01/28            Y15   0000
0074068801095399992014-01-28475325CE09027004080014120101054359  00000000041000.00MXP000000000MIGUEL RUFINO PEREA PEREZ     00000002014/01/28            Y05   0000
0074068801095399992014-01-28473286CE09027004080014120101053310  00000000002724.00MXP000000000MIGUEL RUFINO PEREA PEREZ     00000002014/01/28            Y05   0000
0074068801095399992014-01-28471153CE09027004080014120101050878  00000000027235.00MXP000000000MIGUEL RUFINO PEREA PEREZ     00000002014/01/28            Y05   0000
0074068801095399992014-01-28469479CE09027004080014120101055489  00000000002044.00MXP000000000MIGUEL RUFINO PEREZ PEREZ     00000002014/01/28            Y05   0000
0074068801095399992014-01-28466547CE09027004080014120101055133  00000000057502.00MXP000000000MIGUEL RUFINO PEREA PEREZ     00000002014/01/28            Y05   0000
0074068801095399992014-01-28464234CE09027004071003120141015131  00000000050000.00MXP000000000DAVID GRANADOS RUBIO          00000002014/01/28            Y15   0000
0074068801095399992014-01-28415364CE09027004160016520121054354  00000000001500.00MXP000000000MOISES JUSTO ENCARNACION      00000002014/01/28            Y15   0000
0074068801095399992014-01-28414905CE09027004160016520121033317  00000000001772.00MXP000000000MOISES JUSTO ENCARNACION      00000002014/01/28            Y15   0000
0074068801095399992014-01-28414366CE09027004160016520121010877  00000000009100.00MXP000000000MOISES JUSTO ENCARNACION      00000002014/01/28            Y15   0000
0074068801095399992014-01-28411810CE09027004160011120101055482  00000000005500.00MXP000000000AMADOR ARENAS SAYAGO          00000002014/01/28            Y15   0000
0074068801095399992014-01-28389304CE09027004132000220141053315  00000000000700.00MXP000000000ENRIQUE LUNA FLORES           00000002014/01/28            Y15   0000
0074068801095399992014-01-28388578CE09027004132000220141035486  00000000006377.00MXP000000000ENRIQUE LUNA FLORES           00000002014/01/28            Y15   0000
0074068801095399992014-01-28387738CE09027004132000220141015132  00000000004923.00MXP000000000ENRIQUE LUNA FLORES           00000002014/01/28            Y15   0000
0074068801095399992014-01-28350135CE09027004052011820131015138  00000000050000.00MXP000000000GERARDO ZEPEDA CORNEJO        00000002014/01/28            Y15   0000
0074068801095399992014-01-28349265CE09027004052011820131035482  00000000009207.00MXP000000000GERARDO ZEPEDA CORNEJO        00000002014/01/28            Y15   0000
0074068801095399992014-01-28334393CE09027004071014520121056863  00000000001411.75MXP000000000AGUSTINA TLAPAYA SANCHEZ      00000002014/01/28            Y15   0000
0074068801095399992014-01-28333631CE09027004071014520121054355  00000000002823.50MXP000000000AGUSTINA TLAPAYA SANCHEZ      00000002014/01/28            Y15   0000
0074068801095399992014-01-28333034CE09027004071014520121033318  00000000001129.40MXP000000000AGUSTINA TLAPAYA SANCHEZ      00000002014/01/28            Y15   0000
0074068801095399992014-01-28332289CE09027004071014520121015489  00000000002000.00MXP000000000AGUSTINA TLAPAYA SANCHEZ      00000002014/01/28            Y15   0000
0074068801095399992014-01-28326949CE09027004125002120141015136  00000000005214.00MXP000000000MARCELO HUERTA CRUZ           00000002014/01/28            Y15   0000
0074068801095399992014-01-28252133CE70982403307055020131018267  00000000002700.00MXP000000000MARIA ANTONIA TLALMIS PEREZ   00000002014/01/28            Y05   0000
0074068801095399992014-01-28251684CE70982403307055020131034546  00000000000300.00MXP000000000MARIA ANTONIA TLALMIS PEREZ   00000002014/01/28            Y05   0000
0074068801095399992014-01-28251176CE70982403307055520131014364  00000000015000.00MXP000000000CARLOS CORONA VERA            00000002014/01/28            Y05   0000
0074068801095399992014-01-28250757CE70982403307055620131014750  00000000015000.00MXP000000000JOSE ANTONIO CUEVAS CABALLERO 00000002014/01/28            Y05   0000
0074068801095399992014-01-28250290CE70982403307053920131012784  00000000005000.00MXP000000000JOSE ROSALES BERNAL           00000002014/01/28            Y05   0000
0074068801095399992014-01-28249948CE70982403307054020131019241  00000000010000.00MXP000000000OLIVER GARCIA PALACIOS        00000002014/01/28            Y05   0000
0074068801095399992014-01-28249479CE70982403307053320131052940  00000000005000.00MXP000000000JUAN CARLOS GONZALEZ ARELLANO 00000002014/01/28            Y05   0000
0074068801095399992014-01-28248999CE70982403307053320131015418  00000000007000.00MXP000000000JUAN CARLOS GONZALEZ ARELLANO 00000002014/01/28            Y05   0000
0074068801095399992014-01-28248540CE70982403307053320131036943  00000000003000.00MXP000000000JUAN CARLOS GONZALEZ ARELLANO 00000002014/01/28            Y05   0000
0074068801095399992014-01-28248062CE70982403307048920131013186  00000000010000.00MXP000000000TERESA CORRALES MEDINA        00000002014/01/28            Y05   0000
0074068801095399992014-01-28247569CE70982403307048920131050394  00000000030000.00MXP000000000TERESA CORRALES MEDINA        00000002014/01/28            Y05   0000
0074068801095399992014-01-28247138CE70982403307052920131010474  00000000004000.00MXP000000000MARIA ISABEL GARCIA PALACIOS  00000002014/01/28            Y05   0000
0074068801095399992014-01-28246622CE70982403307052920131030613  00000000003000.00MXP000000000MARIA ISABEL GARCIA PALACIOS  00000002014/01/28            Y05   0000
0074068801095399992014-01-28246174CE70982403307052920131015168  00000000004000.00MXP000000000SONIA MENDEZ VAZQUEZ          00000002014/01/28            Y05   0000
0074068801095399992014-01-28245775CE70982403307052920131039911  00000000003000.00MXP000000000SONIA MENDEZ VAZQUEZ          00000002014/01/28            Y05   0000
0074068801095399992014-01-28245340CE70982403307052920131012678  00000000004000.00MXP000000000MARIA DE JESUS CORONA MARTINEZ00000002014/01/28            Y05   0000
0074068801095399992014-01-28244847CE70982403307052920131034086  00000000003000.00MXP000000000MARIA DE JESUS CORONA MARTINEZ00000002014/01/28            Y05   0000
0074068801095399992014-01-28244399CE70982403307053120131010389  00000000001300.00MXP000000000SERGIO SANCHEZ SILVA          00000002014/01/28            Y05   0000
0074068801095399992014-01-28244005CE70982403307053120131038877  00000000001200.00MXP000000000SERGIO SANCHEZ SILVA          00000002014/01/28            Y05   0000
0074068801095399992014-01-28243586CE70982403307053520131014184  00000000010600.00MXP000000000SARA ALONSO MENESES           00000002014/01/28            Y05   0000
0074068801095399992014-01-28243136CE70982403307053520131039025  00000000005900.00MXP000000000SARA ALONSO MENESES           00000002014/01/28            Y05   0000
0074068801095399992014-01-28242701CE70982403306055420131011688  00000000005000.00MXP000000000JOSE ROSALES BERNAL           00000002014/01/28            Y05   0000
0074068801095399992014-01-28242277CE70982403306053920131010608  00000000007000.00MXP000000000PABLO MUNDO VAZQUEZ           00000002014/01/28            Y05   0000
0074068801095399992014-01-28241888CE70982403306054020131018344  00000000006000.00MXP000000000ANGEL BARRANCO FLORES         00000002014/01/28            Y05   0000
0074068801095399992014-01-28241549CE70982403306054020131052491  00000000013400.00MXP000000000ANGEL BARRANCO FLORES         00000002014/01/28            Y05   0000
0074068801095399992014-01-28240958CE70982403306048520131050469  00000000005000.00MXP000000000RAFAEL ZOLA SANCHEZ           00000002014/01/28            Y05   0000
0074068801095399992014-01-28240577CE70982403306048520131018813  00000000008000.00MXP000000000RAFAEL ZOLA SANCHEZ           00000002014/01/28            Y05   0000
0074068801095399992014-01-28240170CE70982403306048620131019645  00000000010000.00MXP000000000ANTONIO MADRID NIETO          00000002014/01/28            Y05   0000
0074068801095399992014-01-28239793CE70982403306049120131011808  00000000025000.00MXP000000000MARIA FELIX FLORES PEREZ      00000002014/01/28            Y05   0000
0074068801095399992014-01-28239271CE70982403306050620131011886  00000000006000.00MXP000000000ABRAHAM MENDEZ GUERRERO       00000002014/01/28            Y05   0000
0074068801095399992014-01-28238856CE70982403306050720131014599  00000000004000.00MXP000000000JOSE ROSALES BERNAL           00000002014/01/28            Y05   0000
0074068801095399992014-01-28238458CE70982403306050720131058174  00000000008000.00MXP000000000JOSE ROSALES BERNAL           00000002014/01/28            Y05   0000
0074068801095399992014-01-28238080CE70982403306050920131018711  00000000010000.00MXP000000000RAFAEL ZOLA SANCHEZ           00000002014/01/28            Y05   0000
0074068801095399992014-01-28237760CE70982403306052420131018397  00000000007500.00MXP000000000JUAN DE MAXIMINO FUENTES      00000002014/01/28            Y05   0000
0074068801095399992014-01-28237330CE70982403306052420131030822  00000000006500.00MXP000000000JUAN DE MAXIMINO FUENTES      00000002014/01/28            Y05   0000
0074068801095399992014-01-28236938CE70982403306052820131032316  00000000006138.00MXP000000000MARIA FELIX SANCHEZ MARTINEZ  00000002014/01/28            Y05   0000
0074068801095399992014-01-28236515CE70982403306052820131010213  00000000003862.00MXP000000000MARIA FELIX SANCHEZ MARTINEZ  00000002014/01/28            Y05   0000
0074068801095399992014-01-28236066CE70982403305048820131017308  00000000005000.00MXP000000000RAFAEL ZOLA SANCHEZ           00000002014/01/28            Y05   0000
0074068801095399992014-01-28235620CE70982403305047420131053675  00000000005000.00MXP000000000ALBINO TAMANIZ TAQUEX         00000002014/01/28            Y05   0000
0074068801095399992014-01-28235165CE70982403305046020131037826  00000000001000.00MXP000000000MONICA HERNANDEZ RAMIREZ      00000002014/01/28            Y05   0000
0074068801095399992014-01-28234859CE70982403305046020131018065  00000000002000.00MXP000000000MONICA HERNANDEZ RAMIREZ      00000002014/01/28            Y05   0000
0074068801095399992014-01-28234517CE70982403305046020131033536  00000000001000.00MXP000000000MONICA HERNANDEZ RAMIREZ      00000002014/01/28            Y05   0000
0074068801095399992014-01-28234112CE70982403305046020131055778  00000000000700.00MXP000000000EVANGELINA CAMPOS ESCUDERO    00000002014/01/28            Y05   0000
0074068801095399992014-01-28233775CE70982403305046020131016861  00000000002000.00MXP000000000EVANGELINA CAMPOS ESCUDERO    00000002014/01/28            Y05   0000
0074068801095399992014-01-28233474CE70982403305046020131054359  00000000000700.00MXP000000000EVANGELINA CAMPOS ESCUDERO    00000002014/01/28            Y05   0000
0074068801095399992014-01-28233000CE70982404125018020091010461  00000000007821.00MXP000000000SECRETARIA DE FINANZAS        00000002014/01/28            Y05   0000
0074068801095399992014-01-28232677CE70982404130013820121019647  00000000007000.00MXP000000000SECRETARIA DE FINANZAS        00000002014/01/28            Y05   0000
0074068801095399992014-01-28232365CE70982404130006820111011801  00000000018000.00MXP000000000SECRETARIA DE FINANZAS        00000002014/01/28            Y05   0000
0074068801095399992014-01-28232093CE70982403303031920111011885  00000000025000.00MXP000000000SECRETARIA DE FINANZAS        00000002014/01/28            Y05   0000
0074068801095399992014-01-28231806CE70982403304051320061014596  00000000010500.00MXP000000000SECRETARIA DE FINANZAS        00000002014/01/28            Y05   0000
0074068801095399992014-01-28231405CE70982403304033420011015132  00000000963874.84MXP000000000SECRETARIA DE FINANZAS        00000002014/01/28            Y05   0000
0074068801095399992014-01-28230982CE70982403302004420101018177  00000000009000.00MXP000000000SECRETARIA DE FINANZAS        00000002014/01/28            Y05   0000
0074068801095399992014-01-28230670CE70982403306014120121018715  00000000005000.00MXP000000000SECRETARIA DE FINANZAS        00000002014/01/28            Y05   0000
0074068801095399992014-01-28230414CE70982404054000220081010826  00000000003000.00MXP000000000SECRETARIA DE FINANZAS        00000002014/01/28            Y05   0000
0074068801095399992014-01-28230108CE70982403306014020121012314  00000000005000.00MXP000000000SECRETARIA DE FINANZAS        00000002014/01/28            Y05   0000
0074068801095399992014-01-28229800CE70982403306006220121010215  00000000003000.00MXP000000000SECRETARIA DE FINANZAS        00000002014/01/28            Y05   0000
0074068801095399992014-01-28229491CE70982404200003120051013311  00000000003788.10MXP000000000SECRETARIA DE FINANZAS        00000002014/01/28            Y05   0000
0074068801095399992014-01-28229157CE70982403307003220021017303  00000000003000.00MXP000000000SECRETARIA DE FINANZAS        00000002014/01/28            Y05   0000
0074068801095399992014-01-28228799CE70982403302026420101013677  00000000030000.00MXP000000000SECRETARIA DE FINANZAS        00000002014/01/28            Y05   0000
0074068801095399992014-01-28228437CE70982403306014220111018061  00000000030000.00MXP000000000SECRETARIA DE FINANZAS        00000002014/01/28            Y05   0000
0074068801095399992014-01-28228070CE70982404071045920121013539  00000000019000.00MXP000000000SECRETARIA DE FINANZAS        00000002014/01/28            Y05   0000
0074068801095399992014-01-28227743CE70982404052012820101015778  00000000060000.00MXP000000000SECRETARIA DE FINANZAS        00000002014/01/28            Y05   0000
0074068801095399992014-01-28227038CE70982403307029020081015480  00000000010000.00MXP000000000SECRETARIA DE FINANZAS        00000002014/01/28            Y05   0000
0074068801095399992014-01-28044424CARGO CHEQUE                  10000000257000.00MXP000000000C000044424                    00000002014/01/28            C03   0000
0074068801095399992014-01-28044396CARGO CHEQUE                  10000000092408.00MXP000000000C000044396ECTIVO              00000002014/01/28            C03   0000
0074068801095399992014-01-28044369CARGO CHEQUE                  10000000010000.00MXP000000000C000044369ECTIVO              00000002014/01/28            C03   0000
0074068801095399992014-01-28044348CARGO CHEQUE                  10000000099678.79MXP000000000C000044348ECTIVO              00000002014/01/28            C03   0000
0074068801095399992014-01-28044323CARGO CHEQUE                  10000000005180.55MXP000000000C000044323ECTIVO              00000002014/01/28            C03   0000
0074068801095399992014-01-28044276CARGO CHEQUE                  10000000077394.00MXP000000000C000044276                    00000002014/01/28            C03   0000
0074068801095399992014-01-28000000VENTA FONDOS DE INVERSION     00000001750029.33MXP000000000OPERADO EN CANAL   SUCU       00000002014/01/28            F04   0000
0074068801095399992014-01-28000000SALDO ULTIMA TRANS            20000004725020.61MXP000000000                              00000002014/01/28                  0000
0074068801095399992014-01-27465044CE09027004100007620131015481  00000000004000.00MXP000000000DOMITILA TRUJANO ANAYA        00000002014/01/27            Y15   0000
0074068801095399992014-01-27464482CE09027004100007620131054357  00000000001000.00MXP000000000DOMITILA TRUJANO ANAYA        00000002014/01/27            Y15   0000
0074068801095399992014-01-27463967CE09027004100007620131033310  00000000001841.00MXP000000000MIGUEL SANCHEZ SANCHEZ        00000002014/01/27            Y15   0000
0074068801095399992014-01-27463477CE09027004100007620131035133  00000000001841.00MXP000000000DOMITILA TRUJANO ANAYA        00000002014/01/27            Y15   0000
0074068801095399992014-01-27462846CE09027004100007620131055131  00000000001000.00MXP000000000MIGUEL SANCHEZ SANCHEZ        00000002014/01/27            Y15   0000
0074068801095399992014-01-27462328CE09027004100007620131010870  00000000004000.00MXP000000000MIGUEL SANCHEZ SANCHEZ        00000002014/01/27            Y15   0000
0074068801095399992014-01-27454086CE09027004053004320121015138  00000000080880.52MXP000000000ARACELI RAMIREZ CUAZITL       00000002014/01/27            Y15   0000
0074068801095399992014-01-27453468CE09027004053004320121033313  00000000004431.00MXP000000000ARACELI RAMIREZ CUAZITL       00000002014/01/27            Y15   0000
0074068801095399992014-01-27452688CE09027004053004320121050879  00000000005000.00MXP000000000ARACELI RAMIREZ CUAZITL       00000002014/01/27            Y15   0000
0074068801095399992014-01-27452050CE09027004053004320121055480  00000000015000.00MXP000000000ARACELI RAMIREZ CUAZITL       00000002014/01/27            Y15   0000
0074068801095399992014-01-27450487CE09027004053009120131034359  00000000002332.40MXP000000000MOISES JOAQUIN TOTOTZINTLE PER00000002014/01/27            Y15   0000
0074068801095399992014-01-27450113CE09027004053009120131036867  00000000002332.40MXP000000000MOISES JOAQUIN TOTOTZINTLE PER00000002014/01/27            Y15   0000
0074068801095399992014-01-27160171CE09027004071003020141015133  00000000050000.00MXP000000000MOISES JUAREZ CRUZ            00000002014/01/27            Y15   0000
0074068801095399992014-01-27159087CE09027004071003020141033318  00000000031885.00MXP000000000MOISES JUAREZ CRUZ            00000002014/01/27            Y15   0000
0074068801095399992014-01-27044401CARGO CHEQUE                  10000000054766.00MXP000000000C000044401ECTIVO              00000002014/01/27            C03   0000
0074068801095399992014-01-27044400CARGO CHEQUE                  10000000035141.00MXP000000000C000044400ECTIVO              00000002014/01/27            C03   0000
0074068801095399992014-01-27044394CARGO CHEQUE                  10000000011020.30MXP000000000C000044394ECTIVO              00000002014/01/27            C03   0000
0074068801095399992014-01-27044374CARGO CHEQUE                  10000000033000.00MXP000000000C000044374ECTIVO              00000002014/01/27            C03   0000
0074068801095399992014-01-27044335CARGO CHEQUE                  10000000019802.00MXP000000000C000044335ECTIVO              00000002014/01/27            C03   0000
0074068801095399992014-01-27044002CARGO CHEQUE                  10000000005000.00MXP000000000C000044002                    00000002014/01/27            C03   0000
0074068801095399992014-01-27043998CARGO CHEQUE                  10000000005819.80MXP000000000C000043998ECTIVO              00000002014/01/27            C03   0000
0074068801095399992014-01-27000000ABONO TRASPASO MISMA PLAZA CW 00000000006518.00MXP000000000409001292009202 99923         00000002014/01/27            W42   0000
0074068801095399992014-01-27000000ABONO TRASPASO MISMA PLAZA CW 00000000025247.90MXP000000000330100422009202 99924         00000002014/01/27            W42   0000
0074068801095399992014-01-27000000CARGO TRASPASO MISMA PLAZA CW 10000000000054.47MXP000000000330504232012203 99930         00000002014/01/27            W41   0000
0074068801095399992014-01-27000000CARGO TRASPASO MISMA PLAZA CW 10000000000056.47MXP000000000407102002012203 99905         00000002014/01/27            W41   0000
0074068801095399992014-01-27000000CARGO TRASPASO MISMA PLAZA CW 10000000000056.70MXP000000000330200122013203 99926         00000002014/01/27            W41   0000
0074068801095399992014-01-27000000CARGO TRASPASO MISMA PLAZA CW 10000000000056.70MXP000000000330200122013203 99928         00000002014/01/27            W41   0000
0074068801095399992014-01-27000000CARGO TRASPASO MISMA PLAZA CW 10000000000109.00MXP000000000408001462010203 99915         00000002014/01/27            W41   0000
0074068801095399992014-01-27000000CARGO TRASPASO MISMA PLAZA CW 10000000000109.00MXP000000000408001462010203 99917         00000002014/01/27            W41   0000
0074068801095399992014-01-27000000CARGO TRASPASO MISMA PLAZA CW 10000000000226.84MXP000000000405203512011203 99922         00000002014/01/27            W41   0000
0074068801095399992014-01-27000000CARGO TRASPASO MISMA PLAZA CW 10000000000236.32MXP000000000330901222012203 99908         00000002014/01/27            W41   0000
0074068801095399992014-01-27000000CARGO TRASPASO MISMA PLAZA CW 10000000000870.30MXP000000000330902692013202 99939         00000002014/01/27            W41   0000
0074068801095399992014-01-27000000CARGO TRASPASO MISMA PLAZA CW 10000000000900.00MXP000000000330200122013202 99925         00000002014/01/27            W41   0000
0074068801095399992014-01-27000000CARGO TRASPASO MISMA PLAZA CW 10000000001100.00MXP000000000419001432012202 99918         00000002014/01/27            W41   0000
0074068801095399992014-01-27000000CARGO TRASPASO MISMA PLAZA CW 10000000001200.00MXP000000000330100092013202 99931         00000002014/01/27            W41   0000
0074068801095399992014-01-27000000CARGO TRASPASO MISMA PLAZA CW 10000000001240.68MXP000000000330903902012203 99936         00000002014/01/27            W41   0000
0074068801095399992014-01-27000000CARGO TRASPASO MISMA PLAZA CW 10000000001350.00MXP000000000330200122013202 99927         00000002014/01/27            W41   0000
0074068801095399992014-01-27000000CARGO TRASPASO MISMA PLAZA CW 10000000001596.00MXP000000000419001082012203 99920         00000002014/01/27            W41   0000
0074068801095399992014-01-27000000CARGO TRASPASO MISMA PLAZA CW 10000000001861.20MXP000000000330500872009202 99911         00000002014/01/27            W41   0000
0074068801095399992014-01-27000000CARGO TRASPASO MISMA PLAZA CW 10000000001981.98MXP000000000330504232012202 99929         00000002014/01/27            W41   0000
0074068801095399992014-01-27000000CARGO TRASPASO MISMA PLAZA CW 10000000002000.00MXP000000000411001422012202 99906         00000002014/01/27            W41   0000
0074068801095399992014-01-27000000CARGO TRASPASO MISMA PLAZA CW 10000000002250.00MXP000000000405203512011202 99921         00000002014/01/27            W41   0000
0074068801095399992014-01-27000000CARGO TRASPASO MISMA PLAZA CW 10000000002742.40MXP000000000330901222012202 99907         00000002014/01/27            W41   0000
0074068801095399992014-01-27000000CARGO TRASPASO MISMA PLAZA CW 10000000003150.00MXP000000000330101412012202 99933         00000002014/01/27            W41   0000
0074068801095399992014-01-27000000CARGO TRASPASO MISMA PLAZA CW 10000000003270.00MXP000000000407102002012202 99904         00000002014/01/27            W41   0000
0074068801095399992014-01-27000000CARGO TRASPASO MISMA PLAZA CW 10000000003500.00MXP000000000330901432012202 99937         00000002014/01/27            W41   0000
0074068801095399992014-01-27000000CARGO TRASPASO MISMA PLAZA CW 10000000004000.00MXP000000000406102582011201 99947         00000002014/01/27            W41   0000
0074068801095399992014-01-27000000CARGO TRASPASO MISMA PLAZA CW 10000000004000.00MXP000000000330700452012201 99946         00000002014/01/27            W41   0000
0074068801095399992014-01-27000000CARGO TRASPASO MISMA PLAZA CW 10000000004300.00MXP000000000330903902012202 99935         00000002014/01/27            W41   0000
0074068801095399992014-01-27000000CARGO TRASPASO MISMA PLAZA CW 10000000005000.00MXP000000000330600932013201 99945         00000002014/01/27            W41   0000
0074068801095399992014-01-27000000CARGO TRASPASO MISMA PLAZA CW 10000000005320.00MXP000000000330600992013201 99944         00000002014/01/27            W41   0000
0074068801095399992014-01-27000000CARGO TRASPASO MISMA PLAZA CW 10000000005355.00MXP000000000419001082012202 99919         00000002014/01/27            W41   0000
0074068801095399992014-01-27000000CARGO POR CORRECCION          10000000005475.00MXP000000000                              00000002014/01/27            B66   0000
0074068801095399992014-01-27000000CARGO TRASPASO MISMA PLAZA CW 10000000005520.00MXP000000000420000792013202 99909         00000002014/01/27            W41   0000
0074068801095399992014-01-27000000CARGO TRASPASO MISMA PLAZA CW 10000000005670.00MXP000000000330101412012203 99934         00000002014/01/27            W41   0000
0074068801095399992014-01-27000000CARGO TRASPASO MISMA PLAZA CW 10000000006000.00MXP000000000330501632013201 99948         00000002014/01/27            W41   0000
0074068801095399992014-01-27000000CARGO TRASPASO MISMA PLAZA CW 10000000006751.80MXP000000000330100092013203 99932         00000002014/01/27            W41   0000
0074068801095399992014-01-27000000CARGO TRASPASO MISMA PLAZA CW 10000000006874.56MXP000000000420000792013203 99910         00000002014/01/27            W41   0000
0074068801095399992014-01-27000000CARGO TRASPASO MISMA PLAZA CW 10000000007300.00MXP000000000408001462010202 99914         00000002014/01/27            W41   0000
0074068801095399992014-01-27000000CARGO TRASPASO MISMA PLAZA CW 10000000008000.00MXP000000000330902032013202 99938         00000002014/01/27            W41   0000
0074068801095399992014-01-27000000CARGO TRASPASO MISMA PLAZA CW 10000000008000.00MXP000000000330902032013202 99941         00000002014/01/27            W41   0000
0074068801095399992014-01-27000000CARGO TRASPASO MISMA PLAZA CW 10000000008271.20MXP000000000405402312012201 99950         00000002014/01/27            W41   0000
0074068801095399992014-01-27000000CARGO TRASPASO MISMA PLAZA CW 10000000009100.00MXP000000000405300472012202 99951         00000002014/01/27            W41   0000
0074068801095399992014-01-27000000CARGO TRASPASO MISMA PLAZA CW 10000000009642.00MXP000000000408001462010203 99913         00000002014/01/27            W41   0000
0074068801095399992014-01-27000000CARGO TRASPASO MISMA PLAZA CW 10000000010129.70MXP000000000330902692013203 99940         00000002014/01/27            W41   0000
0074068801095399992014-01-27000000CARGO TRASPASO MISMA PLAZA CW 10000000012000.00MXP000000000330501152013201 99942         00000002014/01/27            W41   0000
0074068801095399992014-01-27000000CARGO TRASPASO MISMA PLAZA CW 10000000012000.00MXP000000000405401752010201 99949         00000002014/01/27            W41   0000
0074068801095399992014-01-27000000CARGO TRASPASO MISMA PLAZA CW 10000000012000.00MXP000000000330502322012201 99943         00000002014/01/27            W41   0000
0074068801095399992014-01-27000000CARGO TRASPASO MISMA PLAZA CW 10000000014750.00MXP000000000408001462010202 99916         00000002014/01/27            W41   0000
0074068801095399992014-01-27000000CARGO TRASPASO MISMA PLAZA CW 10000000108900.00MXP000000000408001462010202 99912         00000002014/01/27            W41   0000
0074068801095399992014-01-27000000SALDO ULTIMA TRANS            20000001697821.03MXP000000000                              00000002014/01/27                  0000
0074068801095399992014-01-24249156CE09027004090000220141015132  00000000005500.00MXP000000000FAUSTINO SUAREZ RAMIREZ       00000002014/01/24            Y15   0000
0074068801095399992014-01-24248706CE09027004090000220141050873  00000000002000.00MXP000000000FAUSTINO SUAREZ RAMIREZ       00000002014/01/24            Y15   0000
0074068801095399992014-01-24248209CE09027004090000220141035486  00000000001000.00MXP000000000FAUSTINO SUAREZ RAMIREZ       00000002014/01/24            Y15   0000
0074068801095399992014-01-24244331CE09027004011039220131995484  00000000059208.10MXP000000000JUZGADO DE LO PENAL ATLIXCO, P00000002014/01/24            Y15   0000
0074068801095399992014-01-24243847CE09027004100000820141015136  00000000050000.00MXP000000000EVELIO COSME VAZQUEZ          00000002014/01/24            Y15   0000
0074068801095399992014-01-24243380CE09027004100000820141055488  00000000100000.00MXP000000000EVELIO COSME VAZQUEZ          00000002014/01/24            Y15   0000
0074068801095399992014-01-24241740CE09027004011000420141990872  00000000005000.00MXP000000000JUZGADO DE LO PENAL DE ATLIXCO00000002014/01/24            Y15   0000
0074068801095399992014-01-24240335CE09027004130000320141010879  00000000014000.00MXP000000000JOSE EMILIANO HERNANDEZ CEREZO00000002014/01/24            Y15   0000
0074068801095399992014-01-24239714CE09027004130000320141035132  00000000003069.00MXP000000000JOSE EMILIANO HERNANDEZ CEREZO00000002014/01/24            Y15   0000
0074068801095399992014-01-24163123CE09027004200000820141058068  00000000002000.00MXP000000000MANUEL BERNABE RODRIGUEZ      00000002014/01/24            Y15   0000
0074068801095399992014-01-24162343CE09027004200000820141053531  00000000003000.00MXP000000000MANUEL BERNABE RODRIGUEZ      00000002014/01/24            Y15   0000
0074068801095399992014-01-24161586CE09027004200000820141055775  00000000010000.00MXP000000000MANUEL BERNABE RODRIGUEZ      00000002014/01/24            Y15   0000
0074068801095399992014-01-24160907CE09027004200000820141056864  00000000015000.00MXP000000000MANUEL BERNABE RODRIGUEZ      00000002014/01/24            Y15   0000
0074068801095399992014-01-24160059CE09027004200000820141054356  00000000002000.00MXP000000000MANUEL BERNABE RODRIGUEZ      00000002014/01/24            Y15   0000
0074068801095399992014-01-24159183CE09027004200000820141053317  00000000003000.00MXP000000000MANUEL BERNABE RODRIGUEZ      00000002014/01/24            Y15   0000
0074068801095399992014-01-24158398CE09027004200000820141050875  00000000015000.00MXP000000000MANUEL BERNABE RODRIGUEZ      00000002014/01/24            Y15   0000
0074068801095399992014-01-24157613CE09027004200000820141055486  00000000020000.00MXP000000000MANUEL BERNABE RODRIGUEZ      00000002014/01/24            Y15   0000
0074068801095399992014-01-24156326CE09027004200000820141015134  00000000020000.00MXP000000000MANUEL BERNABE RODRIGUEZ      00000002014/01/24            Y15   0000
0074068801095399992014-01-24078035CE09027003501039920131055137  00000000002835.00MXP000000000JUAN PABLO TELLO BONILLA      00000002014/01/24            Y15   0000
0074068801095399992014-01-24044381CARGO CHEQUE                  10000000023885.88MXP000000000C000044381ECTIVO              00000002014/01/24            C03   0000
0074068801095399992014-01-24044380CARGO CHEQUE                  10000000007859.32MXP000000000C000044380ECTIVO              00000002014/01/24            C03   0000
0074068801095399992014-01-24044371CARGO CHEQUE                  10000000002000.00MXP000000000C000044371ECTIVO              00000002014/01/24            C03   0000
0074068801095399992014-01-24044366CARGO CHEQUE                  10000000004373.53MXP000000000C000044366ECTIVO              00000002014/01/24            C03   0000
0074068801095399992014-01-24044362CARGO CHEQUE                  10000000008505.00MXP000000000C000044362ECTIVO              00000002014/01/24            C03   0000
0074068801095399992014-01-24044358CARGO CHEQUE                  10000000053430.62MXP000000000C000044358 DE DEPOSITO:AIP900400000002014/01/24            C03   0000
0074068801095399992014-01-24044354CARGO CHEQUE                  10000000019300.00MXP000000000C000044354 DE DEPOSITO:MCO841100000002014/01/24            C03   0000
0074068801095399992014-01-24044352CARGO CHEQUE                  10000000023000.00MXP000000000C000044352ECTIVO              00000002014/01/24            C03   0000
0074068801095399992014-01-24044350CARGO CHEQUE                  10000000037468.00MXP000000000C000044350ECTIVO              00000002014/01/24            C03   0000
0074068801095399992014-01-24044349CARGO CHEQUE                  10000000015000.00MXP000000000C000044349ECTIVO              00000002014/01/24            C03   0000
0074068801095399992014-01-24044342CARGO CHEQUE                  10000000055042.00MXP000000000C000044342ECTIVO              00000002014/01/24            C03   0000
0074068801095399992014-01-24044336CARGO CHEQUE                  10000000035000.00MXP000000000C000044336 DE DEPOSITO:AIP900400000002014/01/24            C03   0000
0074068801095399992014-01-24044327CARGO CHEQUE                  10000000002597.50MXP000000000C000044327ECTIVO              00000002014/01/24            C03   0000
0074068801095399992014-01-24044325CARGO CHEQUE                  10000000025000.00MXP000000000C000044325 DE DEPOSITO:AIP900400000002014/01/24            C03   0000
0074068801095399992014-01-24044292CARGO CHEQUE                  10000000021969.00MXP000000000C000044292ECTIVO              00000002014/01/24            C03   0000
0074068801095399992014-01-24044291CARGO CHEQUE                  10000000021589.64MXP000000000C000044291ECTIVO              00000002014/01/24            C03   0000
0074068801095399992014-01-24044286CARGO CHEQUE                  10000000002463.62MXP000000000C000044286ECTIVO              00000002014/01/24            C03   0000
0074068801095399992014-01-24044168CARGO CHEQUE                  10000000255346.00MXP000000000C000044168 DE DEPOSITO:GCO960200000002014/01/24            C03   0000
0074068801095399992014-01-24044144CARGO CHEQUE                  10000000003925.00MXP000000000C000044144ECTIVO              00000002014/01/24            C03   0000
0074068801095399992014-01-24000000COMPRA FONDOS INVERSION       10000000781976.10MXP000000000OPERADO EN CANAL:  SUCU       00000002014/01/24            F01   0000
0074068801095399992014-01-24000000SALDO ULTIMA TRANS            20000001939338.23MXP000000000                              00000002014/01/24                  0000
0074068801095399992014-01-23467906CE09027004110021920131050871  00000000001181.60MXP000000000JOSE LUIS LOPEZ PEREZ         00000002014/01/23            Y15   0000
