0074068801095395302013-09-27032014CARGO CHEQUE                  10000000027910.50MXP000000000C000032014ECTIVO              00000002013/09/27            C03   0000
0074068801095395302013-09-27032012CARGO CHEQUE                  10000000003000.00MXP000000000C000032012ECTIVO              00000002013/09/27            C03   0000
0074068801095395302013-09-27032008CARGO CHEQUE                  10000000004800.00MXP000000000C000032008ECTIVO              00000002013/09/27            C03   0000
0074068801095395302013-09-27032006CARGO CHEQUE                  10000000001500.00MXP000000000C000032006ECTIVO              00000002013/09/27            C03   0000
0074068801095395302013-09-27031998CARGO CHEQUE                  10000000002100.00MXP000000000C000031998ECTIVO              00000002013/09/27            C03   0000
0074068801095395302013-09-27031996CARGO CHEQUE                  10000000006000.00MXP000000000C000031996ECTIVO              00000002013/09/27            C03   0000
0074068801095395302013-09-27031990CARGO CHEQUE                  10000000004000.00MXP000000000C000031990ECTIVO              00000002013/09/27            C03   0000
0074068801095395302013-09-27031985CARGO CHEQUE                  10000000004500.00MXP000000000C000031985ECTIVO              00000002013/09/27            C03   0000
0074068801095395302013-09-27031981CARGO CHEQUE                  10000000002363.20MXP000000000C000031981ECTIVO              00000002013/09/27            C03   0000
0074068801095395302013-09-27031975CARGO CHEQUE                  10000000003000.00MXP000000000C000031975ECTIVO              00000002013/09/27            C03   0000
0074068801095395302013-09-27031961CARGO CHEQUE                  10000000024000.00MXP000000000C000031961ECTIVO              00000002013/09/27            C03   0000
0074068801095395302013-09-27031950CARGO CHEQUE                  10000000003000.00MXP000000000C000031950ECTIVO              00000002013/09/27            C03   0000
0074068801095395302013-09-27031928CARGO CHEQUE                  10000000002552.00MXP000000000C000031928                    00000002013/09/27            C03   0000
0074068801095395302013-09-27031892CARGO CHEQUE                  10000000001181.60MXP000000000C000031892ECTIVO              00000002013/09/27            C03   0000
0074068801095395302013-09-27031884CARGO CHEQUE                  10000000012000.00MXP000000000C000031884                    00000002013/09/27            C03   0000
0074068801095395302013-09-27000000SALDO ULTIMA TRANS            20000012665040.38MXP000000000                              00000002013/09/27                  0000
0074068801095399992013-09-27162695CE09027004190005220131035481  00000000001182.00MXP000000000LEONARDO VALERIANO CRUZ       00000002013/09/27            Y15   0000
0074068801095399992013-09-27162364CE09027004190005220131015137  00000000006000.00MXP000000000LEONARDO VALERIANO CRUZ       00000002013/09/27            Y15   0000
0074068801095399992013-09-27129125CE09027004073016120131056864  00000000005000.00MXP000000000ANDRES LOPEZ CASTA#EDA        00000002013/09/27            Y15   0000
0074068801095399992013-09-27128522CE09027004073016120131014350  00000000008400.00MXP000000000ANDRES LOPEZ CASTA#EDA        00000002013/09/27            Y15   0000
0074068801095399992013-09-27124844CE09027004073016120131034358  00000000001300.00MXP000000000ANDRES LOPEZ CASTA#EDA        00000002013/09/27            Y15   0000
0074068801095399992013-09-27124497CE09027004073016120131013311  00000000008400.00MXP000000000ANDRES LOPEZ CASTA#EDA        00000002013/09/27            Y15   0000
0074068801095399992013-09-27124227CE09027004073016120131030877  00000000000310.00MXP000000000ANDRES LOPEZ CASTA#EDA        00000002013/09/27            Y15   0000
0074068801095399992013-09-27123872CE09027004073016120131015134  00000000010000.00MXP000000000ANDRES LOPEZ CASTA#EDA        00000002013/09/27            Y15   0000
0074068801095399992013-09-27123590CE09027004073016120131055775  00000000005000.00MXP000000000ANDRES LOPEZ CASTA#EDA        00000002013/09/27            Y15   0000
0074068801095399992013-09-27123245CE09027004073016120131036866  00000000001300.00MXP000000000ANDRES LOPEZ CASTA#EDA        00000002013/09/27            Y15   0000
0074068801095399992013-09-27122871CE09027004073016120131033319  00000000000310.00MXP000000000ANDRES LOPEZ CASTA#EDA        00000002013/09/27            Y15   0000
0074068801095399992013-09-27122523CE09027004073016120131015480  00000000010000.00MXP000000000ANDRES LOPEZ CASTA#EDA        00000002013/09/27            Y15   0000
0074068801095399992013-09-27109440CE09027004122009420111053319  00000000016000.00MXP000000000ARTURO SONNY GARCIA ROJAS     00000002013/09/27            Y15   0000
0074068801095399992013-09-27107852CE09027004122009420111010871  00000000008000.00MXP000000000ARTURO SONNY GARCIA ROJAS     00000002013/09/27            Y15   0000
0074068801095399992013-09-27107122CE09027004122009420111055777  00000000024850.00MXP000000000ARTURO SONNY GARCIA ROJAS     00000002013/09/27            Y15   0000
0074068801095399992013-09-27089466CE09027004071056420101050870  00000000000600.00MXP000000000ALEJANDRO TEPEPA PEREZ        00000002013/09/27            Y15   0000
0074068801095399992013-09-27043655CARGO CHEQUE                  10000000135000.00MXP000000000C000043655ECTIVO              00000002013/09/27            C03   0000
0074068801095399992013-09-27043626CARGO CHEQUE                  10000000001623.50MXP000000000C000043626ECTIVO              00000002013/09/27            C03   0000
0074068801095399992013-09-27043621CARGO CHEQUE                  10000000005670.00MXP000000000C000043621ECTIVO              00000002013/09/27            C03   0000
0074068801095399992013-09-27043564CARGO CHEQUE                  10000000049323.00MXP000000000C000043564                    00000002013/09/27            C03   0000
0074068801095399992013-09-27043563CARGO CHEQUE                  10000000026314.50MXP000000000C000043563ECTIVO              00000002013/09/27            C03   0000
0074068801095399992013-09-27043553CARGO CHEQUE                  10000000007600.00MXP000000000C000043553 DE DEPOSITO:MPU620600000002013/09/27            C03   0000
0074068801095399992013-09-27043518CARGO CHEQUE                  10000000009164.85MXP000000000C000043518ECTIVO              00000002013/09/27            C03   0000
0074068801095399992013-09-27043503CARGO CHEQUE                  10000000017495.50MXP000000000C000043503ECTIVO              00000002013/09/27            C03   0000
0074068801095399992013-09-27043401CARGO CHEQUE                  10000000001426.50MXP000000000C000043401ECTIVO              00000002013/09/27            C03   0000
0074068801095399992013-09-27000000VENTA FONDOS DE INVERSION     00000001000020.27MXP000000000OPERADO EN CANAL   SUCU       00000002013/09/27            F04   0000
0074068801095399992013-09-27000000CARGO TRASPASO MISMA PLAZA CW 10000000000571.20MXP000000000401102012007203 91            00000002013/09/27            W41   0000
0074068801095399992013-09-27000000CARGO TRASPASO MISMA PLAZA CW 10000000000817.05MXP000000000400000892011203 93            00000002013/09/27            W41   0000
0074068801095399992013-09-27000000CARGO TRASPASO MISMA PLAZA CW 10000000002479.50MXP000000000350101322013202 89            00000002013/09/27            W41   0000
0074068801095399992013-09-27000000CARGO TRASPASO MISMA PLAZA CW 10000000002857.25MXP000000000401100962011203 88            00000002013/09/27            W41   0000
0074068801095399992013-09-27000000CARGO TRASPASO MISMA PLAZA CW 10000000003150.00MXP000000000400000892011202 92            00000002013/09/27            W41   0000
0074068801095399992013-09-27000000CARGO TRASPASO MISMA PLAZA CW 10000000003952.80MXP000000000401102012007202 90            00000002013/09/27            W41   0000
0074068801095399992013-09-27000000CARGO TRASPASO MISMA PLAZA CW 10000000004085.25MXP000000000330600060012202 94            00000002013/09/27            W41   0000
0074068801095399992013-09-27000000CARGO TRASPASO MISMA PLAZA CW 10000000004642.75MXP000000000401100962011202 87            00000002013/09/27            W41   0000
0074068801095399992013-09-27000000SALDO ULTIMA TRANS            20000030377957.12MXP000000000                              00000002013/09/27                  0000
0074068801095402452013-09-27458985CE09026104040000120132994359  00000000005000.00MXP000000000JUZGADO PENAL DE CHIAUTLA     00000002013/09/27            Y15   0000
0074068801095402452013-09-27088808CE09026104071056420102035482  00000000016340.00MXP000000000ALEJANDRO TEPEPA PEREZ        00000002013/09/27            Y15   0000
0074068801095402452013-09-27000000ABONO TRASPASO MISMA PLAZA CW 00000000000571.20MXP000000000401102012007203 91            00000002013/09/27            W42   0000
0074068801095402452013-09-27000000ABONO TRASPASO MISMA PLAZA CW 00000000000817.05MXP000000000400000892011203 93            00000002013/09/27            W42   0000
0074068801095402452013-09-27000000ABONO TRASPASO MISMA PLAZA CW 00000000002479.50MXP000000000350101322013202 89            00000002013/09/27            W42   0000
0074068801095402452013-09-27000000ABONO TRASPASO MISMA PLAZA CW 00000000002857.25MXP000000000401100962011203 88            00000002013/09/27            W42   0000
0074068801095402452013-09-27000000ABONO TRASPASO MISMA PLAZA CW 00000000003150.00MXP000000000400000892011202 92            00000002013/09/27            W42   0000
0074068801095402452013-09-27000000ABONO TRASPASO MISMA PLAZA CW 00000000003952.80MXP000000000401102012007202 90            00000002013/09/27            W42   0000
0074068801095402452013-09-27000000ABONO TRASPASO MISMA PLAZA CW 00000000004085.25MXP000000000330600060012202 94            00000002013/09/27            W42   0000
0074068801095402452013-09-27000000ABONO TRASPASO MISMA PLAZA CW 00000000004642.75MXP000000000401100962011202 87            00000002013/09/27            W42   0000
0074068801095402452013-09-27000000SALDO ULTIMA TRANS            20000001992052.67MXP000000000                              00000002013/09/27                  0000
0074068801484718432013-09-27000000SALDO ULTIMA TRANS            20000000817028.62MXP000000000                              00000002013/09/25                  0000
0074068801906790892013-09-27000000SALDO ULTIMA TRANS            20000000000000.00MXP000000000                              00000002013/01/16                  0000
0074068801907543312013-09-27104008SPEI ENVIADO                  10000000002800.00MXP0000000002709138MEMO 65                00000002013/09/27            T17   0000
0074068801907543312013-09-27000058DEPOSITO EFECTIVO/CHEQUE      00000000001171.00MXP0000000000000588                       00000002013/09/27            C02   0000
0074068801907543312013-09-27000058DEPOSITO EFECTIVO/CHEQUE      00000000001633.00MXP0000000000000587                       00000002013/09/27            C02   0000
0074068801907543312013-09-27000000SALDO ULTIMA TRANS            20000000001391.83MXP000000000                              00000002013/09/27                  0000
0074068801907600642013-09-27000061DEPOSITO EFECTIVO/CHEQUE      00000000001860.00MXP0000000000000611                       00000002013/09/27            C02   0000
0074068801907600642013-09-27000000SEP27 18:41 PRAC      5650 FOL00000000003512.00MXP000000000      0064     DEPOSITO EFECTI00000002013/09/27            TIC   0000
0074068801907600642013-09-27000000SEP27 18:43 PRAC      5650 FOL00000000003550.00MXP000000000      0064     DEPOSITO EFECTI00000002013/09/27            TIC   0000
0074068801907600642013-09-27000000SALDO ULTIMA TRANS            20000001302562.76MXP000000000                              00000002013/09/27                  0000
0074068801919963982013-09-27000000SALDO ULTIMA TRANS            20000000000200.01MXP000000000                              00000002013/02/26                  0000
0074068801921090692013-09-27194245SPEI ENVIADO                  10000000037500.00MXP0000000002709138REV CAUDALES PUBLICOS  00000002013/09/27            T17   0000
0074068801921090692013-09-27191143SPEI ENVIADO                  10000000006216.00MXP0000000002709138JUAN CARLOS MALDONADO  00000002013/09/27            T17   0000
0074068801921090692013-09-27101796SPEI ENVIADO                  10000000006432.47MXP0000000002709138ADQ MATERIAL ELECTRICO 00000002013/09/27            T17   0000
0074068801921090692013-09-27098449SPEI ENVIADO                  10000000138214.00MXP0000000002709138REMANUFACTURA CARTUCHOS00000002013/09/27            T17   0000
0074068801921090692013-09-27097478SPEI ENVIADO                  10000000050864.12MXP00000000027091385627 Y 5628 ARREND JUZG00000002013/09/27            T17   0000
0074068801921090692013-09-27096371SPEI ENVIADO                  10000000008976.00MXP0000000002709138ARREND JUZG ATLIXCO    00000002013/09/27            T17   0000
0074068801921090692013-09-27000036CARGO CHEQUE                  10000000002410.95MXP000000000C000000036ECTIVO              00000002013/09/27            C03   0000
0074068801921090692013-09-27000033CARGO CHEQUE                  10000000025767.74MXP000000000C000000033ECTIVO              00000002013/09/27            C03   0000
0074068801921090692013-09-27000000PAGO A TERCEROS MISMA PLAZA CW10000000011002.80MXP000000000ARREND JUZG ZACAPOAXTLA       00000002013/09/27            W01   0000
0074068801921090692013-09-27000000PAGO A TERCEROS MISMA PLAZA CW10000000016960.00MXP000000000ARREND JUZG TEPEXI            00000002013/09/27            W01   0000
0074068801921090692013-09-27000000SALDO ULTIMA TRANS            20000000205744.32MXP000000000                              00000002013/09/27                  0000
0074068801939877442013-09-27492270CE197282111106642012001ESC95  00000000066805.86MXP000000000823855                        00000002013/09/27            Y05   0000
0074068801939877442013-09-27486732CE197282220104282013001ESC95  00000000002289.00MXP000000000833858                        00000002013/09/27            Y15   0000
0074068801939877442013-09-27486077CE197282110700442009001ESC95  00000000004723.00MXP000000000832864                        00000002013/09/27            Y15   0000
0074068801939877442013-09-27476514CE197282220602992010001ESC95  00000000001841.40MXP000000000836801                        00000002013/09/27            Y15   0000
0074068801939877442013-09-27435938CE197282220300582010002ESC95  00000000001181.60MXP000000000839808                        00000002013/09/27            Y15   0000
0074068801939877442013-09-27187242CE197282220613902011001ESC95  00000000000500.00MXP000000000835827                        00000002013/09/27            Y15   0000
0074068801939877442013-09-27064836CE197282220212332004001ESC95  00000000002095.50MXP000000000835830                        00000002013/09/27            Y15   0000
0074068801939877442013-09-27010430CE197282110711152012001ESC95  00000000012175.42MXP000000000792851                        00000002013/09/27            Y05   0000
0074068801939877442013-09-27007812CE197282111104522011002ESC95  00000000450000.00MXP000000000837849                        00000002013/09/27            Y15   0000
0074068801939877442013-09-27003038CE197282220100212013001ESC95  00000000001000.00MXP000000000831859                        00000002013/09/27            Y15   0000
0074068801939877442013-09-27000000SALDO ULTIMA TRANS            20000002486317.95MXP000000000                              00000002013/09/27                  0000
0074068801939888482013-09-27497110CE198769330701852013003ESC95  00000000007900.00MXP000000000834831                        00000002013/09/27            Y15   0000
0074068801939888482013-09-27496478CE198769330701852013002ESC95  00000000007365.60MXP000000000831866                        00000002013/09/27            Y15   0000
0074068801939888482013-09-27495892CE198769330701852013001ESC95  00000000020000.00MXP000000000834882                        00000002013/09/27            Y15   0000
0074068801939888482013-09-27205931CE198769330103952013002ESC95  00000000080000.00MXP000000000836823                        00000002013/09/27            Y15   0000
0074068801939888482013-09-27205551CE198769330103952013003ESC95  00000000060000.00MXP000000000832891                        00000002013/09/27            Y15   0000
0074068801939888482013-09-27205130CE198769330103952013001ESC95  00000000060000.00MXP000000000832845                        00000002013/09/27            Y15   0000
0074068801939888482013-09-27174089CE198769330303962013002ESC95  00000000000600.00MXP000000000838884                        00000002013/09/27            Y15   0000
0074068801939888482013-09-27173508CE198769330303962013001ESC95  00000000021200.00MXP000000000831867                        00000002013/09/27            Y15   0000
0074068801939888482013-09-27165018CE198769330704522009003ESC95  00000000004989.80MXP000000000830829                        00000002013/09/27            Y15   0000
0074068801939888482013-09-27164447CE198769330704522009004ESC95  00000000000103.90MXP000000000833891                        00000002013/09/27            Y15   0000
0074068801939888482013-09-27162081CE198769330704522009001ESC95  00000000004989.80MXP000000000830880                        00000002013/09/27            Y15   0000
0074068801939888482013-09-27161461CE198769330704522009002ESC95  00000000000103.90MXP000000000833845                        00000002013/09/27            Y15   0000
0074068801939888482013-09-27011922CE198769330403542013002ESC95  00000000006132.00MXP000000000832820                        00000002013/09/27            Y15   0000
0074068801939888482013-09-27011028CE198769330403542013001ESC95  00000000005000.00MXP000000000835836                        00000002013/09/27            Y15   0000
0074068801939888482013-09-27000000SALDO ULTIMA TRANS            20000000559694.72MXP000000000                              00000002013/09/27                  0000
